:1000000000560020B16C0000116C0000216C000053
:10001000396C0000516C0000696C000000000000A9
:10002000000000000000000000000000816C0000E3
:10003000916C000000000000A16C0000996D0000B0
:10004000F96B00000000000000000000D51801005E
:1000500011180100811801000000000000000000DC
:10006000954C000059F9000039F900004D190100C4
:100070000000000000000000000000006D190100F9
:100080002DE9F843054689464FF00108154E164CF8
:10009000164F12E0236943F00403236187F832808E
:1000A000BFF34F8F00BF30BF87F83200236923F0C2
:1000B00004032361BFF34F8F62B600F01DF872B6E0
:1000C000735D33B900F014F80028E3D000BF30BFEF
:1000D000F2E700237355B9F1000F00D0C84762B6AC
:1000E000BDE8F8838422002000ED00E000001050FD
:1000F0005FF800F0C54B00005FF800F0B9FC0000AD
:10010000FFFFFFFFFFFFFFFFFFFFFFFFFFFFFFFFFF
:10011000FFFFFFFFFFFFFFFFFFFFFFFFFFFFFFFFEF
:10012000FFFFFFFFFFFFFFFFFFFFFFFFFFFFFFFFDF
:10013000FFFFFFFFFFFFFFFFFFFFFFFFFFFFFFFFCF
:10014000FFFFFFFFFFFFFFFFFFFFFFFFFFFFFFFFBF
:10015000FFFFFFFFFFFFFFFFFFFFFFFFFFFFFFFFAF
:10016000FFFFFFFFFFFFFFFFFFFFFFFFFFFFFFFF9F
:10017000FFFFFFFFFFFFFFFFFFFFFFFFFFFFFFFF8F
:10018000FFFFFFFFFFFFFFFFFFFFFFFFFFFFFFFF7F
:10019000FFFFFFFFFFFFFFFFFFFFFFFFFFFFFFFF6F
:1001A000FFFFFFFFFFFFFFFFFFFFFFFFFFFFFFFF5F
:1001B000FFFFFFFFFFFFFFFFFFFFFFFFFFFFFFFF4F
:1001C000FFFFFFFFFFFFFFFFFFFFFFFFFFFFFFFF3F
:1001D000FFFFFFFFFFFFFFFFFFFFFFFFFFFFFFFF2F
:1001E000FFFFFFFFFFFFFFFFFFFFFFFFFFFFFFFF1F
:1001F000FFFFFFFFFFFFFFFFFFFFFFFFFFFFFFFF0F
:10020000FFFFFFFFFFFFFFFFFFFFFFFFFFFFFFFFFE
:10021000FFFFFFFFFFFFFFFFFFFFFFFFFFFFFFFFEE
:10022000FFFFFFFFFFFFFFFFFFFFFFFFFFFFFFFFDE
:10023000FFFFFFFFFFFFFFFFFFFFFFFFFFFFFFFFCE
:10024000FFFFFFFFFFFFFFFFFFFFFFFFFFFFFFFFBE
:10025000FFFFFFFFFFFFFFFFFFFFFFFFFFFFFFFFAE
:10026000FFFFFFFFFFFFFFFFFFFFFFFFFFFFFFFF9E
:10027000FFFFFFFFFFFFFFFFFFFFFFFFFFFFFFFF8E
:10028000704700BF034613F8012B002AFBD1181A50
:10029000013870470048704720D50100332070476F
:1002A0000220704708B506F025FC08BD08B506F029
:1002B0009FFC43690148984708BD00BF20D5010055
:1002C00010B50C4611461A46012807D010B1022875
:1002D0000BD010BDE0B200F041F8FAE7BDF80830ED
:1002E000C9B2E0B200F07CF8F3E7E0B200F02AF91E
:1002F000EFE700BF044B00229A80DA805A819A818E
:10030000B4221A81704700BF88230020014B18785F
:10031000704700BF8823002010B40446034B0FCB66
:1003200084E80F00204610BC704700BF8C230020DB
:1003300082B0094B5B690020DAB262F30700C3F3B5
:10034000072262F30F20C3F3074262F317401B0E2C
:1003500063F31F6002B070478823002010B5044685
:100360001D4B1B7813F0030F02D010F00C0F15D1AA
:1003700014F0030F1CD113F0080F02D014F0040F77
:1003800022D113F0040F15D014F0080F12D0124B25
:1003900000229A80DA80B4221A810BE006F0AAFBD0
:1003A00002690D4B1A61FFF7A5FF00F001F901E0AA
:1003B000FFF7A0FF084B1C70084C204600F05AFEC7
:1003C000204600F023FB10BD034B00229A80DA8008
:1003D000B4221A81EEE700BF8823002028D501004F
:1003E00010B5044600F06EFF042C00D010BDFFF7DE
:1003F0008DFF10F00C0F05D000F075FF4368984793
:1004000000F0E0F84B4C204600F082FE204600F061
:10041000A3FB494B1A78042A37D0082A4AD0464B06
:100420005B89B3F5616F05D3434B002159819989ED
:1004300001319981404B99894EF66023994251D000
:100440003D4BD9884EF6602399424FD03A4B99885C
:100450004EF6602399424DD012F0080FC6D000F03E
:1004600042FF4368984703689847002846D1324BBB
:100470001B7813F0080FB9D02E4800F083FE002837
:1004800048D02D4BB4221A81B0E72B49CB880133D9
:100490009BB2CB802949A1FB0301490901EB8101F2
:1004A000A3EBC1039BB2002BB9D123494B89013384
:1004B0004B81B4E720490B89013B0B818B880133C9
:1004C0009BB28B801E49A1FB03014909C1EB0111BD
:1004D000A3EB81039BB2002BA1D117494B890133B8
:1004E0004B819CE7144B00219981A9E7124B002115
:1004F000D980ABE7104B00219980ADE700F0F3FE07
:100500004368984700F08FFD0128B0D10A4BB42210
:100510001A81ACE7084B1B7813F0080F3FF466AF65
:10052000054B1B89002B7FF461AF06F061FB03686C
:1005300098475BE728D5010088230020CDCCCCCCA0
:100540008988888810B5062819D8DFE800F01904D2
:100550001D201823260006F0CDFA044606F048FBBD
:10056000C3684FF48062002120469847FFF7C2FE1F
:100570000D4800F07FFD04F1F00000F034FA10BDEA
:10058000094800F09BFDFAE7084B1975F7E7074BA0
:100590005975F4E7054B9975F1E7044BD975024895
:1005A00000F068FDEBE700BF28D50100882300209C
:1005B00008B588220021024819F0DDF808BD00BF07
:1005C000A02300202DE9F04F85B0824600229249F9
:1005D00011F832306FF3C71301F8323001EBC20368
:1005E00058786FF3C710587098786FF3C7109870E9
:1005F000D8786FF3C710D87018796FF3C7101871D7
:1006000058796FF3C710587198796FF3C7109871C4
:10061000D8796FF3C710D8710132112AD8D1DAF81E
:100620000030984703900023029345E04FF0010803
:100630004FF0140CB5423AD801974FF04C093346AD
:10064000464698462BE04FF001084FF0140CF1E7B6
:10065000425C42F08002425402F07F0202EB0C0B3B
:10066000BBF14C0F0FDD425C69F3060242540133CB
:100670009BB29C420FD319461EF80320D209E7D043
:10068000002EF4D0E4E7624410F801B062F3060BE8
:1006900000F801B0EBE70135ADB2A84507D3A7429A
:1006A000F9D8019B5C4A02EBC50E7046E3E7029B5A
:1006B000013302930A2B66D09DF80880DAF82830BF
:1006C00040469847012805D0DAF828304046984738
:1006D0000228ECD1DAF80C30404698478146DAF827
:1006E000103040469847834600EB00134B4A82FB8C
:1006F0000312DE17C6EB22264FEAC903484A82FBE3
:1007000003271F44DB17C3EBA727DAF8183040464E
:100710009847DAF8083040469847002814BF11245B
:100720000424B6B2351B25EAE575ADB22644102E79
:10073000A8BF1026B6B2BBB21F1B27EAE777BFB22D
:100740001C44072CA8BF0724A4B2DAF8083040469E
:100750009847A9F141091FFA89F940F2B633994542
:100760003FF664AFBBF1B90F7FF66DAF002814BF41
:100770004FF0140C4FF0010C002814BF4FF001088B
:100780004FF0000856E70026234F1FE0043AE55CCF
:1007900062F30605E55404E0013AE55C62F3060500
:1007A000E5540133082B0ED0C25CD209F9D1C25CEA
:1007B00002F07F02122AEFD8032AE7D8E25C6FF337
:1007C0000602E254EDE70136112E04D0002307EBB8
:1007D000C6000446E8E7039B1BB1002421460E4DEA
:1007E00005E0FFF7E5FEF8E70134112C0DD00023FA
:1007F00005EBC400C25C02F07F02092A84BF01310C
:1008000089B20133082BF5D1EEE7034BA3F888102A
:1008100005B0BDE8F08F00BFA0230020B5814E1BBE
:1008200049D6B9F22DE9F04F83B00646019114463E
:100830000368984770B13E4A92F88A30013382F8D3
:100840008A30A146002C5ED00027B8469346DFF8D8
:10085000E8A037E0FFF7ACFE4FF00008019B83F8FB
:10086000008055E0F3682046984740B3336920463E
:10087000984720B3F36820469847054633692046D9
:10088000984700EB00108AFB0023C017C0EB232021
:1008900080B2ED00274B83FB05232B44ED17C5EBFE
:1008A000A325ADB20BEBC000435D03F07F03122B19
:1008B00005D808F101085FFA88F8019B1C70013720
:1008C0004F4510D0FCB2B36A204698470128C9D0E2
:1008D000B36A204698470228C4D0B36A2046984796
:1008E0000328ECD1BEE7B8F1000F0CD0104BB3F8E1
:1008F0008830442B10D8B8F1010F09D012D9002349
:10090000019A137004E04FF00008019B83F8008007
:10091000404603B0BDE8F08F4FF00008019B83F81C
:100920000080F5E74FF00008019B83F80080EFE7B7
:10093000A023002049D6B9F2B5814E1B431E9BB2BD
:100940004FF6FD7293421BD84B1E9BB2934219D8AF
:1009500001EB01110C4B83FB0131090AC0000B4B69
:1009600083FB00231844C0F38F20094B03EBC10124
:10097000085C00F07F0013288CBF00200120704726
:100980000120704701207047B5814E1B49D6B9F24E
:10099000A0230020F8B506460F4C2568238903EBF9
:1009A00083035B00F4336B8006F022F9043523895E
:1009B00003EB830307690A22314605EB4300B8477E
:1009C000238901339BB22381226852789A4201D84D
:1009D00000222281F8BD00BF2C240020704708B5FA
:1009E000FFF7D8FF08BD10B5044606F001F9C3684B
:1009F0004FF44472002120469847034B1C60462365
:100A000063700A23237010BD2C24002030B5A5B0DC
:100A10000446436898474F4B1B7913F0030F09D0E6
:100A2000A368984710F0080F21D1A368984710F0E9
:100A3000040F1CD1474B1B7913F00C0F09D0A3688E
:100A4000984710F0020F41D1A368984710F0010FAA
:100A50003CD1A36898473F4D2871E36804A89847A4
:100A6000BDF81830EB8000236B8125B030BD002528
:100A700001950295ADF80C5006F0BAF8C3680A2249
:100A8000294601A898479DF80430022262F3020328
:100A90008DF80430E36810A89847BDF80430BDF81D
:100AA000462062F30F13ADF80430E3680CA89847B2
:100AB000BDF83E30ADF80630E36808A898470B9BB8
:100AC000ADF8083001A8FFF765FFB3E700250195F1
:100AD0000295ADF80C5006F08BF8C3680A2229463F
:100AE00001A898479DF80430032262F302038DF8B1
:100AF000043063689847BDF80430028862F30B1332
:100B0000ADF80430134A52891209C3F3072362F384
:100B100007138DF80530E36820A89847BDF88230A8
:100B2000ADF80630E3681CA89847BDF87030ADF802
:100B30000830E36818A89847BDF86E30ADF80A3061
:100B4000E36814A89847179BADF80C3001A8FFF78D
:100B500021FF7EE72C2400202DE9F04FA9B00546A7
:100B600043689847AB68984710F0080F04D1AB680A
:100B7000984710F0040F39D02B689847436898477E
:100B8000044600F050FA80B12B68984743689847B4
:100B90008146002705970697ADF81C7002460A218A
:100BA00005A800F02CFAB846D3E0204600F03FFA42
:100BB0000028E9D16B689847B0F86030002B40F00E
:100BC0005781AA4BDC880134EB6818A89847BDF818
:100BD00068309C4200F0BB81EB680FA89847A34B9C
:100BE000BDF84420DA805A8901325A8129B0BDE823
:100BF000F08FF368204698473369204698472B6862
:100C0000984743689847834600F019FAB0F1000A04
:100C1000C0F228816B689847C388ADF80C306B68C8
:100C200098470389ADF80E306B6898474388BDF844
:100C30000C201344ADF810306B6898478388BDF8DA
:100C40000E201344ADF812305FFA8AFADBF80C304C
:100C5000504698470190DBF810305046984703AA59
:100C60000146019800F0A4F9002840F0FD804FF4FF
:100C7000C973ADF80C3040F66A03ADF80E3040F29F
:100C8000A623ADF8103040F62413ADF81230DBF88F
:100C90000C30504698470190DBF81030504698478A
:100CA00003AA0146019800F083F9003018BF012023
:100CB0009DF8263060F345138DF826306B68984711
:100CC00090F86330C3F302039DF8282063F3020217
:100CD0008DF828206B68984790F86230C3F30203C0
:100CE000BDF8282063F38812ADF82820B3682046A9
:100CF00098479DF8293060F382038DF82930B36955
:100D0000204698471F2828BF1F20BDF8263060F3D3
:100D10008A13ADF82630F369204698471F2828BF6C
:100D20001F209DF8273060F3C7038DF82730336A02
:100D300020469847C0F38F001F2828BF1F209DF82A
:100D4000293060F3C7038DF8293008A8FFF722FE89
:100D50000137D9F800309847FBB28342BFF42AAF7D
:100D6000FBB228AA134413F88C4CCDF82080CDF8A0
:100D70002480ADF82880D9F82830204698470128EB
:100D800005D0D9F82830204698470328E0D12B68B1
:100D90009847436898470646EB680BA89847BDF804
:100DA00030A005F025FFC3680A22414608A89847ED
:100DB0009DF820306FF302038DF82030B36A20468F
:100DC0009847012814BF002001209DF8203060F3CF
:100DD000C3038DF82030BDF82030BDF8322062F317
:100DE0000F13ADF820304FEA1A129DF8223062F34B
:100DF00003038DF822309DF824306AF303038DF845
:100E00002430F36820469847BDF8223060F30F1372
:100E1000ADF82230336920469847BDF8243060F39E
:100E20000F13ADF824302B69984713909DF82630A6
:100E3000C0B260F301038DF82630736A20469847EC
:100E40009DF8263060F383038DF8263003F00C0301
:100E50000C2B7FF4CEAE9DF8263043F00C038DF8BA
:100E60002630C6E6404623E7012021E72C24002057
:100E700000230B930C93ADF834302B6898474368EC
:100E80009847064600F0DBF8041E4FDB05F0B0FE85
:100E9000C3680A2200210BA898479DF82C30012234
:100EA00062F302038DF82C30EB6814A89847BDF864
:100EB0002C30BDF8562062F30F13ADF82C306B6860
:100EC000984790F8603013F0020F3AD16B6898475A
:100ED00090F8603013F0040F35D16B68984790F8A4
:100EE000603013F0080F30D16B68984790F860308D
:100EF00013F0100F14BF062200229DF82E3062F36B
:100F000003038DF82E30E4B2F36820469847BDF80D
:100F10002E3060F30F13ADF82E303369204698471A
:100F2000BDF8303060F30F13ADF830300BA8FFF789
:100F300031FD6B6898470023A0F860301B4A53814D
:100F40003FE60122D9E70422D7E70522D5E70024AE
:100F50000B940C94ADF8344005F04AFEC3680A22A5
:100F600021460BA898479DF82C30042262F3020317
:100F70008DF82C30EB6824A89847BDF82C30BDF8CC
:100F8000962062F30F13ADF82C30EB6820A8984739
:100F9000BDF88E30ADF82E30EB681CA898471F9B2B
:100FA000ADF830300BA8FFF7F5FC15E62C24002037
:100FB000134672B1128882420DD89A8882420CD3AD
:100FC000DA888A420BD3588888428CBF00200120DF
:100FD00070470020704700207047002070470020B5
:100FE000704710B50446084611460023224600F01B
:100FF000BBF90021204600F0E4F9C0B210BD08B5ED
:10100000002300F0B1F908BD08B500F0ADF908BD46
:1010100008B5002100F0D5F9C0B208BD08B500F050
:10102000D0F9C0B208BD08B500F076F908BD08B522
:1010300000F086F908BD08B500F05AF908BD08B5FA
:1010400000F0E6F908BD000010B543689847048831
:10105000003418BF012405F0CBFD8368224603212C
:101060000220984705F0C4FD83682246032104202E
:10107000984710BDF8B507460F4B1B68BBB100245D
:1010800025460D4E56F8253053B156F82530984771
:1010900003682BB156F825309847036838469847BF
:1010A0000134E4B2254656F82430002BEAD1384604
:1010B000FFF7CAFFF8BD00BFC00F0020F8B5074614
:1010C000124B1B68F3B100242546104E56F825300C
:1010D0008BB156F82530984743683846984750B149
:1010E00056F825309847C3682BB156F825309847F5
:1010F000C368384698470134E4B2254656F8243090
:10110000002BE3D13846FFF79FFFF8BDC00F00204A
:101110002DE9F04107461A4B1B68002B2DD0002407
:101120002646174D05E00134E4B2264655F8243032
:101130001BB355F82630002BF5D055F826309847CC
:101140004368384698470028EDD055F82630984730
:1011500090F81480BB68984718EA000FE3D055F860
:10116000263098478368002BDDD055F82630984705
:101170008368384698470028D5D0BDE8F08100BF85
:10118000C00F00202DE9F04107461C4B1B68002BC7
:1011900032D000242646194D05E00134E4B226463B
:1011A00055F824302BB355F82630002BF5D055F8E0
:1011B000263098474368384698470028EDD055F8C0
:1011C0002630984790F81480BB68984718EA000FBB
:1011D000E3D055F8263098470369002BDDD055F849
:1011E000263098470369384698470028D5D0012013
:1011F00000E00020BDE8F0810020FBE7C00F0020E8
:1012000008B5436898470078C0F3400008BD7047B0
:1012100030B587B00446036898474368984702464C
:101220001F4903A800F0CFFE9DF8153013F0020F00
:101230002ED0BDF80C30CD3B9BB240F29D229342A4
:1012400029D8BDF80E2040F6B7039A4225D99DF85B
:101250001430043BDBB2382B01D9002019E0002305
:10126000019302934FF00203012565F387138DF874
:10127000043005F0BDFC436801A8984763689847AF
:1012800090F8603043F0020380F86030284600E0B8
:10129000002007B030BD0020FBE70020F9E700BFC9
:1012A0003824002008B540F2371354223E2102486A
:1012B00000F074FE08BD00BF3824002000487047CD
:1012C0003CD5010010B51446012802D0022805D0F3
:1012D00010BD1A46204601F043F8F9E719461046BA
:1012E00000F0FCFFF4E70148704700BF54D501004F
:1012F00038B505460368984748B10024AB68E0B2AA
:101300009847034630B901340A2CF7D100E0002396
:10131000184638BD0123FBE738B5054603689847F2
:1013200050B10024AB6AE0B29847012806D00134DE
:101330000A2CF7D1002000E0002038BD0120FCE796
:1013400038B505460368984750B10024AB6AE0B24F
:101350009847032806D001340A2CF7D1002000E07A
:10136000002038BD0120FCE72DE9F84F8246894670
:101370001646984600252F4609E07B1CDBB20AF88A
:1013800007404B451BD01F4601350A2D17D0ECB244
:10139000B36A204698470028F6D0F368204698475D
:1013A0008346336920469847B8F1000FE5D042469E
:1013B00001465846FFF7FCFD0028DED1E4E7BDE812
:1013C000F88F2DE9F843074688460024264604E0B6
:1013D0000136F6B201340A2C17D0E5B2BB6A2846B2
:1013E00098470028F6D0FB682846984781463B6915
:1013F00028469847B8F1000FEAD0424601464846D1
:10140000FFF7D6FD0028E3D1E4E770B2BDE8F8832A
:1014100038B505460368984760B10024AB6AE0B26E
:10142000984728B901340A2CF8D14FF0FF3038BD65
:1014300060B2FCE74FF0FF30F9E7000008B5436801
:1014400098470078C0F3C00008BD064B41221A80BF
:10145000BA225A8040F2F7329A8040F6A602DA8029
:10146000704700BF54240020F0B585B005460368DE
:101470009847436898470246204902A800F063FC59
:101480009DF80830022B03D00024204605B0F0BDA3
:10149000BDF80A70BDF80C60194A31463846FFF7AE
:1014A00087FD04460028F0D00023009301934FF0FD
:1014B0000203042262F38503012464F387138DF889
:1014C000003047FA02F38DF8023046FA02F38DF845
:1014D000033006F00F0646EA07168DF8046005F0A3
:1014E00087FB4368684698476B68984790F8603078
:1014F00043F0080380F86030C7E700BF5C24002099
:101500005424002010B584B00D4C0E2303935D23AA
:1015100002931E230193022200921223012104F15F
:10152000080000F0E9FB41232380BA23638040F2E6
:10153000F733A38040F6A603E38004B010BD00BFDC
:1015400054240020004870475CD5010008B543686A
:101550009847037813F0240F14BF0120002008BD22
:1015600038B543689847C5880489418829448288EA
:101570002244034B5D809C80D9801A8138BD00BF16
:10158000882400202DE9F04784B0804643689847BE
:101590000378C3F38009C3F34017D8F800309847A5
:1015A000436898473C4E024606F1140102A800F039
:1015B000CAFB9DF808A0BDF80A50BDF80C40B21C4B
:1015C00021462846FFF7F4FC30BB06F10A0221460B
:1015D0002846FFF7EDFC034600285AD1184604B010
:1015E000BDE8F0872C4B1A700023F7E71FB32A4B96
:1015F0001B78012B1FD00023F0E7D8F80430984760
:1016000090F8603043F0040380F860300123E5E790
:101610000023E3E70023E1E70022BAF1010FE1D064
:10162000BAF1020FF4D1B9F1000FDFD01FB91A4B94
:101630001B78002BEED1002301934FF0020301220F
:1016400062F3850362F387138DF80030124E33780E
:101650008DF801302B118DF8023023118DF80330F5
:1016600004F00F0444EA05158DF8045005F0C0FAA3
:101670004368684698473378002BBED0D8F80430CA
:10168000984790F8603043F0200380F860300123E1
:10169000A4E70122C1E700BF8824002030B587B04D
:1016A0000546036998470590030E1FD1254C0A2370
:1016B00003935D23029324230193052300931223B4
:1016C0000222114604F1140000F016FB6B689847E3
:1016D000C588018942882A4483880B446580A1809B
:1016E000E2802381BA2140F6A6021FE0154C0A23AE
:1016F0000393662302932423019307230093122369
:101700000322022104F1140000F0F6FA6B689847F6
:10171000C588018942882A4483880B446580A1805A
:10172000E280238140F2864140F69E02054B412033
:101730005881998140F2F731D9811A8200221A70BA
:1017400007B030BD882400200048704774D50100E0
:1017500070B50646002425467368984720444576B0
:1017600001341C2CF8D170BDF8B503689847436864
:10177000984705460C4CC368A07A984706462B69E3
:10178000A07A98470746AB6AA07A9847022801D00A
:101790000020F8BD04F1140239463046FFF708FC7A
:1017A000003018BF0120F4E7C824002038B50446F3
:1017B00043689847037D012B0CBF01210321244876
:1017C00000F0CBFC63689847B0F84B4040F2A91397
:1017D000002C18BF23461E4A9382B0F84D1040F2E9
:1017E000E173002918BF0B46D382B0F84F2040F2B6
:1017F0008F23002A18BF1346154D2B83B0F85130A4
:1018000040F6C700002B18BF184668839CB14E3CB9
:10181000A4B20F48848389B14E3989B20C48C18380
:101820007AB14E3292B20A490A846BB14E339BB2FE
:10183000074A538438BD40F25B14EAE740F29371E3
:10184000ECE740F2DD22EEE740F61513F0E700BFCB
:10185000C82400202DE9F04F8DB006460368984754
:10186000436898470446924901F11403024609A8C7
:1018700000F082FCBDF824300093BDF826A09DF84E
:101880002D509DF82EB0BBF1010F13D0884B93F86B
:101890002430012B40F00981A36A28469847032889
:1018A0000DD060B102283DD0BBF1010F00F0C18026
:1018B000002433E07E4B012283F82420ECE77C4BAC
:1018C000002483F8244083F825403046FFF740FF8A
:1018D0000394022343F00C02012464F387128DF871
:1018E00008208DF80930009A13118DF80A304FEA5C
:1018F0002A138DF80B300AF00F0A4AEA021A8DF803
:101900000CA005F075F9436802A8984773689847DA
:1019100090F8603043F0100380F8603020460DB03E
:10192000BDE8F08F624B93F82530002BBCD1E36803
:101930002846984707462369284698475D4A014646
:101940003846FFF735FB60BB0121594B83F8251062
:10195000002303934FF00203032262F3850361F334
:1019600087138DF808308DF80920009A13118DF82F
:101970000A304FEA2A138DF80B300AF00F0343EABE
:1019800002138DF80C3005F033F9436802A898472C
:101990007368984790F8603043F0100380F8603027
:1019A00082E7002702970397049705970697079702
:1019B000089714234FF00109CDF804A09A4624E0BB
:1019C0000135102D19D07C19A4B2336898470368EB
:1019D0000320984703684146E8B298477D28EFDD29
:1019E0000CAB03EBD40304F0070409FA04F413F876
:1019F000282C144303F8284CE2E71037BFB20AF151
:101A0000010A1FFA8AFAE02F03D000255FFA8AF84C
:101A1000D9E7DDF804A002AF0DF124083C46E51B30
:101A20007368984714F8013B28444376A045F6D1E3
:101A30003AE7214ABDF82A10BDF82800FFF7B8FAA6
:101A4000044600283FF46AAF73689847027D012A74
:101A500014BF00220122002303934FF0020303214D
:101A600061F38503012464F387138DF808308DF842
:101A70000920009A13118DF80A304FEA2A138DF8C5
:101A80000B300AF00F0343EA02138DF80C3005F017
:101A9000AFF8436802A898477368984790F8603099
:101AA00043F0100380F8603038E7002436E700BFC9
:101AB000C8240020E4240020DC24002010B5436862
:101AC00098470478C4F300140CB9204610BD05F003
:101AD0008FF883680122032110469847F5E770B517
:101AE000044643689847037D012B114E4FF04E0387
:101AF0000CBF012203221946304600F030FB0025BE
:101B000086F8245086F825502046FFF721FE6368AA
:101B1000984710234375636898470E23837563685D
:101B200098471C23C37563689847057670BD00BF4E
:101B3000C8240020004870478CD5010010B5044629
:101B4000C28A038A9A4202D901234375837494F8A6
:101B50002530012B0FD0227D0A4B53F8223020462E
:101B6000984701280CD0022814BF00200220638D62
:101B70000133638510BD042363750123A374EAE771
:101B80000120F4E7D40F0020C289B0F91830B0F971
:101B900020105B1A002BB8BF5B42934218DCB0F9EF
:101BA0001A30B0F922105B1A002BB8BF5B429A4280
:101BB00010DBB0F9262043889A4207DCB0F92A30BE
:101BC00040898342CCBF002001207047002070472D
:101BD000002070470020704770B5044690F82450EC
:101BE000012D05D9AB1EDBB2012B08D9002070BD39
:101BF000012383740020207503236375F7E7C68CE7
:101C0000013636B2C684FFF7BFFF08B90123A374BB
:101C1000032D01D00020EAE723889E42BCBF0123A8
:101C2000A37463889E42C4BF0123A3740023237559
:101C3000E27C237B9A4201D00020D8E7B4F9283017
:101C4000A2889342BCBF0122A274E2889342C4BF1F
:101C50000123A374B4F92A3022899342BCBF012224
:101C6000A27462899342C4BF0123A3740023238515
:101C7000A37C4BB10020A0746685A38B2383E38BE8
:101C800063830123E374B2E70023E3740220AEE729
:101C900010B5044690F8243023B9038D0133038531
:101CA000002010BD012B25D1FFF76EFF18B90223CC
:101CB00063750123A3740122E284E37C1344DBB245
:101CC000E3742275B4F92010A183B4F92220E283D1
:101CD0003BB1A37C2BB9E07C012814BF002001207C
:101CE000DFE70020A07401236385208521836283C0
:101CF000E374F0E70020D4E730B4BDF80850BDF835
:101D00000C400280438001FB02F292B2AB1A838046
:101D1000A21AC280058144810173BDF81030C381CD
:101D2000BDF81430038200238374C3740385438594
:101D3000C38443754FF6FF72028342838283C2835A
:101D4000037530BC7047F0B585B005460C461646A5
:101D5000002301930293ADF80C30498B208BFEF7E2
:101D6000EDFDD0B10A2201A93046FEF75BFD012846
:101D700022D90023A374E37423856385E384637508
:101D80004FF6FF7222836283A283E28323752B7056
:101D90006B80AB80284605B0F0BD0023A374E374CC
:101DA00023856385E38463754FF6FF722283628324
:101DB000A283E2832375D5E79DF8047000B3F3682E
:101DC0003846984720843369384698476084B36A18
:101DD0003846984784F82400B36938469847E0822B
:101DE0003046FFF728F9A0B9002384F825302046B3
:101DF000FFF7A4FE228B638B28706A80AB80C9E753
:101E00004FF6FF7323846384002384F82430E38235
:101E1000E6E7012384F82530E9E700BF70B5044602
:101E20000E4615788B6A28469847012801D0012074
:101E300070BD002323806380A380E38023816381BE
:101E4000A381E38123746374227E02F0F80263F3BA
:101E5000C3022276F36828469847A0813369284652
:101E60009847E081237C01332374E0E72DE9F041BA
:101E700004460F461678CB683046984780463B6943
:101E8000304698470546BB6A30469847032841D0FC
:101E9000A389A8EB03031BB22380B4F902209A4262
:101EA000B8BF1A4616466280B4F904709F42A8BFB4
:101EB0001F46A780E089281A00B2E080B4F9082004
:101EC0008242B8BF02462281B4F90A108142A8BFFB
:101ED00001466181B4F9125001EB050C604553DAFB
:101EE000491B884250DD521B904203DC227E42F0A7
:101EF00002022276EA1993424BDA7F1BBB4248DD8D
:101F0000721B9342DEBF237E43F008032376012039
:101F1000BDE8F08100232374B4F90020E38A9A42DB
:101F200022DB217E01F00801002914BF00201020CF
:101F300059428A4206DC227E12F0040F04BF40F0B0
:101F40000800C0B2B4F9062093420FDC237E13F0E0
:101F5000020F0BD140F00400C0B29142D8DB237EC7
:101F600013F0010F08D0D3E70020E1E7914207DB2F
:101F7000237E13F0010F03D140F00200C0B2C7E787
:101F8000002808BF0120C3E7217E41F0010121762E
:101F9000A9E7227E42F004022276B1E741828282E2
:101FA000C3820023038043808380C38003814381F5
:101FB0008381C38103744374027E02F0F80263F3E9
:101FC000C302027670472DE9F04186B004460D4603
:101FD000164600238DF81730314903AA03C982E859
:101FE000030000930193ADF808300A226946304699
:101FF000FEF7F7FF80469DF800708DF81770B36A02
:1020000038469847002831D0B8F1010F2ED1B36976
:1020100038469847AB8A834228D3B36838469847F6
:1020200020BBF3689DF817009847804633699DF8F8
:102030001700984707462B7C06AA02EB830353F848
:102040000C3C0DF11702314628469847A989EA89C8
:102050006B7C5E1C6E7421806280A4F80480E78033
:1020600023726072204606B0BDE8F08100232B8009
:102070006B80AB80EB802B816B81AB81EB812B7410
:102080006B742A7E02F0F80263F3C3022A7623807F
:102090006380A380E380237201236372E2E700BFC1
:1020A000A4D5010070B504460E4615468B6A10464D
:1020B0009847012801D0002070BD0023237223809F
:1020C0006380A380E3806372A372E372F36828469F
:1020D000984720803369284698476080A572637AC4
:1020E00001336372E7E7F8B504460E4615468B6A7E
:1020F000104698470746F36828469847A0803369FA
:1021000028469847E080238A9BB9A289B4F9003019
:10211000B4F904105B1A002BB8BF5B42934213DC86
:10212000B4F9023000B2181A0028B8BF4042824207
:102130000ADB227AE3899A4209D300236372E07AA8
:10214000B0FA80F04009F8BD0123E372F1E7032FF4
:102150004FF0000008BF6072F5E7C18170478181D0
:10216000C281038200230372038043808380C38083
:1021700043728372C37270472DE9F04186B0044602
:102180000D4617461E460023036043608360039399
:102190000493ADF814300B8A3288D21AADF80420BB
:1021A0007288D21AADF80620B2881A44ADF8082019
:1021B000F2881344ADF80A3001A93846FEF72EFF25
:1021C000804631463846FEF729FFB8F1010F0DD0A1
:1021D000AA7A00236B7223806380A380E38023723A
:1021E0006272A372204606B0BDE8F08108B90023F0
:1021F0002B7201AB3A460A2103A8FEF705FF6A7A63
:102200000D4B53F822309DF80C203946284698474C
:10221000B5F800C06F88AE88E9882B7AAA7A03F1F6
:10222000010E85F808E0A4F800C06780A680E18070
:1022300023726272A072D5E7DC0F0020014B188870
:10224000704700BFF02400200A207047024B5B68F3
:1022500003EB0010807B7047F0240020024B5B688A
:102260000001185C704700BFF0240020024B5B683F
:1022700003EB001040887047F0240020024B5B689D
:1022800003EB001080887047F0240020024B5B684D
:1022900003EB0010C0887047F0240020024B5B68FD
:1022A00003EB001000897047F0240020024B5B68AC
:1022B00003EB001040897047F0240020024B5B685C
:1022C00003EB001080897047F0240020024B5B680C
:1022D00003EB001040787047F0240020014B198078
:1022E00058607047F024002000487047ACD50100CA
:1022F000C0F10F0000EB001001EB4000024B1B6827
:1023000033F91000704700BFF8240020C0F10F001F
:1023100000EB001001EB4000024B5B6833F910004A
:10232000704700BFF8240020C0F10F0000EB001040
:1023300001EB4000024B9B6833F91000704700BF6F
:10234000F8240020C0F10F0000EB001001EB40006A
:10235000024BDB6833F91000704700BFF8240020FF
:10236000014B43F821007047F8240020014B03EB98
:1023700080007047D8D50100E22230B50E4B83B003
:1023800000921A680D490E4B632000F0BDFC0D4C05
:1023900004F1140554F8043B1B699847AC42F9D189
:1023A000E522094B00921A680449054B632000F0AE
:1023B000ABFC03B030BD00BF04040020F099010065
:1023C000F89901001400002008040020DA2330B539
:1023D0000E4A0F4D0F4C83B02146126863200093C4
:1023E0002B4600F091FC0C4A0C4B127853F822302B
:1023F000DB689847DC200A4A2B4612682146009089
:10240000632000F081FC03B030BD00BF0404002055
:10241000F8990100E4990100E40F00201400002065
:1024200008040020932330B50E4A0F4D0F4C83B0A3
:1024300012682146009363202B4600F065FC0021C2
:102440000B4B0C4A1B6811705B68984796200A4A30
:102450002B46126821460090632000F055FC03B023
:1024600030BD00BF04040020F8990100D899010094
:1024700014000020E40F0020080400207E2230B564
:10248000114B83B000921A681049114B632000F081
:102490003BFC00220F4B104C1A7004F1140554F849
:1024A000043B1B689847AC42F9D18D2300250B4CA7
:1024B0000B4A0649126863200093054B257000F013
:1024C00023FC03B030BD00BF04040020CC99010000
:1024D000F8990100E50F002014000020E40F00200F
:1024E00008040020002370B5454C8CB003A801936C
:1024F00007F0F6FE2378002B61D0424A424B127857
:1025000053F822309B689847237801909DF81B2050
:102510009A4252D09DF81B30DBB2002B23700CBFC7
:10252000022301239DF8242012B101228DF80420FA
:102530009DF825201AB10121344A82F82210012B7E
:1025400034D0022B15D09DF80420002A3CD1002065
:10255000019BDAB262F30700C3F3072262F30F2094
:10256000C3F3074262F317401B0E63F31F600CB006
:1025700070BD0723234C8DF80430237804259D4239
:10258000E5D0214E56F82330DB6898472A4621785B
:1025900002200DF0F9FF2A46217802200DF09EFF5F
:1025A00056F8253025705B689847D0E70623154C10
:1025B0008DF8043023780325E1E70023B2E79DF886
:1025C0001B20002AA2D198E70E4C013A2378062A54
:1025D000BDD801A151F822F0FD250000F925000029
:1025E0004F250000F52500004F250000B72500000D
:1025F0007D2500000225C2E70125C0E70025BEE7D2
:10260000E50F0020E40F0020140000208C0D0020B6
:1026100030B4184D0022D5F8014001322346186825
:1026200002EBC201294480B1586898B19868B0B1F2
:10263000D868C8B1042A1BD0D1F80130013218681B
:1026400002EBC20129440028EED1206818605868C6
:102650000028EBD16068586098680028E8D1A0682D
:102660009860D8680028E5D1E068042AD860E3D1F2
:1026700030BC7047A403002030B4184D0022D5F8B8
:10268000014001322346186802EBC201294480B19F
:10269000586898B19868B0B1D868C8B1042A1BD0FE
:1026A000D1F801300132186802EBC2012944002838
:1026B000EED12068186058680028EBD16068586037
:1026C00098680028E8D1A0689860D8680028E5D10B
:1026D000E068042AD860E3D130BC7047D4030020FE
:1026E00010B502F0CDF8094B1B689847084B1B68E2
:1026F0009847084B1B689847BDE81040064A074BAF
:10270000127853F822305B68184700BF00000020A1
:102710005C0D0020240D0020E70F0020C4A1010063
:1027200070B500249AB010AE2146304628220BAD79
:10273000CDE90B44CDE90D440F9417F01CF808AB1C
:10274000CDE90333CDE90544CDE9005606480293AF
:1027500008940994ADF828402B4604682A46294677
:102760000A20A0471AB070BD282600200B4A08B5E1
:1027700012780B4B53F82230DB689847FFF7D0FFF5
:10278000084B1B699847084B1B699847074B1B6907
:102790009847BDE8084002F00FB800BFE70F0020DF
:1027A000C4A10100000000205C0D0020240D0020C9
:1027B00070B58AB0054608F01BF80128044606D01B
:1027C0002DB1012D38D0032D14BF044602241E4D17
:1027D0002B78A34221D001A807F082FD2246297858
:1027E00001200DF0D1FE2246297801200DF076FE61
:1027F0002B78012B13D0012C20D0144E56F8233007
:10280000DB68984756F824302C705B689847287826
:102810000AB0BDE8704007F0F1BF0AB070BD002CEF
:10282000E9D1FFF7A3FF2C70FFF75AFF28780AB011
:10283000BDE8704007F0E2BF0024C8E79DF8132010
:10284000002ADAD1EDE700BFE70F0020C4A10100A4
:102850002DE9F04F93B007F02BFD09A807F040FDDC
:1028600009A80DF07DFE5B4A5B4B12785B4D53F877
:1028700022309B6898470890C0F3072AC0F30744AA
:1028800004F022F907F0C4FF2A789DF82A30834625
:102890009A4206D09DF82A0006F042F89DF82A30A8
:1028A0002B704F4B0125986805F028FB0026CB23A1
:1028B000DFF850814B48DFF844914B4F05932A468F
:1028C00029464346CDE90309CDE901660095642018
:1028D00000F0C8F93B6898F800209978914213D02D
:1028E000D121CDE901662E46404A0233059103927B
:1028F000CDF8109000952A462946642000F0B2F9E0
:102900003B689B7888F800300DF0DCFA3B688DF866
:102910001F00DB7883421BD1BBF1000F2CD15EBBC3
:1029200074B39DF83D30002B9DF83C3018BF002457
:1029300053B3002007F062FF4FF0010A012C2DD0A5
:1029400074BB5046FFF734FF012013B0BDE8F08F91
:102950000122E02100232648CDE90491CDE901338D
:1029600003900DF11F0364200092114600F07AF9E4
:102970003B68D8780DF092FA002007F04FFF022450
:102980009DF83C30002BD4D19DF83330002BD5D0AE
:1029900007F02EFF0228CCD0012CD1D10FF064F922
:1029A0007E22144B00921A681349144B632000F0E6
:1029B000ABF9FFF7DBFEFFF793FE8322104B00928B
:1029C0001A680D490D4B632000F09EF9012013B0E9
:1029D000BDE8F08FE70F0020C4A10100E60F002042
:1029E000D805002090A101000C0600209CA1010048
:1029F000B8A10100040400206CA1010080A1010025
:102A000008040020380400202DE9F0479CB004465B
:102A100003A8884607F064FC00235B4E9DF8232042
:102A2000C6E90033C6E902333382002A58D094F84D
:102A30002B0094F82AA094F82990504594F828E0A7
:102A40003AD8A0F11D01A0F11007821EC9B2FFB251
:102A5000D2B2F14526D84B4614E0A3F10B04022C68
:102A600041D803EB031400EB440438F9145000245C
:102A700036F914C0AC45B8BF26F814500133DBB2A8
:102A80009E450FD3022AE8D9022F37D8A3F10B04B1
:102A9000022C47D803EB031400EB440438F914501C
:102AA0000324E5E70130C0B201310137013282452C
:102AB000C9B2FFB2D2B2CCD23E2200210DF1320017
:102AC00016F059FE002340F60115822400961A469E
:102AD0000CA91E20ADF830508DF8354008F048F8AC
:102AE0001CB0BDE8F087DC1F022C29D803EB0314CF
:102AF00000EB440438F914500124B9E70229BDD889
:102B0000A3F10B04022C26D9DC1F022C33D99C1E06
:102B1000022CB3D803EB031400EB440438F914502F
:102B20000824A5E7DC1F022C1DD99C1E022CA5D869
:102B300003EB031400EB440438F91450052497E721
:102B40009C1E022C9AD803EB031400EB440438F9C2
:102B5000145002248CE703EB031400EB440438F90F
:102B60001450062484E703EB031500EB4505042409
:102B700038F915507CE703EB031400EB440438F9F3
:102B80001450072474E700BFE80F0020F0B5204E72
:102B900083B0054601F1200014461F467160FDF721
:102BA00071FB1C4B1C4A9968213037604860946067
:102BB00060782278E37802FB00F203F07F0303FBE6
:102BC00002F3164C22790B60D3B2012B01D003B073
:102BD000F0BD7721FF221E46114F397022712379F3
:102BE000FF2B10D120222946684616F095FD009B48
:102BF000032B04EB830206DC019BD2F8052006FAC6
:102C000003F31342EBD105233B7003B0F0BD00BFCB
:102C1000F41900203006002014080020DC1B0020DE
:102C2000E006002070B504460E461546049A194683
:102C300020F8022B20341E2216F05CFE204631467E
:102C4000DF2216F057FE45B13046FDF71BFB294643
:102C5000C0F1DF02204416F04DFE2046BDE8704072
:102C6000FDF710BB2DE9F041C4B004460E461546F1
:102C70000146202204A81F4616F04EFD049B032B9C
:102C80000EDC01221F48059900EB8303D3F805C031
:102C900002FA01F313EA0C0F02D00379934202D037
:102CA00044B0BDE8F0814FF000084FF48072414617
:102CB00004A816F060FD4F9B424600934D994E9B31
:102CC00004A8CDE90288FFF7ADFF9DF80BC04A9B31
:102CD0004B9A8DF80F0063F3060C20464C9C62F370
:102CE000C71C3B4604A902AA8DF808608DF809505C
:102CF0008DF80C808DF80E408DF80BC0FFF746FF65
:102D0000CEE700BFDC1B00202DE9F041C4B0044633
:102D10000D4616460146202204A81F4616F0FCFC6C
:102D2000049B032B0EDC01221948059900EB830359
:102D3000D3F805C002FA01F313EA0C0F02D00379AD
:102D4000934202D044B0BDE8F0814FF000084FF448
:102D50008072414604A816F00EFD4A9B324600934D
:102D600029463B4604A8CDE90288FFF75BFF4346AE
:102D70008DF80F0002AA04A92046ADF808808DF84E
:102D80000B808DF80C808DF80E80FFF7FFFED9E7E1
:102D9000DC1B0020F0B587B0654601F0F5FE01F0C0
:102DA00019FF0021084601F0F5FBD5E90121044691
:102DB00004204FF4457C002701260090074D084869
:102DC0002346CDE90305CDF814C0CDE90167722093
:102DD000FFF748FF204607B0F0BD00BF80A3010009
:102DE00090A301002DE9F04790F815C082B0BCF126
:102DF000000F2BD01C4600254FEA4C0606EB8C0634
:102E000003EB0616216294F8247084F8245094F899
:102E1000257084F8255094F8267084F8265094F88C
:102E2000277084F8275094F8287084F8285094F874
:102E3000297084F8295094F82A7084F82A5094F85C
:102E40002B7084F82B503034A642DBD1BCF1000F3C
:102E50002FD098469146824600269AF814301BB32C
:102E600000257700DAF8003006225C5D68466110C4
:102E7000013116F051FC9AF8142004F0010406FB0D
:102E80000291009B3C449B0004EB440403EB0414BC
:102E900001984B5D4444216A00EB8000834001357A
:102EA0000B43AA422362DDDC9AF815300136B342A7
:102EB000D3DC02B0BDE8F0872DE9F04100241962AF
:102EC000196593F8241083F8244093F8251083F8AB
:102ED000254093F8261083F8264093F8271083F8AE
:102EE000274093F8541083F8544093F8551083F812
:102EF000554093F8561083F8564093F8571083F8CE
:102F0000574093F8281083F8284093F8291083F845
:102F1000294093F82A1083F82A4093F82B1083F85D
:102F20002B4093F8581083F8584093F8591083F8C1
:102F3000594093F85A1083F85A4093F85B1083F87D
:102F40005B40017D82B019B306461D46571E3368AB
:102F5000062213F8048068464FEA6801013116F032
:102F6000DBFB08F0010800994FEA480290448A0010
:102F700002EB081201992A4417F8013F106A01EB8D
:102F800081018B4003431362337D0134A342DEDCB5
:102F900002B0BDE8F08100BF2DE9F04F97B006AF59
:102FA000D1F8016004463863022100203E6101F03F
:102FB000F1FA0021F861084601F0ECFA01F032FC68
:102FC000EC4694F81490647D804604FB09F2D01D11
:102FD000C008ACEBC000854695002B46EC460A3392
:102FE000DB08ACEBC30306A89D46002106AB7B6261
:102FF000FC62FD60786116F0BEFB2A46FF21786A0C
:1030000016F0B9FB07F140031A46042302F8043D09
:10301000114601207A6001F02FFDB2684FEA890362
:103020009178BB61D37812785B1A01339A4240F3EE
:103030005D810A234E46BB626300BB60BB6AB24936
:103040001F2B40F340811A4601FB03F103EB4313AE
:1030500002EB431303EBC33301F1404103F140435F
:103060002031AA4A013341F01F01A9489362C2E905
:10307000081330328242F8D14FF4807300240122C9
:103080004FF004090593A34B01920493A24BCDF892
:103090000090CDE90243BD6A11467B686420FD6360
:1030A000FFF7E0FDFD69FA682146284616F063FB4C
:1030B000FB6A002B00F0F5807D634FF0405B2546F6
:1030C0003C624FF0000A4FF001094FF4FA743B6A7A
:1030D0003A695344137701F057FD01F07BFD8BF8FB
:1030E000F390D6B1D7E90C3C186806EB000E10F847
:1030F000013B03F0010252450BD15B1008EBC313F7
:10310000B3F840201988DCF80030521A1344CCF888
:10311000003070450CF1040CE9D1013C8BF8F35000
:10312000D9D1BAF1000F02D14FF0010ACDE77A6B85
:10313000B9693B6A0A447A63BA68023393423B62D4
:10314000BFD140F2191204237249059204917349C8
:103150000093CDE902410194FD6932462B46F96A9C
:103160006420FFF77FFDD7E9059A7B6AD7F828B07E
:10317000A5F1040EA3F1040C86B16246704600234B
:1031800050F8041F52F8045FA94238BF09F803B091
:1031900003F1010338BF11609E42F1D1FB6A013493
:1031A000A342D644D444B144E6D100244FF49172F2
:1031B0000123CDE9014457495948049103900592F0
:1031C0000093D7F82C907B69324649466420FFF77C
:1031D00049FD40F223120423BD6A4E490135BD6208
:1031E0005048CDE9014404910390059200937B6A15
:1031F000324649466420FFF735FD3E2D7FF41EAF71
:10320000FB6AB146B3B17B6A474D1A1F5EB11046E7
:10321000002150F8043F0131A5FB03C38E424FEA61
:1032200053130360F5D1BB6901341A44FB6AA3420E
:10323000ECD1B1464FF4967200240092354B002237
:103240003A496420FFF760FD40F22D110122314E12
:10325000334B049603937B69CDE9014405910092B9
:10326000D7F82C804A4641466420FFF7FBFC40F229
:103270002F13224600932E4933466420FFF744FD66
:103280004FF498750420CDE90144264B049603932E
:103290007B6A4A460090414605956420FFF7E2FCB0
:1032A0002DE040F219131B4A642004921B4A03923A
:1032B000F96ACDF80090CDE901110593FB6932461A
:1032C000FFF7D0FC71E7BB6A1A4601FB03F103EB81
:1032D000431302EB43130D4A03EBC3330C489362D1
:1032E000C2E9081330328242F8D1C5E64FF49A722F
:1032F000084B00920F4900226420FFF705FD443778
:10330000BD46BDE8F08F00BF208410029800046025
:103310009806046080A30100B8A20100C4A20100C5
:10332000D8A20100E4A20100D34D6210F0A2010076
:1033300004A3010014A301002DE9F043437D864658
:10334000007DF3B1002601F1FF3C0F494FEA43082D
:1033500098B16446DEF80020871812F8019B14F833
:10336000015F09F00103334403EB430301EB031353
:1033700003EB59039742DD73EFD10236464584448F
:10338000E6D1BDE8F08300BF98000460F0B5DCF83A
:10339000000087B064460F46FFF7CEFFD4E9012155
:1033A000002040F21D360125CDE90100054C0648FC
:1033B0003B46CDE90304059600956420FFF752FCD7
:1033C00007B0F0BD80A3010084A20100427D02B3DA
:1033D000F0B40026037DDFF83CC0ABB100247700D9
:1033E000056806FB03122D5D05F001033B4403EB6A
:1033F00043030CEB031303EB5503DB7B1355037DF6
:103400000134A342ECDC427D0136B242E5DCF0BC83
:1034100070477047980004602DE9F04F8046A3B0D4
:103420000391602200210AA816F0A5F94FF4C062AA
:103430000021894816F09FF998F814309E4643B34E
:10344000D8F8000001241D1807E056F85C3C8542BE
:1034500043EA070346F85C3C1BD010F8013B03F03D
:1034600001014E000E441F2B22A904FA03F701EBC1
:103470000616EADD16F8582C203B114604FA03F331
:10348000C2F30102134363F30101854206F8581C9D
:10349000E3D198F81550002D00F04A820021012454
:1034A000D8F80420A81812F8013B04FA03F390425C
:1034B00041EA0301F7D1C1F3130200234FF0405C4E
:1034C0009DF83600039E9DF86670140CD6F80490A3
:1034D00092B220F00F002043ADF83420ADF8642004
:1034E0009DF8292027F00F078DF8360099F8000085
:1034F0003C436FF3C3028DF866408DF85700BDF86A
:1035000030408DF887008DF829209DF832009DF815
:1035100056209DF8597004F0030420F03F0022F07B
:103520001F02ADF830408DF83200BDF860409DF8C4
:1035300062008DF856209DF8862063F3C3078DF84E
:10354000597022F01F0204F0030420F03F008DF8B0
:103550008620ADF854308DF83330ADF884308DF8D6
:103560006330ADF860408DF862003269CCF84810E5
:10357000002D00F0CE81CDE900329A46364B4FF057
:10358000010B0293774641F4801349460993D8F81A
:1035900004C02AF003031A4605931CF80A304FF0C2
:1035A000000E0BFA03F9C9F31309C9F30D039B00CD
:1035B0000793CDF810904FEA993389460432029C64
:1035C0000692089326464FEA4E0522AB754403EB5C
:1035D0000515603D0FCD0FC60FCD0FC695E80F0046
:1035E00086E80F00009A238862F309032380002FE6
:1035F00000F08D8101996FF000420B460F4413F8E3
:10360000011B8A42A8BF0A469F42F8D1D2B2E27299
:1036100099F80630002B40F05A812368049A62F32F
:103620001F33236094F82E3099F8052023F01F03F0
:1036300098F8151084F82E304FF00003501EA38523
:10364000062800F27881DFE810F01B010801E20093
:10365000E000DE00DC000900980004600B1F534509
:1036600040F364810CEB0A031D7994F82E300BFAB9
:1036700005F5C5F3044023F01F030343A58584F833
:103680002E30C5F31405BAF1030F12DD0CEB0A035B
:1036900013F8040C94F82E300BFA00F00543C5F330
:1036A000044023F01F030343A58584F82E30C5F39F
:1036B0001405CB1E534511DD0CEB0A03D87894F8A2
:1036C0002E300BFA00F00543C5F3044023F01F032E
:1036D0000343A58584F82E30C5F31405BAF1020F13
:1036E00012DD0CEB0A0313F8030C94F82E300BFADE
:1036F00000F00543C5F3044023F01F030343A585F1
:1037000084F82E30C5F314058B1E534511DD0CEBE8
:103710000A03987894F82E300BFA00F00543C5F3AD
:10372000044023F01F030343A58584F82E30C5F31E
:103730001405BAF1010F08DD0CEB0A0313F8023C83
:103740000BFA03F31D43C5F31405236894F82E0008
:1037500045EA133545F48015C5F3140320F01F0026
:10376000013940EA13405145A58584F82E000FDD4C
:103770000CEB0A035B78C1B20BFA03F32B43C3F3E0
:10378000140321F01F0141EA1341A38584F82E1090
:10379000BAF1000F07D0D4441CF8011C0BFA01F158
:1037A0000B43C3F3140383F4FF13099883F4FF530B
:1037B00094F82E1083F01F030340C3F3044021F05C
:1037C0001F010143012AA38584F82E100BD0DB438F
:1037D000E268A17BC2F31302134021F00F0242EA18
:1037E0001342A381A2733034BEF1000F57D1039B63
:1037F000D8F804C0D3F8049098F814704FF0010E74
:10380000E0E6002555E700257EE700259DE7013924
:10381000514540F381800CEB0A035B7894F82E103D
:103820000BFA03F3C3F3044221F01F011143A385F4
:10383000C3F3140284F82E10BAF1000F70D0D444F0
:103840001CF8013C0BFA03F31343099AC3F3140366
:103850001340C3F31401DB4308E0394A236882EACA
:103860001333099A1340C3F31401DB4394F82E2059
:10387000A18522F01F0242EA114284F82E20A7E718
:103880004FF0000294F82E30A28523F01F0343F07E
:10389000100384F82E303034BEF1000FA7D0009A08
:1038A00098F815302232C2F309020092029A0AF106
:1038B000010A60320292019A534502F122020192FA
:1038C00027DD039B98F814705B6819465FE6059B3B
:1038D0000CEB0301069B0CEB030511F8013B206880
:1038E0000BFA03F3226843EA103363F31F328D426D
:1038F0002260F2D12389079A03F003031343238143
:10390000A37A089A23F03F031343A3728AE6FF22A7
:103910007DE623B0BDE8F08F0022BAF1000F8ED112
:10392000099B1340C3F31401DB439FE70025AAE67C
:103930002A462946C1E54FF0FF33002196E700BF34
:10394000FFFF0F00002900F0A3802DE9F04FD1F810
:103950000120ADF5137D0CCA93F8009093F801B0E7
:103960001278884609EB0B070AA9064607929D784C
:1039700093F804A0DC78FFF729FD464BF9B2481C08
:1039800083F8290009F1010C09F1FF3083F82210B6
:1039900083F824C083F82500079A002A73D1A9F17F
:1039A0000A0983F827904FF000093A4B4A469E4691
:1039B0000AF03F0C05F01F0004F00F0183F8289077
:1039C00002F114030EEB43039C7801326CF30504FF
:1039D0009C705C88112A60F38A14C4F3072561F394
:1039E000C6055C80DD70EBD14FF04050002280F8BE
:1039F000A720347DBCB14FF0010C3168254D013951
:103A000011F8013F1C2BEA5402F1010209DD90F884
:103A1000A7E01D3B0CFA03F343EA0E03DBB280F888
:103A2000A730A242ECD1D8F801103046FFF7F4FCE1
:103A30000AA93046FFF780FCD8F8013030465968B3
:103A4000DA68C979144BFFF7CDF949F640435E2196
:103A500001370124002504207F0093FBF7F705912F
:103A60000E4A0F49CDE9000404920391029509AB77
:103A70002246214664200997FFF7F4F820460DF509
:103A8000137DBDE8F08F0BF1010B83F827B08AE7B7
:103A900008467047000004609800046080A301009D
:103AA00070A30100F0B50C4699B0602200210746D2
:103AB000684615F060FE30220021544815F05BFE88
:103AC0004FF408709DF80130626843F008038DF8E8
:103AD0000130BDF80010537960F30901013BADF8E6
:103AE0000010032B03D8DFE803F07F6D02024FF0D4
:103AF000FF344FF0405100209DF82E30ADF82C409F
:103B000043F01F038DF82E30C1F830014FF0013320
:103B100000216D461278CDF813308DF82F20CDF8A6
:103B20001730CDF81B308DF81F30CDF80F308DF8E1
:103B30000B100CAC0FCD0FC40FCD0FC495E80F00C8
:103B400084E80F003D7D3DB33C680126254407E035
:103B500052F85C3CA54243EA070342F85C3C1BD0A8
:103B600014F8013B03F00100420002441F2B18A887
:103B700006FA03F700EB0212EADD12F8581C203BAC
:103B8000084606FA03F3C1F301010B4363F3010096
:103B9000A54202F8580CE3D16C461C4F0FCC0FC75E
:103BA0000FCC0FC794E80F0087E80F00184E0CAD3C
:103BB0000FCD0FC60FCD0FC695E80F0086E80F009A
:103BC00019B0F0BD4FF0FF344FF0405100209DF888
:103BD0002E30ADF82C4023F01F0343F00F038DF877
:103BE0002E30C1F8300191E700204FF040519DF890
:103BF0002E30ADF82C0023F01F03064843F01003CD
:103C00008DF82E30C1F8300180E700BF98060460BF
:103C1000C8060460FFFF0F00002900F086802DE930
:103C2000F84FD1F80160424AD6E900531C7893F866
:103C3000018095F800A004EB0805EDB204F101093C
:103C400093F802C093F804E0DF7805F1010B5FFA06
:103C500089F9631E82F829B082F8225082F8253053
:103C600082F82490BAF1000F5AD10A3C82F827401A
:103C700000242F4B224698460EF03F0E0CF01F0CEE
:103C800007F00F0783F8284002F1140308EB430301
:103C90009C7801326EF305049C705C88112A6CF3E9
:103CA0008A14C4F3072567F3C6055C80DD70EBD189
:103CB0004FF0405500221F4C1F4B85F8A72084F879
:103CC0002F9083F82F90077DCFB14FF0010E04683D
:103CD000DFF85CC0013C14F8013F1C2B0CF80320FA
:103CE00002F1010209DD95F8A7801D3B0EFA03F3EE
:103CF00043EA0803DBB285F8A730BA42EBD10D46A0
:103D000004463146FFF7CEFED5F80130204659680B
:103D1000DA68C979074BFFF7CFF80120BDE8F88FC3
:103D200008F1010882F82780A2E70846704700BF23
:103D30004C00046098060460C8060460F0B40025D6
:103D40004FF040530326D0F8011001248A684D74C7
:103D50001778042083F82C7157784FF4C07C83F8CF
:103D60002D71977983F82A71177A83F82B719778D8
:103D700083F82E71D27883F82F21D1E900211778AA
:103D800083F8257183F88E60C9780F27491B18BF07
:103D9000012183F8841083F8814083F8805083F8F0
:103DA000AE0083F8AF00557893F8891085EA0406D1
:103DB00066F30511022683F8891093F8A11065F3C4
:103DC000041183F8A11083F88D0083F8B04083F8C4
:103DD000C570A3F8C8C083F8CC60507A517983F8D5
:103DE0000001907883F80501D07883F80A0183F800
:103DF0000D11117983F81011117A83F8DA10D27944
:103E000083F8A020F0BC00F019BE00BF012138B536
:103E10004FF04053D0F80140084693F8415100F06C
:103E2000B9FB637C074903EB0313EDB200EBC3005E
:103E300001EB0541882215F093FC637C0133637428
:103E400038BD00BF80080160D0F801305B689B7905
:103E50004BB3F0B44FF0C04784B0DFF84CC004AEB1
:103E6000002568466A463B46002153F825408833C2
:103E700042F8044B96422144F7D13C4650F8043BAB
:103E8000A1EB43035B10904244F8253004F1880411
:103E9000F4D10135222DE4D107F508776745DFD14C
:103EA00004B0F0BC70477047800800604FF040538A
:103EB000F0B503260025D0F801400127A2680420B0
:103EC00011784FF00F0C83F8E010517883F8E1106F
:103ED000917883F8E210D17883F8E310917983F830
:103EE000E610127A83F8E720626883F88E60D27851
:103EF000521B18BF012283F8842083F8817083F855
:103F0000805083F8AE0083F8AF00226893F88910E0
:103F1000547884EA070E6EF305114FF0200E83F8F3
:103F2000891093F8A11064F3041183F8A11083F8A9
:103F30008D0083F8B07083F8C5C083F88760A3F85C
:103F4000C85083F8CCE0517A83F80011917883F857
:103F50000511D17883F80A11117983F81011117ABB
:103F600083F8DA10D27983F8A020BDE8F04000F0A1
:103F700065BD00BF4FF04053F0B403264FF0000C76
:103F8000D0F8010001258268017F147801EB41011E
:103F900083F8E040547883F8E14097788C0083F808
:103FA000E270D178042783F8E310917983F8E61062
:103FB000127A83F8E720426883F88E60D278B2EBF9
:103FC0000C0218BF012283F8842083F8815083F803
:103FD00080C0026893F88910507880EA050C6CF371
:103FE00005114FF00F0C83F8891093F8A11060F3BE
:103FF000041183F8A11083F88D7083F8B05083F812
:10400000C5C083F88760A3F8C84083F8CC50517AC4
:1040100083F80011917883F80511D17883F80A119B
:10402000117983F81011117A83F8DA10D27983F8B4
:10403000A020F0BC704700BF2DE9F04F95B006AF4F
:1040400007F138056A4CDFF8B8C145F8300D07F1C3
:10405000240607F1140894E80F0088E80F0007F120
:10406000600340463146C8E9025C7B63FCF708F90F
:1040700094E80F005F4C86E80F00304607F13401EA
:10408000C6E90254FCF7FCF8012000F045FD0028C9
:1040900000F0A7800021E9460A46BB6805461C7D62
:1040A000D0F8010093F815E0D0F804C00368C7E920
:1040B000034E04FB0EFA9CF802403C605C78597099
:1040C0007C604D4C02F1140304EB43035988013228
:1040D00041F4F861112A5980F4D16A460AF10703C4
:1040E000DB08A2EBC3039D4606AC0169524620469D
:1040F0009CF801B015F034FBBAF1000F09D023464B
:1041000004EB0A0113F8012B04328B4203F8012C53
:10411000F8D148F0010346F00106CDE900635246AC
:1041200059462346012002F007FFD7E903214FF04B
:10413000000A40F222300123DFF8C8802F4E05909C
:104140000093CDE901AACDE9036823466420FEF778
:1041500089FDD7F810B0D34547DDD646D7E9020A26
:10416000BAF1000F0EDD0022037DD5F801100EFB21
:104170000323496914F803C0895C01326144524544
:10418000E154F1D10EF1010EDE45E9D12146FFF7F0
:10419000D3F8D7E9032140F22D3C4FF0000A01206B
:1041A0002346CDE9000ACDE9048C6420CDE902A6BE
:1041B000FEF758FD3B68104803F01F010AF1140395
:1041C00000EB43035A880AF1010A61F38A12BAF13B
:1041D000110F5A80F2D1D5F801303A791B685A7024
:1041E000CD463C37BD46BDE8F08FB868CEE700BF8E
:1041F000489901008D3300000000046084A2010092
:10420000952D000080A301002DE9F04FADF5177D3D
:1042100006AF786001200C4600F07EFC0026D0F846
:104220000130D4F801201B6854685A78B8605E7079
:10423000FA6001214FF4087207F1200094F801B0F0
:1042400015F099FAADF6880D06AB184631464FF4D5
:10425000086215F090FABBF1010F40F38E80012443
:10426000DFF83081031FC7F81080A1469846444DFF
:104270007E61DFF824A15046112221460AF1300A5E
:1042800015F079FAAA45F6D1012240F252334FF0E7
:10429000040A3C493E69039179696420CDE90191A2
:1042A0000593114607F11C030496CDF800A0FC61AC
:1042B000FEF7D8FC00F068FC00F08CFC40F25633AE
:1042C0007969314ACDE901910392059322224FF099
:1042D000C0431021CDF800A004967220FEF7C2FC66
:1042E00041464FF0C043DFF8B4E007F12002186800
:1042F00051F8046F04338642BCBF147008607345E4
:1043000002F10102F3D14FF459733A690593049213
:104310001E4ACDF8009003927A690134CDE901225A
:1043200007F12003222210216420FEF79BFCA34505
:104330009FD1D7F81080786807F12001FEF7FCFFC5
:1043400040F2693400220120BB683E7BD3F80110A3
:1043500007F120030D680E496E70CDE9012200902F
:104360000391CDE90484222210216420FEF77AFC17
:1043700007F51177BD46BDE8F08FDFF81880DAE762
:10438000A706046090A20100C0CA010084A2010037
:10439000A0A2010080A30100A700046080080060C3
:1043A00008B500F017FCBDE808400021084600F001
:1043B000F1B800BF012170B50446084600F0EAF8E4
:1043C00000210546012000F0E5F8D4F801202B1F5C
:1043D000147C011F05F1840653F8042F02FB04F23C
:1043E000B3424FEAE21241F8042FF5D100F1840103
:1043F00005F5867053F8042F02FB04F298424FEA49
:10440000E21241F8042FF5D170BD00BF704700BF24
:1044100010B572B60C4A1468A4B90C490C4B086864
:104420001160027803EBC2035B6898470422094BD2
:104430001A75BFF34F8F4FF04053012206490C729B
:104440001A709A7062B610BDFC0F00202410002074
:104450003C04002000001050842200204FF0405304
:1044600093F84121002082F0010283F8412193F862
:10447000432182F0010283F8432170474FF04053FB
:1044800010B593F82430CBB172B60E4A14689CB9BB
:104490000D490E4B08681160027803EBC2035B689C
:1044A000984701230A4A1375BFF34F8F4FF04052CC
:1044B00008490C721370937062B610BD0BF0B6FD14
:1044C000E2E700BFFC0F0020241000203C04002085
:1044D0000000105084220020002230B5264B87B007
:1044E00004461A7200292ED101A80BF053FF022CAA
:1044F0009DF804300AD1012B29D0022B04D11F4B87
:104500001F49204A0B60136007B030BD012B0CD04F
:10451000022BF9D11C4B002CF2D11C4A1C49116012
:104520001749184A0B601360EEE70023174D144833
:10453000144A15492B6003601160ACB107B0BDE8A7
:104540003040FFF79BBF08460BF01EFFCCE700236F
:104550000E4C0B480B4A094923600360116007B0F9
:10456000BDE83040FFF754BF02980CF0BBF907B02C
:10457000BDE83040FFF782BF8422002011440000D4
:1045800048100020441000207D44000094100020BA
:104590000509010001290CD007D3022903D1074BDB
:1045A00053F82000704700207047054B53F8200057
:1045B0007047044B53F82000704700BF4C10002098
:1045C000641000207C1000204FF0C04370B5584CA0
:1045D000584E594D594962682360336029601AB1B9
:1045E0005749201D08F01AF873681BB15549564801
:1045F00008F014F86B681BB15449554808F00EF8E0
:104600004F4A4FF48871534807F07CFF4D4A4FF4EE
:1046100088714D4807F076FF4C4A4FF488714C483A
:1046200007F070FFA3681BB14B494C4807F0F6FF39
:10463000B3681BB14A494B4807F0F0FFAB681BB1A8
:1046400049494A4807F0EAFF434A8821434807F0AE
:1046500059FF434A8821434807F054FF424A8821C2
:10466000424807F04FFFE3681BB14149414807F05A
:10467000D5FFF3681BB14049404807F0CFFFEB6816
:104680001BB13F493F4807F0C9FF394A502139481B
:1046900007F038FF384A5021384807F033FF384ACE
:1046A0005021384807F02EFF23691BB1364937489F
:1046B00007F0B4FF33691BB13549364807F0AEFF48
:1046C0002B691BB13449354807F0A8FF2E4A8821D1
:1046D0002E4807F017FF2E4A88212E4807F012FFB8
:1046E0002D4A88212D4807F00DFF63691BB12C4925
:1046F0002C4807F093FF73691BB12B492B4807F037
:104700008DFF6B691BB12A492A4807F087FF244AAD
:104710005021244807F0F6FE234A5021234807F091
:10472000F1FEBDE87040224A5021224807F0EABE5F
:10473000641000207C1000204C10002000008560D8
:10474000E4A30100F8A301008010002014A40100DC
:10475000501000206810002030A401006C100020D0
:104760004CA40100841000206CA40100541000200F
:104770008CA4010070100020A8A401008810002063
:10478000C8A4010058100020E8A401007410002003
:1047900004A501008C10002024A501005C1000205D
:1047A00044A501007810002060A5010090100020B1
:1047B00080A50100601000202DE9F047114C124E39
:1047C000124DDFF84CA0DFF84C90DFF84C8004F17C
:1047D000140754F8043F1BB15146204607F01EFF52
:1047E00055F8043F1BB14946284607F017FF56F815
:1047F000043F1BB14146304607F010FFBC42E8D1F0
:10480000BDE8F087641000204C1000207C100020D0
:10481000A4A30100B4A30100CCA301000048704789
:10482000000084600048704700000230F8B516466A
:104830001D4604460F46FFF785F808B10F4B1F6071
:1048400031462046FFF7E8F908B10C4B5E60069A46
:104850002946204601F0E6FC18B1084B069AC3E948
:104860000225DDE90712204601F0F6FC20B1034BDA
:10487000089A1A61079A5A610120F8BD04100020B5
:104880002DE9F04F8DB004AF0AF0D2FF02240546A7
:10489000B860982200215F4814F06DFF5E4B2A7DBE
:1048A0002968D3F8010000945C4B00F0E3FC5C4BFA
:1048B0006A7D6968D3F801005A4B009400F0DAFC75
:1048C000242200215848C7F804D014F054FF0AF0FD
:1048D000AFFF437D544D1A467B612B46073202F4ED
:1048E000FC72ADEB020D4268067D3A61046804AAD1
:1048F000FA60A5F124011A7F093B42F00A0283F80D
:1049000025208B42F7D17B69002B77D03869F96875
:1049100002460139184412F8013BC3F121038242D7
:1049200001F8013FF7D100F09DFC814600F09EFCAC
:104930008246002E6BD0A3194FF0010B984607F169
:104940001806C7F800A014F801AB08224FEA4A0184
:10495000304614F0E1FE19F90A30B96903EBC303DC
:104960002B44FA69585C0BFA02F20243A0455A54F0
:10497000E9D17B69D7F800A013B34FF0010B7B6935
:10498000FC6823447B613B6903F1FF3814F8011B89
:1049900018F8019F49000822304614F0BDFE1AF9AC
:1049A0000930B969023303EBC303FA692B44585C3D
:1049B00001320BFA02F202435A547B69A342E5D159
:1049C000D7F804D00FF028F80FF070F80EF0DEFFE3
:1049D000FDF71EFEFDF750FE1149144A144B0091DD
:1049E000B8681449CDE901320B4B134AFFF71EFF9B
:1049F000FFF7EAFD2437BD46BDE8F08F00F032FC3A
:104A0000814600F033FC8246002ED9D093E707F1AF
:104A10001806B2E700000460A40300204C2F002019
:104A2000D4030020B42600207C270020C8030020E7
:104A3000D0010020540A0020980A002008B50BF08D
:104A400027FA054B1B78984204D01846BDE8084069
:104A50000BF000BA08BD00BF3804002010B50BF001
:104A600017FA04460BF008FA844203D0BDE8104060
:104A70000BF0F0B910BD00BF2DE9F04100248046D5
:104A8000104B0E46202221460F481C6014F073FE86
:104A9000A04514DD2146013E0C4D0B4F06EB080CE2
:104AA00016F8014F0A4B53F8042F1078A04204BFA8
:104AB00047F821200131AB42F5D16645F0D1BDE880
:104AC000F08100BFFC0F00202410002020100020E7
:104AD0000010002070B50E4D2C68B4B1206803782A
:104AE0000A2B12D80B4E56F833309847636863B1DF
:104AF0002B682268191D29603AB15868037806EBC3
:104B0000C30673689847012070BD0020286070BDFF
:104B1000FC0F00203C040020074B10B403F12004DC
:104B200053F8042F1178814202D0A342F8D1002219
:104B3000104610BC704700BF00100020044B11B19C
:104B400043F820107047034A43F82020704700BF05
:104B50000C0400200D44000070B5094C094E04F10E
:104B6000200554F8040F03785A1E092A02D856F873
:104B700023309847AC42F4D1BDE87040FFF76EBFD8
:104B8000201000200C04002000210120FFF7A4BC0D
:104B900000210220FFF7A0BC01460020FFF79CBCCB
:104BA00008B50BF0BFFE002303480449044A036024
:104BB0000B60136008BD00BF4810002044100020A7
:104BC00094100020024B1868003018BF0120704775
:104BD000FC0F002008B5084908200BF03DF8FFF74E
:104BE000BBFF0BF09FFE002304480549054A036004
:104BF0000B60136008BD00BF5D440000481000203A
:104C0000441000209410002038B572B60BF08AFED4
:104C100000200E490E4A0F4B08601060186062B603
:104C20000D4B1C6884B10D4BA3F1200553F80429EA
:104C30002168914218BF5860AB42F7D1BDE83840B7
:104C4000074908200BF008B838BD00BF4810002005
:104C50004410002094100020FC0F00204010002081
:104C60005D44000008B5044908200AF0F5FFBDE8DE
:104C70000840FFF771BF00BF5D44000008B504495C
:104C8000082014F05DFEBDE80840FFF765BF00BFD7
:104C90005D440000082270B5304C314D23682A6015
:104CA000B3B118680278022A31D05A6882B1FFF78E
:104CB00011FF00283FD001232A4A1375BFF34F8FFD
:104CC0004FF040520020284908721370937012E090
:104CD00001260020244A23491672244A08751268C6
:104CE0000AB1904723681868214B027853F8323094
:104CF00098470023236010221E4B2A60D3F800211E
:104D000012071CD44FF0405300225A7070BDD0F8E7
:104D10000120567C002EC8D1154B1B6998470123F2
:104D2000104A1375BFF34F8F4FF040520E490E7269
:104D300013709370DFE701220B4B1A72DBE700223E
:104D400008240D480D49C3F8804102704FF04053CC
:104D5000C1F8402100225A7070BD00BFFC0F002036
:104D6000580900200000105084220020A4220020B6
:104D70003C04002000E100E0570900200000025040
:104D8000F0B5012A83B0164605460C461F462DDCB9
:104D90000146684614F0C0FC36B3009B3F2B1D460D
:104DA000A8BF3F25019A002B134405F03F05B8BF6B
:104DB00000253F2B1A46A8BF3F22002B4FF00001D1
:104DC00002F03F03B8BF002304F1100207EB420CCE
:104DD00009B30A19103207EB4202907965F3050016
:104DE00090710131B142F3DB03B0F0BD104607F022
:104DF00053FB044106FB04F40F2C294606DD012277
:104E0000684614F089FC0126009BC7E732466846D5
:104E100014F082FCC1E79CF8062063F305028CF8CD
:104E20000620DEE7F0B5012A83B0154604460E469B
:104E30001F462DDC0146684614F06EFC009B2DB326
:104E40003F2B1C46A8BF3F24019A002B134404F0BB
:104E50003F04B8BF00243F2B1A46A8BF3F22002BB7
:104E60004FF0000102F03F03B8BF002306F110022B
:104E700007EB420CF1B18A19103207EB420290792C
:104E800064F30500907101318D42F3D103B0F0BDA0
:104E9000104607F001FBF30744BF06416E4321466D
:104EA0002A46684654BF06F1FF36013614F034FC3A
:104EB000009BC5E79CF8062063F305028CF80620EA
:104EC000E1E700BF70B5DCF8103086B0644600251D
:104ED0009847FFF77FFED4E902320121042040F217
:104EE00097260295CDE90001054D06480596CDE9C6
:104EF00003057220FDF7B6FEA06806B070BD00BFC6
:104F0000BCA50100C8A5010070B5DCF8103086B062
:104F1000644600259847FFF75DFED4E9023201217F
:104F2000042040F2CD260295CDE90001054D06484A
:104F30000596CDE903057220FDF794FEA06806B042
:104F400070BD00BFBCA50100C8A5010030B5DCF8EC
:104F50000C3087B064469847FFF73CFE40F2634050
:104F6000002201210425A368059002920648074A01
:104F7000CDE90051CDE9032014227220FDF772FE25
:104F8000A06807B030BD00BFBCA50100C8A50100E6
:104F900030B5DCF80C3087B064469847FFF71AFE4E
:104FA0004FF49360002201210425A368059002922A
:104FB0000648074ACDE90051CDE9032014227220AA
:104FC000FDF750FEA06807B030BD00BFBCA50100D2
:104FD000C8A501002DE9F04F0D46CC1D890087B012
:104FE00024F007040A3121F0070106AFADEB040DF0
:104FF0000DF11808ADEB010D9B4606AEBC6A9DB1E4
:105000000023013800EB050E10F8011F1AB112F849
:1050100001C008F803C01CB154F8211046F8231051
:10502000704503F10103EFD112B340F21A424FF081
:10503000010A4FF00009344B0592344A5146CDE93C
:105040000332CDE9019943462A46CDF800A06420F9
:10505000FDF708FEFB6AFA6AD3F801301178D3E94C
:10506000002312780A299B7952441BD0062939D093
:10507000A4B140F23A404FF0000E01214FF0040C71
:10508000224C059022483346CDE903042A46CDE957
:10509000011ECDF800C06420FDF7E4FD0437BD46D5
:1050A000BDE8F08F009340F64A30CDE9036BCDE9BF
:1050B00001584FF4D7734FF4487102F0C1F840F231
:1050C0002A4C0420134A114B009004930392CDE91B
:1050D00001995B465146CDF814C02A466420FDF77D
:1050E000C1FDC5E7009340F64A30CDE9036BCDE939
:1050F000015882234FF4487102F0A2F840F2364C76
:105100000420054ADFE700BF44A60100BCA501005A
:1051100060A601004CA6010058A601002DE9F04F41
:105120000D46CC1D890087B024F007040A3121F018
:10513000070106AFADEB040D0DF11808002DADEB26
:10514000010D9B4606AEBC6A13DD0023013800EB5F
:10515000050E10F8011F1AB112F801C008F803C0BB
:105160001CB154F8211046F82310704503F10103D7
:10517000EFD112B340F261224FF0010A4FF0000963
:10518000334B0592334A5146CDE90332CDE90199BB
:1051900043462A46CDF800A06420FDF763FDFB6A74
:1051A000FA6AD3F801301178D3E90023127809297B
:1051B0009B7952441BD0052939D0A4B14FF42070FB
:1051C0004FF0000E01214FF0040C224C05902248B4
:1051D0003346CDE903042A46CDE9011ECDF800C0CF
:1051E0006420FDF73FFD0437BD46BDE8F08F009316
:1051F00040F64A30CDE9036BCDE901584FF4D7733F
:105200004FF4487102F01CF84FF41C7C0420134A40
:10521000104B009004930392CDE901995B465146EF
:10522000CDF814C02A466420FDF71CFDC5E70093A5
:1052300040F64A30CDE9036BCDE9015882234FF4A3
:10524000487101F0FDFF4FF41F7C0420044ADFE7A2
:105250001CA60100BCA5010038A6010024A601007F
:1052600030A60100004870474C2F002000487047CE
:10527000B42600202DE9F04F87B0406806AFD7F87C
:1052800028904578D01D20F0070009FB05F5ADEB0F
:10529000000D0DF1180A0E465046002190461C469E
:1052A00014F069FAA94541DB4FF0000B08F1FF3912
:1052B00022224FF0FF31204614F05DFA33784FFA86
:1052C0008BF0B8F1010FE0542DDD4FF0000E6FEAC6
:1052D000060C711C11F8012BA356B3F1FF3F05D149
:1052E000431CAB42ACBF00235BB2A35498421AD01C
:1052F00092FBF5F005FB1020012814BF01204FF0B0
:10530000FF30204482569A420DD00CEB01029145A9
:10531000A1EB060200F09580904501DD1846D9E723
:10532000BEF1000F4CD1BBF1000F46D0C623DFF811
:105330002CB1009300225B4645496420FDF7E4FC54
:10534000B8F1000F6CDD013EB14606EB080119F81B
:10535000013F93FBF5F205FB12324945E254F6D1C9
:105360000121CC2000223B4BCDE904B0CDE9011254
:1053700003930091234642466420FDF773FC0AF133
:10538000FF3316F8012FA256B14503F8012FF8D1CB
:1053900001210024D0253048CDF810B003905346A9
:1053A000642042460595CDE901140091FDF75AFCB1
:1053B00020460437BD46BDE8F08F4FF0010B77E77C
:1053C0000121BC200022234BDFF890B0CDE901126F
:1053D00005900091CDE9033B424623466420013EFF
:1053E000FDF740FC06EB08010AF1FF3316F8012F28
:1053F000A256B14203F8012FF8D101240021C025A3
:105400001548CDE901410390CDF810B06420534612
:105410004246059500942146FDF724FC2046C8E746
:105420000121CC2500200B4ACDE901100392CDF8D3
:1054300010B023460595009142466420FDF712FC0A
:10544000A6E79045BCDD4FF0010E184642E700BFCD
:10545000E4A5010008A60100D4A50100BCA5010037
:105460002DE9F047D2F8017006467A680D46527869
:105470009846012A19D9002815DD00244FF04C095F
:105480004D1E01E07B685A78510094FBF1F301FB5B
:10549000134315F8010F611009FB03830134FFF773
:1054A0006FFCA642EED1BDE8F0870028FBDD0024AA
:1054B0004FF04C0ADFF8249019F904306110002BEA
:1054C00006DB7A680AFB03835278285DFFF758FCF5
:1054D0000134A642F0D1BDE8F08700BF4C2F002078
:1054E00070B5644686B0DCF804200B4BFFF7B8FFBC
:1054F0004FF42876012100202368E268074D084C0C
:10550000CDE9010005960091CDE903457220FDF734
:10551000A9FB06B070BD00BF90070460BCA50100E8
:10552000B0A5010070B5644686B0DCF804200B4BD2
:10553000FFF796FF40F2D626012100202368E2689B
:10554000074D084CCDE9010005960091CDE90345D2
:105550007220FDF787FB06B070BD00BFC008046075
:10556000BCA50100B0A501002DE9F047D2F801600B
:105570001F4672685278012A1ED900281ADD4D1E76
:1055800021244FF04C0805EB000901E073685A78BC
:10559000510094FBF1F301FB134315F8010F04EBE9
:1055A000D47108FB03734910FFF73CFCA94504F1D3
:1055B000FF34EBD1BDE8F0870028FBDD0D464FF04E
:1055C0004C0A0D4C01EB000904F1220814F9013BCF
:1055D000A8EB040101EBD171002B4FEA610106DB5E
:1055E00072680AFB037352782878FFF71BFC0135B9
:1055F0004D45EBD1BDE8F087B426002030B56446B8
:1056000087B0DCF804200B4BFFF7AEFF40F26C458F
:105610000121002223680848084CCDE90122CDE988
:1056200003040595009114227220FDF71BFB07B0BF
:1056300030BD00BFF8060460B0A50100BCA50100A4
:1056400030B5644687B0DCF804200B4BFFF78CFFC5
:1056500040F2A2450121002223680848084CCDE908
:105660000122CDE903040595009114227220FDF773
:10567000F9FA07B030BD00BF28080460B0A50100EA
:10568000BCA50100F0B403268C68012527784FF0F3
:10569000060C80F8E8706778002B80F8E970A7782E
:1056A000B8BF033380F8EA70E778C3F38F0380F85C
:1056B000EB70A779D2B280F8EE70247A072780F8D1
:1056C000EF4080F88E60002690F88940096844F029
:1056D000300480F8894090F8A1406FF3041480F8FA
:1056E000A1400C7880F8A94080F8985090F88B4041
:1056F0006FF3000480F88B4080F88D7080F8B05014
:1057000080F8C56080F8815080F8805080F8AEC085
:1057100080F8AF7080F884604C7A80F89F408C7A73
:1057200080F89E4080F89C60A0F8CA3080F8CD20B8
:105730004B7BF0BC80F800318B7880F80531CB785A
:1057400080F80A310B7980F810310B7B80F8DA3061
:1057500090F8A330CA7962F3061380F8A33090F86A
:10576000A3300A7A62F3020380F8A330CB7A80F880
:10577000A0307047D0F8011008B54A684FF4F263C2
:1057800052784FF040505200FFF77CFFBDE80840D0
:10579000FFF764B9D0F8011008B54A684FF40C63FC
:1057A00052784FF040505200FFF76CFFBDE80840C0
:1057B000FFF754B949F6404301441144033149000D
:1057C00093FBF1F140F2E91070B5012200260425A7
:1057D00088B008AB43F8041D064C05900648CDE997
:1057E0000126CDE90304114600956420FDF73AFA3D
:1057F00008B070BDBCA50100A0A501002DE9F04FC7
:1058000098464C230D4603FB08F1CB1D83B023F0D3
:10581000070300AFADEB030D7960064614466846FA
:105820000A468946002113F0A6FFB8F1000F694629
:105830005FFA85FC57DD6B465C250DEB09005A7855
:105840001D7002F0EC0242F002025A704C338342A7
:10585000F5D1636893F80190BCF1000F29D00024C2
:105860004FF04C0B0123DFF88CA0013E05E04269AC
:1058700001342A436445426118DA16F8012F1AF9F7
:1058800002001F2A03FA02F50BFB0010EFDD057E74
:10589000203AAE4603FA02F2C5F30105154301347E
:1058A00065F3010E644580F818E0E6DBB8F1000FFF
:1058B00010DD00234C255524B9F1020F07D105FB5B
:1058C0000312D07C547420F001009474D07401331E
:1058D0009845F1DC7A68386B13F042FF386B0C376F
:1058E000BD46BDE8F08FBCF1000FF3D0636893F8BC
:1058F0000190B4E74C2F00202DE9F04F85B01546FC
:10590000D0F801800A7DD8F8044002AF66780868B4
:1059100003FB06F603EBC30A1146334600954246E5
:10592000FFF76CFF0AF10703D8F8044023F00703E0
:10593000C7F804D0ADEB030D94F805B00DF10809DC
:10594000484652460021647813F015FFBBF1020F60
:1059500000F0CC80BBF1040F00F0B180BBF1010F6F
:1059600000F0838052460021484613F004FF002EC9
:1059700040F3DD802C464FF0000C4A460023E1182E
:1059800012F8010B0133092B0872F8D10CF1010C4C
:10599000664509F1090904F14C04EEDC4FF0000EF4
:1059A0002846F146D8F80480D7F804D098F8064085
:1059B00004F01F0404F0030C4FEA8C1CA40800211F
:1059C00001F1100300EB430393F806A0DA790AF023
:1059D0003F0A22F0070201314AEA0C0A2243112948
:1059E00083F806A0DA71EBD190F84A300EF1010E7F
:1059F00023F01F03764580F8489080F8499080F89E
:105A00004A3000F14C00DADC002398F8049098F852
:105A100003A098F802B0504649465A4698460124D9
:105A200009EB0A0E0BEB090CAEF10A0E0CF1010C9E
:105A30005FFA8EFE5FFA8CFC01339E4285F802A06D
:105A40002C7185F803C085F8059085F806B085F8B7
:105A500007E085F81980AC7605F14C05ECDCFFF722
:105A6000A9FE0C37BD46BDE8F08F002E5FDDCB46AA
:105A70004FF0000EDFF8E0A05946DFF8D4C0002355
:105A8000022C03D0012C03D1012B01DC9E4506D052
:105A900003EBC30208781CF8022002430A700133AA
:105AA000042BEDD10CF1010CE24501F10101E6D12D
:105AB0000EF1010E76450BF1090BDDD15AE7002EF0
:105AC00035DDCC4606EBC60E1F4CCE4461461F4B5F
:105AD00013F8012F587AA34242EA000201F8012B81
