:1000000000C70000000B00006B7E00000000000035
:1000100000000000000000000000000000000000E0
:10002000022F8C9001FCE012373E22022B20023876
:10003000EB0000020826D2AF320000020816D2AF51
:10004000320000021FEDD2AF32000002081E900104
:10005000BE1233B67496F012266E9001871210ED20
:10006000123390E4FCFD120F6F9001871210F9908B
:10007000018BE475F001120ED7C390018EE09464F9
:1000800090018DE094005003020AD790018712106E
:10009000E1ECC0E0EDC0E0EEC0E0EFC0E090018B2D
:1000A000E0FEA3E0FBEEFAE4F9F8D0E0FFD0E0FEDA
:1000B000D0E0FDD0E0FC1210159001871210F990ED
:1000C00001871210E1900185EEF0A3EFF0A3121169
:1000D000050000000090018B1233B6F09001E8E0BB
:1000E0007002A3E06003020AD790018FE07002A3C0
:1000F000E06003020AD790013CE0700302096E90B1
:100100000181E07002A3E0701D900185E0FFA3E093
:100110009001811233721233BE9001917403F0A3E7
:1001200074E8F0020981900185E0FEA3E0FFC3902E
:100130000182E09FFF900181E09EFE1239629001F2
:10014000A8121142EE8FF0120F5090017FE0701D47
:100150009001A812337AC39406E5F0940050081277
:1001600033771233BE800690017F7401F0900185D1
:100170001233C9900182E09F900181E09E4007E424
:10018000900180F0801B9001807401F08013E49056
:1001900001811233B7F090017FF09001931233B7D1
:1001A000F090017FE07003020AD7D3900184E094BD
:1001B00000900183E094005003020AD7123377FFC6
:1001C000900183E0FCA3E0FDC3EF9DFFE5F09CFE02
:1001D0001239629001C2EEF0A3EFF0A3E4F074C80C
:1001E000123375D39494E5F09411400A9001C474CD
:1001F00003F0A37420F09001C2E0FFA3E09001ACF3
:10020000123372D3123381400CD39001C3E0949621
:100210001233AF501312337712338050369001C32C
:10022000E094C81233AF402BE490017FF09001813D
:10023000F012337512338090018F5008E4F0A374EC
:10024000C8F080077401F0A3742CF0E4900180F0F2
:10025000020AD7123377FFD3123382404AD31233C4
:10026000A9404490010812114274FF75F0F9120F71
:1002700018900195E475F007120ED7C3900194E031
:1002800094E8900193E09403501DA3E0940790013B
:1002900093E09400400A74FF75F0F9120ED78007BE
:1002A000E4900193F0A3F012337712338050481298
:1002B00033A94043900108121142E475F007120F70
:1002C00018900193E475F007120ED7C3900196E0E1
:1002D0009458900195E09402501DA3E0940790017A
:1002E00095E09400400A74FF75F0F9120ED780076C
:1002F000E4900195F0A3F090013CE0601B9001B602
:10030000E07002A3E0701190011DE0FFA3E09001F6
:10031000B6CFF0A3EFF080359001FCE064017008E7
:100320009001C0F0A37496F090013CE0701F12336E
:1003300077FFD39001C1E09F9001C0E095F0400DA0
:10034000E49001B6F0A3F09001BAF0A3F09001B6EA
:10035000E07002A3E07003020BE8123390C3900137
:10036000B7E09FFF9001B6E09EFE1239629001BE99
:10037000EEF0EF12338ED39001B7E09F9001B6E01C
:100380009E400D9001BEE0FFA3E09001B8CF801722
:100390009001BE1233C994C8EE9400400EEE13FED5
:1003A000EF13FF9001B8EEF0A3EFF0D39001B9E0A6
:1003B000940A9001B8E09400404E123377D39488A9
:1003C000E5F09413401FE53394DCE5329405503892
:1003D0009001B9E025E0FE9001B8E0339001BAF059
:1003E000A3CEF08023123377D394E8E5F094034052
:1003F00017E53394F4E5329401500D9001B8E0FF15
:10040000A3E0A3CFF0A3EFF09001FCE06401600350
:10041000020D4390013CE06003020D2D9001F4E0D9
:100420007002A3E06003020D2D90019DE07002A315
:10043000E0700F90011DE0FFA3E090019DCFF0A3BD
:10044000EFF0123390C390019CE09F90019BE09EDF
:100450005004EE1233A1D39001A2E094009001A1C8
:10046000E09400401F9001A0E094041233D04014A7
:100470009001A7E0700EE004F09001A1740575F002
:10048000DC120ED79001A1E07002A3E0702390016E
:10049000A7F09001A1740BF074B812338E90019EF6
:1004A000E02FFF90019DE03EC313FEEF13FFEE80AF
:1004B0001A90019D1233C990011EE09F90011DE02A
:1004C0009E400CE0FFA3E090019DCFF0A3EFF0125F
:1004D0003390C390019EE09F90019DE09E40149058
:1004E000019EE09FFF90019DE09E90019FF0A3EF91
:1004F000F08007E490019FF0A3F0C39001A0E09486
:10050000061233D0401E9001A37427F0A37410F09C
:100510009001A0E094641233D09001A5E4F0A3749C
:1005200064F0D2089001A3E07002A3E0700F1233D0
:1005300099E49001A5F0A3F09001BC80239001A55F
:10054000E0FFA3E09001BCCFF0A3EFF022123399BB
:10055000E49001A3F0A3F09001BCF0A3F09001A5FA
:10056000F0A3F022E709F608DFFA8046E709F2086F
:10057000DFFA803E88828C83E709F0A3DFFA8032BD
:10058000E309F608DFFA8078E309F208DFFA807001
:1005900088828C83E309F0A3DFFA806489828A83EE
:1005A000E0A3F608DFFA805889828A83E0A3F20884
:1005B000DFFA804C80D280FA80C680D4806980F2D5
:1005C0008033801080A680EA809A80A880DA80E25A
:1005D00080CA803389828A83ECFAE493A3C8C582F7
:1005E000C8CCC583CCF0A3C8C582C8CCC583CCDF3A
:1005F000E9DEE7800D89828A83E493A3F608DFF9B8
:10060000ECFAA9F0EDFB2289828A83ECFAE0A3C818
:10061000C582C8CCC583CCF0A3C8C582C8CCC5836D
:10062000CCDFEADEE880DB89828A83E493A3F208E8
:10063000DFF980CC88F0EF60010E4E60C388F0EDEA
:100640002402B4040050B9F582EB2402B404005033
:10065000AF2323458223900D9473EF8DF0A4A8F06F
:10066000CF8CF0A428CE8DF0A42EFE22BC000BBEB1
:100670000029EF8DF084FFADF022E4CCF875F0088E
:10068000EF2FFFEE33FEEC33FCEE9DEC984005FCC3
:10069000EE9DFE0FD5F0E9E4CEFD22EDF8F5F0EE8B
:1006A0008420D21CFEADF075F008EF2FFFED33FD76
:1006B0004007985006D5F0F222C398FD0FD5F0EA16
:1006C00022C2D5EC30E709B2D5E4C39DFDE49CFC21
:1006D000EE30E715B2D5E4C39FFFE49EFE120E4C48
:1006E000C3E49DFDE49CFC8003120E4C30D507C38F
:1006F000E49FFFE49EFE22C5F0F8A3E028F0C5F0D9
:10070000F8E582158270021583E038F022BB010AF9
:1007100089828A83E0F5F0A3E022500687F009E79A
:100720001922BBFE07E3F5F009E3192289828A83C7
:10073000E493F5F074019322BB010789828A830256
:100740000ED7500B09C5F027F7C5F01937F722BBB4
:10075000FE0D09F8E325F0F3C5F019E338F322F8AC
:1007600089828A8374019325F0C5F0F8E4933822D6
:10077000BB010A89828A83F0E5F0A3F0225006F7D4
:1007800009A7F01922BBFE06F3E5F009F31922EFE1
:100790002BFFEE3AFEED39FDEC38FC22C3EF9BFF58
:1007A000EE9AFEED99FDEC98FC22E88FF0A4CC8B3C
:1007B000F0A42CFCE98EF0A42CFC8AF0EDA42CFC17
:1007C000EA8EF0A4CDA8F08BF0A42DCC3825F0FD56
:1007D000E98FF0A42CCD35F0FCEB8EF0A4FEA9F04F
:1007E000EB8FF0A4CFC5F02ECD39FEE43CFCEAA49B
:1007F0002DCE35F0FDE43CFC2275F008758200EF4B
:100800002FFFEE33FECD33CDCC33CCC58233C58242
:100810009BED9AEC99E58298400CF582EE9BFEEDFB
:100820009AFDEC99FC0FD5F0D6E4CEFBE4CDFAE4CA
:10083000CCF9A88222B800C1B90059BA002DEC8BBE
:10084000F084CFCECDFCE5F0CBF97818EF2FFFEE9A
:1008500033FEED33FDEC33FCEB33FB10D703994053
:1008600004EB99FB0FD8E5E4F9FA227818EF2FFF93
:10087000EE33FEED33FDEC33FCC933C910D7059BD5
:10088000E99A4007EC9BFCE99AF90FD8E0E4C9FA31
:10089000E4CCFB2275F010EF2FFFEE33FEED33FDBD
:1008A000CC33CCC833C810D7079BEC9AE899400AE0
:1008B000ED9BFDEC9AFCE899F80FD5F0DAE4CDFB5E
:1008C000E4CCFAE4C8F922EB9FF5F0EA9E42F0E9A5
:1008D0009D42F0EC6480C864809845F022EB9FF55F
:1008E000F0EA9E42F0E99D42F0E89C45F022E86083
:1008F0000FECC313FCED13FDEE13FEEF13FFD8F165
:1009000022E0FCA3E0FDA3E0FEA3E0FF22E0F8A3C9
:10091000E0F9A3E0FAA3E0FB22ECF0A3EDF0A3EEF4
:10092000F0A3EFF022A8828583F0D083D082121149
:100930001C12111C12111C12111CE473E493A3C5A8
:1009400083C5F0C583C8C582C8F0A3C583C5F0C5FB
:1009500083C8C582C822A42582F582E5F03583F5D7
:100960008322E0FBA3E0FAA3E0F922EBF0A3EAF094
:10097000A3E9F022EC8EF0A4CCC5F0CCCDF8EFA426
:10098000CEC5F02DFDE43CFCE8A42EC8C5F03DFD2D
:10099000E43CFCEFA4FFE5F028FEE43DFDE43CFC74
:1009A00022EF4E6012EF60010EEDBB010B89828ACF
:1009B00083F0A3DFFCDEFA2289F05007F709DFFCA1
:1009C000A9F022BBFEFCF309DFFCA9F022208A0378
:1009D00002159D90017FE0600302159D9001EAE001
:1009E0007002A3E0600302159D9001E8E07002A38D
:1009F000E0600302159D90016CE07002A3E06003CB
:100A000002159D122F7C600302159D90013CE0FFB2
:100A1000600302159DEF7038900117122F1C900192
:100A200005122F19D39FE5F09E400302159D7E000D
:100A30007F0A7D007B017A01793D121181E49001EA
:100A400078F0A3F09001F0F0A3F09001EEF0A3F0A5
:100A5000E4F5B290017CE0FFA3E0900222CFF0A386
:100A6000EFF0C20B300403021572758D20438D2008
:100A7000758D8043A808D2AF758B02758EC820048F
:100A80002B122F7C7026200923E5DB5404701D7582
:100A90008AA4200913E5DB5404700DF586758703DD
:100AA0000000007586018006D20B8002D20B758B88
:100AB00001758A3053A8F7D39001E9E09490900132
:100AC000E8E09401400A74FE75F070120ED78007BA
:100AD000E49001E8F0A3F0D39001F5E09490900148
:100AE000F4E09401400A74FE75F070120ED780078E
:100AF000E49001F4F0A3F0E4900226F0A3F0121BBE
:100B00008A900164EEF0A3EFF0900168EEF0A3EF9D
:100B1000F0C3900223E09FFF900222E09EFE123974
:100B200062900224EEF0A3EFF0D39414EE94005000
:100B300025A3E475F001120ED7D3900227E09405A7
:100B4000900226E094004002D20BD3900225E0945C
:100B50000F122F4250A8122F3B4003021562300B98
:100B600003021562900158E0FEA3E0FF900168E0E7
:100B7000FCA3E0FD9FEC9E402BED9FFFEC122F2C81
:100B80007FB87E88122F4940091211050000EA60E3
:100B9000804F1210E1EF24A8FFEE3461FEE43DFD2A
:100BA000E43C8039900168E0FEA3E0FFC390015966
:100BB000E09FFF900158E0122F2C7FA87E61122F3A
:100BC0004940091211050000000080151210EDC304
:100BD00074A89BFF74619AFEE499FDE498FC122FBF
:100BE000359001C01210E19001BEEEF0A3EFF0903D
:100BF0000222E0FEA3E0FF7C007D09121154ECF814
:100C0000EDF9EEFAEFFB900168E0FEA3E0FFE4FCF3
:100C1000FD120F6F7B0A122F12900222EEF0A3EF4B
:100C2000F090013CE0704A900108122F1CFFAEF0DA
:100C3000122EF3900100EEF0A3EFF0900108122FB6
:100C40001CFFAEF07C007D03121154900100122EA7
:100C5000FD900108122F23900100E0FEA3E0FF1297
:100C60002F22900105122F8390010E122F8302155F
:100C700062900100E0FEA3E0FF122EF3900100EE6F
:100C8000F0A3EFF0122F22900108122F1CFFD39037
:100C900001BFE09F9001BEE095F050030215721273
:100CA0000EED900102122F19122F74C3EF9533EE3F
:100CB00095325003021572900105122F1CFFAEF001
:100CC0007C007D02121154ECC0E0EDC0E0EEC0E00B
:100CD000EFC0E0900108122F1CFFAEF0900102124D
:100CE0002F1C122F74E4FCFDD0E0FBD0E0FAD0E022
:100CF000F9D0E0F8120F6FE47B03122F1390010577
:100D0000122F23900105122F1CD39430E5F0947517
:100D10004008747575F030120F5090017FE06062EA
:100D2000900183E0FEA3E0FFD39400EE94004052D4
:100D3000900105122F1C122F741239629001C4EE1B
:100D4000F0A3EFF0900105122F1CC3122F5A50127E
:100D5000122F67400D900108121142E475F007123E
:100D60000F18900105122F1CD3122F5A4014D312C2
:100D70002F67400E90010812114274FF75F0F912AE
:100D80000F18200B0D122F3B5008122F7C700302FE
:100D9000124490017EE004F09001871211050000DA
:100DA0000000E490018BF0A3F0A3F0A3F090020305
:100DB000121105000000001238EB12385F22122CCD
:100DC000E840030218B2900108122CB8FDE5F0FCCF
:100DD000122CB5FFAEF0D39DEE9C402E122D48D3C1
:100DE000EF9430EE9475400C9001BE7475F0A374CE
:100DF00030F08010120EEDC39DFEE5F09C9001BE18
:100E0000F0A3CEF0E49001AE8060120EEDFFAEF0E4
:100E1000C3ED9FFBEC9EFAD3EB9410EA9427400CB1
:100E20009001BE7427F0A37410F08009C3ED9FFFFA
:100E3000EC9E122CD49001BEE0FFA3E09001AECF57
:100E4000F0A3EFF0300018D3E0942C9001AEE094C2
:100E50000140139001B07427F0A37410F08007E4F0
:100E60009001B0F0A3F0E49001BEF0A3F090013C3B
:100E7000E0604A122CACD39400EE6480948040145D
:100E8000D3EF9523EE9522400B9001EEE4F0A3748E
:100E900064F0801BD39001EFE094009001EEE094A9
:100EA00000400C900105122CB8FFE5F0122CD4D2B2
:100EB000089001F4743AF0A37498F0800F9001F256
:100EC0007403F0A374E8F0E4FF1237F0D39001BF8D
:100ED000E094009001BEE064809480500302188783
:100EE000E0FEA3E0FF900105122CA3122CACEE3320
:100EF00095E0FDFCE47BB87A88F9F8C31210A7509E
:100F00000A9001BE7488F0A374B8F0D39001F1E0A8
:100F100094009001F0E0940050089000F1E064200B
:100F2000702AE523240AFFE43522FE9001BEE0FC8E
:100F3000A3E0FDC39FEC9E5013ED9400EC648094FD
:100F4000804035122CAC7C007D0A8029300029902D
:100F5000013CE07011122CACC39533EE9532501861
:100F60007C027DBC800F122CACC39523EE952250E1
:100F7000077C027DBC122CD090013CE0700302176C
:100F8000E69001F2E07002A3E070149001BEE0FE72
:100F9000A3E0FDEEFCE4FF1218B3122CD38035124F
:100FA0002CACC3900135E09FFF900134E09EFE120F
:100FB0003962D3EF9428EE648094804017D3900177
:100FC000F3E094C89001F2E09400400874FF75F0DB
:100FD0009C120ED7900134E0FEA3E0FF7C007D0759
:100FE000121154ECF8EDF9EEFAEFFB122CACEE33E3
:100FF00095E0FDFC120F6FE47B08FAF9F81210156A
:10100000900134EE800B9001BEE0FFA3E09001342C
:10101000CFF0A3EFF0900134E0FEA3E0FFD39405FE
:10102000EE9400400EEF9410EE940050069001BE36
:10103000EE8016900130E0FEA3E0FF900135E02F36
:10104000FF900134E03E9001BEF0A3EFF0D3900199
:10105000BFE094309001BEE0648094F54007747561
:10106000F0A37430F0E5DB5404706790013CE0704D
:1010700020D39001A4E094009001A3E094004011DB
:10108000122CAC9523EE952240077C007D0A122C91
:10109000D0122CAC90010E122CA39001BFE024A81A
:1010A000FF9001BEE08022E5DB54047025122CDCA9
:1010B000900130E0FEA3E0FF90010E122CA39001FE
:1010C0000E122CB824A8FFE5F03461FE90010B123B
:1010D0002CA3229001C0EFF0A3ECF0A3EDF0EF12EF
:1010E0002C58E0FEA3E0C39DFFEE9CFE123962D3B4
:1010F000EF9428EE64809480401C122C2812110575
:1011000000000000122BF4E4F0122C72122C54EEAA
:10111000F0A3EFF0803B122BE3122C8840339001B8
:10112000C1E0FCA3E0FDD3EF9DEE9C400B9001C01D
:10113000E0122C1BE04401F09001C0E0FF122BE70D
:10114000E0FAA3E0C39DEA9C5007122C1AE0440287
:10115000F09001C0E0122C2DC083C0821210ED125D
:101160002C72E4FCFD120F6FD082D0831210F99024
:1011700001C0E0FF122C7BE475F001120ED7EF7571
:10118000F007A42484F582E43439F583E493FE74F3
:101190000193FF9001C0E0FDC454F0241AF582E4ED
:1011A0003402F583E0FAA3E0C39FEA9E5003021BDA
:1011B0001FED122C7BE0FEA3E0FFFBEEFAE4F9F852
:1011C0009001C0E0122C2D1210E11210159001C3F5
:1011D0001210F9122BDDE0FCA3E0C39FFFEC9EFE92
:1011E0001239629001C7EEF0A3EFF09001C0E0FD6C
:1011F00075F007A4247FF582E43439F583C37401C4
:10120000939FE4939E401FED122BE7E0FEA3E04E78
:1012100060149001C0E0FB122C65E0FEA3E0C394D3
:10122000B8EE940B501E9001C0E0FF122BE7E0FCDB
:10123000A3E04C7008EF122C65E4F0A3F0122BDD54
:10124000EE021AC6EB6003021ACC9001C9F09001BD
:10125000C7E0FEA3E0FFD39450EE94004006A374D1
:1012600008F080329001C0E0122C1BE0640360267D
:10127000D3EF943CEE940040089001C97404F080D0
:1012800015D39001C8E094289001C7E0940040066F
:101290009001C97402F0122BE3E0FEA3E0FFE4FC2E
:1012A000FD122C94D31210BD40119001C9E0FF1221
:1012B0002BE3E48FF0120ED7021B02D39001C8E09B
:1012C00094509001C7E094004058122BE3C083C0B3
:1012D00082E0FEA3E0FF9001C9E0FDC3EF9DFFEEB9
:1012E0009400D082D083F0A3EFF08036122BE3E09D
:1012F000FEA3E0FF4E700D122C94EBFFEAFEE9FD19
:10130000E8FC80167C007D07121154122C94120FF9
:101310006FE47B08FAF9F8121015122BE3EEF0A334
:10132000EFF0122C2812110500000000122BF4E43B
:10133000F09001C31210E1122C54EEF0A3EFF01262
:101340002BE3122C88405F9001C2E09FFF9001C107
:10135000E09EFE1239629001C0E075F007A424817E
:10136000F582E43439F583D37401939FE4939E406E
:101370000F9001C0E0FF122BE7122C3AE4F0802618
:101380009001C0E0FF75F007A42483F582E43439AE
:10139000F583E493FE122C46E0C39E5009122BE322
:1013A000122C3AE004F0122C72227F011234FA124D
:1013B0002DBB902E20E030E2F99001FCE025E024E6
:1013C0007CF582E43439122D7D9001CC122DAD7F55
:1013D000011239459001CCE0FFA3E090015ECFF00F
:1013E000A3EFF090015AE07002A3E0700F90015E4D
:1013F000E0FFA3E090015ACFF0A3EFF09001CE12EE
:10140000110500002710E4FF1234FAE49001C9F03E
:10141000122D8F9001C9E0C39F4003021CE9E4FF35
:10142000122DBB902E20E030E2F99001FCE025E087
:10143000247BF582E43439122D7D9001CA122DAD42
:10144000FF123945900197E0FEA3E0FF9001CBE049
:101450002FFF9001CAE03EFE900199E0FCA3E0FD61
:10146000C3EF9DFFEE9CFE9001CAF0A3EFF0900148
:10147000B4EEF0A3EFF090015CE0FEA3E0FF4E704D
:101480000E9001B4E0FCA3E0FDECFEEDFF801AEF4E
:1014900025E0FFEE33FE9001B5E02FFF9001B4E0B0
:1014A0003EFE7C007D03120E4C90015CEEF0FAA330
:1014B000EFF0FB122D75FFE4FCFD9001D31210F943
:1014C000EBFFEAFEE4FCFD9001D71210F9E4FF12F5
:1014D0002160900160EEF0A3EFF09001FCE090013C
:1014E000CE700B122D722400FFEE34E88009122D0D
:1014F000722400FFEE34F0FE3395E0FDFC122DCE99
:101500009001C9E004F0021BF0902E23E4F090015A
:10151000CE1210EDE8C0E0E9C0E0EAC0E0EBC0E0C8
:10152000122D8FFBE4FAF9F8122DC8123677D0E0AD
:10153000FBD0E0FAD0E0F9D0E0F8122DCEE47F50F5
:101540007EC3FDFC9001CE1210EDD31210A7400A0D
:101550009001CE1211050000C350122DC8EC33507B
:101560000A9001CE12110500000000900166E0FA19
:10157000A3E0FB4A7005122DC880227E007F02EB9B
:10158000FDEAFC121154ECF8EDF9EEFAEFFB122D26
:10159000C8120F6FE47B03FAF9F812101590016678
:1015A000EEF0A3EFF0900158E07002A3E0700F900E
:1015B0000166E0FFA3E0900158CFF0A3EFF09001A7
:1015C00026122D72FFE4FCFD120F6F9001261210FF
:1015D000F990012AE475F001120ED790012AE0FE7D
:1015E000A3E0FFD3940AEE94004029EFFBEEFAE467
:1015F000F9F89001261210E1121015900124EEF076
:10160000A3EFF0E490012AF0A3F090012612110557
:101610000000000090012CE07002A3E0703A9001FD
:1016200024E0FEA3E0FFC3900161E09FFF90016012
:10163000E09EFE123962900122EEF0A3EFF0D39407
:1016400006EE9400401290012C7403F0A374E8F0AD
:10165000A3E475F001120ED7900166E0FEA3E0FF4F
:1016600022D39001E9E09F9001E8E09E400AA3E0C8
:101670009FF09001E8E09EF09001ED1233DE9001C2
:10168000ECE09C400CA3E09FF09001ECE09EF08029
:1016900002D28AD39001EBE09F9001EAE09E400ADB
:1016A000A3E09FF09001EAE09EF01233F0500312A5
:1016B0003428D39001EFE09F9001EEE09E400AA312
:1016C000E09FF09001EEE09EF0D39001F1E09F905A
:1016D00001F0E09E400AA3E09FF09001F0E09EF050
:1016E000D39001F7E09F9001F6E09E400AA3E09FAF
:1016F000F09001F6E09EF0D39001F3E09F9001F2AC
:10170000E09E400AA3E09FF09001F2E09EF0D390AB
:1017100001F5E09F9001F4E09E400AA3E09FF09065
:1017200001F4E09EF0D39001B1E09F9001B0E09E03
:10173000400AA3E09FF09001B0E09EF09001F91202
:1017400033DE9001F8E09C400AA3E09FF09001F89E
:10175000E09EF01233FE5003123428D3900190E043
:101760009F90018FE09E400AA3E09FF090018FE0E0
:101770009EF090019212342E900191E09C400AA3B9
:10178000E09FF0900191E09EF0D39001A2E09F9045
:1017900001A1E09E400AA3E09FF09001A1E09EF02D
:1017A000D39001A4E09F9001A3E09E400AA3E09F94
:1017B000F09001A3E09EF090016D12342E90016C28
:1017C000E09C400AA3E09FF090016CE09EF0D39073
:1017D00001B3E09F9001B2E09E400AA3E09FF09029
:1017E00001B2E09EF012340C500312342812341A65
:1017F0005003123428D390012DE09F90012CE09EDD
:10180000400AA3E09FF090012CE09EF022C0E0C0CF
:10181000F0C083C082C0D0E8C0E0D2AFD39001E96D
:10182000E094009001E8E0940040031233D7D39095
:1018300001EDE094019001ECE0940040051233D7F3
:101840008002D28AD39001EBE094009001EAE09408
:101850000040031233D71233F050031233E9D39010
:1018600001EFE094009001EEE0940040031233D7C2
:10187000D39001F1E094009001F0E0940040031255
:1018800033D7D39001F7E094009001F6E094004044
:10189000031233D7D39001F3E094009001F2E09467
:1018A0000040031233D7D39001F5E094009001F487
:1018B000E0940040031233D7D39001B1E09400903C
:1018C00001B0E0940040031233D7D39001F9E094C3
:1018D000019001F8E0940040031233D71233FE5018
:1018E000031233E9D3900190E0940090018FE094CB
:1018F0000040031233D7D3900192E09401900191FC
:10190000E0940040031233D7D39001A2E0940090FA
:1019100001A1E0940040031233D7D39001A4E094D6
:10192000009001A3E0940040031233D7D390016DDF
:10193000E0940190016CE0940040031233D7D390FF
:1019400001B3E094009001B2E0940040031233D759
:1019500012340C50031233E912341A50031233E9D3
:10196000D390012DE0940090012CE09400400312EC
:1019700033D7D0E0F8D0D0D082D083D0F0D0E032CE
:101980009001D2EFF0122A99E070279001D2E01274
:101990002AD01210E1E4FBFAF9F8C31210BD60126C
:1019A0009001D2E0122AEE1210E1E4F8C31210BD49
:1019B0007057122B029001D312229CEEF0A3EFF08D
:1019C000ED122A99E06029ED75F00AA42474F582DD
:1019D000E43439F583C083C0829001FCE0D082D02A
:1019E00083122AA7400A9001D2E0122A997405F0C6
:1019F000122A4EE0D39400748094804006122A98F4
:101A0000E014F09001D7022298122ACB1210E19034
:101A100001DB1210F9122AED1210E19001DF121011
:101A2000F99001D2E0122ADF1210E1EFF9122B0B2C
:101A3000E9F81210CEEFFBEEFAEDF9ECF8122B0BF1
:101A4000120F7C9001E31210F99001DB1210E1906B
:101A500001D71210ED120F6F9001E31210ED120F6B
:101A60006F122AFC122ACB122B08122AED122B0815
:101A7000122B111210ED121015122AFC9001DF1218
:101A8000229CEEF0A3EFF0ED75F00AA42470F5822D
:101A9000E43439F583C083C0829001FCE0D082D069
:101AA00083122AA7400F122A4E7405F0122B0290BF
:101AB00001DF1210F99001DF1210E122EFFBEEFAC4
:101AC0001210E1C3EF9BFFEE9AFE1239629001D231
:101AD000E0FD75F013A42408F582E43402F58322B6
:101AE000900178122D4F9404EE94005022122D187C
:101AF000EF25E0FFEE33FE74702FF58274013EF5A2
:101B000083ECF0A3EDF0900178122D2C02238E903F
:101B100001CB7401F09001CBE0FFC3940474809476
:101B2000805021EF122D00FCA3E0FDEF25E0246E94
:101B3000F582E43401F583ECF0A3EDF09001CBE005
:101B400004F080D190013CE060028053122CB5FF7C
:101B5000122D18C3EF9DFFE5F09CFE123962C3EF12
:101B60009428EE648094805036900108122CB8FFBF
:101B7000C3900101E09FFF900100E095F0FE123953
:101B800062C3EF9414EE6480948050059001088045
:101B900003900102122CB8FF900176E5F0800B90C3
:101BA0000100E0FFA3E0900176CFF0A3EFF09001F9
:101BB000C712110500000000E49001CBF09001CBAA
:101BC000E0FFD3900179E09F900178E094004025F8
:101BD0009001C71210ED9001CBE0122D00FEA3E0A2
:101BE000FFE4FCFD120F6F9001C71210F99001CBBA
:101BF000E004F080C89001C71210E1ECC0E0EDC035
:101C0000E0EEC0E0EFC0E0900178122D33D0E0FFAD
:101C1000D0E0FED0E0FDD0E0FC1210159001C7121C
:101C200010F99001C70210E19001BE7402F0A37494
:101C3000BCF0D39001B3E094009001B2E094004076
:101C400011122CB5FF900108121142E5F08FF0122D
:101C50000F509001E8E07002A3E0600B9001BEE439
:101C6000F0A37464F0800B90001AE06411700374A8
:101C700020F090013CE0600F7E007F0A7D007B0138
:101C80007A01793D02118190013D1210EDE8C0E02A
:101C9000E9C0E0EAC0E0EBC0E0122CB5FFAEF0E432
:101CA000FCFDD0E0FBD0E0FAD0E0F9D0E0F8120F74
:101CB0006F90013D1210F9900141122D2C9001BE40
:101CC000122D4F900146E09F900145E09E50030287
:101CD000254C90013D1210E1ECC0E0EDC0E0EEC0FB
:101CE000E0EFC0E0900141122D33D0E0FFD0E0FEE4
:101CF000D0E0FDD0E0FC12101590013D1210F990DB
:101D00000108122CB82432FFE435F0FEE4FCFD900B
:101D1000013D1210EDD31210BD402E9001E8E0708D
:101D200002A3E07024200821900143122D2DD390AE
:101D30000144E09405900143E094004018122C9A6D
:101D4000E4900143F0A3F0800C122C9AE49001433C
:101D5000F0A3F0C20890013D12110500000000E45C
:101D6000900141F0A3F0900145F0A3F0229001C34F
:101D7000EFF0902E22E0FF9001C7E4F0A3EFF075A2
:101D80008A50902E227401F01236547404F0A3E4A9
:101D9000F09001C4F09001C4E0FFC3940D748094EE
:101DA000804003022661EFF87E02E4088006CEA29E
:101DB000E713CE13D8F8FF9001C5EEF0A3EFF04E75
:101DC00070079001C5F0A304F0902E207401F090EC
:101DD0002E20E030E2F99001C3E0FF902E00123691
:101DE0005BE0FCA3E0D394FEEC9407404012366D18
:101DF000E0FEA3E0FF9001C5E0FCA3E0FDEF2DFFB6
:101E0000EE3CFEC3EF94FFEE94079001C3E075F043
:101E100002902E10500B121136EC8DF0120ED7805E
:101E2000501211367407F0A374FFF080449001C380
:101E3000E0FF123658E0FCA3E0FD9001C5E0FAA3F4
:101E4000E0FBD3ED9BEC9A402112366DC083C0823B
:101E5000C3A3E09BFF0582D5820215831582E09A19
:101E6000D082D083F0A3EFF08007123654E4F0A3C1
:101E7000F0902E20E4F0F58D9001C4E004F00225EE
:101E8000759001C7A3E0902E22F0758A3022758DDF
:101E900020438D20538D7FE4F5B275B6FF75B7FFF3
:101EA00075B2A243B20153A8FB538B7F758B1043CD
:101EB0008B08E58B20E7030080F8538B7F758B112F
:101EC000438B08E58B20E7030080F890022BE5B5F3
:101ED000F0A3E5B4F0758B01E4F5B21238EBE4F54C
:101EE0008D12392B4E700F123922FD90011DE5F035
:101EF000F0A3EDF08061123922FDC3EF9DFFEE9556
:101F0000F0FE123962D3EF940AEE6480948040248C
:101F1000123922FFC390011EE09F90011DE095F051
:101F20005006E475F001800790011D74FFF5F01272
:101F30000ED78023123922AEF0FBEEFAE4F9F81244
:101F4000392BE4FCFD120F6FE47B02FA121015909E
:101F5000011DEEF0A3EFF09001FCE0640112392BBB
:101F60007C007D28121154E47B64FAF9F8121015F4
:101F7000900197EEF0A3EFF0900199E07002A3E0DA
:101F8000700D900197E0FFA3E0A3CFF0A3EFF090D6
:101F9000019BE07002A3E0700F90011DE0FFA3E041
:101FA00090019BCFF0A3EFF0227FFF7A007900121F
:101FB00037727FBE7A0179001237727E007F147DFE
:101FC000007B017A0179E7121181902DE0E4939072
:101FD0000001F09000047411F0A37422F0A3743394
:101FE000F0902DE2E493900012F0902DE3E49390B2
:101FF0000014F09000FB7401F09000367410F09023
:1020000000F1F0900024F0A37420F07B017A0079B5
:102010004090010212114B7A00794490010812118C
:102020004B7A00794290010512114B7A00792E907B
:10203000010B12114B7A00792A90010E12114B7A82
:1020400000792890011112114B7A00796090011FDC
:1020500012114B7A0079809001A812114B7A007905
:102060001890013912114B7A00791B900136121128
:102070004B7A00793290011412114B7A0079269034
:10208000011712114B7A00793490011A12114B1278
:10209000373E9001E87407F0A374D0F0E49001E7B4
:1020A000F022E4F50CF50BF50AF509F50CF50BF546
:1020B0000AF509F508122CF6502AE50825E0242433
:1020C000F8E6FE08E6FFE4FCFDE50C2FFFE50B3E1D
:1020D000FEED350AFDEC35098F0C8E0B8D0AF509E6
:1020E000050880D1E47B06FAF9F8AF0CAE0BAD0A17
:1020F000AC0912101590017CEEF0A3EFF0E4750C22
:10210000A8750B61F50AF509F508122CF6505590E3
:10211000017C122CBEC3122D48123962D3EF940AEF
:10212000EE64809480401290017CE0FEA3E0FF907A
:102130000158E0FCA3E0FD8007900158122CBEC3BB
:10214000122D483395E0FDFCE50C2FFFE50B3EFE1C
:10215000E50A3DFDE5093C8F0C8E0B8D0AF509055E
:10216000080228EAE47F607EEAFDFCAB0CAA0BA91A
:102170000AA809D31210BD400BE4750C60750BEA78
:10218000F50AF509AE0BAF0C227FC87E007D967C68
:1021900000122CE84003022A4D3000209001B0E0EC
:1021A0007002A3E0600875321375338880067532BB
:1021B000057533DC7522037523E880499001FCE046
:1021C000F964017006FE7FC8FC7D969001BAE0FAC2
:1021D000A3E0FB2FF533EA3EF532CEECCEEDFFEB7C
:1021E0002FF523EA3EF522E964017019A3E0FEA36E
:1021F000E0FF2533F533EE3532F532EF2523F523B5
:10220000EE3522F522900105122CB8FFAEF0C395F1
:1022100033EE9532500F90013CE0601AC3EF9523E6
:10222000EE952240119001F0E07002A3E0701C9046
:10223000013C04F080159001F07401F0A374F4F0F7
:10224000E490013CF09001EE122D3E90013CE0FF45
:102250006016900024E0641090003670057410F051
:1022600080037420F0122D2190004BEFF02290019A
:10227000D71210E19001D2E0FB75F013A42403F50E
:1022800082E43402F5831210F9EB75F013A4240EE6
:10229000F582E43402F5831210E19001D71210EDBB
:1022A000120F8A9001D2E0FB75F013A424FFF5828F
:1022B000E43401F5831210F9EB75F013A42407F54B
:1022C00082E43402F5832275F002121136E493FEA3
:1022D000740193FFED75F013A42408F582E4340231
:1022E000F583E0FCA3E0D39FEC9E229001D2E0FBBB
:1022F00075F013A42403F582E43402F58322EB7510
:10230000F013A4240AF582E43402F58322EB75F07D
:1023100013A424FFF582E43401F583229001DF1237
:1023200010F99001D70210E11210F99001DF0210AC
:10233000E1EB75F013A4240EF582E43402F5832258
:10234000C0E0C083C082C0D075D018D2AFE5DB300A
:10235000E422D209C206E5DB30E114123954E0F57B
:10236000DFEF64077065D28A900007F0022BCEC2BF
:1023700005022BD1E5DB30E52C9000F0E064AA707B
:1023800017758A10F5DAC2AFF5B2F5A8F5A9F58B85
:10239000758E01758DC080FED204300604C20680A1
:1023A00050C209804CC206E5DB30E121E5DB30E0BC
:1023B00040123954E0F5DFEF24F9600824EE700B89
:1023C000D20A8007D28A900007E4F0802120050A13
:1023D000780DA6DFD205D2068017123954E5DFF05A
:1023E000EF642470099001EA04F0A374F4F0780D0E
:1023F0000675DBFFD0D0D082D083D0E0329001C30D
:102400001210E19001C0E0C454F02418F582E434C5
:1024100002F58322EBC454F02416F582E43402F56D
:1024200083E4F0A3F09001C0E0FFC454F0241AF557
:1024300082E43402F583E4F0A3F0EFC454F0241FE7
:10244000F582E43402F583229001C0E0FBC454F02D
:102450002412F582E43402F58322E0FDA3E090012A
:10246000C1CDF0A3EDF0EFC454F0241EF582E434A6
:1024700002F583229001C0E0C454F0241CF582E4EC
:102480003402F58322C454F02420F582E43402F5AA
:1024900083229001C1E0FEA3E0FF22C454F0241681
:1024A000F582E43402F58322E0FEA3E0FFD394003A
:1024B000EE9400229001C30210ED90013D1210E154
:1024C000900108121142EE8FF0020F509001BEE011
:1024D000FEA3E0FF22900102121142020EEDE50878
:1024E00025E02424F8E6FE08E6FFE0FCA3E0FD2258
:1024F000120EA1EE9001BEF0A3EFF02290010512A2
:102500001142E4F5F0020F50D39001E9E0940090FD
:1025100001E8E0940022C3E50894067480948022C8
:1025200025E02470F582E43401F583E022121142A3
:10253000746175F0A8020F50900100E0FCA3E0FD6B
:10254000229001EA7403F0A37420F022E475F001F4
:10255000020ED7E0FEA3E0FBEEFAE4F9F822F0A3C6
:10256000F09000367410F022EF9DFFEE9CFE22E00A
:10257000FEA3E0FFC3229001FCE025E0247BF5826E
:10258000E43439F583E5822FF582E43583F583E47D
:1025900093221210ED900160E0FEA3E022F583E4A7
:1025A0009375F002902E00121136E0FFA3E0229006
:1025B00001FCE0242DF582E43402F583E0FF22F5EE
:1025C00083E4932420F582E4342EF58322CFF0A314
:1025D000EFF0902E20E4F0758A30221238CE758A02
:1025E00050902E207401F0229001CE0210E1120FC3
:1025F0006F9001CE0210F99001E77401F022000003
:102600000B00ABC774AA7583F5758255A574557513
:1026100083FA7582AAA574A57583F5758255A522DE
:102620000203020AB0B00BB6B60CFFFF09020208A3
:10263000FFFF0D77770E04041307071410101080A6
:1026400080150000160000019212921207190B1952
:102650000B0F0404040404010101011114141515E5
:102660001213131010030204020412329E1238B027
:102670007E007F297D007B017A01797F1211811212
:10268000082EE4900178F0A3F0900166F0A3F0909A
:102690000164F0A3F0900168F0A3F07F061230A669
:1026A000900100E0FEA3E0FFA3122CA3900100E044
:1026B000FEA3E0FF122CA0122CDC90010B122D0DBA
:1026C000900111122D0D90010E122CDFE490013CAF
:1026D000F0FE7F0AFD7B017A01793D121181E490C1
:1026E00001F6F0A3F09001F4122D3EE490004BF0BF
:1026F000122D219001FAE0700FC39001E9E094F4EB
:102700009001E8E09401500A9001E87401F0A3748C
:10271000F4F0227C007D031211549001BEECF8ED20
:10272000F9EEFAEFFBE0FEA3E0FFE4FCFD120F6F11
:102730007B04E4FAF9F8021015FFAEF01211420220
:102740000EEDA3121142EE8FF0020F509EFE7C00A0
:102750007D061211549001C00210F9C3900225E0C9
:102760009414900224E0940022E4FDFC9001C01235
:1027700010EDD31210BD9001C022FF900184E09FA4
:10278000900183E095F0229001C5E0940A9001C485
:10279000E0940022C39FFFE5F09EFE229000F1E04E
:1027A000642022121142E4F5F0020F50787FE4F623
:1027B000D8FD758133022FD602000002301BE4934E
:1027C000A3F8E493A34003F68001F208DFF4802924
:1027D000E493A3F85407240CC8C333C4540F442013
:1027E000C8834004F456800146F6DFE4800B010202
:1027F0000408102040809037B7E47E019360BCA3AA
:10280000FF543F30E509541FFEE493A360010ECF4F
:1028100054C025E060A840B8E493A3FAE493A3F879
:10282000E493A3C8C582C8CAC583CAF0A3C8C58239
:10283000C8CAC583CADFE9DEE780BE53A87F123964
:10284000071227891236FE12080E43A880E4F58D80
:102850009000F17420F01231A59001E7E0146018A7
:1028600014601A14603B14604D240470E0120803D5
:10287000123126122DD780D5122E4A803112388D72
:10288000900020E0FF64206008EF642160031232B2
:1028900023900025E0641070B49001E77404F08088
:1028A000AC1211AD9001EA7403F0A37420F0900112
:1028B000E77402F080971235EA900025E06410601A
:1028C0008C122DD780879001C7EFF0E4A3F0900120
:1028D000C7E0FFA3E0C39F502E121B8A1239349029
:1028E0000168EEF0A3EFF08E30F531C87424C8749F
:1028F00000FCE4FDFB7A007926FE7F0C120E14909A
:1029000001C8E004F080C7122882900100EEF0A315
:10291000EFF0900166122D4F900133E09FFF900180
:1029200032E09EFE1239627C007D05120EA19001FC
:1029300030ECF0A3EDF0900166E0FFA3E0900132EF
:10294000CFF0A3EFF022E49001BEF0A3F09001FCE1
:10295000E09001477404F0A374B0F01236BB7E001F
:102960007F047D007B017A0179581211817F011269
:10297000377BE4FF12377B1236619001BECFF0A3A4
:10298000EFF09001BEE0FEA3E0FFC39405EE9400DB
:102990004009D3EF94F0EE9407400BE4900147F028
:1029A000A3F0FF12377B902E23E4F01236619001E2
:1029B000BECFF0A3EFF090001D7410F09001BE1296
:1029C0003632020F50900020E0642070037421F032
:1029D000900136121142120EED641045F070031290
:1029E00035A1900001E064AA700312343912355603
:1029F00020070890001AE06410700B90001A741100
:102A0000F0C207122DD79000FBE06006E4F09001C1
:102A1000E7F090016CE07004A3E064017015900190
:102A20006CF0A3F09001B27407F0A374D0F0E490BE
:102A300001E7F030040CC2049001EA7401F0A374C1
:102A4000F4F022308A779001E8E07002A3E0706D24
:102A500090016CE07002A3E07063F5B2758D2043C5
:102A60008D20758D8043A808D2AFF58B90012CE0A6
:102A7000FEA3E0FF4E6005758E508003758EFE202C
:102A8000042F20092CE5DB54047026758AA4200944
:102A900020E5DB5404701AF5867587030000007585
:102AA0008601EF4E60047F2880027F7F7E00121E29
:102AB00041758B01758A3053A8F71238EB227E00DE
:102AC0007F137D007B017A0179FF121181E4FBEB1A
:102AD000C394017480948050519001FCE0FFEB7529
:102AE000F00AA4246EF582E43439F583E5822FF5EB
:102AF00082E43583F583E493FFE4FCFDFE122ADED5
:102B00001210F9122ADE1210E1EF04F87E007401AF
:102B1000088005C333CE33CED8F9FFEE3395E0FD00
:102B2000FC122B111210F90B80A5229001ECE07021
:102B300004A3E064017011900007E06004D28AE40D
:102B4000F0E49001ECF0A3F0900036E0FF9000FF7D
:102B5000E06F603D900036E0FD9000FFF0900007D0
:102B6000E09001FEF0540FF0ED7E0064207005E06F
:102B70004420800CEF64104E700B9001FEE0441076
:102B8000F0900007F0C28A9001EC7403F0A374E89F
:102B9000F022CFF0EFA3F0900105121142020EEDEA
:102BA000C3FF900184E09F900183E095F022A3F0A1
:102BB00090011DE0FEA3E0FF2290011DE0FFA3E0D5
:102BC000CF90019BF0A3EFF0229001C3E0941E9000
:102BD00001C2E0940022E4F0A3F0A3F0A322FF904E
:102BE0000183E5F0F0A3EFF022E0FEA3E0FFD322A3
:102BF00090019FE094002274FFF5F0020ED7EF24BD
:102C000001FDE43EFCD3E09D22E475F001020ED705
:102C1000C3900146E094BC900145E0940222C39029
:102C2000018EE0946490018DE0940022C390022113
:102C3000E094B8900220E0940B22C390021BE09431
:102C4000F490021AE0940122EE8FF0020ED7EF24E6
:102C500001FDE43EFCD3E09D229001BE7408F0A388
:102C6000E4F0A3743FF0A374DFF0E4FDFCF9758A8F
:102C700010538AEF009001BEE0FEA3E02DF582EE36
:102C80003CF583E493FF69F90DBD00010CBC37E509
:102C9000BDDFE29001C0E0FEA3E0F5828E83E49305
:102CA000FFE96F7008900001740BF08005E490005C
:102CB00001F0758A30538AEF0022E49001C0F0A33E
:102CC000F0300A55200052C20A1236619001C0CF7E
:102CD000F0A3EFF09001C0E0FFA3E09001BECFF0C1
:102CE000A3EFF0E4FF12377B1236619001C0CFF002
:102CF000A3EFF09001C0123632120F509001FCE0A9
:102D00009001BEE0FFA3E0902E12CFF0A3EFF09071
:102D100001EA7403F0A37420F022E4FEEEC39407EA
:102D2000748094805038EE75F005A42428F582E470
:102D3000342EF583C083C0829001FCE0D082D08322
:102D400075F002121136122D65FDEE75F005A42402
:102D500027F582E4342E122D9FEDF00E80BEEF7029
:102D600014900147E07002A3E0700A9001FCE0902B
:102D70002E217412F022900013E0FF9001FBE06F0F
:102D8000600CEFF09001F87402F0A37458F0900119
:102D9000F8E07004A3E0640170269001FBE0FF7E80
:102DA0000064107002D200EF64204E7002C20090E6
:102DB0000025E064106002D207E49001F8F0A3F06F
:102DC00022E49001BEF0A3F0758A10538AEF00123E
:102DD0002DE475EA81E4F5F6F5F475F308F5F2757E
:102DE000EB0700E5EC30E7FBAFF3EFFEADF2EDFFF4
:102DF000900136121142EE8FF0120F50E4F5EC758F
:102E0000EB30758A30538AEF0022900025E0641081
:102E1000703FF5B2758D20438D20538D7F53A8F7F9
:102E2000F58BE5DB54047013200910F58AF58675DF
:102E30008703000000758601758A30758B0190014B
:102E4000FA7401F09001EA7403F0A37420F01238D0
:102E5000EB22E0FEA3E0FF7C007D0A120E3A900117
:102E600048E02FFF900147E03EFE900139121142E9
:102E7000EE8FF0229001C3E0902E1075F002021147
:102E8000369001FCE0902E12E0FFA3E02275F002E4
:102E9000EF902E10021136C2D5E830E70FB2D5E41C
:102EA000C39BFBE49AFAE499F9E498F8EC30E7174D
:102EB000B2D51236AD121015E4C39BFBE49AFAE4C6
:102EC00099F9E498F8800312101530D50DE4C39FEA
:102ED000FFE49EFEE49DFDE49CFC22E4FFEFC3942E
:102EE0000D74809480502E9001FCE0FEEF75F0038D
:102EF000A42401F582E4342EF583E5822E122D6898
:102F0000FEEF75F003A42400F582E4342E122D9F09
:102F1000EEF00F80C8902F56E0902E2BF022E4F5B3
:102F2000DA75DA4043DA2030881375D74075D64019
:102F30009001FC04F090001574C7F0801175D74221
:102F400075D642E49001FCF090001574C6F05392DF
:102F5000FE75DA5843A80275B80275F8022290018E
:102F600014121142E475F0C8120F5090011712119B
:102F700042E475F064120F5090011A121142E47588
:102F8000F096120F507532007533C8752200752304
:102F900096227E007D007B010211819001C2EFF03C
:102FA0001238CE9001C2E0FF1234FA9001C2E0FF65
:102FB0009001FCE025E0247BF582E43439F583E5DB
:102FC000822FF582E43583F583E493FF12254D903B
:102FD00001C2E0FF023945C10942022D0205C10AC2
:102FE0004101FE004101FD004101FC00C103C1019E
:102FF000C100C1024101FB00C105010D00C104C1B6
:1030000006C108C1074100FF1043022801022B003E
:103010009001C0EFF07E007F10EEC0E0EFC0E07DD9
:1030200000E075F010A42412F9740235F0FA7B0167
:10303000D0E0FFD0E0FE1211819001C0E0122C65BB
:10304000740BF0A374B8F022900159E0243CFF9077
:103050000158E034F6FEC3900167E09F900166E0FE
:103060009E501490016CE07002A3E0701190016C0E
:1030700004F0A374F4F022E490016CF0A3F0229029
:1030800001C67401F09001C6E0C3122CF950167FFE
:10309000011230A61222C0900102122CA39001C688
:1030A000E004F080E0E49001F0F0A3F02212082E9A
:1030B0007F011230A61222C0900102122CA3121519
:1030C0009E12296912240812330B12382802349AEE
:1030D0007E007F047D007B017A01795C1211817E84
:1030E000007F047D007B017A017960021181EFF895
:1030F0007401088002C333D8FC42AB122D569039BC
:103100007893F4529152935391DF22E5B2540160C7
:1031100006E5A85410700F75B29275B67CE4F5B749
:1031200043B20143A81022758A30538AEF75860195
:10313000758F02E4F5AB75AC0F75913E759201D2B7
:103140008A22900228121142020EED90011DE0FE2B
:10315000A3E0FF22900166E0FEA3E0FF900164EE91
:10316000F0A3EFF022122D569039789342914288C5
:1031700043912022780DE6FF2400F582E43400F527
:103180008322EE30E707C3E49FFFE49EFE220303A1
:10319000001E001E00190019010220010201020098
:1031A0009600960701F400000000000000000000F7
:1031B000000000000000000000000000000000000F
:1031C00000000000000000000000000000000000FF
:1031D00000000000000000000000000000000000EF
:1031E00000000000000000000000000000000000DF
:1037F0000000000000000000000000000000006B5E
:1038000000000000000000000000000000000000B8
:1038100000000000000000000000000000000000A8
:00000001FF
