:1000000000410000000400007C3E000000000000F1
:1000100000000000000000000000000000000000E0
:10002000022B8E9001E87401F0222202275702343D
:10003000BE0000020816D2AF32000002081ED2AF86
:10004000320000021B98D2AF320000020826E49072
:1000500001C8F0A3F0121FB990018C1210031230E6
:10006000A8E4FCFD120E8590018C12100F900190F7
:10007000E475F001120DEDC3900193E094649001DA
:1000800092E094005003020AD490018C120FF7EC16
:10009000C0E0EDC0E0EEC0E0EFC0E0900190E0FE17
:1000A000A3E0FBEEFAE4F9F8D0E0FFD0E0FED0E008
:1000B000FDD0E0FC120F2B90018C12100F90018CE0
:1000C000120FF790018AEEF0A3EFF0A312101B00BD
:1000D0000000009001901230DD9001E9E07002A371
:1000E000E06003020AD4900194E07002A3E0600390
:1000F000020AD490013FE0700302096E900186E08D
:100100007002A3E0701D90018AE0FFA3E0900186D9
:1001100012308C1230E69001967403F0A374E8F06C
:1001200002097E90018AE0FEA3E0FFC3900187E010
:100130009FFF900186E09EFE1235349001B01210B0
:1001400058EE8FF0120E66900184E0701D9001B0A1
:10015000123094C39406E5F09400500812309112C6
:1001600030E680069001847401F090018AE0FEA3DD
:10017000E0FFD3900187E09F900186E09E4007E476
:10018000900185F080189001857401F08010900135
:10019000861230DD900184F09001981230DE9001DB
:1001A00084E07003020AD4D3900189E094009001A6
:1001B00088E094005003020AD4123091FF90018825
:1001C000E0FCA3E0FDC3EF9DFFE5F09CFE1235349B
:1001D0009001CAEEF0A3EFF0A3E4F074C812308FE0
:1001E000D39494E5F09411400A9001CC7403F0A3E9
:1001F0007420F09001CAE0FFA3E09001B412308CAB
:10020000D312309B400CD39001CBE094641230C7E2
:10021000501312309112309A50369001CBE094C8AE
:100220001230C7402BE4900184F0900186F0123028
:100230008F12309A9001945008E4F0A374C8F080B3
:10024000077401F0A3742CF0E4900185F0020AD445
:10025000123091FFD312309C404AD31230C1404437
:1002600090010812105874FF75F0F9120E2E9001CB
:100270009AE475F007120DEDC3900199E094309067
:100280000198E09475501DA3E09407900198E094C4
:1002900000400A74FF75F0F9120DED8007E490013B
:1002A00098F0A3F012309112309A50481230C140A9
:1002B00043900108121058E475F007120E2E9001B9
:1002C00098E475F007120DEDC390019BE094309017
:1002D000019AE09475501DA3E0940790019AE09470
:1002E00000400A74FF75F0F9120DED8007E49001EB
:1002F0009AF0A3F090013FE0601B9001BEE0700215
:10030000A3E0701190011DE0FFA3E09001BECFF0CB
:10031000A3EFF0801F90013FE07019123091C39459
:1003200096E5F09400500DE49001BEF0A3F090012A
:10033000C2F0A3F09001BEE07002A3E07003020BD4
:10034000DC1230A8C39001BFE09FFF9001BEE09E89
:10035000FE1235349001C8EEF0A3EFF01230A8D3AE
:100360009001BFE09F9001BEE09E400D9001C8E06B
:10037000FFA3E09001C0CF801A9001C8E0FEA3E087
:10038000FFD394C8EE9400400EEE13FEEF13FF90DF
:1003900001C0EEF0A3EFF0D39001C1E0940A900108
:1003A000C0E094004056123091D39488E5F0941345
:1003B00040239001C3E094DC9001C2E09405503CDE
:1003C0009001C1E025E0FE9001C0E0339001C2F051
:1003D000A3CEF08027123091D394E8E5F094034047
:1003E0001B9001C3E094F49001C2E09401500D9081
:1003F00001C0E0FFA3E0A3CFF0A3EFF09001FDE088
:1004000064016003020CAE90013FE06003020C9EA9
:100410001230A8C39001A5E09F9001A4E09E500473
:10042000EE1230B99001AAE07002A3E070671230BA
:10043000A8D39001A7E09F9001A6E09E40129001F2
:10044000A7E09FFF9001A6E09E9001A8F0A3EFF027
:10045000D39001A9E094049001A8E0940040081210
:1004600030CE7464F08015D39001A9E09406900119
:10047000A8E0940040061230CE74C8F09001AA742F
:1004800003F0A374E8F090011DE0FFA3E09001A643
:10049000CFF0A3EFF09001ACE07002A3E0700F1278
:1004A00030B1E49001AEF0A3F09001C4801D900142
:1004B000AEE0FFA3E09001C4CFF0A3EFF022123032
:1004C000B1E49001C4F0A3F09001AEF0A3F022E7F4
:1004D00009F608DFFA8046E709F208DFFA803E886D
:1004E000828C83E709F0A3DFFA8032E309F608DFA4
:1004F000FA8078E309F208DFFA807088828C83E35F
:1005000009F0A3DFFA806489828A83E0A3F608DF1A
:10051000FA805889828A83E0A3F208DFFA804C804F
:10052000D280FA80C680D4806980F28033801080C7
:10053000A680EA809A80A880DA80E280CA80338927
:10054000828A83ECFAE493A3C8C582C8CCC583CC65
:10055000F0A3C8C582C8CCC583CCDFE9DEE7800D37
:1005600089828A83E493A3F608DFF9ECFAA9F0ED17
:10057000FB2289828A83ECFAE0A3C8C582C8CCC575
:1005800083CCF0A3C8C582C8CCC583CCDFEADEE843
:1005900080DB89828A83E493A3F208DFF980CC8828
:1005A000F0EF60010E4E60C388F0ED2402B4040049
:1005B00050B9F582EB2402B4040050AF23234582E6
:1005C00023900CFF73EF8DF0A4A8F0CF8CF0A4283B
:1005D000CE8DF0A42EFE22C2D5EC30E709B2D5E4D0
:1005E000C39DFDE49CFCEE30E715B2D5E4C39FFF4C
:1005F000E49EFE1210C3C3E49DFDE49CFC80031244
:1006000010C330D507C3E49FFFE49EFE22C5F0F877
:10061000A3E028F0C5F0F8E582158270021583E0AA
:1006200038F022BB010A89828A83E0F5F0A3E02238
:10063000500687F009E71922BBFE07E3F5F009E34E
:10064000192289828A83E493F5F074019322BB0115
:100650000789828A83020DED500B09C5F027F7C583
:10066000F01937F722BBFE0D09F8E325F0F3C5F0CA
:1006700019E338F322F889828A8374019325F0C53F
:10068000F0F8E4933822BB010A89828A83F0E5F00E
:10069000A3F0225006F709A7F01922BBFE06F3E5E6
:1006A000F009F31922EF2BFFEE3AFEED39FDEC389D
:1006B000FC22C3EF9BFFEE9AFEED99FDEC98FC2225
:1006C000E88FF0A4CC8BF0A42CFCE98EF0A42CFCD9
:1006D0008AF0EDA42CFCEA8EF0A4CDA8F08BF0A457
:1006E0002DCC3825F0FDE98FF0A42CCD35F0FCEBB6
:1006F0008EF0A4FEA9F0EB8FF0A4CFC5F02ECD397B
:10070000FEE43CFCEAA42DCE35F0FDE43CFC227571
:10071000F008758200EF2FFFEE33FECD33CDCC33E2
:10072000CCC58233C5829BED9AEC99E58298400C4A
:10073000F582EE9BFEED9AFDEC99FC0FD5F0D6E428
:10074000CEFBE4CDFAE4CCF9A88222B800C1B9000E
:1007500059BA002DEC8BF084CFCECDFCE5F0CBF96F
:100760007818EF2FFFEE33FEED33FDEC33FCEB3367
:10077000FB10D703994004EB99FB0FD8E5E4F9FA95
:10078000227818EF2FFFEE33FEED33FDEC33FCC97A
:1007900033C910D7059BE99A4007EC9BFCE99AF90D
:1007A0000FD8E0E4C9FAE4CCFB2275F010EF2FFF7C
:1007B000EE33FEED33FDCC33CCC833C810D7079BE6
:1007C000EC9AE899400AED9BFDEC9AFCE899F80F49
:1007D000D5F0DAE4CDFBE4CCFAE4C8F922EB9FF5DE
:1007E000F0EA9E42F0E99D42F0EC6480C864809893
:1007F00045F022EB9FF5F0EA9E42F0E99D42F0E8D9
:100800009C45F022E8600FECC313FCED13FDEE13E2
:10081000FEEF13FFD8F122E0FCA3E0FDA3E0FEA36E
:10082000E0FF22E0F8A3E0F9A3E0FAA3E0FB22EC6A
:10083000F0A3EDF0A3EEF0A3EFF022A8828583F001
:10084000D083D082121032121032121032121032B3
:10085000E473E493A3C583C5F0C583C8C582C8F01B
:10086000A3C583C5F0C583C8C582C822A42582F567
:1008700082E5F03583F58322E0FBA3E0FAA3E0F9FB
:1008800022EBF0A3EAF0A3E9F022EC8EF0A4CCC5B1
:10089000F0CCCDF8EFA4CEC5F02DFDE43CFCE8A4EF
:1008A0002EC8C5F03DFDE43CFCEFA4FFE5F028FEBA
:1008B000E43DFDE43CFC22EF4E6012EF60010EEDE2
:1008C000BB010B89828A83F0A3DFFCDEFA2289F068
:1008D0005007F709DFFCA9F022BBFEFCF309DFFC9F
:1008E000A9F022BC000BBE0029EF8DF084FFADF013
:1008F00022E4CCF875F008EF2FFFEE33FEEC33FC6A
:10090000EE9DEC984005FCEE9DFE0FD5F0E9E4CE9F
:10091000FD22EDF8F5F0EE8420D21CFEADF075F06E
:1009200008EF2FFFED33FD4007985006D5F0F22277
:10093000C398FD0FD5F0EA227F01122F44122B5CE1
:10094000902E20E030E2F99001FDE025E0244DF505
:1009500082E43435122B149001CD122B4E7F0112FC
:100960002B6F4E70089001CD122B7B801E7C007D7A
:1009700003120DA59001CEE02FFF9001CDE03EFEC9
:100980007802EFCEC313CE13D8F9FFEE122B0C4E24
:100990007003122B04122B0490015BE07002A3E0A1
:1009A000700F90015FE0FFA3E090015BCFF0A3EF39
:1009B000F09001CF12101B00002710E4FF122F440B
:1009C000E49001CAF09001CAE0FF7E00C394047471
:1009D00080948040030212CAEF2401FFEE33FE121E
:1009E0002B26FDD3EF9D7480F86E9840030212C150
:1009F000E4FF122B5C902E20E030E2F99001FDE044
:100A000025E0244CF582E43435122B149001CB12EE
:100A10002B4EFF122B6FC390015CE09FFF90015B98
:100A2000E09E9001CB8FF0120DED9001CBE0FEA384
:100A3000E0FF900161EEF0A3EFF090019CE0FCA3D9
:100A4000E0FDEF2DFFEE3CFEA3E0FCA3E0FDC3EFD5
:100A50009DFFEE9CFE9001CBF0A3EFF09001BCEE69
:100A6000F0A3EFF090015DE0FEA3E0FF4E70089070
:100A700001BC122B7B801E7C007D03120DA5900112
:100A8000BDE02FFF9001BCE03EFE7802EFCEC31325
:100A9000CE13D8F9FF90015DEEF0FAA3EFF0FB1250
:100AA0002B38FFE4FCFD9001D412100FEBFFEAFE9F
:100AB000E4FCFD9001D812100FE4FF121D0B900111
:100AC00065EEF0A3EFF09001FDE064019001CF121C
:100AD0002B352400FFEE34F0FE3395E0FDFC122BA5
:100AE000859001CAE004F00211A5902E23E4F09055
:100AF00001CF121003E8C0E0E9C0E0EAC0E0EBC0BB
:100B0000E0122B26FFFBE4FAF9F8122B691232E20D
:100B1000D0E0FBD0E0FAD0E0F9D0E0F8122B85E489
:100B20007F507EC3FDFC9001CF121003D3120FBD86
:100B3000400A9001CF12101B0000C350122B69EC29
:100B400033500A9001CF12101B0000000090016B7F
:100B5000E0FAA3E0FB4A7005122B6980227E007F39
:100B600002EBFDEAFC12106AECF8EDF9EEFAEFFB8D
:100B7000122B69120E85E47B03FAF9F8120F2B9001
:100B8000016BEEF0A3EFF0900159E07002A3E0706A
:100B90000F90016BE0FFA3E0900159CFF0A3EFF0BD
:100BA000900126122B35FFE4FCFD120E85900126E4
:100BB00012100F90012AE475F001120DED90012A38
:100BC000E0FEA3E0FFD3940AEE94004029EFFBEE91
:100BD000FAE4F9F8900126120FF7120F2B90012476
:100BE000EEF0A3EFF0E490012AF0A3F090012612BA
:100BF000101B0000000090012CE07002A3E0703A8E
:100C0000900124E0FEA3E0FFC3900166E09FFF9007
:100C10000165E09EFE123534900122EEF0A3EFF064
:100C2000D39406EE9400401290012C7403F0A37448
:100C3000E8F0A3E475F001120DED90016BE0FEA366
:100C4000E0FF221229134003021714900108122812
:100C5000E6FDE5F0FC1228E3FFAEF0D39DEE9C40EC
:100C60002E12297CD3EF9430EE9475400C9001C87D
:100C70007475F0A37430F08010120E03C39DFEE56E
:100C8000F09C9001C8F0A3CEF0E49001B680601211
:100C90000E03FFAEF0C3ED9FFBEC9EFAD3EB941076
:100CA000EA9427400C9001C87427F0A37410F080D8
:100CB00009C3ED9FFFEC9E1229399001C8E0FFA304
:100CC000E09001B6CFF0A3EFF0300718D3E0942CFA
:100CD0009001B6E0940140139001B87427F0A3741A
:100CE00010F08007E49001B8F0A3F0E49001C8F0A0
:100CF000A3F090013FE0604A1228ECD39400EE6428
:100D00008094804014D3EF9509EE9508400B900134
:100D1000EFE4F0A37464F0801BD39001F0E0940042
:100D20009001EFE09400400C9001051228E6FFE5E9
:100D3000F0122939D2049001F5740FF0A374A0F0D9
:100D4000800F9001F37403F0A374E8F0E4FF123312
:100D5000E5D39001C9E094009001C8E064809480DC
:100D600050030216E9E0FEA3E0FF9001051228DA25
:100D70001228ECEE3395E0FDFCE47BB87A88F9F8B4
:100D8000C3120FBD500A9001C87488F0A374B8F064
:100D9000D39001F2E094009001F1E09400500890AB
:100DA00000F1E06420702AE509240AFFE43508FE1A
:100DB0009001C8E0FCA3E0FDC39FEC9E5013ED94AE
:100DC00000EC6480948040381228EC7C007D0A801E
:100DD0002930072C90013FE070111228ECC39515C3
:100DE000EE9514501B7C027DBC800F1228ECC3953D
:100DF00009EE9508500A7C027DBC120DB712293805
:100E000090013FE0700302166E9001F3E07002A3C0
:100E1000E070149001C8E0FEA3E0FDEEFCE4FF12D8
:100E2000171512293880351228ECC3900135E09F40
:100E3000FF900134E09EFE123534D3EF9428EE6427
:100E40008094804017D39001F4E094C89001F3E0BF
:100E50009400400874FF75F09C120DED900134E091
:100E6000FEA3E0FF7C007D0F12106AECF8EDF9EEB6
:100E7000FAEFFB1228ECEE3395E0FDFC120E85E450
:100E80007B10FAF9F8120F2B900134EE800B9001D1
:100E9000C8E0FFA3E0900134CFF0A3EFF09001345D
:100EA000E0FEA3E0FFD39405EE9400400EEF941013
:100EB000EE940050069001C8EE8016900130E0FEDE
:100EC000A3E0FF900135E02FFF900134E03E900158
:100ED000C8F0A3EFF0D39001C9E094309001C8E0CE
:100EE000648094F540077475F0A37430F0E5DB542A
:100EF0000470411228EC90010E1228DA9001C9E02A
:100F000024A8FF9001C8E08022E5DB54047025127C
:100F10002907900130E0FEA3E0FF90010E1228DACD
:100F200090010E1228E624A8FFE5F03461FE90013E
:100F30000B1228DA229001CAEFF0A3ECF0A3EDF037
:100F4000EF12288FE0FEA3E0C39DFFEE9CFE12355A
:100F500034D3EF9428EE64809480401C12285F12F2
:100F6000101B0000000012282BE4F01228A9122800
:100F70008BEEF0A3EFF0803B12281A1228BF40330B
:100F80009001CBE0FCA3E0FDD3EF9DEE9C400B90E5
:100F900001CAE0122852E04401F09001CAE0FF12B9
:100FA000281EE0FAA3E0C39DEA9C5007122851E0F6
:100FB0004402F09001CAE0122864C083C08212107B
:100FC000031228A9E4FCFD120E85D082D0831210F2
:100FD0000F9001CAE0FF1228B2E475F001120DED86
:100FE000EF75F007A42455F582E43435F583E493D6
:100FF000FE740193FF9001CAE0FDC454F0241AF579
:1010000082E43402F583E0FAA3E0C39FEA9E500332
:10101000021981ED1228B2E0FEA3E0FFFBEEFAE434
:10102000F9F89001CAE0122864120FF7120F2B9002
:1010300001CD12100F122814E0FCA3E0C39FFFECB7
:101040009EFE1235349001D1EEF0A3EFF09001CA6C
:10105000E0FD75F007A42450F582E43435F583C330
:101060007401939FE4939E401FED12281EE0FEA39F
:10107000E04E60149001CAE0FB12289CE0FEA3E061
:10108000C394B8EE940B501E9001CAE0FF12281EC4
:10109000E0FCA3E04C7008EF12289CE4F0A3F012EF
:1010A0002814EE021928EB600302192E9001D3F0E8
:1010B0009001D1E0FEA3E0FFD39450EE94004006EF
:1010C000A37408F080329001CAE0122852E0640351
:1010D0006026D3EF943CEE940040089001D3740452
:1010E000F08015D39001D2E094289001D1E09400D3
:1010F00040069001D37402F012281AE0FEA3E0FF2C
:10110000E4FCFD1228CBD3120FD340119001D3E0A1
:10111000FF12281AE48FF0120DED021964D390012A
:10112000D2E094509001D1E09400405812281AC0A7
:1011300083C082E0FEA3E0FF9001D3E0FDC3EF9DFA
:10114000FFEE9400D082D083F0A3EFF08036122817
:101150001AE0FEA3E0FF4E700D1228CBEBFFEAFE73
:10116000E9FDE8FC80167C007D0712106A1228CB8E
:10117000120E85E47B08FAF9F8120F2B12281AEEEA
:10118000F0A3EFF012285F12101B000000001228DD
:101190002BE4F09001CD120FF712288BEEF0A3EFA5
:1011A000F012281A1228BF405F9001CCE09FFF90F8
:1011B00001CBE09EFE1235349001CAE075F007A421
:1011C0002452F582E43435F583D37401939FE4937C
:1011D0009E400F9001CAE0FF12281E122871E4F011
:1011E00080269001CAE0FF75F007A42454F582E43C
:1011F0003435F583E493FE12287DE0C39E50091236
:10120000281A122871E004F01228A922D39001EACA
:10121000E09F9001E9E09E400AA3E09FF09001E981
:10122000E09EF09001EE1230F89001EDE09C400C51
:10123000A3E09FF09001EDE09EF08002D28AD3906F
:1012400001ECE09F9001EBE09E400AA3E09FF0904C
:1012500001EBE09EF012310A5003123142D39001AB
:10126000F0E09F9001EFE09E400AA3E09FF0900124
:10127000EFE09EF0D39001F2E09F9001F1E09E40FC
:101280000AA3E09FF09001F1E09EF0D39001F8E016
:101290009F9001F7E09E400AA3E09FF09001F7E0E5
:1012A0009EF0D39001F4E09F9001F3E09E400AA3EA
:1012B000E09FF09001F3E09EF0D39001F6E09F9064
:1012C00001F5E09E400AA3E09FF09001F5E09EF05A
:1012D000D39001B9E09F9001B8E09E400AA3E09F3F
:1012E000F09001B8E09EF09001FA1230F89001F908
:1012F000E09C400AA3E09FF09001F9E09EF01231DB
:10130000185003123142D3900195E09F900194E070
:101310009E400AA3E09FF0900194E09EF090019718
:10132000123148900196E09C400AA3E09FF09001A2
:1013300096E09EF0D39001ABE09F9001AAE09E4022
:101340000AA3E09FF09001AAE09EF0D39001ADE0E7
:101350009F9001ACE09E400AA3E09FF09001ACE0BA
:101360009EF0900172123148900171E09C400AA3F6
:10137000E09FF0900171E09EF0D39001BBE09F9060
:1013800001BAE09E400AA3E09FF09001BAE09EF00F
:1013900012312650031231421231345003123142BD
:1013A000D390012DE09F90012CE09E400AA3E09F86
:1013B000F090012CE09EF022C0E0C0F0C083C0821B
:1013C000C0D0E8C0E0D2AFD39001EAE09400900131
:1013D000E9E0940040031230F1D39001EEE0940173
:1013E0009001EDE0940040051230F18002D28AD3E2
:1013F0009001ECE094009001EBE094004003123087
:10140000F112310A5003123103D39001F0E094003D
:101410009001EFE0940040031230F1D39001F2E02C
:1014200094009001F1E0940040031230F1D3900158
:10143000F8E094009001F7E0940040031230F1D3FB
:101440009001F4E094009001F3E094004003123026
:10145000F1D39001F6E094009001F5E09400400390
:101460001230F1D39001B9E094009001B8E09400FB
:1014700040031230F1D39001FAE094019001F9E0B9
:10148000940040031230F11231185003123103D38B
:10149000900195E09400900194E094004003123094
:1014A000F1D3900197E09401900196E094004003FD
:1014B0001230F1D39001ABE094009001AAE09400C7
:1014C00040031230F1D39001ADE094009001ACE004
:1014D000940040031230F1D3900172E09401900126
:1014E00071E0940040031230F1D39001BBE094000E
:1014F0009001BAE0940040031230F11231265003FB
:101500001231031231345003123103D390012DE014
:10151000940090012CE0940040031230F1D0E0F8E8
:10152000D0D0D082D083D0F0D0E0329001D3EFF091
:101530001226D0E070279001D3E0122707120FF790
:10154000E4FBFAF9F8C3120FD360129001D3E01252
:101550002725120FF7E4F8C3120FD370571227395B
:101560009001D4121E47EEF0A3EFF0ED1226D0E06A
:101570006029ED75F00AA424DBF582E4342DF583AF
:10158000C083C0829001FDE0D082D0831226DE406D
:101590000A9001D3E01226D07405F0122685E0D31C
:1015A00094007480948040061226CFE014F09001DD
:1015B000D8021E43122702120FF79001DC12100FFF
:1015C000122724120FF79001E012100F9001D3E0C0
:1015D000122716120FF7EFF9122742E9F8120FE45B
:1015E000EFFBEEFAEDF9ECF8122742120E929001A1
:1015F000E412100F9001DC120FF79001D8121003C3
:10160000120E859001E4121003120E851227331278
:10161000270212273F12272412273F1227481210B1
:1016200003120F2B1227339001E0121E47EEF0A396
:10163000EFF0ED75F00AA424D7F582E4342DF5839C
:10164000C083C0829001FDE0D082D0831226DE40AC
:101650000F1226857405F01227399001E012100F41
:101660009001E0120FF722EFFBEEFA120FF7C3EF33
:101670009BFFEE9AFE1235349001D3E0FD75F01316
:10168000A42408F582E43402F583227FFF7A0079EE
:10169000001235407FC87A0179001235407E007F04
:1016A000147D007B017A0179E8121097902DE0E417
:1016B00093900001F09000047411F0A37422F0A341
:1016C0007433F0902DE2E493900012F0902DE3E457
:1016D00093900014F09000FB7401F09000367410A9
:1016E000F09000F1F0900024F0A37420F07B017AD8
:1016F0000079409001021210617A0079449001084B
:101700001210617A0079429001051210617A007915
:101710002E90010B1210617A00792A90010E12109E
:10172000617A0079289001111210617A0079609035
:10173000011F1210617A0079809001B01210617A55
:101740000079189001391210617A00791B900136E6
:101750001210617A0079329001141210617A0079C6
:10176000269001171210617A00793490011A121034
:1017700061900114121058E475F0C8120E669001C1
:1017800017121058E475F064120E6690011A1210C8
:1017900058E475F096120E667514007515C8750834
:1017A000007509967B017A00795090013C12106116
:1017B0009000527408F0A37404F0A37407F0900032
:1017C000587410F0A37408F0A314F09001E9F0A38A
:1017D00074D0F0E49001E8F022758D20438D205301
:1017E0008D7FE4F5B275B6FF75B7FF75B2A243B24F
:1017F0000153A8FB538B7F758B10438B08E58B201F
:10180000E7030080F8538B7F758B11438B08E58BC2
:1018100020E7030080F890022BE5B5F0A3E5B4F0D3
:10182000758B01E4F5B21234BEE4F58D90011DE034
:10183000FEA3E0FF4E7010123506FD90011DE5F08D
:10184000F0A3EDF00220A5123506FDC3EF9DFFEEDB
:1018500095F0FE123534D3EF940AEE648094804004
:1018600024123506FFC390011EE09F90011DE095F4
:10187000F05006E475F001800790011D74FFF5F04B
:10188000120DED804090011D12350F7D0312106A7C
:10189000ECC0E0EDC0E0EEC0E0EFC0E0123506FFC6
:1018A000AEF0E4FCFDD0E0FBD0E0FAD0E0F9D0E00F
:1018B000F8120E85E47B04FAF9F8120F2B90011D43
:1018C000EEF0A3EFF09001FDE0640190011D7007C0
:1018D00012350F7D05800512350F7D0E12106AE45A
:1018E0007B64FAF9F8120F2B90019CEEF0A3EFF055
:1018F00090019EE07002A3E0700D90019CE0FFA3B8
:10190000E0A3CFF0A3EFF09001A4E07002A3E07099
:101910000F90011DE0FFA3E09001A4CFF0A3EFF032
:101920002290017D1229839404EE94005022122902
:101930004CEF25E0FFEE33FE74752FF58274013E07
:10194000F583ECF0A3EDF090017D1229600221CC2B
:101950009001CC7401F09001CCE0FFC31229245017
:1019600021EF12292BFCA3E0FDEF25E02473F58283
:10197000E43401F583ECF0A3EDF09001CCE004F049
:1019800080D490013FE0600280531228E3FF1229C7
:101990004CC3EF9DFFE5F09CFE123534C3EF942855
:1019A000EE6480948050369001081228E6FFC390C0
:1019B0000101E09FFF900100E095F0FE123534C375
:1019C000EF9414EE64809480500590010880039099
:1019D00001021228E6FF90017BE5F0800B900100E8
:1019E000E0FFA3E090017BCFF0A3EFF09001C812DD
:1019F000101B00000000E49001CCF09001CCE0FF4F
:101A0000D390017EE09F90017DE0940040259001FD
:101A1000C81210039001CCE012292BFEA3E0FFE4D2
:101A2000FCFD120E859001C812100F9001CCE0044D
:101A3000F080C89001C8120FF7ECC0E0EDC0E0EEF6
:101A4000C0E0EFC0E090017D122967D0E0FFD0E058
:101A5000FED0E0FDD0E0FC120F2B9001C812100F59
:101A60009001C8020FF79001C87402F0A374BCF093
:101A7000D39001BBE094009001BAE09400401112B1
:101A800028E3FF900108121058E5F08FF0120E665F
:101A90009001E9E07002A3E0600B9001C8E4F0A3BC
:101AA0007464F0800B90001AE0641170037420F0ED
:101AB00090013FE0600F7E007F0A7D007B017A018C
:101AC0007940021097900140121003E8C0E0E9C08D
:101AD000E0EAC0E0EBC0E01228E3FFAEF0E4FCFD7A
:101AE000D0E0FBD0E0FAD0E0F9D0E0F8120E85901B
:101AF000014012100F9001441229609001C8122970
:101B000083900149E09F900148E09E500302238AA0
:101B1000900140120FF7ECC0E0EDC0E0EEC0E0EF46
:101B2000C0E0900144122967D0E0FFD0E0FED0E091
:101B3000FDD0E0FC120F2B90014012100F90010815
:101B40001228E62432FFE435F0FEE4FCFD9001406B
:101B5000121003D3120FD3402E9001E9E07002A3BC
:101B6000E07024200421900146122961D39001479E
:101B7000E09405900146E0940040181228D1E490CA
:101B80000146F0A3F0800C1228D1E4900146F0A3A6
:101B9000F0C20490014012101B00000000E490010C
:101BA00044F0A3F0900148F0A3F0229001CFEFF0B1
:101BB000902E22E0FF9001D3E4F0A3EFF0758A505D
:101BC000902E227401F01231C07404F0A3E4F0905E
:101BD00001D0F09001D0E0FFC3940D748094804058
:101BE0000302249FEFF87E02E4088006CEA2E713EA
:101BF000CE13D8F8FF9001D1EEF0A3EFF04E7007AE
:101C00009001D1F0A304F0902E207401F0902E20CA
:101C1000E030E2F99001CFE0FF902E001231C7E0F2
:101C2000FCA3E0D394FEEC940740401231E8E0FEC0
:101C3000A3E0FF9001D1E0FCA3E0FDEF2DFFEE3C1F
:101C4000FEC3EF94FFEE94079001CFE075F0029091
:101C50002E10500B12104CEC8DF0120DED80501226
:101C6000104C7407F0A374FFF080449001CFE0FFA4
:101C70001231C4E0FCA3E0FD9001D1E0FAA3E0FB47
:101C8000D3ED9BEC9A40211231E8C083C082C3A3FC
:101C9000E09BFF0582D5820215831582E09AD082EF
:101CA000D083F0A3EFF080071231C0E4F0A3F090EE
:101CB0002E20E4F0F58D9001D0E004F00223B390E3
:101CC00001D3A3E0902E22F0758A30227FC87E00D7
:101CD0007D967C00122913400302259D3007209039
:101CE00001B8E07002A3E0600875141375158880D0
:101CF000067514077515D07508067509408049905A
:101D000001FDE0F964017006FE7FC8FC7D9690013C
:101D1000C2E0FAA3E0FB2FF515EA3EF514CEECCEB7
:101D2000EDFFEB2FF509EA3EF508E964017019A310
:101D3000E0FEA3E0FF2515F515EE3514F514EF25AB
:101D400009F509EE3508F5089001051228E6FFAE01
:101D5000F0C39515EE9514500F90013FE0601AC343
:101D6000EF9509EE950840119001F1E07002A3E0B3
:101D7000702990013F04F080229000F1E0642090EF
:101D800001F17005F0A3F080077401F0A374F4F082
:101D9000E490013FF09001EF12297290013FE0FFC3
:101DA0006016900024E0641090003670057410F006
:101DB00080037420F012295590004BEFF022E4F5D7
:101DC00026F525F524F523F526F525F524F523F547
:101DD00022122921502AE52225E0240AF8E6FE08ED
:101DE000E6FFE4FCFDE5262FFFE5253EFEED35246C
:101DF000FDEC35238F268E258D24F523052280D1F9
:101E0000E47B04FAF9F8AF26AE25AD24AC23120F1B
:101E10002B900181EEF0A3EFF0E47526A875256103
:101E2000F524F523F522122921505590018112281D
:101E3000F5C312297C123534D3EF940AEE648094F2
:101E4000804012900181E0FEA3E0FF900159E0FC88
:101E5000A3E0FD80079001591228F5C312297C33B5
:101E600095E0FDFCE5262FFFE5253EFEE5243DFD42
:101E7000E5233C8F268E258D24F523052202260698
:101E8000E47F607EEAFDFCAB26AA25A924A823D323
:101E9000120FD3400BE47526607525EAF524F5236F
:101EA000AE25AF26229001D8120FF79001D3E0FBA8
:101EB00075F013A42403F582E43402F58312100FA5
:101EC000EB75F013A4240EF582E43402F583120FAF
:101ED000F79001D8121003120EA09001D3E0FB7509
:101EE000F013A424FFF582E43401F58312100FEB04
:101EF00075F013A42407F582E43402F5832275F00B
:101F00000212104CE493FE740193FFED75F013A4DC
:101F10002408F582E43402F583E0FCA3E0D39FECCF
:101F20009E229001D3E0FB75F013A42403F582E414
:101F30003402F58322EB75F013A4240AF582E4340D
:101F400002F58322EB75F013A424FFF582E434013B
:101F5000F583229001E012100F9001D8020FF712C2
:101F6000100F9001E0020FF7EB75F013A4240EF5AB
:101F700082E43402F58322C0E0C083C082C0D07501
:101F8000D018D2AFE5DB30E422D205C202E5DB3067
:101F9000E114123526E0F5DFEF64077065D28A9010
:101FA0000007F0022805C201022808E5DB30E52C15
:101FB0009000F0E064AA7017758A10F5DAC2AFF5E8
:101FC000B2F5A8F5A9F58B758E01758DC080FED28E
:101FD00000300204C2028050C205804CC202E5DB20
:101FE00030E121E5DB30E040123526E0F5DFEF247B
:101FF000F9600824EE700BD2068007D28A900007A1
:10200000E4F0802120010A7816A6DFD201D20280F6
:1020100017123526E5DFF0EF642470099001EB0418
:10202000F0A374F4F078160675DBFFD0D0D082D020
:1020300083D0E0329001CD120FF79001CAE0C45472
:10204000F02418F582E43402F58322EBC454F02422
:1020500016F582E43402F583E4F0A3F09001CAE0BF
:10206000FFC454F0241AF582E43402F583E4F0A3AB
:10207000F0EFC454F0241FF582E43402F58322907B
:1020800001CAE0FBC454F02412F582E43402F58363
:1020900022E0FDA3E09001CBCDF0A3EDF0EFC4541E
:1020A000F0241EF582E43402F583229001CAE0C4D4
:1020B00054F0241CF582E43402F58322C454F02445
:1020C00020F582E43402F583229001CBE0FEA3E008
:1020D000FF22C454F02416F582E43402F58322E092
:1020E000FEA3E0FFD39400EE9400229001CD0210F5
:1020F00003900140120FF7900108121058EE8FF074
:10210000020E66900102121058020E039001C8E000
:10211000FEA3E0FF22E52225E0240AF8E6FE08E619
:10212000FFE0FCA3E0FD22900105121058E4F5F059
:10213000020E66D39001EAE094009001E9E0940079
:1021400022C3E5229404748094802225E02475F54E
:1021500082E43401F583E022EE9001C8F0A3EFF0B1
:1021600022121058746175F0A8020E66900100E00A
:10217000FCA3E0FD229001EB7403F0A37420F02295
:10218000E475F001020DEDE0FEA3E0FBEEFAE4F9E8
:10219000F822F0A3F09000367410F022EF9DFFEECD
:1021A0009CFE22E0FEA3E0FFC322E49001C8F0A35E
:1021B000F090014CF0A3F090014AF0A3F012332606
:1021C0007E007F047D007B017A0179591210977F90
:1021D000011233A9902E14E0FEA3E0FF1231B99052
:1021E000013C121058EE8FF0120E66E4FF1233A974
:1021F0001231CD9001C8CDF0A3EDF09001C8E0FC04
:10220000A3E0FDC39405EC94004009D3ED94F0ECF9
:1022100094074017EF64014E700590014C8004E470
:1022200090014AF0A3F0E4FF1233A9902E23E4F0CA
:102230001231CD9001C8CDF0A3EDF090001D7410C7
:10224000F0EF64014E9001C870081231B41231F2FF
:1022500080061231B41231FCE03EFE1231DC221253
:102260002FB81234837E007F2C7D007B017A0179A8
:102270008412109712082EE490017DF0A3F09001D3
:102280006BF0A3F0900169F0A3F090016DF0A3F062
:102290007F04122D32900100E0FEA3E0FFA312287C
:1022A000DA900100E0FEA3E0FF1228D71229079080
:1022B000010B12294190011112294190010E12299E
:1022C0000AE490013FF0FE7F0AFD7B017A0179402C
:1022D000121097E49001F7F0A3F09001F512297223
:1022E000E490004BF01229559001FBE0700FC39071
:1022F00001EAE094F49001E9E09401500A9001E9C8
:102300007401F0A374F4F0229001FDE025E0244C68
:10231000F582E43435F583E5822FF582E43583F5E3
:1023200083E493229001CDE0FFA3E0CF90015FF022
:10233000A3EFF022F583E49375F002902E001210C3
:102340004CE0FFA3E0229001FDE0242DF582E4346F
:1023500002F583E022121003900165E0FEA3E02263
:10236000F583E4932420F582E4342EF58322CFF024
:10237000A3EFF0902E20E4F0758A30221234A1757C
:102380008A50902E207401F0229001CF020FF71294
:10239000351790015FE0FEA3E0FF22E0FCA3E0FD23
:1023A000ECFEEDFF22120E859001CF02100F787F18
:1023B000E4F6D8FD758126022BD8020000022CAA73
:1023C000E493A3F8E493A34003F68001F208DFF45A
:1023D0008029E493A3F85407240CC8C333C4540FD2
:1023E0004420C8834004F456800146F6DFE4800BA5
:1023F0000102040810204080903454E47E01936070
:10240000BCA3FF543F30E509541FFEE493A36001D1
:102410000ECF54C025E060A840B8E493A3FAE4933B
:10242000A3F8E493A3C8C582C8CAC583CAF0A3C8E9
:10243000C582C8CAC583CADFE9DEE780BEE4900171
:10244000CCF0A3F0200603022CA920077CC2069042
:1024500001FDE0902E12E0FFA3E09001CCCFF0A3AD
:10246000EFF09001CCE0FFA3E09001CACFF0A3EF22
:10247000F0E4FF1233A91231CD9001CCCDF0A3EDE1
:10248000F0EF64014E9001CC70081231B41231F2B9
:1024900080061231B41231FCE03E9001C8F0A3EF87
:1024A000F09001C8E0FEA3E0FF1231DC9001FDE0F6
:1024B0009001CAE0FFA3E0902E12CFF0A3EFF090BE
:1024C00001EB7403F0A37420F02253A87F1234DAD6
:1024D000121E6B12336912080E43A880E4F58D902A
:1024E00000F17420F0122E4A9001E8E014601514F7
:1024F000601714603814604A240470E012298A12AC
:10250000080380D8122A3F8031122DB2900020E0BB
:10251000FF64206008EF64216003122EC89000253C
:10252000E0641070B79001E87404F080AF12080AFC
:102530009001EB7403F0A37420F09001E87402F0B2
:10254000809A12329A900025E06410608F1208037E
:10255000808A9001C8EFF0E4A3F09001C8E0FFA3E7
:10256000E0C39F502E1211181234F590016DEEF059
:10257000A3EFF08E12F513C8740AC87400FCE4FDD2
:10258000FB7A00790CFE7F08120D7F9001C9E004F0
:10259000F080C712259E900100EEF0A3EFF09001AD
:1025A0006B122983900133E09FFF900132E09EFE81
:1025B0001235347C007D05120DB7900130ECF0A38C
:1025C000EDF090016BE0FFA3E0900132CFF0A3EFBC
:1025D000F02212082E7F01122D32122101900102E9
:1025E0001228DA1214231224AC12224612302512B9
:1025F000341D022C1D03030019001E0014001900D5
:102600000402AB4174AA7583F5758255A57455759E
:1026100083FA7582AAA574A57583F5758255A522DE
:102620000202020AB0B00BB6B60CFFFF09020208A4
:10263000FFFF0D77770E04041307071410101080A6
:102640008015000016000001121212120718100B5C
:102650001B0F0404040404010101011111110810ED
:1026600012101004080302040204900020E0642009
:1026700070037421F0900136121058120E0364108A
:1026800045F07003123251900001E064AA70031209
:10269000315312320620030890001AE06410700BC8
:1026A00090001A7411F0C2031208039000FBE0605E
:1026B00006E4F09001E8F0900171E07004A3E0649A
:1026C000017015900171F0A3F09001BA7407F0A3A6
:1026D00074D0F0E49001E8F030000CC2009001EBFF
:1026E0007401F0A374F4F022308A789001E9E0706C
:1026F00002A3E0706E900171E07002A3E07064F5D7
:10270000B2758D20438D20758D9043A808D2AF758A
:102710008B4090012CE0FEA3E0FF4E6005758E1407
:102720008003758E3F20002F20052CE5DB540470BC
:1027300026758AA4200520E5DB5404701AF58675F9
:102740008703000000758601EF4E60047F28800239
:102750007F7F7E001219EC758B01758A3053A8F7C4
:102760001234BE22E4FEEEC3940774809480503885
:10277000EE75F005A42428F582E4342EF583C08399
:10278000C0829001FDE0D082D08375F00212104C1F
:10279000122AF7FDEE75F005A42427F582E4342E05
:1027A000122B40EDF00E80BEEF70109001FDE07036
:1027B0000A90014AE07002A3E060129001FDE0641B
:1027C00001701490014CE07002A3E0700A9001FDCA
:1027D000E0902E217412F0227E007F137D007B0199
:1027E0007A0179FF121097E4FBEBC3940174809493
:1027F0008050519001FDE0FFEB75F00AA424D5F55F
:1028000082E4342DF583E5822FF582E43583F58368
:10281000E493FFE4FCFDFE12271512100F1227159A
:10282000120FF7EF04F87E007401088005C333CE61
:1028300033CED8F9FFEE3395E0FDFC122748121095
:102840000F0B80A5229001EDE07004A3E0640170FD
:1028500011900007E06004D28AE4F0E49001EDF00A
:10286000A3F0900036E0FF9000FFE06F603D900025
:1028700036E0FD9000FFF0900007E09001FEF0547C
:102880000FF0ED7E0064207005E04420800CEF64C2
:10289000104E700B9001FEE04410F0900007F0C263
:1028A0008A9001ED7403F0A374E8F022CFF0EFA357
:1028B000F0900105121058020E03C3FF900189E049
:1028C0009F900188E095F02290011DE0FEA3E0FFBB
:1028D0002290011DE0FFA3E0CF9001A4F0A3EFF050
:1028E000229001CBE0941E9001CAE0940022900156
:1028F000AC7413F0A37488F0A3E4F0A322E4F0A373
:10290000F0A3F0A3F022FF900188E5F0F0A3EFF030
:102910002274FFF5F0020DEDEF2401FDE43EFCD33F
:10292000E09D22E475F001020DEDC3900149E094B1
:10293000BC900148E0940222C3900193E09464901B
:102940000192E0940022C3900221E094B89002200A
:10295000E0940B22C390021BE094F490021AE094DE
:102960000122EE8FF0020DEDEF2401FDE43EFCD3D9
:10297000E09D229001C87408F0A3E4F0A3743FF036
:10298000A374DFF0E4FDFCF9758A10538AEF009020
:1029900001C8E0FEA3E02DF582EE3CF583E493FF51
:1029A00069F90DBD00010CBC37E5BDDFE29001CA3D
:1029B000E0FEA3E0F5828E83E493FFE96F70089058
:1029C00000017404F08005E4900001F0758A305332
:1029D0008AEF0022E0FEA3E0FF7C007D0A020DA545
:1029E0009001CFE0902E1075F00202104C9001FD86
:1029F000E0FF7E00902E12E0FDA3E022900139124C
:102A00001058EE8FF0020E6675F002EF902E100255
:102A1000104C90014DE02FFF90014C2290014BE0B3
:102A20002FFF90014A22900013E0FF9001FCE06F1D
:102A3000600CEFF09001F97402F0A37458F090016B
:102A4000F9E07004A3E0640170269001FCE0FF7ED1
:102A50000064107002D207EF64204E7002C207902B
:102A60000025E064106002D203E49001F9F0A3F0C5
:102A700022E49001C8F0A3F0758A10538AEF001287
:102A80002DE475EA81E4F5F6F5F475F308F5F275D1
:102A9000EB0700E5EC30E7FBAFF3EFFEADF2EDFF47
:102AA000900136121058EE8FF0120E66E4F5EC75B8
:102AB000EB30758A30538AEF0022900025E06410D5
:102AC000703FF5B2758D20438D20538D7F53A8F74D
:102AD000F58BE5DB54047013200510F58AF5867537
:102AE0008703000000758601758A30758B0190019F
:102AF000FB7401F09001EB7403F0A37420F0123426
:102B0000BE22C2D5E830E70FB2D5E4C39BFBE49AFE
:102B1000FAE499F9E498F8EC30E717B2D5123318D3
:102B2000120F2BE4C39BFBE49AFAE499F9E498F8BA
:102B30008003120F2B30D50DE4C39FFFE49EFEE40B
:102B40009DFDE49CFC22E4FFEFC3940D748094800F
:102B5000502E9001FDE0FEEF75F003A42401F582F4
:102B6000E4342EF583E5822E122AFAFEEF75F00387
:102B7000A42400F582E4342E122B40EEF00F80C81E
:102B8000902F56E0902E2BF022E4F5DA75DA4043D0
:102B9000DA2030881375D74075D6409001FD04F0D7
:102BA0009000157440F0801175D74275D642E490BC
:102BB00001FDF09000157441F05392FE75DA584310
:102BC000A80275B80275F802229001CEEFF0123417
:102BD000A19001CEE0FF122F449001CEE0FF9001C2
:102BE000FDE025E0244CF582E43435F583E5822FC1
:102BF000F582E43583F583E493FF12238B9001CEB5
:102C0000E0FF0235179001CAEFF07E007F10EEC0A2
:102C1000E0EFC0E07D00E075F010A42412F974022A
:102C200035F0FA7B01D0E0FFD0E0FE121097900162
:102C3000CAE012289C740BF0A374B8F02290015AD9
:102C4000E02430FF900159E034F8FEC390016CE0BD
:102C50009F90016BE09E5014900171E07002A3E020
:102C6000701190017104F0A374F4F022E4900171EA
:102C7000F0A3F022C10542022D0402C1064101FE6B
:102C8000004101FD00C1074101FC00C10101160026
:102C9000C100C102C104C1034100FF104302280169
:102CA000022B007E007F047D007B017A01795D129A
:102CB00010977E007F047D007B017A017965021008
:102CC00097EFF87401088002C333D8FC42AB122A94
:102CD000E890354993F4529152935391DF22E5B233
:102CE00054016006E5A85410700F75B29275B67C59
:102CF000E4F5B743B20143A81022758A30538AEF36
:102D0000758601758F05E4F5AB75AC0F75913E7551
:102D10009201D28A2290016BE0FEA3E0FF9001694C
:102D2000EEF0A3EFF022900228121058020E03E0FA
:102D3000FEA3E0FF7C0022122AE8903549934291DD
:102D40004288439120227816E6FF2400F582E4347D
:102D500000F58322EE30E707C3E49FFFE49EFE22E6
:102D60007E007D007B01021097010220010201021A
:102D7000009600960701F40000000000000000002B
:102D80000000000000000000000000000000000043
:102D90000000000000000000000000000000000033
:102DA0000000000000000000000000000000000023
:102DB0000000000000000000000000000000000013
:1037F000000000000000000000000000000000B019
:1038000000000000000000000000000000000000B8
:1038100000000000000000000000000000000000A8
:00000001FF
