:10000000004000000004000056C80000000000008E
:1000100000000000000000000000000000000000E0
:10002000022E4A9001FC7401F022220229E90236D4
:10003000AE0000020816D2AF32000002081ED2AF96
:10004000320000021D50D2AF3200000208261227F3
:10005000FA60030208B77F01123168122801902E5E
:1000600020E030E2F9900211E025E02455F582E429
:1000700034371227AF9001E11227DE7F0112371EBD
:1000800090015DE0FEA3E0FF4E70089001E11228B0
:100090001D801E7C007D031212689001E2E02FFF9C
:1000A0009001E1E03EFE7802EFCEC313CE13D8F903
:1000B000FFEE1227A74E700312279F12279F900171
:1000C00059E07002A3E0700F90015DE0FFA3E090A3
:1000D0000159CFF0A3EFF09001E31214DE000027E6
:1000E00010E4FF123168E49001DEF09001DEE0FFE1
:1000F0007E00C39404748094804003020B7DEF243F
:1001000001FFEE33FE1227C1FDD3EF9D7480F86E20
:10011000984003020B74E4FF122801902E20E03077
:10012000E2F9900211E025E02454F582E43437121C
:1001300027AF9001DF1227DEFF12371E1227FA7059
:100140002B90015DE0FEA3E0FFC390015AE09FFF0A
:10015000900159E09E9001DF8FF01212B09001DF04
:10016000E0FFA3E090015FCFF0A3EFF090019AE0F1
:10017000FEA3E0FF9001E0E02FFF9001DFE03EFEF4
:1001800090019CE0FCA3E0FDC3EF9DFFEE9C90017D
:10019000DFF0FAA3EFF0FB74FFF523F524F525F566
:1001A00026F527F528E4F529F52AF52BF52CF52D6C
:1001B000F52EF532F531F530F52F9001CEEAF0A3AA
:1001C000EBF0E4F522C3E522940A748094804003A6
:1001D000020AB31227ECE0FEA3E04E60051227EC02
:1001E00080039001DFE0FEA3E0FFE52225E024BAD2
:1001F000F582E43401F583EEF0A3EFF0122769FEF7
:10020000A3E0D3952AEE95294017852B2D852C2E1A
:1002100085292B852A2C122769F529A3E0F52A8048
:1002200036122769FEA3E0D3952CEE952B4011855D
:100230002B2D852C2E122769F52BA3E0F52C80178A
:10024000122769FEA3E0D3952EEE952D40091227C3
:1002500069F52DA3E0F52E122769FEA3E0C39524CE
:10026000EE95235017852527852628852325852467
:1002700026122769F523A3E0F5248036122769FEAC
:10028000A3E0C39526EE95255011852527852628C0
:10029000122769F525A3E0F5268017122769FEA32A
:1002A000E0C39528EE95275009122769F527A3E0AA
:1002B000F528122769FEA3E0FFE4FCFDE5322FFFDD
:1002C000E5313EFEED3530FDEC352F12276005227D
:1002D0000209A5AE29AF2AEFFB12274CAE2BAF2C9B
:1002E000122749AE2DAF2E122749AE23AF24122775
:1002F00049AE25AF26122749AE27AF28122749FC61
:1003000078021214A79001D0EEF0A3EFF090015BF9
:10031000E0FEA3E0FF4E70089001D012281D801E61
:100320007C007D031212689001D1E02FFF9001D074
:10033000E03EFE7802EFCEC313CE13D8F9FF900152
:100340005BEEF0FAA3EFF0FB122797FFE4FCFD90C1
:1003500001E81214D2EBFFEAFEE4FCFD9001EC127E
:1003600014D2E4FF121EC3900163EEF0A3EFF0126B
:1003700027FA9001E3700B1227942400FFEE34F06B
:1003800080091227942400FFEE34E8FE3395E0FD47
:10039000FC1228279001DEE004F00208CB902E2307
:1003A000E4F09001E31214C6E8C0E0E9C0E0EAC05E
:1003B000E0EBC0E01227C1FFFBE4FAF9F812280EC7
:1003C0001234ADD0E0FBD0E0FAD0E0F9D0E0F81282
:1003D0002827E47F507EC3FDFC9001E31214C6D3AE
:1003E000121480400A9001E31214DE0000C3501280
:1003F000280EEC33500A9001E31214DE00000000D6
:10040000900169E0FAA3E0FB4A700512280E8022F1
:100410007E007F02EBFDEAFC12152DECF8EDF9EE03
:10042000FAEFFB12280E121348E47B03FAF9F812D4
:1004300013EE900169EEF0A3EFF0900157E0700227
:10044000A3E0700F900169E0FFA3E0900157CFF0A7
:10045000A3EFF0900126122794FFE4FCFD1213484D
:100460009001261214D290012AE475F0011212B004
:1004700090012AE0FEA3E0FFD3940AEE9400402905
:10048000EFFBEEFAE4F9F89001261214BA1213EE1B
:10049000900124EEF0A3EFF0E490012AF0A3F09095
:1004A00001261214DE0000000090012CE07002A36F
:1004B000E0703A900124E0FEA3E0FFC3900164E005
:1004C0009FFF900163E09EFE12373B900122EEF009
:1004D000A3EFF0D39406EE9400401290012C740325
:1004E000F0A374E8F0A3E475F0011212B090016972
:1004F000E0FEA3E0FF22E49001DCF0A3F012216B08
:1005000090018A1214C61231F5E4FCFD12134890D2
:10051000018A1214D290018EE475F0011212B0C358
:10052000900191E09464900190E094005003020FD8
:100530007C90018A1214BAECC0E0EDC0E0EEC0E09D
:10054000EFC0E090018EE0FEA3E0FBEEFAE4F9F8E4
:10055000D0E0FFD0E0FED0E0FDD0E0FC1213EE9042
:10056000018A1214D290018A1214BA900188EEF016
:10057000A3EFF0A31214DE0000000090018E1232EF
:10058000229001FDE07002A3E06003020F7C900165
:1005900092E07002A3E06003020F7C90013FE070E4
:1005A00003020E16900184E07002A3E0701D90011A
:1005B00088E0FFA3E09001841231D9123234900117
:1005C000947403F0A374E8F0020E26900188E0FE14
:1005D000A3E0FFC3900185E09FFF900184E09EFEB1
:1005E00012373B9001AE12151BEE8FF012132990BB
:1005F0000182E0701D9001AE1231E1C39406E5F076
:10060000940050081231DE12323480069001827458
:1006100001F0900188E0FEA3E0FFD3900185E09F08
:10062000900184E09E4007E4900183F080189001DF
:10063000837401F08010900184123222900182F0C4
:10064000900196123223900182E07003020F7CD356
:10065000900187E09400900186E094005003020F1F
:100660007C1231DEFF900186E0FCA3E0FDC3EF9D2C
:10067000FFE5F09CFE12373B9001DEEEF0A3EFF0B9
:10068000A3E4F074C81231DCD39494E5F0941140E3
:100690000A9001E07403F0A37420F09001DEE0FF03
:1006A000A3E09001B21231D9D31231E8400CD390BB
:1006B00001DFE0946412320C50131231DE1231E784
:1006C00050369001DFE094C812320C402BE49001C8
:1006D00082F0900184F01231DC1231E790019250E7
:1006E00008E4F0A374C8F080077401F0A3742CF040
:1006F000E4900183F0020F7C1231DEFFD31231E966
:10070000404AD3123206404490010812151B74FF70
:1007100075F0F91212F1900198E475F0071212B019
:10072000C3900197E09430900196E09475501DA31A
:10073000E09407900196E09400400A74FF75F0F988
:100740001212B08007E4900196F0A3F01231DE128D
:1007500031E75048123206404390010812151BE45D
:1007600075F0071212F1900196E475F0071212B0BD
:10077000C3900199E09430900198E09475501DA3C6
:10078000E09407900198E09400400A74FF75F0F936
:100790001212B08007E4900198F0A3F090013FE0BE
:1007A00060179001D2E07002A3E0700D1231FE904C
:1007B00001D2CFF0A3EFF0801F90013FE07019123B
:1007C00031DEC39496E5F09400500DE49001D2F030
:1007D000A3F09001D6F0A3F09001D2E07002A3E064
:1007E00070030210801231F5C39001D3E09FFF9097
:1007F00001D2E09EFE12373B9001DCEEF0A3EFF059
:100800001231F5D39001D3E09F9001D2E09E400DCC
:100810009001DCE0FFA3E09001D4CF801A9001DCCE
:10082000E0FEA3E0FFD394C8EE9400400EEE13FE6A
:10083000EF13FF9001D4EEF0A3EFF0D39001D5E0D9
:10084000940A9001D4E0940040561231DED394888B
:10085000E5F0941340239001D7E094DC9001D6E0BA
:100860009405503C9001D5E025E0FE9001D4E033A2
:100870009001D6F0A3CEF080271231DED394E8E5C4
:10088000F09403401B9001D7E094F49001D6E094DB
:1008900001500D9001D4E0FFA3E0A3CFF0A3EFF04F
:1008A000900211E06401600302117190013FE06069
:1008B0000302115E9001A4E07002A3E0700B1231FC
:1008C000FE9001A4CFF0A3EFF01231F5C39001A385
:1008D000E09F9001A2E09E5004EE12322C9001A8FD
:1008E000E07002A3E0705A1231F5D312323F401289
:1008F0009001A5E09FFF9001A4E09E9001A6F0A3C7
:10090000EFF0D39001A7E094049001A6E09400409A
:10091000081232137464F08015D39001A7E0940696
:100920009001A6E09400400612321374C8F09001C2
:10093000A87403F0A374E8F01231FE9001A4CF80F4
:100940000D1231F5C312323F50089001A4EEF0A30E
:10095000EFF09001AAE07002A3E070121231FE12D3
:10096000322BE49001ACF0A3F09001D880209001EC
:10097000ACE0FFA3E09001D8CFF0A3EFF02212315A
:10098000FE12322BE49001D8F0A3F09001ACF0A35A
:10099000F022E709F608DFFA8046E709F208DFFAF5
:1009A000803E88828C83E709F0A3DFFA8032E30976
:1009B000F608DFFA8078E309F208DFFA80708882AF
:1009C0008C83E309F0A3DFFA806489828A83E0A341
:1009D000F608DFFA805889828A83E0A3F208DFFAFA
:1009E000804C80D280FA80C680D4806980F28033C7
:1009F000801080A680EA809A80A880DA80E280CA8F
:100A0000803389828A83ECFAE493A3C8C582C8CC78
:100A1000C583CCF0A3C8C582C8CCC583CCDFE9DED2
:100A2000E7800D89828A83E493A3F608DFF9ECFA64
:100A3000A9F0EDFB2289828A83ECFAE0A3C8C58283
:100A4000C8CCC583CCF0A3C8C582C8CCC583CCDFD5
:100A5000EADEE880DB89828A83E493A3F208DFF987
:100A600080CC88F0EF60010E4E60C388F0ED240268
:100A7000B4040050B9F582EB2402B4040050AF2353
:100A8000234582239011C273EF8DF0A4A8F0CF8C80
:100A9000F0A428CE8DF0A42EFE22C2D5EC30E709BA
:100AA000B2D5E4C39DFDE49CFCEE30E715B2D5E47D
:100AB000C39FFFE49EFE121586C3E49DFDE49CFCEB
:100AC000800312158630D507C3E49FFFE49EFE2203
:100AD000C5F0F8A3E028F0C5F0F8E58215827002B1
:100AE0001583E038F022BB010A89828A83E0F5F0A1
:100AF000A3E022500687F009E71922BBFE07E3F5C1
:100B0000F009E3192289828A83E493F5F074019352
:100B100022BB010789828A830212B0500B09C5F0FB
:100B200027F7C5F01937F722BBFE0D09F8E325F0CA
:100B3000F3C5F019E338F322F889828A83740193AC
:100B400025F0C5F0F8E4933822BB010A89828A8334
:100B5000F0E5F0A3F0225006F709A7F01922BBFE3A
:100B600006F3E5F009F31922EF2BFFEE3AFEED391B
:100B7000FDEC38FC22C3EF9BFFEE9AFEED99FDECF5
:100B800098FC22E88FF0A4CC8BF0A42CFCE98EF02A
:100B9000A42CFC8AF0EDA42CFCEA8EF0A4CDA8F0E5
:100BA0008BF0A42DCC3825F0FDE98FF0A42CCD35A9
:100BB000F0FCEB8EF0A4FEA9F0EB8FF0A4CFC5F013
:100BC0002ECD39FEE43CFCEAA42DCE35F0FDE43C0C
:100BD000FC2275F008758200EF2FFFEE33FECD3357
:100BE000CDCC33CCC58233C5829BED9AEC99E5829E
:100BF00098400CF582EE9BFEED9AFDEC99FC0FD52A
:100C0000F0D6E4CEFBE4CDFAE4CCF9A88222B80019
:100C1000C1B90059BA002DEC8BF084CFCECDFCE5E4
:100C2000F0CBF97818EF2FFFEE33FEED33FDEC3308
:100C3000FCEB33FB10D703994004EB99FB0FD8E58D
:100C4000E4F9FA227818EF2FFFEE33FEED33FDECD6
:100C500033FCC933C910D7059BE99A4007EC9BFCCC
:100C6000E99AF90FD8E0E4C9FAE4CCFB2275F01058
:100C7000EF2FFFEE33FEED33FDCC33CCC833C8107D
:100C8000D7079BEC9AE899400AED9BFDEC9AFCE8AB
:100C900099F80FD5F0DAE4CDFBE4CCFAE4C8F922F8
:100CA000EB9FF5F0EA9E42F0E99D42F0EC6480C8CB
:100CB00064809845F022EB9FF5F0EA9E42F0E99DB2
:100CC00042F0E89C45F022E8600FECC313FCED1302
:100CD000FDEE13FEEF13FFD8F122E0FCA3E0FDA32D
:100CE000E0FEA3E0FF22E0F8A3E0F9A3E0FAA3E02E
:100CF000FB22ECF0A3EDF0A3EEF0A3EFF022A8822C
:100D00008583F0D083D0821214F51214F51214F5F5
:100D10001214F5E473E493A3C583C5F0C583C8C575
:100D200082C8F0A3C583C5F0C583C8C582C822A404
:100D30002582F582E5F03583F58322E0FBA3E0FA16
:100D4000A3E0F922EBF0A3EAF0A3E9F022EC8EF0A5
:100D5000A4CCC5F0CCCDF8EFA4CEC5F02DFDE43C7D
:100D6000FCE8A42EC8C5F03DFDE43CFCEFA4FFE583
:100D7000F028FEE43DFDE43CFC22EF4E6012EF6003
:100D8000010EEDBB010B89828A83F0A3DFFCDEFA42
:100D90002289F05007F709DFFCA9F022BBFEFCF323
:100DA00009DFFCA9F022BC000BBE0029EF8DF08406
:100DB000FFADF022E4CCF875F008EF2FFFEE33FE24
:100DC000EC33FCEE9DEC984005FCEE9DFE0FD5F05B
:100DD000E9E4CEFD22EDF8F5F0EE8420D21CFEAD64
:100DE000F075F008EF2FFFED33FD4007985006D562
:100DF000F0F222C398FD0FD5F0EA22122BA5400392
:100E00000218CC900108122B78FDE5F0FC122B752E
:100E1000FFAEF0D39DEE9C402E122C0ED3EF9430FB
:100E2000EE9475400C9001DC7475F0A37430F08082
:100E3000101212C6C39DFEE5F09C9001DCF0A3CE1B
:100E4000F0E49001B480601212C6FFAEF0C3ED9FD3
:100E5000FBEC9EFAD3EB9410EA9427400C9001DC53
:100E60007427F0A37410F08009C3ED9FFFEC9E126D
:100E70002BC19001DCE0FFA3E09001B4CFF0A3EF21
:100E8000F0300718D3E0942C9001B4E094014013A3
:100E90009001B67427F0A37410F08007E49001B6B7
:100EA000F0A3F0E49001DCF0A3F090013FE0604A91
:100EB000122B7ED39400EE648094804014D3EF957F
:100EC00009EE9508400B900203E4F0A37464F080EF
:100ED0001BD3900204E09400900203E09400400CC5
:100EE000900105122B78FFE5F0122BC1D20490027D
:100EF00009740FF0A374A0F0800F9002077403F040
:100F0000A374E8F0E4FF1235B0D39001DDE0940063
:100F10009001DCE06480948050030218A1E0FEA3FD
:100F2000E0FF900105122B6C122B7EEE3395E0FD55
:100F3000FCE47BB87A88F9F8C3121480500A900157
:100F4000DC7488F0A374B8F0D3900206E0940090AB
:100F50000205E0940050089000F1E06420702AE55A
:100F600009240AFFE43508FE9001DCE0FCA3E0FD63
:100F7000C39FEC9E5013ED9400EC64809480403845
:100F8000122B7E7C007D0A802930072C90013FE0E7
:100F90007011122B7EC39513EE9512501B7C027DAF
:100FA000BC800F122B7EC39509EE9508500A7C0277
:100FB0007DBC12127A122BC090013FE07003021820
:100FC00026900207E07002A3E070149001DCE0FEBE
:100FD000A3E0FDEEFCE4FF1218CD122BC080351209
:100FE0002B7EC3900135E09FFF900134E09EFE12FE
:100FF000373BD3EF9428EE648094804017D390025F
:1010000008E094C8900207E09400400874FF75F06F
:101010009C1212B0900134E0FEA3E0FF7C007D0F33
:1010200012152DECF8EDF9EEFAEFFB122B7EEE33F4
:1010300095E0FDFC121348E47B10FAF9F81213EE68
:10104000900134EE800B9001DCE0FFA3E0900134CE
:10105000CFF0A3EFF0900134E0FEA3E0FFD39405BE
:10106000EE9400400EEF9410EE940050069001DCD8
:10107000EE8016900130E0FEA3E0FF900135E02FF6
:10108000FF900134E03E9001DCF0A3EFF0D390013B
:10109000DDE094309001DCE0648094F540077475E5
:1010A000F0A37430F0E5DB54047041122B7E900104
:1010B0000E122B6C9001DDE024A8FF9001DCE08093
:1010C00022E5DB54047025122B99900130E0FEA339
:1010D000E0FF90010E122B6C90010E122B7824A8C9
:1010E000FFE5F03461FE90010B122B6C229001DEC3
:1010F000EFF0A3ECF0A3EDF0EF122B21E0FEA3E064
:10110000C39DFFEE9CFE12373BD3EF9428EE648024
:101110009480401C122AF11214DE00000000122AF2
:10112000BDE4F0122B3B122B1DEEF0A3EFF0803B41
:10113000122AAC122B5140339001DFE0FCA3E0FDFA
:10114000D3EF9DEE9C400B9001DEE0122AE4E044D8
:1011500001F09001DEE0FF122AB0E0FAA3E0C39DA7
:10116000EA9C5007122AE3E04402F09001DEE0120C
:101170002AF6C083C0821214C6122B3BE4FCFD1277
:101180001348D082D0831214D29001DEE0FF122BDC
:1011900044E475F0011212B0EF75F007A4245DF578
:1011A00082E43437F583E493FE740193FF9001DE0B
:1011B000E0FDC454F0242EF582E43402F583E0FA15
:1011C000A3E0C39FEA9E5003021B39ED122B44E0BB
:1011D000FEA3E0FFFBEEFAE4F9F89001DEE0122A4C
:1011E000F61214BA1213EE9001E11214D2122AA6CA
:1011F000E0FCA3E0C39FFFEC9EFE12373B9001E5AD
:10120000EEF0A3EFF09001DEE0FD75F007A42458A6
:10121000F582E43437F583C37401939FE4939E40D1
:101220001FED122AB0E0FEA3E04E60149001DEE054
:10123000FB122B2EE0FEA3E0C394B8EE940B501EDD
:101240009001DEE0FF122AB0E0FCA3E04C7008EF52
:10125000122B2EE4F0A3F0122AA6EE021AE0EB60A5
:1012600003021AE69001E7F09001E5E0FEA3E0FF3B
:10127000D39450EE94004006A37408F0803290019D
:10128000DEE0122AE4E064036026D3EF943CEE949F
:101290000040089001E77404F08015D39001E6E067
:1012A00094289001E5E0940040069001E77402F074
:1012B000122AACE0FEA3E0FFE4FCFD122B5DD3128A
:1012C000149640119001E7E0FF122AACE48FF0126F
:1012D00012B0021B1CD39001E6E094509001E5E0AF
:1012E00094004058122AACC083C082E0FEA3E0FF05
:1012F0009001E7E0FDC3EF9DFFEE9400D082D08324
:10130000F0A3EFF08036122AACE0FEA3E0FF4E70AF
:101310000D122B5DEBFFEAFEE9FDE8FC80167C0078
:101320007D0712152D122B5D121348E47B08FAF984
:10133000F81213EE122AACEEF0A3EFF0122AF1121B
:1013400014DE00000000122ABDE4F09001E1121446
:10135000BA122B1DEEF0A3EFF0122AAC122B514063
:101360005F9001E0E09FFF9001DFE09EFE12373BBF
:101370009001DEE075F007A4245AF582E43437F5D5
:1013800083D37401939FE4939E400F9001DEE0FFAE
:10139000122AB0122B03E4F080269001DEE0FF75E4
:1013A000F007A4245CF582E43437F583E493FE125D
:1013B0002B0FE0C39E5009122AAC122B03E004F05D
:1013C000122B3B22D39001FEE09F9001FDE09E4056
:1013D0000AA3E09FF09001FDE09EF0900202122D22
:1013E00081900201E09C400CA3E09FF0900201E09C
:1013F0009EF08002D28AD3900200E09F9001FFE02D
:101400009E400AA3E09FF09001FFE09EF0122D9312
:101410005003122DCBD3900204E09F900203E09E74
:10142000400AA3E09FF0900203E09EF0D3900206F2
:10143000E09F900205E09E400AA3E09FF090020525
:10144000E09EF0D390020CE09F90020BE09E400AD9
:10145000A3E09FF090020BE09EF0D3900208E09F83
:10146000900207E09E400AA3E09FF0900207E09EF2
:10147000F0D390020AE09F900209E09E400AA3E0A8
:101480009FF0900209E09EF0D39001B7E09F900199
:10149000B6E09E400AA3E09FF09001B6E09EF09077
:1014A000020E122D8190020DE09C400AA3E09FF0F5
:1014B00090020DE09EF0122DA15003122DCBD3907F
:1014C0000193E09F900192E09E400AA3E09FF0907C
:1014D0000192E09EF0900195122DD1900194E09C34
:1014E000400AA3E09FF0900194E09EF0D39001A900
:1014F000E09F9001A8E09E400AA3E09FF09001A821
:10150000E09EF0D39001ABE09F9001AAE09E400ADC
:10151000A3E09FF09001AAE09EF0900170122DD1FF
:1015200090016FE09C400AA3E09FF090016FE09E65
:10153000F0D39001B9E09F9001B8E09E400AA3E08B
:101540009FF09001B8E09EF0122DAF5003122DCB0A
:10155000122DBD5003122DCBD390012DE09F900191
:101560002CE09E400AA3E09FF090012CE09EF02228
:10157000C0E0C0F0C083C082C0D0E8C0E0D2AFD32A
:101580009001FEE094009001FDE094004003122DD4
:101590007AD3900202E09401900201E094004005A9
:1015A000122D7A8002D28AD3900200E0940090013A
:1015B000FFE094004003122D7A122D935003122D58
:1015C0008CD3900204E09400900203E09400400366
:1015D000122D7AD3900206E09400900205E0940068
:1015E0004003122D7AD390020CE0940090020BE09D
:1015F00094004003122D7AD3900208E094009002E8
:1016000007E094004003122D7AD390020AE0940080
:10161000900209E094004003122D7AD39001B7E0C4
:1016200094009001B6E094004003122D7AD390020A
:101630000EE0940190020DE094004003122D7A1206
:101640002DA15003122D8CD3900193E094009001B2
:1016500092E094004003122D7AD3900195E094011A
:10166000900194E094004003122D7AD39001A9E0F8
:1016700094009001A8E094004003122D7AD39001C9
:10168000ABE094009001AAE094004003122D7AD3BD
:10169000900170E0940190016FE094004003122DDE
:1016A0007AD39001B9E094009001B8E0940040032F
:1016B000122D7A122DAF5003122D8C122DBD500316
:1016C000122D8CD390012DE0940090012CE0940019
:1016D0004003122D7AD0E0F8D0D0D082D083D0F061
:1016E000D0E0329001E7EFF0122962E0702790011C
:1016F000E7E01229991214BAE4FBFAF9F8C31214BC
:101700009660129001E7E01229B71214BAE4F8C308
:1017100012149670571229CB9001E8121FFFEEF0B9
:10172000A3EFF0ED122962E06029ED75F00AA42420
:101730004DF582E43437F583C083C082900211E016
:10174000D082D083122970400A9001E7E01229620A
:101750007405F0122917E0D3940074809480400639
:10176000122961E014F09001EC021FFB122994127F
:1017700014BA9001F01214D21229B61214BA9001C0
:10178000F41214D29001E7E01229A81214BAEFF96A
:101790001229D4E9F81214A7EFFBEEFAEDF9ECF8F0
:1017A0001229D41213559001F81214D29001F0129C
:1017B00014BA9001EC1214C61213489001F81214D6
:1017C000C61213481229C51229941229D11229B61A
:1017D0001229D11229DA1214C61213EE1229C59059
:1017E00001F4121FFFEEF0A3EFF0ED75F00AA42450
:1017F00049F582E43437F583C083C082900211E05A
:10180000D082D083122970400F1229177405F0126C
:1018100029CB9001F41214D29001F41214BA22EFE1
:10182000FBEEFA1214BAC3EF9BFFEE9AFE12373B9F
:101830009001E7E0FD75F013A4241CF582E4340266
:10184000F5832290017B122C159404EE9400502213
:10185000122BD4EF25E0FFEE33FE74732FF5827464
:10186000013EF583ECF0A3EDF090017B122BE80232
:1018700020F19001E07401F09001E0E0FFC39404D6
:10188000748094805021EF122BB3FCA3E0FDEF2570
:10189000E02471F582E43401F583ECF0A3EDF090DF
:1018A00001E0E004F080D190013FE060028053123B
:1018B0002B75FF122BD4C3EF9DFFE5F09CFE123772
:1018C0003BC3EF9428EE6480948050369001081258
:1018D0002B78FFC3900101E09FFF900100E095F09D
:1018E000FE12373BC3EF9414EE6480948050059051
:1018F00001088003900102122B78FF900179E5F036
:10190000800B900100E0FFA3E0900179CFF0A3EFFE
:10191000F09001DC1214DE00000000E49001E0F021
:101920009001E0E0FFD390017CE09F90017BE09488
:101930000040259001DC1214C69001E0E0122BB3A8
:10194000FEA3E0FFE4FCFD1213489001DC1214D268
:101950009001E0E004F080C89001DC1214BAECC001
:10196000E0EDC0E0EEC0E0EFC0E090017B122BEFB5
:10197000D0E0FFD0E0FED0E0FDD0E0FC1213EE900E
:1019800001DC1214D29001DC0214BA758D20438D53
:1019900020538D7FE4F5B275B6FF75B7FF75B2A21F
:1019A00043B20153A8FB538B7F758B10438B08E523
:1019B0008B20E7030080F8538B7F758B11438B08D6
:1019C000E58B20E7030080F890023FE5B5F0A3E542
:1019D000B4F0758B01E4F5B21236AEE4F58D9001EA
:1019E0001DE0FEA3E0FF4E70101236FAFD90011DBF
:1019F000E5F0F0A3EDF00222541236FAFDC3EF9D9C
:101A0000FFEE95F0FE12373BD3EF940AEE6480941C
:101A10008040241236FAFFC390011EE09F90011D02
:101A2000E095F05006E475F001800790011D74FF09
:101A3000F5F01212B0803D90011D7D03123703ECCA
:101A4000C0E0EDC0E0EEC0E0EFC0E01236FAFFAE5D
:101A5000F0E4FCFDD0E0FBD0E0FAD0E0F9D0E0F813
:101A6000121348E47B04FAF9F81213EE90011DEE0C
:101A7000F0A3EFF0900211E0640190011D700A7D67
:101A800005123703E47B64800AE0FEA3E0FFE4FC78
:101A9000FD7B0AFAF9F81213EE90019AEEF0A3EF2B
:101AA000F090019CE07002A3E0700D90019AE0FFBD
:101AB000A3E0A3CFF0A3EFF09001A2E07002A3E0B7
:101AC000700F90011DE0FFA3E09001A2CFF0A3EF03
:101AD000F0229001DC7402F0A374BCF0D39001B941
:101AE000E094009001B8E094004011122B75FF9033
:101AF000010812151BE5F08FF01213299001FDE08B
:101B00007002A3E0600B9001DCE4F0A37464F08049
:101B10000B90001AE0641170037420F090013FE014
:101B2000600F7E007F0A7D007B017A0179400215FB
:101B30005A9001401214C6E8C0E0E9C0E0EAC0E0F3
:101B4000EBC0E0122B75FFAEF0E4FCFDD0E0FBD063
:101B5000E0FAD0E0F9D0E0F81213489001401214F6
:101B6000D2900144122BE89001DC122C159001490F
:101B7000E09F900148E09E50030223F6900140123E
:101B800014BAECC0E0EDC0E0EEC0E0EFC0E09001C0
:101B900044122BEFD0E0FFD0E0FED0E0FDD0E0FC1F
:101BA0001213EE9001401214D2900108122B7824E7
:101BB00032FFE435F0FEE4FCFD9001401214C6D380
:101BC000121496402E9001FDE07002A3E0702420D4
:101BD0000421900146122BE9D3900147E09405902F
:101BE0000146E094004018122B63E4900146F0A3F4
:101BF000F0800C122B63E4900146F0A3F0C2049035
:101C000001401214DE00000000E4900144F0A3F053
:101C1000900148F0A3F0227FFF7A0079001236E5A8
:101C20007FDC7A0179001236E57E007F147D007B2F
:101C3000017A0179FC12155A902DE0E4939000018D
:101C4000F09000047411F0A37422F0A37433F090A8
:101C50002DE2E493900012F0902DE3E493900014B1
:101C6000F09000FB7401F09000367410F09000F1D9
:101C7000F0900024F0A37420F07B017A007940906A
:101C800001021215247A0079449001081215247A71
:101C90000079429001051215247A00792E90010BEB
:101CA0001215247A00792A90010E1215247A0079EF
:101CB000289001111215247A00796090011F1215E5
:101CC000247A0079809001AE1215247A0079189058
:101CD00001391215247A00791B9001361215247AE5
:101CE0000079329001141215247A00792690011798
:101CF0001215247A00793490011A121524900114D7
:101D000012151BE475F0C812132990011712151B48
:101D1000E475F06412132990011A12151BE475F092
:101D2000961213297512007513C875080075099667
:101D30007B017A00795090013C12152490005212D8
:101D400036EE9000581236EE9001FDF0A374D0F0FC
:101D5000E49001FCF0229001E3EFF0902E22E0FFEE
:101D60009001E7E4F0A3EFF0758A50902E22740101
:101D7000F012338B7404F0A3E4F09001E4F09001CE
:101D8000E4E0FFC3940D74809480400302264AEF80
:101D9000F87E02E4088006CEA2E713CE13D8F8FF3F
:101DA0009001E5EEF0A3EFF04E70079001E5F0A38F
:101DB00004F0902E207401F0902E20E030E2F99093
:101DC00001E3E0FF902E00123392E0FCA3E0D394F5
:101DD000FEEC940740401233B3E0FEA3E0FF900115
:101DE000E5E0FCA3E0FDEF2DFFEE3CFEC3EF94FF2A
:101DF000EE94079001E3E075F002902E10500B1264
:101E0000150FEC8DF01212B0805012150F7407F000
:101E1000A374FFF080449001E3E0FF12338FE0FCF5
:101E2000A3E0FD9001E5E0FAA3E0FBD3ED9BEC9A83
:101E300040211233B3C083C082C3A3E09BFF05825D
:101E4000D5820215831582E09AD082D083F0A3EF69
:101E5000F0800712338BE4F0A3F0902E20E4F0F52D
:101E60008D9001E4E004F002255E9001E7A3E0908C
:101E70002E22F0758A30227FC87E007D967C00126B
:101E80002BA540030227483007209001B6E07002DE
:101E9000A3E0600875121375138880067512077524
:101EA00013D07508067509408049900211E0F96465
:101EB000017006FE7FC8FC7D969001D6E0FAA3E093
:101EC000FB2FF513EA3EF512CEECCEEDFFEB2FF52E
:101ED00009EA3EF508E964017019A3E0FEA3E0FFFA
:101EE0002513F513EE3512F512EF2509F509EE3538
:101EF00008F508900105122B78FFAEF0C39513EE9C
:101F00009512500F90013FE0601AC3EF9509EE95CE
:101F1000084011900205E07002A3E0702990013F93
:101F200004F080229000F1E064209002057005F03A
:101F3000A3F080077401F0A374F4F0E490013FF083
:101F4000900203122BFA90013FE0FF6016900024EC
:101F5000E0641090003670057410F080037420F077
:101F6000122BDD90004BEFF022CBEFCBEEFAC3E566
:101F7000329BFFE5319AFEE5309400FDE52F940099
:101F80008F328E318D30F52F22E52225E024BAF5EF
:101F900082E43401F583E022900211E025E024542C
:101FA000F582E43437F583E5822FF582E43583F555
:101FB00083E493221214C6900163E0FEA3E0229012
:101FC00001E1E0FFA3E0CF90015DF0A3EFF022F587
:101FD00083E49375F002902E0012150FE0FFA3E04A
:101FE00022900211E02441F582E43402F583E022DC
:101FF000F583E4932420F582E4342EF58322CFF098
:10200000A3EFF0902E20E4F0758A3022E52225E03F
:1020100024BCF582E43401F58322900211E06401CE
:1020200022123691758A50902E207401F022900170
:10203000E30214BA7F047E007D007B0122E0FCA352
:10204000E0FDECFEEDFF221213489001E30214D2F2
:10205000E4F526F525F524F523F526F525F524F5F3
:1020600023F522122C04502AE52225E0240AF8E662
:10207000FE08E6FFE4FCFDE5262FFFE5253EFEED2C
:102080003524FDEC35238F268E258D24F52305225E
:1020900080D1E47B03FAF9F8AF26AE25AD24AC235A
:1020A0001213EE90017FEEF0A3EFF0E47526A87511
:1020B0002561F524F523F522122C04505590017F5B
:1020C000122B87C3122C0E12373BD3EF940AEE6407
:1020D000809480401290017FE0FEA3E0FF900157C2
:1020E000E0FCA3E0FD8007900157122B87C3122C60
:1020F0000E3395E0FDFCE5262FFFE5253EFEE524A9
:102100003DFDE5233C8F268E258D24F523052202F7
:102110002898E47F607EEAFDFCAB26AA25A924A8C6
:1021200023D3121496400BE47526607525EAF52436
:10213000F523AE25AF26229001EC1214BA9001E7E8
:10214000E0FB75F013A42417F582E43402F5831242
:1021500014D2EB75F013A42422F582E43402F58343
:102160001214BA9001EC1214C61213639001E7E046
:10217000FB75F013A42413F582E43402F5831214E2
:10218000D2EB75F013A4241BF582E43402F583220C
:1021900075F00212150FE493FE740193FFED75F0D4
:1021A00013A4241CF582E43402F583E0FCA3E0D3FD
:1021B0009FEC9E229001E7E0FB75F013A42417F535
:1021C00082E43402F58322EB75F013A4241EF58219
:1021D000E43402F58322EB75F013A42413F582E4B2
:1021E0003402F583229001F41214D29001EC02140F
:1021F000BA1214D29001F40214BAEB75F013A424AD
:1022000022F582E43402F58322C0E0C083C082C09C
:10221000D075D018D2AFE5DB30E422D205C202E59A
:10222000DB30E11412372DE0F5DFEF64077065D283
:102230008A900007F0022A97C201022A9AE5DB3051
:10224000E52C9000F0E064AA7017758A10F5DAC2E8
:10225000AFF5B2F5A8F5A9F58B758E01758DC08027
:10226000FED200300204C2028050C205804CC2027D
:10227000E5DB30E121E5DB30E04012372DE0F5DF32
:10228000EF24F9600824EE700BD2068007D28A9002
:102290000007E4F0802120010A7814A6DFD201D2E1
:1022A00002801712372DE5DFF0EF642470099001EA
:1022B000FF04F0A374F4F078140675DBFFD0D0D0DF
:1022C00082D083D0E0329001E11214BA9001DEE0B6
:1022D000C454F0242CF582E43402F58322EBC45478
:1022E000F0242AF582E43402F583E4F0A3F09001AF
:1022F000DEE0FFC454F0242EF582E43402F583E4DA
:10230000F0A3F0EFC454F02433F582E43402F583F3
:10231000229001DEE0FBC454F02426F582E434026E
:10232000F58322E0FDA3E09001DFCDF0A3EDF0EF17
:10233000C454F02432F582E43402F583229001DEA5
:10234000E0C454F02430F582E43402F58322C4540E
:10235000F02434F582E43402F583229001DFE0FEBC
:10236000A3E0FF22C454F0242AF582E43402F5836A
:1023700022E0FEA3E0FFD39400EE9400229001E15E
:102380000214C69001401214BA90010812151BEEF7
:102390008FF002132990010212151B0212C6900140
:1023A000DCE0FEA3E0FF22E52225E0240AF8E6FEB9
:1023B00008E6FFE0FCA3E0FD2290010512151BE4F6
:1023C000F5F0021329D39001FEE094009001FDE0A6
:1023D00094002225E02473F582E43401F583E022A1
:1023E000EE9001DCF0A3EFF02212151B746175F082
:1023F000A8021329900100E0FCA3E0FD229001FF58
:102400007403F0A37420F022E475F0010212B0E02E
:10241000FEA3E0FBEEFAE4F9F822F0A3F090003618
:102420007410F022C3E52294037480948022EF9DFF
:10243000FFEE9CFE22E0FEA3E0FFC322E49001DC5D
:10244000F0A3F090014CF0A3F090014AF0A3F01239
:1024500034F17E007F047D007B017A0179571215EB
:102460005A7F01123574902E14E0FEA3E0FF123360
:102470008490013C12151BEE8FF0121329E4FF1219
:1024800035741233989001DCCDF0A3EDF09001DCAF
:10249000E0FCA3E0FDC39405EC94004009D3ED9467
:1024A000F0EC94074017EF64014E700590014C80EA
:1024B00004E490014AF0A3F0E4FF123574902E2357
:1024C000E4F01233989001DCCDF0A3EDF090001D04
:1024D0007410F0EF64014E9001DC700812337F122B
:1024E00033BD800612337F1233C7E03EFE1233A79E
:1024F0002212324A1236717E007F2C7D007B017AD7
:1025000001798212155A120CD6E490017BF0A3F0E7
:10251000900169F0A3F0900167F0A3F090016BF0D7
:10252000A3F07F03122FEE900100E0FEA3E0FFA3D3
:10253000122B6C900100E0FEA3E0FF122B69122B1E
:102540009990010B122BC9900111122BC990010E09
:10255000122B9CE490013FF0FE7F0AFD7B017A0183
:10256000794012155AE490020BF0A3F09002091280
:102570002BFAE490004BF0122BDD90020FE0700F6D
:10258000C39001FEE094F49001FDE09401500A90A4
:1025900001FD7401F0A374F4F02274FFF5F002124F
:1025A000B0EF2401FDE43EFCD3E09D22E475F00190
:1025B0000212B0C3900149E094BC900148E094023B
:1025C00022C3900191E09464900190E0940022C3B2
:1025D000900235E094B8900234E0940B22C390024C
:1025E0002FE094F490022EE0940122EE8FF002127C
:1025F000B0EF2401FDE43EFCD3E09D22000000008A
:102600000402AB4074AA7583F5758255A57455759F
:1026100083FA7582AAA574A57583F5758255A522DE
:102620000203020AB0B00BB6B60CFFFF09020208A3
:10263000FFFF0D77770E04041307071410101080A6
:10264000801500001600000112121212071B021062
:102650000B0F040404040401010101110608111107
:1026600012180804040302040204787FE4F6D8FD7B
:10267000758132022E94020000022F66E493A3F8C3
:10268000E493A34003F68001F208DFF48029E49389
:10269000A3F85407240CC8C333C4540F4420C88380
:1026A0004004F456800146F6DFE4800B0102040882
:1026B0001020408090361FE47E019360BCA3FF543D
:1026C0003F30E509541FFEE493A360010ECF54C0D0
:1026D00025E060A840B8E493A3FAE493A3F8E49358
:1026E000A3C8C582C8CAC583CAF0A3C8C582C8CA60
:1026F000C583CADFE9DEE780BEE49001E0F0A3F025
:10270000200603022F6520077CC206900211E0908C
:102710002E12E0FFA3E09001E0CFF0A3EFF09001D4
:10272000E0E0FFA3E09001DECFF0A3EFF0E4FF12C2
:1027300035741233989001E0CDF0A3EDF0EF640111
:102740004E9001E0700812337F1233BD80061233C1
:102750007F1233C7E03E9001DCF0A3EFF09001DC84
:10276000E0FEA3E0FF1233A7900211E09001DEE04B
:10277000FFA3E0902E12CFF0A3EFF09001FF7403BF
:10278000F0A37420F02253A87F1236CA1223F71246
:10279000353412080E43A880E4F58D9000F17420C2
:1027A000F012306E9001FCE0146015146017146094
:1027B0003814604A240470E0122C1C12080380D8DC
:1027C000122CD1803112364E900020E0FF64206040
:1027D00008EF642160031230EC900025E064107073
:1027E000B79001FC7404F080AF12080A9001FF74E6
:1027F00003F0A37420F09001FC7402F0809A12346C
:1028000065900025E06410608F120803808A9001B3
:10281000DCEFF0E4A3F09001DCE0FFA3E0C39F5005
:102820002E12082E12370D90016BEEF0A3EFF08EF2
:1028300010F511C8740AC87400FCE4FDFB7A007935
:102840000CFE7F061212429001DDE004F080C712F8
:102850002830900100EEF0A3EFF0900169122C15E2
:10286000900133E09FFF900132E09EFE12373B7CE7
:10287000007D0512127A900130ECF0A3EDF090018A
:1028800069E0FFA3E0900132CFF0A3EFF0229000C7
:1028900020E0642070037421F090013612151B12A1
:1028A00012C6641045F0700312341C900001E064FD
:1028B000AA700312331E1233D120030890001AE0CD
:1028C0006410700B90001A7411F0C2031208039088
:1028D00000FBE06006E4F09001FCF090016FE07016
:1028E00004A3E06401701590016FF0A3F09001B8AB
:1028F0007407F0A374D0F0E49001FCF030000CC237
:10290000009001FF7401F0A374F4F022308A7890F3
:1029100001FDE07002A3E0706E90016FE07002A311
:10292000E07064F5B2758D20438D20758D9043A8BD
:1029300008D2AF758B4090012CE0FEA3E0FF4E6003
:1029400005758E148003758E3F20002F20052CE521
:10295000DB54047026758AA4200520E5DB5404703E
:102960001AF586758703000000758601EF4E600436
:102970007F2880027F7F7E00121BA4758B01758AE1
:102980003053A8F71236AE22E4FEEEC394077480EB
:1029900094805038EE75F005A42428F582E4342E96
:1029A000F583C083C082900211E0D082D08375F09D
:1029B0000212150F122787FDEE75F005A42427F5E6
:1029C00082E4342E1227D0EDF00E80BEEF7010900E
:1029D0000211E0700A90014AE07002A3E0600F1259
:1029E00027FA701490014CE07002A3E0700A900284
:1029F00011E0902E217412F022CFF0EFA3F090019D
:102A00000512151B0212C6C3FF900187E09F9001BB
:102A100086E095F02290011DE0FEA3E0FF229001E8
:102A20001DE0FFA3E0229001DFE0941E9001DEE0B4
:102A30009400229001AA7413F0A37488F0A3E4F028
:102A4000A322E4F0A3F0A3F0A3F022CF9001A2F020
:102A5000A3EFF022FF900186E5F0F0A3EFF02290C3
:102A600001A5E09F9001A4E09E227E007F137D00DF
:102A70007B017A02791312155AE4FBEBC3940174BB
:102A80008094805051900211E0FFEB75F00AA4246D
:102A900047F582E43437F583E5822FF582E4358308
:102AA000F583E493FFE4FCFDFE1229A71214D21271
:102AB00029A71214BAEF04F87E007401088005C338
:102AC00033CE33CED8F9FFEE3395E0FDFC1229DA90
:102AD0001214D20B80A522900201E07004A3E064DE
:102AE000017011900007E06004D28AE4F0E49002E3
:102AF00001F0A3F0900036E0FF9000FFE06F603D32
:102B0000900036E0FD9000FFF0900007E090021288
:102B1000F0540FF0ED7E0064207005E04420800C3E
:102B2000EF64104E700B900212E04410F09000071A
:102B3000F0C28A9002017403F0A374E8F0229001BD
:102B4000DC7408F0A3E4F0A3743FF0A374DFF0E4B6
:102B5000FDFCF9758A10538AEF009001DCE0FEA3BA
:102B6000E02DF582EE3CF583E493FF69F90DBD009D
:102B7000010CBC37E5BDDFE29001DEE0FEA3E0F52D
:102B8000828E83E493FFE96F70089000017404F073
:102B90008005E4900001F0758A30538AEF0022E04E
:102BA000FEA3E0FF7C007D0A0212689001E3E09042
:102BB0002E1075F00202150F900211E0FF7E0090BA
:102BC0002E12E0FDA3E02290013912151BEE8FF0CA
:102BD00002132975F002EF902E1002150F90014D8F
:102BE000E02FFF90014C2290014BE02FFF90014A13
:102BF00022900013E0FF900210E06F600CEFF09065
:102C0000020D7402F0A37458F090020DE07004A35A
:102C1000E064017026900210E0FF7E0064107002F4
:102C2000D207EF64204E7002C207900025E06410C6
:102C30006002D203E490020DF0A3F022E49001DCE4
:102C4000F0A3F0758A10538AEF00122DE475EA8123
:102C5000E4F5F6F5F475F308F5F275EB0700E5EC2D
:102C600030E7FBAFF3EFFEADF2EDFF90013612154A
:102C70001BEE8FF0121329E4F5EC75EB30758A30FA
:102C8000538AEF0022900025E06410703FF5B27582
:102C90008D20438D20538D7F53A8F7F58BE5DB54B2
:102CA000047013200510F58AF5867587030000006F
:102CB000758601758A30758B0190020F7401F09052
:102CC00001FF7403F0A37420F01236AE22C2D5E8DF
:102CD00030E70FB2D5E4C39BFBE49AFAE499F9E438
:102CE00098F8EC30E717B2D51234E31213EEE4C3D0
:102CF0009BFBE49AFAE499F9E498F880031213EE46
:102D000030D50DE4C39FFFE49EFEE49DFDE49CFCF2
:102D100022E4FFEFC3940D74809480502E90021132
:102D2000E0FEEF75F003A42401F582E4342EF58370
:102D3000E5822E12278AFEEF75F003A42400F582A7
:102D4000E4342E1227D0EEF00F80C8902F56E0907A
:102D50002E2BF022E4F5DA75DA4043DA20308813BE
:102D600075D74075D64090021104F090001574405C
:102D7000F0801175D74275D642E4900211F09000B0
:102D8000157441F05392FE75DA5843A80275B802E3
:102D900075F802229001E2EFF01236919001E2E024
:102DA000FF1231689001E2E0FF900211E025E0247B
:102DB00054F582E43437F583E5822FF582E43583D8
:102DC000F583E493FF1225369001E2E0FF02371EFF
:102DD0009001DEEFF07E007F10EEC0E0EFC0E07DFE
:102DE00000E075F010A42426F9740235F0FA7B0196
:102DF000D0E0FFD0E0FE12155A9001DEE0122B2E3B
:102E0000740BF0A374B8F022900158E02430FF90C6
:102E10000157E034F8FEC390016AE09F900169E039
:102E20009E501490016FE07002A3E0701190016F4A
:102E300004F0A374F4F022E490016FF0A3F022C137
:102E4000054202410204C106410212004102110082
:102E5000C10741021000C101011400C100C102C13B
:102E600004C1034100FF1043023C01023F00120C69
:102E7000D67F01122FEE122023900102122B6C122A
:102E800015DB1226571222B21232B71235E8022E83
:102E9000D91228147A01795B12155A1228147A0172
:102EA000796312155A7F161228167A0179BA02151B
:102EB0005AEFF87401088002C333D8FC42AB1227E2
:102EC0007890375193F4529152935391DF22E5B2A7
:102ED00054016006E5A85410700F75B29275B67C67
:102EE000E4F5B743B20143A81022758A30538AEF44
:102EF000758601758F05E4F5AB75AC0F75913E7560
:102F00009201D28A227E007D007B0102155A741143
:102F1000F0A37404F0A37407F02290023C12151B76
:102F20000212C6E0FEA3E0FF7C0002152D900169AD
:102F3000E0FEA3E0FF900167EEF0A3EFF02212277E
:102F4000789037519342914288439120227814E639
:102F5000FF2400F582E43400F58322EE30E707C356
:102F6000E49FFFE49EFE2203030019001E001400EC
:102F70001901022001020102009600960701F400E7
:102F80000000000000000000000000000000000041
:102F90000000000000000000000000000000000031
:102FA0000000000000000000000000000000000021
:102FB0000000000000000000000000000000000011
:1037F000000000000000000000000000000000B514
:1038000000000000000000000000000000000000B8
:1038100000000000000000000000000000000000A8
:00000001FF
