:1000000000C8000000030000B2DC00000000000097
:1000100000000000000000000000000000000000E0
:10002000023638009600960701F4000234E503001A
:1000300014000A023D830102200102020826023D4B
:10004000100000022608D2AF320000023D80208A54
:1000500003020E2A90017CE06003020E2A9001CA7E
:10006000E07002A3E06003020E2A9001C8E0700273
:10007000A3E06003020E2A900169E07002A3E06031
:1000800003020E2A9000F1E064206003020E2A9021
:10009000013DE0FF6003020E2AEF704B900117E074
:1000A000FBA3E0FAA3E0F91214F3FFAEF090010510
:1000B000E0FBA3E0FAA3E0F91214F3D39FE5F09E6E
:1000C0004003020E2A7E007F0A7D007B017A0179BF
:1000D0003E121736E4900175F0A3F09001D0F0A322
:1000E000F09001CEF0A3F0E4F5B2900179E0FFA327
:1000F000E09001FBCFF0A3EFF0C20B300403020D40
:10010000FF758D20438D20758D8043A808D2AF7573
:100110008B02758EC820042E9000F1E064207026BA
:10012000200923E5DB5404701D758AA4200913E51A
:10013000DB5404700DF58675870300000075860199
:100140008006D20B8002D20B758B01758A3053A8C2
:10015000F7D39001C9E094909001C8E09401400E5B
:10016000A3E02470F09001C8E034FEF08007E49032
:1001700001C8F0A3F0D39001D5E094909001D4E0B1
:100180009401400EA3E02470F09001D4E034FEF01E
:100190008007E49001D4F0A3F0E49001FFF0A3F015
:1001A0001222CC900161EEF0A3EFF0900165EEF029
:1001B000A3EFF0C39001FCE09FFF9001FBE09EFEE7
:1001C000123D749001FDEEF0A3EFF0D39414EE9481
:1001D00000502E900200E004F070069001FFE00451
:1001E000F0D3900200E094059001FFE094004002FB
:1001F000D20BD39001FEE0940F9001FDE0940050EB
:100200009FC39001FEE094149001FDE09400400330
:10021000020DE2300B03020DE2900155E0FEA3E077
:10022000FF900165E0FCA3E0FD9FEC9E4053ED9F35
:10023000FFEC9EFE7C007D041217099001A21216AD
:10024000CCE47FB87E88FDFC9001A2E0F8A3E0F941
:10025000A3E0FAA3E0FBD31216A89001A2400A1271
:1002600016D80000EA60020ACAE0FCA3E0FDA3E0A1
:10027000FEA3E024A8FFEE3461FEE43DFDE43C80F3
:1002800062900165E0FEA3E0FFC3900156E09FFF8E
:10029000900155E09EFE7C007D041217099001A29A
:1002A0001216CCE47FA87E61FDFC9001A2E0F8A3C9
:1002B000E0F9A3E0FAA3E0FBD31216A89001A24054
:1002C000091216D8000000008020E0F8A3E0F9A38E
:1002D000E0FAA3E0FBC374A89BFF74619AFEE49963
:1002E000FDE498FC9001A21216CC9001A2A3A3E019
:1002F000FFA3E09001A0CFF0A3EFF09001FBE0FEA0
:10030000A3E0FF7C007D09121709ECF8EDF9EEFA85
:10031000EFFB900165E0FEA3E0FFE4FCFDEB2FFFA7
:10032000EA3EFEED39FDEC38FCE47B0AFAF9F812FE
:1003300016009001FBEEF0A3EFF090013DE06003AA
:10034000020BF7900108E0FBA3E0FAA3E0F9121416
:10035000F3FFAEF07C007D03121709ECF8EDF9EE27
:10036000FAEFFB9001A0E0FEA3E0FFE4FCFDEB2F21
:10037000FFEA3EFEED39FDEC38FCE47B04FAF9F8C7
:10038000121600900100EEF0A3EFF0900108E0FBE0
:10039000A3E0FAA3E0F91214F3FFAEF07C007D03B2
:1003A000121709ECF8EDF9EEFAEFFB900100E0FE10
:1003B000A3E0FFE4FCFDEB2FFFEA3EFEED39FDEC90
:1003C00038FCE47B04FAF9F8121600900108E0FB0F
:1003D000A3E0FAA3E0F9EE8FF0121556900100E0C9
:1003E000F9A3E0FFA3E0FBA3E0FAA3E0C98FF012BA
:1003F0001556900105E0FBA3E0FAA3E0F9E4F5F05F
:1004000012155690010EE0FBA3E0FAA3E0F9E4F523
:10041000F0121556020DE2900100E0FEA3E0FF7C11
:10042000007D03121709ECF8EDF9EEFAEFFB9001ED
:10043000A0E0FEA3E0FFE4FCFDEB2FFFEA3EFEEDB3
:1004400039FDEC38FCE47B04FAF9F812160090014F
:1004500000EEF0A3EFF0A3E0FBA3E0FAA3E0F9EED7
:100460008FF0121556900108E0FBA3E0FAA3E0F923
:100470001214F3FFD39001A1E09F9001A0E095F04A
:100480005003020DFF1214F3FFAEF0900102E0FBE7
:10049000A3E0FAA3E0F91214F3C39FFFE5F09EFE78
:1004A000C3EF9515EE95145003020DFF900105E082
:1004B000FBA3E0FAA3E0F91214F3FFAEF07C007D99
:1004C00002121709ECC0E0EDC0E0EEC0E0EFC0E0C2
:1004D000900108E0FBA3E0FAA3E0F91214F3FFAEE9
:1004E000F0900102E0FBA3E0FAA3E0F91214F3C3D9
:1004F0009FFFE5F09EFEE4FCFDD0E0FBD0E0FAD0EB
:10050000E0F9D0E0F8EB2FFFEA3EFEED39FDEC38E4
:10051000FCE47B03FAF9F8121600900105E0FBA356
:10052000E0FAA3E0F9EE8FF0121556900105E0FB1A
:10053000A3E0FAA3E0F91214F3D39430E5F0947534
:100540004008747575F03012155690017CE0700308
:10055000020DE2900180E0FEA3E0FFD39400EE9450
:10056000005003020DE2900105E0FBA3E0FAA3E0D6
:10057000F91214F3C39FFFE5F09EFE123D74900143
:10058000A6EEF0A3EFF0900105E0FBA3E0FAA3E0F4
:10059000F91214F3FFC3900181E09F900180E09570
:1005A000F050209001A7E0940A9001A6E09400404A
:1005B00012900108E0FBA3E0FAA3E0F9E475F0076C
:1005C00012151E900105E0FBA3E0FAA3E0F9121456
:1005D000F3FFD3900181E09F900180E095F04022ED
:1005E000D39001A7E0940A9001A6E09400401390F4
:1005F0000108E0FBA3E0FAA3E0F974FF75F0F9123B
:10060000151E200B1AC39001FEE094149001FDE02A
:100610009400500B9000F1E0642070030208DB901E
:10062000017BE004F09001841216D800000000E481
:10063000900188F0A3F0A3F0A3F09001F11216D876
:1006400000000000123D10123BC6229001A2EFF004
:10065000A3ECF0A3EDF0EFC454F024E7F582E4340A
:1006600001F583E0FEA3E0C39DFFEE9CFE123D7406
:10067000D3EF9428EE64809480406C9001A2E0FB5C
:10068000C454F024DDF582E43401F5831216D80059
:10069000000000EBC454F024E1F582E43401F5835A
:1006A000E4F0A3F09001A2E0FFC454F024E5F58249
:1006B000E43401F583E4F0A3F0EFC454F024EAF548
:1006C00082E43401F583E4F09001A3E0FEA3E0FFAF
:1006D0009001A2E0C454F024E7F582E43401F583EC
:1006E000EEF0A3EFF0806C9001A2E0C454F024E39C
:1006F000F582E43401F583E0FEA3E0FFD39400EE3D
:100700009400404F9001A3E0FCA3E0FDD3EF9DEEE9
:100710009C40149001A2E0C454F024EAF582E43431
:1007200001F583E04401F09001A2E0FFC454F024FD
:10073000E3F582E43401F583E0FAA3E0C39DEA9C8B
:100740005011EFC454F024EAF582E43401F583E05B
:100750004402F09001A2E0C454F024DDF582E434B8
:1007600001F583C083C082E0F8A3E0F9A3E0FAA317
:10077000E0FB9001A3E0FEA3E0FFE4FCFDEB2FFF14
:10078000EA3EFEED39FDEC38FCD082D0831216CC67
:100790009001A2E0FFC454F024E1F582E43401F5B5
:1007A00083E475F0011214DDEF75F007A42408F559
:1007B00082E43408F583E493FE740193FF9001A270
:1007C000E0FDC454F024E5F582E43401F583E0FA59
:1007D000A3E0C39FEA9E5003021276EDC454F024B6
:1007E000E1F582E43401F583E0FEA3E0FBEEFAE4F8
:1007F000F9F89001A2E0C454F024DDF582E434015C
:10080000F583E0FCA3E0FDA3E0FEA3E0FF121600E9
:100810009001A51216CC9001A5A3A3E0FEA3E0FFD2
:100820009001A2E0C454F024E3F582E43401F5839E
:10083000E0FCA3E0C39FFFEC9EFE123D749001A973
:10084000EEF0A3EFF09001A2E0FD75F007A4240301
:10085000F582E43408F583C37401939FE4939E40CA
:1008600031EDC454F024E3F582E43401F583E0FE75
:10087000A3E04E601D9001A2E0FBC454F024EBF510
:1008800082E43401F583E0FEA3E0C394B8EE940B58
:1008900050479001A2E0FFC454F024E3F582E43411
:1008A00001F583E0FCA3E04C7011EFC454F024EB9D
:1008B000F582E43401F583E4F0A3F09001A5A3A34D
:1008C000E0FEA3E0FF9001A2E0C454F024E3F5822F
:1008D000E43401F583EE021199EB600302119F905D
:1008E00001ABF09001A9E0FEA3E0FFD39450EE9499
:1008F000004006A37408F0803B9001A2E0C454F0CD
:1009000024EAF582E43401F583E064036026D3EF42
:10091000943CEE940040089001AB7404F08015D331
:100920009001AAE094289001A9E09400400690016B
:10093000AB7402F09001A2E0C454F024E3F582E429
:100940003401F583E0FEA3E0FFE4FCFD9001A5E0A7
:10095000F8A3E0F9A3E0FAA3E0FBD31216A8401E27
:100960009001ABE0FF9001A2E0C454F024E3F582D3
:10097000E43401F583E48FF01214DD02120AD390FF
:1009800001AAE094509001A9E09400500302120AD9
:100990009001A2E0C454F024E3F582E43401F5832D
:1009A000C083C082E0FEA3E0FF9001ABE0FDC3EF97
:1009B0009DFFEE9400D082D083F0A3EFF0806B9087
:1009C00001A2E0C454F024E3F582E43401F583E0AD
:1009D000FEA3E0FF4E70169001A5E0F8A3E0F9A396
:1009E000E0FAA3E0FFEAFEE9FDE8FC80287C007D58
:1009F000071217099001A5E0F8A3E0F9A3E0FAA314
:100A0000E02FFFEA3EFEE93DFDE83CFCE47B08FA0E
:100A1000F9F81216009001A2E0C454F024E3F58224
:100A2000E43401F583EEF0A3EFF09001A2E0FBC403
:100A300054F024DDF582E43401F5831216D8000069
:100A40000000EBC454F024E1F582E43401F583E4C2
:100A5000F0A3F09001A2E0FFC454F024E5F582E495
:100A60003401F583E4F0A3F0EFC454F024EAF582F6
:100A7000E43401F583E4F09001A5A3A3E0FEA3E034
:100A8000FF9001A2E0C454F024E7F582E43401F5BC
:100A900083EEF0A3EFF09001A2E0C454F024E3F55C
:100AA00082E43401F583E0FEA3E0FFD39400EE94EA
:100AB0000050030213419001A4E09FFF9001A3E0C6
:100AC0009EFE123D749001A2E075F007A42405F586
:100AD00082E43408F583D37401939FE4939E402EFF
:100AE0009001A2E0FFC454F024E3F582E43401F560
:100AF00083E0FDA3E09001A3CDF0A3EDF0EFC4549B
:100B0000F024E9F582E43401F583E4F080539001A8
:100B1000A2E0FF75F007A42407F582E43408F5830A
:100B2000E493FEEFC454F024E9F582E43401F58344
:100B3000E0C39E502C9001A2E0C454F024E3F5825F
:100B4000E43401F583E0FDA3E09001A3CDF0A3ED33
:100B5000F0EFC454F024E9F582E43401F583E004B5
:100B6000F09001A3E0FEA3E0FF22E709F608DFFA18
:100B70008046E709F208DFFA803E88828C83E70925
:100B8000F0A3DFFA8032E309F608DFFA8078E309A0
:100B9000F208DFFA807088828C83E309F0A3DFFA21
:100BA000806489828A83E0A3F608DFFA805889820C
:100BB0008A83E0A3F208DFFA804C80D280FA80C6F4
:100BC00080D4806980F28033801080A680EA809A89
:100BD00080A880DA80E280CA803389828A83ECFA36
:100BE000E493A3C8C582C8CCC583CCF0A3C8C58292
:100BF000C8CCC583CCDFE9DEE7800D89828A83E437
:100C000093A3F608DFF9ECFAA9F0EDFB2289828ABA
:100C100083ECFAE0A3C8C582C8CCC583CCF0A3C8D6
:100C2000C582C8CCC583CCDFEADEE880DB89828A56
:100C300083E493A3F208DFF980CC88F0EF60010E23
:100C40004E60C388F0ED2402B4040050B9F582EB85
:100C50002402B4040050AF232345822390139A73D7
:100C6000EF8DF0A4A8F0CF8CF0A428CE8DF0A42EA8
:100C7000FE22BC000BBE0029EF8DF084FFADF022F8
:100C8000E4CCF875F008EF2FFFEE33FEEC33FCEE0A
:100C90009DEC984005FCEE9DFE0FD5F0E9E4CEFDFD
:100CA00022EDF8F5F0EE8420D21CFEADF075F008D0
:100CB000EF2FFFED33FD4007985006D5F0F222C329
:100CC00098FD0FD5F0EA22C2D5EC30E709B2D5E4A1
:100CD000C39DFDE49CFCEE30E715B2D5E4C39FFF55
:100CE000E49EFE121452C3E49DFDE49CFC800312BA
:100CF000145230D507C3E49FFFE49EFE22C5F0F8EE
:100D0000A3E028F0C5F0F8E582158270021583E0B3
:100D100038F022BB010A89828A83E0F5F0A3E02241
:100D2000500687F009E71922BBFE07E3F5F009E357
:100D3000192289828A83E493F5F074019322BB011E
:100D40000789828A830214DD500B09C5F027F7C595
:100D5000F01937F722BBFE0D09F8E325F0F3C5F0D3
:100D600019E338F322F889828A8374019325F0C548
:100D7000F0F8E4933822BB010A89828A83F0E5F017
:100D8000A3F0225006F709A7F01922BBFE06F3E5EF
:100D9000F009F31922E88FF0A4CC8BF0A42CFCE925
:100DA0008EF0A42CFC8AF0EDA42CFCEA8EF0A4CDED
:100DB000A8F08BF0A42DCC3825F0FDE98FF0A42C01
:100DC000CD35F0FCEB8EF0A4FEA9F0EB8FF0A4CFB4
:100DD000C5F02ECD39FEE43CFCEAA42DCE35F0FD65
:100DE000E43CFC2275F008758200EF2FFFEE33FE25
:100DF000CD33CDCC33CCC58233C5829BED9AEC99F3
:100E0000E58298400CF582EE9BFEED9AFDEC99FC94
:100E10000FD5F0D6E4CEFBE4CDFAE4CCF9A88222DB
:100E2000B800C1B90059BA002DEC8BF084CFCECDFB
:100E3000FCE5F0CBF97818EF2FFFEE33FEED33FD34
:100E4000EC33FCEB33FB10D703994004EB99FB0F19
:100E5000D8E5E4F9FA227818EF2FFFEE33FEED33F0
:100E6000FDEC33FCC933C910D7059BE99A4007EC68
:100E70009BFCE99AF90FD8E0E4C9FAE4CCFB2275AF
:100E8000F010EF2FFFEE33FEED33FDCC33CCC83343
:100E9000C810D7079BEC9AE899400AED9BFDEC9AA5
:100EA000FCE899F80FD5F0DAE4CDFBE4CCFAE4C81D
:100EB000F922EB9FF5F0EA9E42F0E99D42F0EC64E6
:100EC00080C864809845F022EB9FF5F0EA9E42F0DE
:100ED000E99D42F0E89C45F022E8600FECC313FC6A
:100EE000ED13FDEE13FEEF13FFD8F122ECF0A3EDAE
:100EF000F0A3EEF0A3EFF022A8828583F0D083D098
:100F0000821216EF1216EF1216EF1216EFE473E4C8
:100F100093A3C583C5F0C583C8C582C8F0A3C583A4
:100F2000C5F0C583C8C582C822EC8EF0A4CCC5F03C
:100F3000CCCDF8EFA4CEC5F02DFDE43CFCE8A42E0A
:100F4000C8C5F03DFDE43CFCEFA4FFE5F028FEE45D
:100F50003DFDE43CFC22EF4E6012EF60010EEDBB64
:100F6000010B89828A83F0A3DFFCDEFA2289F0502C
:100F700007F709DFFCA9F022BBFEFCF309DFFCA99F
:100F8000F022D39001C9E094009001C8E0940040A1
:100F900003021B40900108E0FBA3E0FAA3E0F91272
:100FA00014F3FFAEF0900102E0FBA3E0FAA3E0F936
:100FB0001214F3FDACF0D39FEC9E4054900108E076
:100FC000FBA3E0FAA3E0F91214F3FFC3ED9FFFECDB
:100FD00095F0FED3EF9430EE9475400C9001A07420
:100FE00075F0A37430F080211214F3FFAEF090017D
:100FF00002E0FBA3E0FAA3E0F91214F3C39FFFE5BC
:10100000F09E9001A0F0A3EFF0E490019A02187F07
:10101000900102E0FBA3E0FAA3E0F91214F3FFAEA3
:10102000F0900108E0FBA3E0FAA3E0F91214F3FD4D
:10103000ACF0C39FFFEC9EFED3EF9410EE942740DC
:101040000C9001A07427F0A37410F0801D90010291
:10105000E0FBA3E0FAA3E0F91214F3FFC3ED9FFE57
:10106000EC95F09001A0F0A3CEF09001A0E0FFA3DA
:10107000E090019ACFF0A3EFF0300018D3E0942C69
:1010800090019AE09401401390019C7427F0A3749E
:1010900010F08007E490019CF0A3F0E49001A0F030
:1010A000A3F090013DE0605B9001A0E0FEA3E0FFB3
:1010B000D39400EE648094804014D3EF9509EE95AC
:1010C00008400B9001CEE4F0A37464F08027D39025
:1010D00001CFE094009001CEE0940040189001050B
:1010E000E0FBA3E0FAA3E0F91214F3FF9001A0E5FE
:1010F000F0F0A3EFF0D2089001D4740FF0A374A025
:10110000F0800F9001D27403F0A374E8F0E4FF12B2
:101110003B45D39001A1E094009001A0E06480944D
:10112000805003021AEBE0F9A3E0FF900105E0FB19
:10113000A3E0FAA3E0C98FF01215569001A0E0FEDB
:10114000A3E0FFEE3395E0FDFCE47BB87A88F9F884
:10115000C3121692500A9001A07488F0A374B8F0DC
:10116000D39001D1E094009001D0E0940050089019
:1011700000F1E0642070229001A0E0FEA3E0FFC334
:1011800094A0EE648094805010EF9400EE648094FC
:101190008040447C007D0A803330003B90013DE07C
:1011A00070169001A0E0FEA3E0FFC39515EE951424
:1011B00050257C027DBC80149001A0E0FEA3E0FFDE
:1011C000C39509EE9508500F7C027DBC1214A790C0
:1011D00001A0EEF0A3EFF090013DE07003021A6170
:1011E0009001D2E07002A3E070199001A0E0FEA38C
:1011F000E0FDEEFCE4FF120E2B9001A0EEF0A3EF59
:10120000F0803E9001A0E0FEA3E0FFC3900136E035
:101210009FFF900135E09EFE123D74D3EF9428EEBF
:1012200064809480401BD39001D3E094C89001D295
:10123000E09400400CA3E0249CF09001D2E034FF45
:10124000F0900135E0FEA3E0FF7C007D0712170956
:10125000ECF8EDF9EEFAEFFB9001A0E0FEA3E0FF61
:10126000EE3395E0FDFCEB2FFFEA3EFEE93DFDE8A5
:101270003CFCE47B08FAF9F8121600900135EE8088
:101280000B9001A0E0FFA3E0900135CFF0A3EFF0B9
:10129000900135E0FEA3E0FFD39405EE9400400EEC
:1012A000EF9410EE940050069001A0EE801690018D
:1012B00031E0FEA3E0FF900136E02FFF900135E022
:1012C0003E9001A0F0A3EFF0D39001A1E094309004
:1012D00001A0E0648094F540077475F0A37430F0C9
:1012E000E5DB5404707A9001A0E0F9A3E0FF9001DF
:1012F0000EE0FBA3E0FAA3E0C98FF01215569001AF
:10130000A1E024A8FF9001A0E08042E5DB54047036
:101310004F900105E0FBA3E0FAA3E0F9E4F5F01239
:101320001556900131E0F9A3E0FF90010EE0FBA318
:10133000E0FAA3E0C98FF012155690010EE0FBA36E
:10134000E0FAA3E0F91214F324A8FFE5F03461F900
:1013500090010BE0FBA3E0FAA3E0C98FF012155651
:10136000229001B5ECF0A3EDF09001B4EFF075F030
:101370000EA424F5F582E43401F583E0704E90016B
:10138000B4E075F00EA424F1F582E43401F583E0B5
:10139000FCA3E0FDA3E0FEA3E0FFE4FBFAF9F8C341
:1013A0001216A860279001B4E075F00EA424EDF5A4
:1013B00082E43401F583E0FCA3E0FDA3E0FEA3E0BA
:1013C000FFE4F8C31216A86003021CBD9001B7A386
:1013D000A3E0FEA3E0FFC39001B6E09FFF9001B53C
:1013E000E09EFE123D749001B4E0FD75F00EA42461
:1013F000F6F582E43401F583EEF0A3EFF0ED75F03D
:101400000EA424F5F582E43401F583E06041ED7526
:10141000F005A42411F582E43408F583E493FE7406
:101420000193FFED75F00EA424F6F582E43401F586
:1014300083E0FCA3E0D39FEC9E40149001B4E075E0
:10144000F00EA424F5F582E43401F5837405F090E0
:1014500001B7E0FCA3E0FDA3E0FEA3E0FF9001B430
:10146000E0FB75F00EA424F1F582E43401F583125B
:1014700016CCEB75F00EA424F9F582E43401F58363
:10148000E0FEA3E0FFE4FCFD9001B7E0F8A3E0F983
:10149000A3E0FAA3E0FB1215759001B4E0FB75F030
:1014A0000EA424EDF582E43401F5831216CCEB751D
:1014B000F00EA424F5F582E43401F583E0D3940022
:1014C000748094804011EB75F00EA424F5F582E44D
:1014D0003401F583E014F09001B7021F059001B4C8
:1014E000E0FB75F00EA424F1F582E43401F583E00D
:1014F000FCA3E0FDA3E0FEA3E0FF9001BB1216CC2D
:10150000EB75F00EA424EDF582E43401F583E0FCE4
:10151000A3E0FDA3E0FEA3E0FF9001BF1216CC9074
:1015200001BFE0FCA3E0FDA3E0FEA3E0FF9001B457
:10153000E075F00EA424F8F582E43401F583E0F9B7
:10154000F81216B9EFFBEEFAEDF9ECF89001BFE0F6
:10155000FCA3E0FDA3E0FEA3E0C39BFFEE9AFEED3B
:1015600099FDEC98FCA31216CC9001BBE0FCA3E023
:10157000FDA3E0FEA3E0FF9001B7E0F8A3E0F9A32C
:10158000E0FAA3E02FFFEA3EFEE93DFDE83CFC90D7
:1015900001C3E0F8A3E0F9A3E0FAA3E02FFFEA3EDD
:1015A000FEE93DFDE83CFC9001BF1216CC9001B76E
:1015B000E0FCA3E0FDA3E0FEA3E0FF9001B4E0FBAC
:1015C00075F00EA424F1F582E43401F5831216CCF3
:1015D0009001BFE0FCA3E0FDA3E0FEA3E0FFEB75FC
:1015E000F00EA424EDF582E43401F5831216CC90BC
:1015F00001BFE0FCA3E0FDA3E0FEA3E0FFECC0E040
:10160000EDC0E0EEC0E0EFC0E09001B4E075F00E98
:10161000A424F9F582E43401F583E0FEA3E0FBEEB7
:10162000FAE4F9F8D0E0FFD0E0FED0E0FDD0E0FC35
:101630001216009001BF1216CC9001B7A3A3E0FED2
:10164000A3E0FBEEFA9001BFA3A3E0FEA3E0C39BDF
:10165000FFEE9AFE123D749001B4E0FD75F00EA409
:1016600024F6F582E43401F583EEF0A3EFF0ED7596
:10167000F005A4240FF582E43408F583E493FE74A6
:101680000193FFED75F00EA424F6F582E43401F524
:1016900083E0FCA3E0D39FEC9E5003021F02900165
:1016A000B7E0FCA3E0FDA3E0FEA3E0FF9001B4E0FF
:1016B000FB75F00EA424F1F582E43401F5831216D3
:1016C000CCEB75F00EA424F9F582E43401F583E047
:1016D000FEA3E0FFE4FCFD9001B7E0F8A3E0F9A36E
:1016E000E0FAA3E0FB1215759001B4E0FB75F00E73
:1016F000A424EDF582E43401F5831216CCEB75F0E9
:101700000EA424F5F582E43401F5837405F090010C
:10171000B7E0FCA3E0FDA3E0FEA3E0FF9001BF1251
:1017200016CC9001BFA3A3E0FEA3E0FF2212332D4D
:10173000900184E0F8A3E0F9A3E0FAA3E0FBE8C09D
:10174000E0E9C0E0EAC0E0EBC0E090011DE0FBA3EF
:10175000E0FAA3E0F91214F3FFE4FCFDD0E0FBD0C3
:10176000E0FAD0E0F9D0E0F8EB2FFFEA35F0FEED3B
:1017700039FDEC38FC9001841216CC900189E0040C
:10178000F07006900188E004F0C390018BE094644F
:1017900090018AE0940050030222CB900184E0FC87
:1017A000A3E0FDA3E0FEA3E0FFECC0E0EDC0E0EEAF
:1017B000C0E0EFC0E0A3E0FEA3E0FBEEFAE4F9F83E
:1017C000D0E0FFD0E0FED0E0FDD0E0FC12160090AB
:1017D00001841216CC900184A3A3E0FFA3E0900142
:1017E00082CFF0A3EFF0A31216D800000000E4901F
:1017F0000188F0A3F0A3F0A3F09001C8E07002A369
:10180000E060030222CB90018CE07002A3E0600351
:101810000222CB90013DE070030220BF90017EE0E8
:10182000FEA3E0FF4E7034900182E0FDA3E0900142
:101830007ECDF0A3EDF0900105E0FBA3E0FAA3E07C
:10184000F91214F3FD900180E5F0F0A3EDF09001A2
:101850008E7403F0A374E8F00220D8900182E0FCBB
:10186000A3E0FDC3EF9DFFEE9CFE123D749001943A
:10187000E0FBA3E0FAA3E0F9EE8FF0121556900119
:101880007CE07037900194E0FBA3E0FAA3E0F9124A
:1018900014F3C39408E5F09400501A900105E0FB9E
:1018A000A3E0FAA3E0F91214F3FF900180E5F0F051
:1018B000A3EFF0800690017C7401F0900182E0FEBD
:1018C000A3E0FFD390017FE09F90017EE09E400760
:1018D000E490017DF0802190017D7401F08019E495
:1018E00090017EF0A3F0A3F0A3F090017CF09001B2
:1018F00090F0A3F0A3F0A3F090017CE0700302222B
:10190000CB900180E0FEA3E0FFD39400EE94005062
:10191000030222CB900105E0FBA3E0FAA3E0F91259
:1019200014F3C39FFFE5F09EFE123D749001A0EEFC
:10193000F0A3EFF0A3E4F0A374C8F0900105E0FB7E
:10194000A3E0FAA3E0F91214F3D39494E5F0941110
:10195000400A9001A27403F0A37420F09001A0E06B
:10196000FFA3E0900198CFF0A3EFF0900105E0FB1A
:10197000A3E0FAA3E0F91214F3FFAEF0900180E0C7
:10198000FCA3E0FDD39FEC9E400FD39001A1E09417
:10199000649001A0E094005015C3ED9FEC9E504E62
:1019A0009001A1E094C89001A0E094004040E49030
:1019B000017CF090017EF0A3F0900105E0FBA3E034
:1019C000FAA3E0F91214F3FFC3900181E09F9001A4
:1019D00080E095F090018C5008E4F0A374C8F0808A
:1019E000077401F0A3742CF0E490017DF0229001C3
:1019F00005E0FBA3E0FAA3E0F91214F3FFD3900192
:101A000081E09F900180E095F0406AD39001A1E0D1
:101A1000941E9001A0E09400405B900193E09458E4
:101A2000900192E09402504D900108E0FBA3E0FA8F
:101A3000A3E0F974FF75F0F912151E900193E024EC
:101A400007F0900192E03400F0900190E0FEA3E0F6
:101A5000FFC394E8EE9403501CEF9407EE9400400B
:101A60000DE024F9F0900190E034FFF08007E4905D
:101A70000190F0A3F0900105E0FBA3E0FAA3E0F9E8
:101A80001214F3FFC3900181E09F900180E095F074
:101A900050599001A1E0941E9001A0E09400404BA9
:101AA000900108E0FBA3E0FAA3E0F9E475F0071267
:101AB000151E900191E02407F0900190E03400F0B1
:101AC000900192E0FEA3E0FFC39458EE9402501BF5
:101AD000EF9407EE9400400CE024F9F0900192E0BE
:101AE00034FFF022E4900192F0A3F0227F01123A39
:101AF0000C123CB7758A50902E207401F0902E2065
:101B0000E030E2F990081AE49375F002A42400F59D
:101B100082E5F0342EF583E0FFA3E09001AECFF034
:101B2000A3EFF0902E20E4F0758A307F01123D463D
:101B300090015BE0FEA3E0FF4E700E9001AEE0FC72
:101B4000A3E0FDECFEEDFF801E7C007D031214403F
:101B50009001AFE02FFF9001AEE03EFE7802EFCEA5
:101B6000C313CE13D8F9FF90015BEEF0A3EFF09012
:101B70000157E07002A3E0700F90015BE0FFA3E06B
:101B8000900157CFF0A3EFF09001B01216D80000EB
:101B90002710E4FF123A0CE49001ABF09001ABE0A7
:101BA000C3940574809480400302248AE4FF123CAD
:101BB000B7758A50902E207401F0902E20E030E20C
:101BC000F9900819E49375F002A42400F582E5F079
:101BD000342EF583E0FFA3E09001ACCFF0A3EFF04B
:101BE000902E20E4F0758A30FF123D46900157E0B8
:101BF000FEA3E0FF9001ADE02FFF9001ACE03EFEC0
:101C000090015BE0FCA3E0FDC3EF9DFFEE9C900123
:101C1000ACF0A3EFF0900159E0FEA3E0FF4E700E90
:101C20009001ACE0FCA3E0FDECFEEDFF801AEF2597
:101C3000E0FFEE33FE9001ADE02FFF9001ACE03EFF
:101C4000FE7C007D03121452900159EEF0A3EFF0D8
:101C5000E4FCFD9001B71216CC90015DE0FCA3E01E
:101C6000FDE4FF121B4190015DEEF0A3EFF0900147
:101C7000B0E0F8A3E0F9A3E0FAA3E0FB90015DE097
:101C8000FEA3E02400FFEE34E8FE3395E0FDFCEB1C
:101C90002FFFEA3EFEE93DFDE83CFC9001B0121644
:101CA000CC9001ABE004F002237C902E23E4F07F83
:101CB000507EC3FDFC9001B0E0F8A3E0F9A3E0FA88
:101CC000A3E0FBD3121692400A9001B01216D8007E
:101CD00000C3509001B0E0FCA3E0FDA3E0FEA3E050
:101CE000FFEC33500A9001B01216D80000000090AB
:101CF0000163E0FAA3E0FB4A700C9001B0A3A3E0FB
:101D0000FEA3E0FF80347E007F02EBFDEAFC1217A9
:101D100009ECF8EDF9EEFAEFFB9001B0E0FCA3E07E
:101D2000FDA3E0FEA3E02BFFEA3EFEE93DFDE83C1B
:101D3000FCE47B03FAF9F8121600900163EEF0A3BD
:101D4000EFF0900155E07002A3E0700F900163E0A6
:101D5000FFA3E0900155CFF0A3EFF0900127E0F84A
:101D6000A3E0F9A3E0FAA3E0FB90015DE0FEA3E0AD
:101D7000FFE4FCFDEB2FFFEA3EFEED39FDEC38FC05
:101D80009001271216CC90012CE004F0700690010F
:101D90002BE004F090012BE0FEA3E0FFD3940AEEC9
:101DA00094004031EFFBEEFAE4F9F8900127E0FCF3
:101DB000A3E0FDA3E0FEA3E0FF121600900125EED4
:101DC000F0A3EFF0E490012BF0A3F090012712169E
:101DD000D80000000090012DE07002A3E070409058
:101DE0000125E0FEA3E0FFC390015EE09FFF9001AC
:101DF0005DE09EFE123D74900123EEF0A3EFF0D360
:101E00009406EE9400401890012D7403F0A374E83A
:101E1000F0900130E004F0700690012FE004F090A3
:101E20000163E0FEA3E0FF22C0E0C083C082C0D017
:101E3000D2AFD39001C9E094009001C8E094004073
:101E40000CA3E024FFF09001C8E034FFF0D3900130
:101E5000CDE094009001CCE09400400EA3E024FF7C
:101E6000F09001CCE034FFF08002D28AD39001CB15
:101E7000E094009001CAE09400400CA3E024FFF03D
:101E80009001CAE034FFF0C3900147E094BC900198
:101E900046E09402500CA3E004F07006900146E086
:101EA00004F0D39001CFE094009001CEE094004084
:101EB0000CA3E024FFF09001CEE034FFF0D39001BA
:101EC000D1E094009001D0E09400400CA3E024FF06
:101ED000F09001D0E034FFF0D39001D7E09400906F
:101EE00001D6E09400400CA3E024FFF09001D6E07E
:101EF00034FFF0D39001D3E094009001D2E094003D
:101F0000400CA3E024FFF09001D2E034FFF0D39026
:101F100001D5E094009001D4E09400400CA3E024AB
:101F2000FFF09001D4E034FFF0D390019DE09400E5
:101F300090019CE09400400CA3E024FFF090019CF1
:101F4000E034FFF0D39001D9E094009001D8E09400
:101F500000400CA3E024FFF09001D8E034FFF0C370
:101F600090018BE0946490018AE09400500CA3E00F
:101F700004F0700690018AE004F0D390018DE094A3
:101F80000090018CE09400400CA3E024FFF090014D
:101F90008CE034FFF0D390018FE0940190018EE04B
:101FA0009400400CA3E024FFF090018EE034FFF099
:101FB000D390016AE09401900169E09400400CA381
:101FC000E024FFF0900169E034FFF0D390019FE03E
:101FD000940090019EE09400400CA3E024FFF09058
:101FE000019EE034FFF0C39001ECE094B89001EB67
:101FF000E0940B500CA3E004F070069001EBE004B9
:10200000F0C39001E6E094F49001E5E09401500CF7
:10201000A3E004F070069001E5E004F0D390012EF7
:10202000E0940090012DE09400400CA3E024FFF028
:1020300090012DE034FFF0D0D0D082D083D0E032B8
:10204000D39001C9E09F9001C8E09E400AA3E09FA1
:10205000F09001C8E09EF0D39001CDE09F9001CCBC
:10206000E09E400CA3E09FF09001CCE09EF0800247
:10207000D28AD39001CBE09F9001CAE09E400AA390
:10208000E09FF09001CAE09EF0C3900147E094BC4D
:10209000900146E09402500AA3E02FF0900146E040
:1020A0003EF0D39001CFE09F9001CEE09E400AA386
:1020B000E09FF09001CEE09EF0D39001D1E09F90A0
:1020C00001D0E09E400AA3E09FF09001D0E09EF096
:1020D000D39001D7E09F9001D6E09E400AA3E09FF5
:1020E000F09001D6E09EF0D39001D3E09F9001D212
:1020F000E09E400AA3E09FF09001D2E09EF0D390D2
:1021000001D5E09F9001D4E09E400AA3E09FF090AB
:1021100001D4E09EF0D390019DE09F90019CE09E51
:10212000400AA3E09FF090019CE09EF0D39001D97B
:10213000E09F9001D8E09E400AA3E09FF09001D874
:10214000E09EF0C390018BE0946490018AE09400DB
:10215000500AA3E02FF090018AE03EF0D390018D69
:10216000E09F90018CE09E400AA3E09FF090018CDC
:10217000E09EF0EF2401FDE43EFCD390018FE09D52
:1021800090018EE09C400AA3E09FF090018EE09EBB
:10219000F0EF2401FDE43EFCD390016AE09D900144
:1021A00069E09C400AA3E09FF0900169E09EF0D3B3
:1021B00090019FE09F90019EE09E400AA3E09FF067
:1021C00090019EE09EF0C39001ECE094B89001EB8A
:1021D000E0940B500AA3E02FF09001EBE03EF0C337
:1021E0009001E6E094F49001E5E09401500AA3E048
:1021F0002FF09001E5E03EF0D390012EE09F90019A
:102200002DE09E400AA3E09FF090012DE09EF02279
:102210009001A07402F0A374BCF0D390019FE094ED
:102220000090019EE094004021900102E0FBA3E0B9
:10223000FAA3E0F91214F3FF900108E0FBA3E0FA1F
:10224000A3E0F9E5F08FF01215569001C8E0700296
:10225000A3E0600B9001A0E4F0A37464F0800B9005
:10226000001AE0641170037420F090013DE0600FEB
:102270007E007F0A7D007B017A01793E021736904D
:10228000013EE0F8A3E0F9A3E0FAA3E0FBE8C0E038
:10229000E9C0E0EAC0E0EBC0E0900102E0FBA3E0AF
:1022A000FAA3E0F91214F3FFE4FCFDD0E0FBD0E068
:1022B000FAD0E0F9D0E0F8EB2FFFEA35F0FEED3987
:1022C000FDEC38FC90013E1216CC900143E004F086
:1022D0007006900142E004F09001A0E0FEA3E0FF50
:1022E000C3900147E09F900146E09E5003022BBD42
:1022F00090013EE0FCA3E0FDA3E0FEA3E0FFECC004
:10230000E0EDC0E0EEC0E0EFC0E0A3E0FEA3E0FB44
:10231000EEFAE4F9F8D0E0FFD0E0FED0E0FDD0E046
:10232000FC12160090013E1216CC900108E0FBA3AF
:10233000E0FAA3E0F91214F32432FFE435F0FEE4EE
:10234000FCFD90013EE0F8A3E0F9A3E0FAA3E0FB76
:10235000D31216A8404D9001C8E07002A3E070436C
:10236000200840900145E004F07006900144E0042C
:10237000F0D3900145E09405900144E0940040467C
:1023800090013EA3A3E0F9A3E0FF900108E0FBA3C6
:10239000E0FAA3E0C98FF0121556E4900144F0A3CF
:1023A000F0802390013EA3A3E0F9A3E0FF90010891
:1023B000E0FBA3E0FAA3E0C98FF0121556E4900108
:1023C00044F0A3F0C20890013E1216D800000000AD
:1023D000E4900142F0A3F0900146F0A3F0229001B6
:1023E00075E0FEA3E0FFC39404EE9400502F90012B
:1023F00000E0FCA3E0FDEF25E0FFEE33FE746D2F5F
:10240000F58274013EF583ECF0A3EDF0900176E0E7
:1024100004F07006900175E004F0022CC59001AD47
:102420007401F09001ADE0FFC39404748094805077
:102430002AEF25E0246DF582E43401F583E0FCA366
:10244000E0FDEF25E0246BF582E43401F583ECF048
:10245000A3EDF09001ADE004F080C890013DE06094
:10246000028073900102E0FBA3E0FAA3E0F91214EA
:10247000F3FF900100E0FCA3E0FDC3EF9DFFE5F05A
:102480009CFE123D74C3EF9428EE64809480504605
:10249000900108E0FBA3E0FAA3E0F91214F3FFC3F4
:1024A000900101E09FFF900100E095F0FE123D7465
:1024B000C3EF9414EE64809480500590010880036B
:1024C000900102E0FBA3E0FAA3E0F91214F3FF90FD
:1024D0000173E5F0800B900100E0FFA3E090017331
:1024E000CFF0A3EFF09001A91216D800000000E48D
:1024F0009001ADF09001ADE0FFD3900176E09F90A8
:102500000175E09400403D9001A9E0F8A3E0F9A333
:10251000E0FAA3E0FBA3E025E0246DF582E43401BA
:10252000F583E0FEA3E0FFE4FCFDEB2FFFEA3EFEB7
:10253000ED39FDEC38FC9001A91216CC9001ADE00C
:1025400004F080B09001A9E0FCA3E0FDA3E0FEA3AD
:10255000E0FFECC0E0EDC0E0EEC0E0EFC0E09001D5
:1025600075E0FEA3E0FBEEFAE4F9F8D0E0FFD0E07E
:10257000FED0E0FDD0E0FC1216009001A91216CCAE
:102580009001A9A3A3E0FEA3E0FF227E007F0E7DC1
:10259000007B017A0179ED121736E4FDEDC3940159
:1025A000748094805057ED75F005A4240EF582E4F4
:1025B0003408F583E493FFED75F00EA424F8F5825A
:1025C000E43401F583EFF0ED75F00EA424F8F58204
:1025D000E43401F583E004F87E007401088005C34B
:1025E00033CE33CED8F9FFED75F00EA424F9F58281
:1025F000E43401F583EEF0A3EFF00D809F2200009C
:102600000301ABC874AA7583F5758255A574557519
:1026100083FA7582AAA574A57583F5758255A522DE
:1026200002030AB00BB60CFF090208FF0D770E0477
:1026300013071410108015001600019212072119BB
:102640000F04040401011110101210100302047E83
:10265000007FFF7D007B017A0079001217367E0033
:102660007FA07D007B017A0179001217367E007F02
:10267000147D007B017A0179C7121736902DE0E4B2
:1026800093900001F09000047411F0A37422F0A361
:102690007433F0902DE2E493900012F0902DE3E477
:1026A00093900014F09000FB7401F09000367410C9
:1026B000F09000F1F0900024F0A37420F09001025B
:1026C0007401F0A37400F0A37440F0900108740149
:1026D000F0A37400F0A37444F09001057401F0A31A
:1026E0007400F0A37442F090010B7401F0A3740025
:1026F000F0A3742EF0A37401F0A37400F0A3742A65
:10270000F0A37401F0A37400F0A37428F0900120EA
:102710007401F0A37400F0A37460F090011D7401C3
:10272000F0A37400F0A37422F09001947401F0A35C
:102730007400F0A37480F090013A7401F0A3740067
:10274000F0A37418F09001377401F0A37400F0A3A3
:10275000741BF09001147401F0A37400F0A37432A0
:10276000F0A37401F0A37400F0A37426F0A3740125
:10277000F0A37400F0A37434F0900114E0FBA3E024
:10278000FAA3E0F9E475F0C8121556900117E0FBC2
:10279000A3E0FAA3E0F9E475F06412155690011A6B
:1027A000E0FBA3E0FAA3E0F9E475F0961215567584
:1027B00014007515C87508007509969001C874074E
:1027C000F0A374D0F0E49001C7F0229001A3EFF0E1
:1027D000902E22E0FF9001A7E4F0A3EFF0758A505D
:1027E000902E227401F09001A3E075F002A4241051
:1027F000F582E5F0342EF5837404F0A3E4F0900143
:10280000A4F09001A4E0FFC3940D74809480400371
:10281000023115EFF87E02E4088006CEA2E713CE5F
:1028200013D8F8FF9001A5EEF0A3EFF04E700790DB
:1028300001A5F0A304F0902E207401F0902E20E06A
:1028400030E2F99001A3E0FF75F002A42400F582C4
:10285000E5F0342EF583E0FCA3E0D394FEEC94077E
:10286000405975F002EFA42410F582E5F0342EF5FE
:1028700083E0FEA3E0FF9001A5E0FCA3E0FDEF2DC7
:10288000FFEE3CFEC3EF94FFEE94079001A3E075CA
:10289000F0025013A42410F582E5F0342EF583ECF9
:1028A0008DF01214DD807EA42410F582E5F0342E24
:1028B000F5837407F0A374FFF0806A9001A3E0FF32
:1028C00075F002A42410F582E5F0342EF583E0FCC7
:1028D000A3E0FD9001A5E0FAA3E0FBD3ED9BEC9A09
:1028E000402D75F002EFA42410F582E5F0342EF5AA
:1028F00083C083C082C3A3E09BFF0582D5820215FB
:10290000831582E09AD082D083F0A3EFF0801690F6
:1029100001A3E075F002A42410F582E5F0342EF551
:1029200083E4F0A3F0902E20E4F0F58D9001A4E074
:1029300004F0022FE29001A7A3E0902E22F0758A06
:102940003022E4F526F525F524F523F526F525F5C1
:1029500024F523F522C3E522940474809480502743
:10296000E52225E0240AF8E6FE08E6FFE4FCFDE5A2
:10297000262FF526E5253EF525ED3524F524EC3505
:1029800023F523052280CEE47B04FAF9F8AF26AEC6
:1029900025AD24AC23121600900179EEF0A3EFF0E0
:1029A000E47526A8752561F524F523F522C3E522F3
:1029B0009404748094805073E52225E0240AF8E69C
:1029C000FE08E6FF900179E0FCA3E0FDC3EF9DFF68
:1029D000EE9CFE123D74D3EF940AEE648094804026
:1029E00012900179E0FEA3E0FF900155E0FCA3E026
:1029F000FD8015E52225E0240AF8E6FE08E6FF90B2
:102A00000155E0FCA3E0FDC3EF9DFFEE9CFE339576
:102A1000E0FDFCE5262FF526E5253EF525E5243DE0
:102A2000F524E5233CF52305228082E47F607EEADD
:102A3000FDFCAB26AA25A924A823D31216A8400B77
:102A4000E47526607525EAF524F523AE25AF262228
:102A5000122D6B123CD6E4900175F0A3F090016347
:102A6000F0A3F0900161F0A3F0900165F0A3F07F76
:102A70000412374C900100E0F9A3E0FFA3E0FBA3B0
:102A8000E0FAA3E0C98FF0121556900100E0F9A317
:102A9000E0FF900108E0FBA3E0FAA3E0C98FF01289
:102AA0001556900105E0FBA3E0FAA3E0F9E4F5F088
:102AB00012155690010BE0FBA3E0FAA3E0F9746154
:102AC00075F0A8121556900111E0FBA3E0FAA3E0FF
:102AD000F9746175F0A812155690010EE0FBA3E0A1
:102AE000FAA3E0F9E4F5F0121556E490013DF0FE8A
:102AF0007F18FD7B017A01797C1217367E007F0AF0
:102B00007D007B017A01793E121736E49001D6F000
:102B1000A3F09001D4F0A3F09000367410F0E4908C
:102B2000004BF09001CA7403F0A37420F09001DA16
:102B3000E0700FC39001C9E094F49001C8E09401E3
:102B4000500A9001C87401F0A374F4F022758D202E
:102B5000438D20538D7FE4F5B275B6FF75B7FF75D1
:102B6000B2A243B20153A8FB538B7F758B10438BEA
:102B700008E58B20E7030080F8538B7F758B1143AA
:102B80008B08E58B20E7030080F8900204E5B5F0A0
:102B9000A3E5B4F0758B01E4F5B2123D10E4F58DB8
:102BA00090011DE0FBA3E0FAA3E0F91214F345F055
:102BB000701E900201E0FBA3E0FAA3E0F91214F307
:102BC000FF90011DE0FBA3E0FAA3E0F9E5F08064CB
:102BD00090011DE0FBA3E0FAA3E0F91214F3FFAEAD
:102BE000F07C007D03121709ECC0E0EDC0E0EEC000
:102BF000E0EFC0E0900201E0FBA3E0FAA3E0F912ED
:102C000014F3FFE4FCFDD0E0FBD0E0FAD0E0F9D013
:102C1000E0F8EB2FFFEA35F0FEED39FDEC38FCE48F
:102C20007B04FAF9F812160090011DE0FBA3E0FA0C
:102C3000A3E0F9EE8FF012155622D39001C9E0946B
:102C4000009001C8E0940040030234E4300020907A
:102C5000019CE07002A3E0600875141F75154080A8
:102C60000675141B751558750817750970800C7555
:102C700014007515C8750800750996900105E0FBEC
:102C8000A3E0FAA3E0F91214F3FFAEF0C39515EE3A
:102C90009514500F90013DE0601AC3EF9509EE9531
:102CA0000840119001D0E07002A3E0702E90013D29
:102CB00004F080279000F1E064209001D07005F0CE
:102CC000A3F08006E4F0A374C8F0E490013DF09016
:102CD00001CEF0A3F09000367410F090013DE0FFBB
:102CE000601D900024E0641090003670057410F0B0
:102CF00080037420F09001CA7403F0A37420F09054
:102D0000004BEFF022C0E0C083C082C0D075D01865
:102D1000D2AFE5DB30E424D209C206E5DB30E116B0
:102D2000123D68F583E0F5DFEF64077067D28A90A3
:102D30000007F0023599C20502359CE5DB30E52C31
:102D40009000F0E064AA7017758A10F5DAC2AFF54A
:102D5000B2F5A8F5A9F58B758E01758DC080FED2F0
:102D600004300604C2068054C2098050C206E5DB66
:102D700030E123E5DB30E044123D68F583E0F5DF28
:102D8000EF24F9600824EE700BD20A8007D28A90F3
:102D90000007E4F0802320050A7816A6DFD205D2CA
:102DA000068019123D68F583E5DFF0EF64247009B1
:102DB0009001CA04F0A374F4F078160675DBFFD016
:102DC000D0D082D083D0E032900137E0FBA3E0FA8C
:102DD000A3E0F91214F3641045F07003123A659001
:102DE0000001E064AA70031239AB900013E0FF7E8B
:102DF0000064107002D203EF64204E7002C203120E
:102E0000384F20070890001AE06410700E90001AE6
:102E10007411F0C2079001C77401F09000FBE060EC
:102E200006E4F09001C7F0900169E07004A3E0644B
:102E3000017015900169F0A3F090019E7407F0A352
:102E400074D0F0E49001C7F030040CC2049001CAC1
:102E50007401F0A374F4F022787FE4F6D8FD758154
:102E6000260236820200000237CFE493A3F8E493EF
:102E7000A34003F68001F208DFF48029E493A3F86D
:102E80005407240CC8C333C4540F4420C8834004DF
:102E9000F456800146F6DFE4800B0102040810209E
:102EA0004080903C67E47E019360BCA3FF543F30B8
:102EB000E509541FFEE493A360010ECF54C025E042
:102EC00060A840B8E493A3FAE493A3F8E493A3C8FA
:102ED000C582C8CAC583CAF0A3C8C582C8CAC5838B
:102EE000CADFE9DEE780BE9001487412F0A3745C8B
:102EF000F0123B867E007F047D007B017A017955CC
:102F00001217367F01123C93E4FF123C93902E126D
:102F1000E0FEA3E0C39405EE9400400F902E12E073
:102F2000FEA3E0D394F0EE9407400BE4900148F048
:102F3000A3F0FF123C93902E23E4F090001D741038
:102F4000F0902E12E0FEA3E0FF7C007D0A121440F8
:102F5000900149E02FFF900148E03EF990013AE0EE
:102F6000FBA3E0FAA3E0C98FF00215569001A9EF88
:102F7000F0E4A3F09001A9E0FFA3E0C39F502E125C
:102F800022CC123D57900165EEF0A3EFF08E12F5C2
:102F900013C8740AC87400FCE4FDFB7A00790CFEC7
:102FA0007F0812141A9001AAE004F080C71231229F
:102FB000900100EEF0A3EFF0900163E0FEA3E0FFCC
:102FC000C3900134E09FFF900133E09EFE123D74F8
:102FD0007C007D051214A7900131ECF0A3EDF09078
:102FE0000163E0FFA3E0900133CFF0A3EFF02253A1
:102FF000A87F123D2C122E2F123CF412081E43A85B
:1030000080E4F58D9000F17420F01235A89001C78E
:10301000E014601814601A14602D14603F240470CA
:10302000E01236C79001C77401F080D512323080AB
:1030300023123C391238CE900025E0641070C29003
:1030400001C77404F080BA12082E9001CA7403F00C
:10305000A37420F09001C77402F080A5123AFD908D
:103060000025E06410609A9001C77401F08092908E
:1030700001DBE0146021146043240270603003130C
:103080009001DB7401F0D202D2009001D804F0A3C9
:103090007458F0C20180469001D8E07002A3E0703D
:1030A00002C2022003379001DB7402F0D201C20297
:1030B000C2009001D8F0A37458F080219001D8E0AC
:1030C0007002A3E070179001DB200303F0800C7402
:1030D00001F09001D804F0A37458F0C2012001035C
:1030E00030020A900025E064106002D20722308A84
:1030F000779001C8E07002A3E0706D900169E07004
:1031000002A3E07063F5B2758D20438D20758D802C
:1031100043A808D2AFF58B90012DE0FEA3E0FF4E4F
:103120006005758E508003758EFE20042F20092CBB
:10313000E5DB54047026758AA4200920E5DB5404DD
:10314000701AF586758703000000758601EF4E60E2
:10315000047F2880027F7F7E00122820758B0175F6
:103160008A3053A8F7123D1022300A5E20005BC25D
:103170000A902E12E0FFA3E09001A0CFF0A3EFF0A1
:10318000E4FF123C93902E12E0FEA3E0FF7C007D52
:103190000A121440900149E02FFF900148E03EFEE2
:1031A00090013AE0FBA3E0FAA3E0F9EE8FF01215EC
:1031B000569001A0E0FFA3E0902E12CFF0A3EFF015
:1031C0009001CA7403F0A37420F0229001A0740847
:1031D000F0A3E4F0A3743FF0A374DFF0E4FDFCF986
:1031E000758A10538AEF009001A0E0FEA3E02DF550
:1031F00082EE3CF583E493FF69F90DBD00010CBC40
:1032000037E5BDDFE29001A2E0FEA3E0F5828E8308
:10321000E493FFE96F70089000017403F08005E407
:10322000900001F0758A30538AEF0022E4FEEEC36D
:103230009407748094805039EE75F003A4241BF534
:1032400082E4342EF583E5822FF582E43583F5831D
:10325000E493FDEE75F003A4241AF582E4342EF510
:1032600083E4932420F582E4342EF583EDF00E8080
:10327000BDEF7010900148E07002A3E07006902E40
:10328000217412F022E49001A0F0A3F0758A10538B
:103290008AEF00122DE475EA81E4F5F6F5F475F392
:1032A00008F5F275EB0700E5EC30E7FBAFF3EFFE56
:1032B000ADF2EDFF900137E0FBA3E0FAA3E0F9EEF9
:1032C0008FF0121556E4F5EC75EB30758A30538AA1
:1032D000EF0022900036E0FF9000FFE06F603D902D
:1032E0000036E0FD9000FFF0900007E09001DCF078
:1032F000540FF0ED7E0064207005E04420800CEF58
:1033000064104E700B9001DCE04410F0900007F068
:10331000C28A9001CC7403F0A374E8F022900025D7
:10332000E06410703FF5B2758D20438D20538D7F82
:1033300053A8F7F58BE5DB54047013200910F58AC8
:10334000F586758703000000758601758A30758BD8
:10335000019001DA7401F09001CA7403F0A37420A3
:10336000F0123D10229001A2EFF07E007F10EEC01F
:10337000E0EFC0E07D00E075F010A424DDF97401F9
:1033800035F0FA7B01D0E0FFD0E0FE121736900155
:10339000A2E0C454F024EBF582E43401F583740B0D
:1033A000F0A374B8F022E4FFEFC3940D748094800E
:1033B000502BEF25E02401F582E4342EF583E493CD
:1033C000FEEF25E02400F582E4342EF583E4932417
:1033D00020F582E4342EF583EEF00F80CB902F564B
:1033E000E0902E2BF0229001A87401F09001A8E04B
:1033F000C394047480948050217F0112374C122BA7
:10340000BE900102E0FBA3E0FAA3E0F9EE8FF01218
:1034100015569001A8E004F080D2E49001D0F0A30A
:10342000F022900156E0243CFF900155E034F6FE76
:10343000C3900164E09F900163E09E501490016985
:10344000E07002A3E0701190016904F0A374F4F03D
:1034500022E4900169F0A3F0227F0112374C122B75
:10346000BE900102E0FBA3E0FAA3E0F9EE8FF012B8
:103470001556121F0D12176212341A1229F0123A41
:10348000B3123C02023949C109C10A4101DC0041C1
:1034900001DB00C103C101C100C102C10501160069
:1034A000C104C106C108C1074100FF104302010168
:1034B0000204009001A2EFF0123CB79001A2E0FFDD
:1034C000123A0C9001A2E090081993FF122FAB90D2
:1034D00001A2E0FF023D46EFF87401088002C33309
:1034E000D8FC42ABEF9008199390081693F45291D0
:1034F00052935391DF227E007F047D007B017A018D
:1035000079591217367E007F047D007B017A01799C
:103510005D021736E4F5DA75DA4043DA2075D740F4
:1035200075D64075DA5843A80275B80275F80222BC
:10353000E5B254016006E5A85410700F75B292759B
:10354000B67CE4F5B743B20143A81022758A305324
:103550008AEF758601758F04E4F5AB75AC0F759134
:103560003FF592D28A22EF90081993900816934261
:1035700091428843912022900163E0FEA3E0FF90F6
:103580000161EEF0A3EFF0227816E6FF2400F58249
:10359000E4340022EE30E707C3E49FFFE49EFE22FE
:1035A000D2AF32D2AF3200000000000000000000B5
:1035B000000000000000000000000000000000000B
:1035C00000000000000000000000000000000000FB
:1035D00000000000000000000000000000000000EB
:1035E00000000000000000000000000000000000DB
:1037F0000000000000000000000000000000007257
:1038000000000000000000000000000000000000B8
:1038100000000000000000000000000000000000A8
:00000001FF
