:1000000000C60000000B000045F2000000000000E8
:1000100000000000000000000000000000000000E0
:10002000022F8C9001F8E012373B22022BEA0238B3
:10003000E80000020826D2AF320000020816D2AF54
:10004000320000021FB0D2AF32000002081E900141
:10005000BA1235397496F01223DB9001831210BA6C
:10006000123513E4FCFD120F3C9001831210C69070
:100070000187E475F001120EA4C390018AE0946434
:10008000900189E094005003020ADA900183121073
:10009000AEECC0E0EDC0E0EEC0E0EFC0E090018764
:1000A000E0FEA3E0FBEEFAE4F9F8D0E0FFD0E0FEDA
:1000B000D0E0FDD0E0FC120FE29001831210C69058
:1000C00001831210AE900181EEF0A3EFF0A31210A5
:1000D000D200000000900187123539F09001E4E071
:1000E0007002A3E06003020ADA90018BE07002A3C1
:1000F000E06003020ADA90013CE0700302097190AB
:10010000017DE07002A3E0701D900181E0FFA3E09B
:1001100090017D1234F712354190018D7403F0A3E4
:1001200074E8F0020984900181E0FEA3E0FFC3902F
:10013000017EE09FFF90017DE09EFE12395E9001FE
:10014000A412110FEE8FF0120F1D90017BE0701DB5
:100150009001A41234FFC39406E5F09400500812F5
:1001600034FC123541800690017B7401F0900181CE
:10017000E0FEA3E0FFD390017EE09F90017DE09E32
:100180004007E490017CF0801B90017C7401F080BA
:1001900013E490017D12353AF090017BF090018FCD
:1001A00012353AF090017BE07003020ADAD3900135
:1001B00080E0940090017FE094005003020ADA127C
:1001C00034FCFF90017FE0FCA3E0FDC3EF9DFFE561
:1001D000F09CFE12395E9001BEEEF0A3EFF0A3E4B6
:1001E000F074C81234FAD39494E5F09411400A9054
:1001F00001C07403F0A37420F09001BEE0FFA3E0FF
:100200009001A81234F7D3123506400CD39001BFE9
:10021000E0949612353250131234FC1235055036E4
:100220009001BFE094C8123532402BE490017BF07E
:1002300090017DF01234FA12350590018B5008E4DC
:10024000F0A374C8F080077401F0A3742CF0E4905C
:10025000017CF0020ADA1234FCFFD3123507404A5F
:10026000D312352C404490010812110F74FF75F021
:10027000F9120EE5900191E475F007120EA4C390F7
:100280000190E094E890018FE09403501DA3E09466
:100290000790018FE09400400A74FF75F0F9120E88
:1002A000A48007E490018FF0A3F01234FC1235050E
:1002B000504812352C404390010812110FE475F09C
:1002C00007120EE590018FE475F007120EA4C3909B
:1002D0000192E09458900191E09402501DA3E094A3
:1002E00007900191E09400400A74FF75F0F9120E36
:1002F000A48007E4900191F0A3F090013CE0601B22
:100300009001B2E07002A3E0701190011DE0FFA324
:10031000E09001B2CFF0A3EFF080359001F8E064F7
:100320000170089001BCF0A37496F090013CE0705D
:100330001F1234FCFFD39001BDE09F9001BCE095FB
:10034000F0400DE49001B2F0A3F09001B6F0A3F0FC
:100350009001B2E07002A3E07003020BF0123513BB
:10036000C39001B3E09FFF9001B2E09EFE12395EA0
:100370009001BAEEF0A3EFF0123513D39001B3E081
:100380009F9001B2E09E400D9001BAE0FFA3E09083
:1003900001B4CF801A9001BAE0FEA3E0FFD394C865
:1003A000EE9400400EEE13FEEF13FF9001B4EEF05A
:1003B000A3EFF0D39001B5E0940A9001B4E094006B
:1003C000404E1234FCD39488E5F09413401FE51599
:1003D00094DCE514940550389001B5E025E0FE90DA
:1003E00001B4E0339001B6F0A3CEF080231234FCC8
:1003F000D394E8E5F094034017E51594F4E51494DC
:1004000001500D9001B4E0FFA3E0A3CFF0A3EFF003
:100410009001F8E064016003020D1090013CE0607F
:1004200003020CFA9001F0E07002A3E06003020CFA
:10043000FA123513C3900198E09F900197E09E5007
:1004400004EE123524D390019EE0940090019DE0CB
:100450009400401F90019CE0940312354C4014908E
:1004600001A3E0700EE004F090019D740275F0BCF1
:10047000120EA490019DE07002A3E0707412351377
:10048000D390019AE09F900199E09E401290019ACA
:10049000E09FFF900199E09E90019BF0A3EFF0C3D5
:1004A00090019CE0940412354C402890019F7413F5
:1004B000F0A37488F090019CE0940612354C9001F2
:1004C000A1E4F0A37464F01234FCC3E5F09400409E
:1004D00002D208E49001A3F090019D7402F0A3748D
:1004E000BCF090011DE0FFA3E0900199CFF0A3EFD5
:1004F000F090019FE07002A3E0700F12351CE490B1
:1005000001A1F0A3F09001B880239001A1E0FFA326
:10051000E09001B8CFF0A3EFF02212351CE4900177
:100520009FF0A3F09001B8F0A3F09001A1F0A3F028
:1005300022E709F608DFFA8046E709F208DFFA80C9
:100540003E88828C83E709F0A3DFFA8032E309F664
:1005500008DFFA8078E309F208DFFA807088828C7D
:1005600083E309F0A3DFFA806489828A83E0A3F63B
:1005700008DFFA805889828A83E0A3F208DFFA80D4
:100580004C80D280FA80C680D4806980F28033802B
:100590001080A680EA809A80A880DA80E280CA80F3
:1005A0003389828A83ECFAE493A3C8C582C8CCC598
:1005B00083CCF0A3C8C582C8CCC583CCDFE9DEE715
:1005C000800D89828A83E493A3F608DFF9ECFAA907
:1005D000F0EDFB2289828A83ECFAE0A3C8C582C8C9
:1005E000CCC583CCF0A3C8C582C8CCC583CCDFEA18
:1005F000DEE880DB89828A83E493A3F208DFF98056
:10060000CC88F0EF60010E4E60C388F0ED2402B498
:10061000040050B9F582EB2402B4040050AF232348
:10062000458223900D6173EF8DF0A4A8F0CF8CF07C
:10063000A428CE8DF0A42EFE22BC000BBE0029EF14
:100640008DF084FFADF022E4CCF875F008EF2FFFB9
:10065000EE33FEEC33FCEE9DEC984005FCEE9DFE87
:100660000FD5F0E9E4CEFD22EDF8F5F0EE8420D2CE
:100670001CFEADF075F008EF2FFFED33FD4007983D
:100680005006D5F0F222C398FD0FD5F0EA22C2D56C
:10069000EC30E709B2D5E4C39DFDE49CFCEE30E705
:1006A00015B2D5E4C39FFFE49EFE120E19C3E49D6C
:1006B000FDE49CFC8003120E1930D507C3E49FFFB4
:1006C000E49EFE22C5F0F8A3E028F0C5F0F8E5822C
:1006D000158270021583E038F022BB010A89828AF4
:1006E00083E0F5F0A3E022500687F009E71922BB6A
:1006F000FE07E3F5F009E3192289828A83E493F582
:10070000F074019322BB010789828A83020EA450F0
:100710000B09C5F027F7C5F01937F722BBFE0D0905
:10072000F8E325F0F3C5F019E338F322F889828A5B
:100730008374019325F0C5F0F8E4933822BB010AD5
:1007400089828A83F0E5F0A3F0225006F709A7F02A
:100750001922BBFE06F3E5F009F31922EF2BFFEE99
:100760003AFEED39FDEC38FC22C3EF9BFFEE9AFE1A
:10077000ED99FDEC98FC22E88FF0A4CC8BF0A42C32
:10078000FCE98EF0A42CFC8AF0EDA42CFCEA8EF09F
:10079000A4CDA8F08BF0A42DCC3825F0FDE98FF086
:1007A000A42CCD35F0FCEB8EF0A4FEA9F0EB8FF07D
:1007B000A4CFC5F02ECD39FEE43CFCEAA42DCE3505
:1007C000F0FDE43CFC2275F008758200EF2FFFEE8F
:1007D00033FECD33CDCC33CCC58233C5829BED9A6D
:1007E000EC99E58298400CF582EE9BFEED9AFDECCB
:1007F00099FC0FD5F0D6E4CEFBE4CDFAE4CCF9A811
:100800008222B800C1B90059BA002DEC8BF084CF18
:10081000CECDFCE5F0CBF97818EF2FFFEE33FEEDEF
:1008200033FDEC33FCEB33FB10D703994004EB9919
:10083000FB0FD8E5E4F9FA227818EF2FFFEE33FE2C
:10084000ED33FDEC33FCC933C910D7059BE99A4061
:1008500007EC9BFCE99AF90FD8E0E4C9FAE4CCFB79
:100860002275F010EF2FFFEE33FEED33FDCC33CCCD
:10087000C833C810D7079BEC9AE899400AED9BFD56
:10088000EC9AFCE899F80FD5F0DAE4CDFBE4CCFA69
:10089000E4C8F922EB9FF5F0EA9E42F0E99D42F0B0
:1008A000EC6480C864809845F022EB9FF5F0EA9EE6
:1008B00042F0E99D42F0E89C45F022E8600FECC36D
:1008C00013FCED13FDEE13FEEF13FFD8F122E0FC55
:1008D000A3E0FDA3E0FEA3E0FF22E0F8A3E0F9A37C
:1008E000E0FAA3E0FB22ECF0A3EDF0A3EEF0A3EF1F
:1008F000F022A8828583F0D083D0821210E91210F2
:10090000E91210E91210E9E473E493A3C583C5F07A
:10091000C583C8C582C8F0A3C583C5F0C583C8C553
:1009200082C822A42582F582E5F03583F58322E092
:10093000FBA3E0FAA3E0F922EBF0A3EAF0A3E9F0CD
:1009400022EC8EF0A4CCC5F0CCCDF8EFA4CEC5F04F
:100950002DFDE43CFCE8A42EC8C5F03DFDE43CFCC4
:10096000EFA4FFE5F028FEE43DFDE43CFC22EF4E61
:100970006012EF60010EEDBB010B89828A83F0A348
:10098000DFFCDEFA2289F05007F709DFFCA9F0222C
:10099000BBFEFCF309DFFCA9F022208A0302156AE2
:1009A00090017BE0600302156A9001E6E07002A30B
:1009B000E0600302156A9001E4E07002A3E06003C6
:1009C00002156A900168E07002A3E0600302156AF4
:1009D000122F7C600302156A90013CE0FF60030265
:1009E000156AEF7038900117122F1C900105122F15
:1009F00019D39FE5F09E400302156A7E007F0A7DB1
:100A0000007B017A01793D12114EE4900174F0A34C
:100A1000F09001ECF0A3F09001EAF0A3F0E4F5B25D
:100A2000900178E0FFA3E090021ECFF0A3EFF0C2A8
:100A30000B30040302153F758D20438D20758D808A
:100A400043A808D2AF758B02758EC820042B122FD5
:100A50007C7026200923E5DB5404701D758AA420D0
:100A60000913E5DB5404700DF5867587030000005B
:100A70007586018006D20B8002D20B758B01758AB8
:100A80003053A8F7D39001E5E094909001E4E0940E
:100A900001400A74FE75F070120EA48007E4900104
:100AA000E4F0A3F0D39001F1E094909001F0E09491
:100AB00001400A74FE75F070120EA48007E49001E4
:100AC000F0F0A3F0E4900222F0A3F0121B4D90018D
:100AD00060EEF0A3EFF0900164EEF0A3EFF0C390AE
:100AE000021FE09FFF90021EE09EFE12395E900200
:100AF00020EEF0A3EFF0D39414EE94005025A3E47D
:100B000075F001120EA4D3900223E0940590022206
:100B1000E094004002D20BD3900221E0940F122FF8
:100B20004250A8122F3B400302152F300B03021531
:100B30002F900154E0FEA3E0FF900164E0FCA3E0ED
:100B4000FD9FEC9E402BED9FFFEC122F2C7FB87E7B
:100B500088122F4940091210D20000EA60804F121B
:100B600010AEEF24A8FFEE3461FEE43DFDE43C80CE
:100B700039900164E0FEA3E0FFC3900155E09FFFC0
:100B8000900154E0122F2C7FA87E61122F4940095A
:100B90001210D20000000080151210BAC374A89B76
:100BA000FF74619AFEE499FDE498FC122F359001E0
:100BB000BC1210AE9001BAEEF0A3EFF090021EE06E
:100BC000FEA3E0FF7C007D09121121ECF8EDF9EEA7
:100BD000FAEFFB900164E0FEA3E0FFE4FCFD120FDE
:100BE0003C7B0A122F1290021EEEF0A3EFF0900150
:100BF0003CE0704A900108122F1CFFAEF0122EF359
:100C0000900100EEF0A3EFF0900108122F1CFFAE50
:100C1000F07C007D03121121900100122EFD900145
:100C200008122F23900100E0FEA3E0FF122F229074
:100C30000105122F8390010E122F8302152F9001B0
:100C400000E0FEA3E0FF122EF3900100EEF0A3EF10
:100C5000F0122F22900108122F1CFFD39001BBE04D
:100C60009F9001BAE095F0500302153F120EBA9022
:100C70000102122F19122F74C3EF9515EE9514501F
:100C80000302153F900105122F1CFFAEF07C007D82
:100C900002121121ECC0E0EDC0E0EEC0E0EFC0E0D8
:100CA000900108122F1CFFAEF0900102122F1C12AF
:100CB0002F74E4FCFDD0E0FBD0E0FAD0E0F9D0E006
:100CC000F8120F3CE47B03122F13900105122F231F
:100CD000900105122F1CD39430E5F09475400874F0
:100CE0007575F030120F1D90017BE0606290017FFE
:100CF000E0FEA3E0FFD39400EE9400405290010583
:100D0000122F1C122F7412395E9001C0EEF0A3EF67
:100D1000F0900105122F1CC3122F5A5012122F6788
:100D2000400D90010812110FE475F007120EE590C6
:100D30000105122F1CD3122F5A4014D3122F6740D3
:100D40000E90010812110F74FF75F0F9120EE520D4
:100D50000B0D122F3B5008122F7C700302121190C2
:100D6000017AE004F09001831210D200000000E448
:100D7000900187F0A3F0A3F0A3F09001FF1210D22E
:100D8000000000001238E812385C22122B78400371
:100D9000021875900108122B3EFDE5F0FC122B3B6A
:100DA000FFAEF0D39DEE9C402E122BDCD3EF94309F
:100DB000EE9475400C9001BA7475F0A37430F08015
:100DC00010120EBAC39DFEE5F09C9001BAF0A3CEBE
:100DD000F0E49001AA8060120EBAFFAEF0C3ED9F5E
:100DE000FBEC9EFAD3EB9410EA9427400C9001BAE6
:100DF0007427F0A37410F08009C3ED9FFFEC9E12DE
:100E00002B5A9001BAE0FFA3E09001AACFF0A3EF24
:100E1000F0300018D3E0942C9001AAE09401401324
:100E20009001AC7427F0A37410F08007E49001AC3B
:100E3000F0A3F0E49001BAF0A3F090013CE0604A26
:100E4000122B32D39400EE648094804014D3EF953B
:100E500009EE9508400B9001EAE4F0A37464F08079
:100E60001BD39001EBE094009001EAE09400400C69
:100E7000900105122B3EFFE5F0122B5AD20890018B
:100E8000F0741FF0A37440F0800F9001EE7403F033
:100E9000A374E8F0E4FF1237EDD39001BBE09400B7
:100EA0009001BAE064809480500302184AE0FEA3E7
:100EB000E0FF900105122B29122B32EE3395E0FD55
:100EC000FCE47BB87A88F9F8C3121074500A9001D8
:100ED000BA7488F0A374B8F0D39001EDE094009058
:100EE00001ECE0940050089000F1E06420702AE5E5
:100EF00009240AFFE43508FE9001BAE0FCA3E0FDF6
:100F0000C39FEC9E5013ED9400EC648094804035B8
:100F1000122B327C007D0A802930002990013CE0B0
:100F20007011122B32C39515EE951450187C027D6A
:100F3000BC800F122B32C39509EE950850077C0236
:100F40007DBC122B5690013CE070030217B3900158
:100F5000EEE07002A3E070149001BAE0FEA3E0FDA1
:100F6000EEFCE4FF121876122B598035122B32C397
:100F7000900135E09FFF900134E09EFE12395ED370
:100F8000EF9428EE648094804017D39001EFE094B2
:100F9000C89001EEE09400400874FF75F09C120EBA
:100FA000A4900134E0FEA3E0FF7C007D0712112134
:100FB000ECF8EDF9EEFAEFFB122B32EE3395E0FD93
:100FC000FC120F3CE47B08FAF9F8120FE2900134AE
:100FD000EE800B9001BAE0FFA3E0900134CFF0A3C4
:100FE000EFF0900134E0FEA3E0FFD39405EE94000F
:100FF000400EEF9410EE940050069001BAEE801669
:10100000900130E0FEA3E0FF900135E02FFF90015A
:1010100034E03E9001BAF0A3EFF0D39001BBE0942E
:10102000309001BAE0648094F540077475F0A374C1
:1010300030F0E5DB5404705D90013CE07016122B3B
:10104000864011122B329509EE950840077C007DF1
:101050000A122B56122B3290010E122B299001BB33
:10106000E024A8FF9001BAE08022E5DB540470255B
:10107000122B62900130E0FEA3E0FF90010E122BD4
:101080002990010E122B3E24A8FFE5F03461FE905A
:10109000010B122B29229001BCEFF0A3ECF0A3ED81
:1010A000F0EF122D22E0FEA3E0C39DFFEE9CFE12A6
:1010B000395ED3EF9428EE64809480401C122CF2A9
:1010C0001210D200000000122CBEE4F0122D3C12CF
:1010D0002D1EEEF0A3EFF0803B122CAD122D5240EE
:1010E000339001BDE0FCA3E0FDD3EF9DEE9C400BEF
:1010F0009001BCE0122CE5E04401F09001BCE0FF5F
:10110000122CB1E0FAA3E0C39DEA9C5007122CE434
:10111000E04402F09001BCE0122CF7C083C08212C0
:1011200010BA122D3CE4FCFD120F3CD082D0831289
:1011300010C69001BCE0FF122D45E475F001120EBF
:10114000A4EF75F007A42487F582E43439F583E42D
:1011500093FE740193FF9001BCE0FDC454F024168B
:10116000F582E43402F583E0FAA3E0C39FEA9E50DF
:1011700003021AE2ED122D45E0FEA3E0FFFBEEFABA
:10118000E4F9F89001BCE0122CF71210AE120FE255
:101190009001BF1210C6122CA7E0FCA3E0C39FFF72
:1011A000EC9EFE12395E9001C3EEF0A3EFF09001C9
:1011B000BCE0FD75F007A42482F582E43439F583A0
:1011C000C37401939FE4939E401FED122CB1E0FE87
:1011D000A3E04E60149001BCE0FB122D2FE0FEA3B3
:1011E000E0C394B8EE940B501E9001BCE0FF122CAB
:1011F000B1E0FCA3E04C7008EF122D2FE4F0A3F057
:10120000122CA7EE021A89EB6003021A8F9001C517
:10121000F09001C3E0FEA3E0FFD39450EE940040B1
:1012200006A37408F080329001BCE0122CE5E06463
:10123000036026D3EF943CEE940040089001C574FF
:1012400004F08015D39001C4E094289001C3E09489
:101250000040069001C57402F0122CADE0FEA3E040
:10126000FFE4FCFD122D5ED312108A40119001C5DF
:10127000E0FF122CADE48FF0120EA4021AC5D39039
:1012800001C4E094509001C3E094004058122CAD8A
:10129000C083C082E0FEA3E0FF9001C5E0FDC3EF84
:1012A0009DFFEE9400D082D083F0A3EFF080361241
:1012B0002CADE0FEA3E0FF4E700D122D5EEBFFEAB9
:1012C000FEE9FDE8FC80167C007D07121121122D3D
:1012D0005E120F3CE47B08FAF9F8120FE2122CAD13
:1012E000EEF0A3EFF0122CF21210D2000000001268
:1012F0002CBEE4F09001BF1210AE122D1EEEF0A332
:10130000EFF0122CAD122D52405F9001BEE09FFF16
:101310009001BDE09EFE12395E9001BCE075F007C1
:10132000A42484F582E43439F583D37401939FE4D3
:10133000939E400F9001BCE0FF122CB1122D04E4EB
:10134000F080269001BCE0FF75F007A42486F582AA
:10135000E43439F583E493FE122D10E0C39E500966
:10136000122CAD122D04E004F0122D3C227F01124C
:10137000349B12310B902E20E030E2F99001F8E01E
:1013800025E0247FF582E434391230CD9001C81273
:1013900030FD7F011239419001C8E0FFA3E09001C8
:1013A0005ACFF0A3EFF0900156E07002A3E0700F67
:1013B00090015AE0FFA3E0900156CFF0A3EFF09028
:1013C00001CA1210D200002710E4FF12349BE490EF
:1013D00001C5F01230DF9001C5E0C39F4003021C3D
:1013E000ACE4FF12310B902E20E030E2F99001F8CE
:1013F000E025E0247EF582E434391230CD9001C638
:101400001230FDFF123941900193E0FEA3E0FF90FE
:1014100001C7E02FFF9001C6E03EFE900195E0FC81
:10142000A3E0FDC3EF9DFFEE9CFE9001C6F0A3EF8D
:10143000F09001B0EEF0A3EFF0900158E0FEA3E0D1
:10144000FF4E700E9001B0E0FCA3E0FDECFEEDFF5E
:10145000801AEF25E0FFEE33FE9001B1E02FFF9000
:1014600001B0E03EFE7C007D03120E19900158EEA3
:10147000F0FAA3EFF0FB1230C5FFE4FCFD9001CFC2
:101480001210C6EBFFEAFEE4FCFD9001D31210C679
:10149000E4FF12212390015CEEF0A3EFF09001F83D
:1014A000E09001CA700B1230C22400FFEE34E880D5
:1014B000091230C22400FFEE34F0FE3395E0FDFC4B
:1014C00012311E9001C5E004F0021BB3902E23E4FC
:1014D000F09001CA1210BAE8C0E0E9C0E0EAC0E04A
:1014E000EBC0E01230DFFBE4FAF9F81231181236E3
:1014F00074D0E0FBD0E0FAD0E0F9D0E0F812311E71
:10150000E47F507EC3FDFC9001CA1210BAD31210C2
:1015100074400A9001CA1210D20000C35012311850
:10152000EC33500A9001CA1210D200000000900162
:1015300062E0FAA3E0FB4A700512311880227E00B7
:101540007F02EBFDEAFC121121ECF8EDF9EEFAEF67
:10155000FB123118120F3CE47B03FAF9F8120FE288
:10156000900162EEF0A3EFF0900154E07002A3E06E
:10157000700F900162E0FFA3E0900154CFF0A3EF61
:10158000F09001261230C2FFE4FCFD120F3C9001E6
:10159000261210C690012AE475F001120EA49001E3
:1015A0002AE0FEA3E0FFD3940AEE94004029EFFB6B
:1015B000EEFAE4F9F89001261210AE120FE2900153
:1015C00024EEF0A3EFF0E490012AF0A3F0900126BE
:1015D0001210D20000000090012CE07002A3E07015
:1015E0003A900124E0FEA3E0FFC390015DE09FFF7D
:1015F00090015CE09EFE12395E900122EEF0A3EFB6
:10160000F0D39406EE9400401290012C7403F0A3E2
:1016100074E8F0A3E475F001120EA4900162E0FEFC
:10162000A3E0FF22D39001E5E09F9001E4E09E401B
:101630000AA3E09FF09001E4E09EF09001E91233EC
:101640007F9001E8E09C400CA3E09FF09001E8E06F
:101650009EF08002D28AD39001E7E09F9001E6E0FD
:101660009E400AA3E09FF09001E6E09EF0123391C5
:1016700050031233C9D39001EBE09F9001EAE09E42
:10168000400AA3E09FF09001EAE09EF0D39001EDC4
:10169000E09F9001ECE09E400AA3E09FF09001ECF7
:1016A000E09EF0D39001F3E09F9001F2E09E400AAB
:1016B000A3E09FF09001F2E09EF0D39001EFE09F55
:1016C0009001EEE09E400AA3E09FF09001EEE09EC4
:1016D000F0D39001F1E09F9001F0E09E400AA3E07A
:1016E0009FF09001F0E09EF0D39001ADE09F90015B
:1016F000ACE09E400AA3E09FF09001ACE09EF09029
:1017000001F512337F9001F4E09C400AA3E09FF0C2
:101710009001F4E09EF012339F50031233C9D3902E
:10172000018CE09F90018BE09E400AA3E09FF09027
:10173000018BE09EF090018E1233CF90018DE09CE2
:10174000400AA3E09FF090018DE09EF0D390019EAF
:10175000E09F90019DE09E400AA3E09FF090019DD4
:10176000E09EF0D39001A0E09F90019FE09E400A90
:10177000A3E09FF090019FE09EF09001691233CFAB
:10178000900168E09C400AA3E09FF0900168E09E11
:10179000F0D39001AFE09F9001AEE09E400AA3E03D
:1017A0009FF09001AEE09EF01233AD50031233C9AA
:1017B0001233BB50031233C9D390012DE09F900127
:1017C0002CE09E400AA3E09FF090012CE09EF022C6
:1017D000C0E0C0F0C083C082C0D0E8C0E0D2AFD3C8
:1017E0009001E5E094009001E4E09400400312339E
:1017F00078D39001E9E094019001E8E0940040057D
:101800001233788002D28AD39001E7E094009001ED
:10181000E6E0940040031233781233915003123300
:101820008AD39001EBE094009001EAE09400400339
:10183000123378D39001EDE094009001ECE0940035
:101840004003123378D39001F3E094009001F2E06A
:1018500094004003123378D39001EFE0940090019C
:10186000EEE094004003123378D39001F1E094004D
:101870009001F0E094004003123378D39001ADE082
:1018800094009001ACE094004003123378D39001AF
:10189000F5E094019001F4E09400400312337812D3
:1018A000339F500312338AD390018CE0940090014F
:1018B0008BE094004003123378D390018EE09401C2
:1018C00090018DE094004003123378D390019EE0A4
:1018D000940090019DE094004003123378D390016E
:1018E000A0E0940090019FE094004003123378D36D
:1018F000900169E09401900168E094004003123384
:1019000078D39001AFE094009001AEE094004003E2
:101910001233781233AD500312338A1233BB5003A3
:1019200012338AD390012DE0940090012CE09400B2
:101930004003123378D0E0F8D0D0D082D083D0F0FA
:10194000D0E0329001CEEFF0122A99E0702790019A
:10195000CEE0122AD01210AEE4FBFAF9F8C312104E
:101960008A60129001CEE0122AEE1210AEE4F8C3A3
:1019700012108A7057122B029001CF12225FEEF0E4
:10198000A3EFF0ED122A99E06029ED75F00AA42486
:1019900070F582E43439F583C083C0829001F8E0A9
:1019A000D082D083122AA7400A9001CEE0122A9951
:1019B0007405F0122A4EE0D394007480948040069F
:1019C000122A98E014F09001D302225B122ACB1263
:1019D00010AE9001D71210C6122AED1210AE90016F
:1019E000DB1210C69001CEE0122ADF1210AEEFF922
:1019F000122B0BE9F812109BEFFBEEFAEDF9ECF865
:101A0000122B0B120F499001DF1210C69001D71252
:101A100010AE9001D31210BA120F3C9001DF1210D9
:101A2000BA120F3C122AFC122ACB122B08122AEDF2
:101A3000122B08122B111210BA120FE2122AFC906C
:101A400001DB12225FEEF0A3EFF0ED75F00AA424A3
:101A50006CF582E43439F583C083C0829001F8E0EC
:101A6000D082D083122AA7400F122A4E7405F0129A
:101A70002B029001DB1210C69001DB1210AE22EF98
:101A8000FBEEFA1210AEC3EF9BFFEE9AFE12395E28
:101A90009001CEE0FD75F013A42404F582E4340235
:101AA000F583229001BA7402F0A374BCF0A374050C
:101AB000F0D39001AFE094009001AEE094004011AB
:101AC000122B3BFF90010812110FE5F08FF0120F5F
:101AD0001D9001E4E07002A3E0600B9001BAE4F015
:101AE000A37464F0800B90001AE0641170037420FA
:101AF000F090013CE0600F7E007F0A7D007B017A60
:101B000001793D02114E90013D1210BAE8C0E0E9A2
:101B1000C0E0EAC0E0EBC0E0122B3BFFAEF0E4FC1B
:101B2000FDD0E0FBD0E0FAD0E0F9D0E0F8120F3CB5
:101B300090013D1210C6900141122BC09001BA12C3
:101B40002BE3900146E09F900145E09E5003022365
:101B5000DA90013D1210AEECC0E0EDC0E0EEC0E066
:101B6000EFC0E0900141122BC7D0E0FFD0E0FED0E3
:101B7000E0FDD0E0FC120FE290013D1210C6900192
:101B800008122B3E2432FFE435F0FEE4FCFD900108
:101B90003D1210BAD312108A403D9001E4E0700269
:101BA000A3E07033200830900143122BC1122B8622
:101BB00040069001BC7403F09001BCE0FFD390019B
:101BC00044E09F900143E094004018122B20E490E1
:101BD0000143F0A3F0800C122B20E4900143F0A30A
:101BE000F0C20890013D1210D200000000E4900104
:101BF00041F0A3F0900145F0A3F022758D20438DB4
:101C000020538D7FE4F5B275B6FF75B7FF75B2A2AC
:101C100043B20153A8FB538B7F758B10438B08E5B0
:101C20008B20E7030080F8538B7F758B11438B0863
:101C3000E58B20E7030080F8900227E5B5F0A3E5E7
:101C4000B4F0758B01E4F5B21238E8E4F58D90013B
:101C50001DE0FEA3E0FF4E7010123930FD90011D13
:101C6000E5F0F0A3EDF00224C7123930FDC3EF9D7B
:101C7000FFEE95F0FE12395ED3EF940AEE64809485
:101C8000804024123930FFC390011EE09F90011D57
:101C9000E095F05006E475F001800790011D74FF97
:101CA000F5F0120EA4804090011D1239397D021208
:101CB0001121ECC0E0EDC0E0EEC0E0EFC0E0123971
:101CC00030FFAEF0E4FCFDD0E0FBD0E0FAD0E0F96C
:101CD000D0E0F8120F3CE47B03FAF9F8120FE2901F
:101CE000011DEEF0A3EFF09001F8E0640190011DFA
:101CF00070071239397D2D80051239397D2812116E
:101D000021E47B64FAF9F8120FE2900193EEF0A35C
:101D1000EFF0900195E07002A3E0700D900193E068
:101D2000FFA3E0A3CFF0A3EFF0900197E07002A330
:101D3000E0700F90011DE0FFA3E0900197CFF0A3AA
:101D4000EFF022900174122BE39404EE94005022E1
:101D5000122BACEF25E0FFEE33FE746C2FF582748E
:101D6000013EF583ECF0A3EDF0900174122BC0025C
:101D700025EE9001C77401F09001C7E0FFC3122B5C
:101D8000715021EF122B94FCA3E0FDEF25E0246AB3
:101D9000F582E43401F583ECF0A3EDF09001C7E0A7
:101DA00004F080D490013CE060028053122B3BFF92
:101DB000122BACC3EF9DFFE5F09CFE12395EC3EF22
:101DC0009428EE648094805036900108122B3EFFD8
:101DD000C3900101E09FFF900100E095F0FE1239F1
:101DE0005EC3EF9414EE64809480500590010880E7
:101DF00003900102122B3EFF900172E5F0800B90E0
:101E00000100E0FFA3E0900172CFF0A3EFF090019A
:101E1000C31210D200000000E49001C7F09001C787
:101E2000E0FFD3900175E09F900174E0940040259D
:101E30009001C31210BA9001C7E0122B94FEA3E0E8
:101E4000FFE4FCFD120F3C9001C31210C69001C7C5
:101E5000E004F080C89001C31210AEECC0E0EDC009
:101E6000E0EEC0E0EFC0E0900174122BC7D0E0FFBD
:101E7000D0E0FED0E0FDD0E0FC120FE29001C312F2
:101E800010C69001C30210AE9001BFEFF0902E2259
:101E9000E0FF9001C3E4F0A3EFF0758A50902E228A
:101EA0007401F01236517404F0A3E4F09001C0F014
:101EB0009001C0E0FFC3940D74809480400302271A
:101EC0007CEFF87E02E4088006CEA2E713CE13D89A
:101ED000F8FF9001C1EEF0A3EFF04E70079001C142
:101EE000F0A304F0902E207401F0902E20E030E258
:101EF000F99001BFE0FF902E00123658E0FCA3E0FD
:101F0000D394FEEC9407404012366AE0FEA3E0FF53
:101F10009001C1E0FCA3E0FDEF2DFFEE3CFEC3EF1E
:101F200094FFEE94079001BFE075F002902E1050E0
:101F30000B121103EC8DF0120EA4805012110374D9
:101F400007F0A374FFF080449001BFE0FF12365504
:101F5000E0FCA3E0FD9001C1E0FAA3E0FBD3ED9B20
:101F6000EC9A402112366AC083C082C3A3E09BFF73
:101F70000582D5820215831582E09AD082D083F043
:101F8000A3EFF08007123651E4F0A3F0902E20E486
:101F9000F0F58D9001C0E004F00226909001C3A3FB
:101FA000E0902E22F0758A30227FFF7A00790012AD
:101FB000376F7FBA7A01790012376F7E007F147D08
:101FC000007B017A0179E312114E902DE0E49390A9
:101FD0000001F09000047411F0A37422F0A3743394
:101FE000F0902DE2E493900012F0902DE3E49390B2
:101FF0000014F09000FB7401F09000367410F09023
:1020000000F1F0900024F0A37420F07B017A0079B5
:10201000409001021211187A0079449001081211BF
:10202000187A0079429001051211187A00792E90E1
:10203000010B1211187A00792A90010E1211187AE8
:102040000079289001111211187A00796090011F0F
:102050001211187A0079809001A41211187A00796F
:10206000189001391211187A00791B90013612115B
:10207000187A0079329001141211187A007926909A
:1020800001171211187A00793490011A12111812DE
:10209000373B9001E47407F0A374D0F0E49001E3BF
:1020A000F022E4F526F525F524F523F526F525F5AA
:1020B00024F523F522122B6E502AE52225E0240A6E
:1020C000F8E6FE08E6FFE4FCFDE5262FFFE5253EE9
:1020D000FEED3524FDEC35238F268E258D24F5234A
:1020E000052280D1E47B04FAF9F8AF26AE25AD24B1
:1020F000AC23120FE2900178EEF0A3EFF0E4752626
:10210000A8752561F524F523F522122B6E50559004
:102110000178122B44C3122BDC12395ED3EF940AE0
:10212000EE648094804012900178E0FEA3E0FF907E
:102130000154E0FCA3E0FD8007900154122B44C33E
:10214000122BDC3395E0FDFCE5262FFFE5253EFE56
:10215000E5243DFDE5233C8F268E258D24F52305C2
:10216000220228EAE47F607EEAFDFCAB26AA25A9CC
:1021700024A823D312108A400BE47526607525EA43
:10218000F524F523AE25AF26227FC87E007D967C00
:1021900000122B784003022A4D3000209001ACE061
:1021A0007002A3E060087514137515888006751415
:1021B000057515DC7508037509E880499001F8E09C
:1021C000F964017006FE7FC8FC7D969001B6E0FAC6
:1021D000A3E0FB2FF515EA3EF514CEECCEEDFFEBB8
:1021E0002FF509EA3EF508E964017019A3E0FEA3A2
:1021F000E0FF2515F515EE3514F514EF2509F50961
:10220000EE3508F508900105122B3EFFAEF0C395A0
:1022100015EE9514500F90013CE0601AC3EF95093C
:10222000EE950840119001ECE07002A3E0701C9064
:10223000013C04F080159001EC7401F0A374F4F0FB
:10224000E490013CF09001EA122BD290013CE0FFB7
:102250006016900024E0641090003670057410F051
:1022600080037420F0122BB590004BEFF022900108
:10227000D31210AE9001CEE0FB75F013A424FFF54D
:1022800082E43401F5831210C6EB75F013A4240A1E
:10229000F582E43402F5831210AE9001D31210BA25
:1022A000120F579001CEE0FB75F013A424FBF582CA
:1022B000E43401F5831210C6EB75F013A42403F582
:1022C00082E43402F5832275F002121103E493FED6
:1022D000740193FFED75F013A42404F582E4340235
:1022E000F583E0FCA3E0D39FEC9E229001CEE0FBBF
:1022F00075F013A424FFF582E43401F58322EB7515
:10230000F013A42406F582E43402F58322EB75F081
:1023100013A424FBF582E43401F583229001DB123F
:1023200010C69001D30210AE1210C69001DB02104D
:10233000AEEB75F013A4240AF582E43402F583228F
:1023400090013D1210AE90010812110FEE8FF002B5
:102350000F1D9001BAE0FEA3E0FF229001021211CE
:102360000F020EBAE52225E0240AF8E6FE08E6FF91
:10237000E0FCA3E0FD22120E6EEE9001BAF0A3EF96
:10238000F02290010512110FE4F5F0020F1DC3E5D4
:102390002294047480948022D39001E5E09400900C
:1023A00001E4E0940022D39001A0E0940090019F0A
:1023B000E094002225E0246CF582E43401F583E00A
:1023C0002212110F746175F0A8020F1D900100E038
:1023D000FCA3E0FD229001E67403F0A37420F02238
:1023E000E475F001020EA4E0FEA3E0FBEEFAE4F9CE
:1023F000F822F0A3F09000367410F022EF9DFFEE6B
:102400009CFE22E0FEA3E0FFC322C0E0C083C082A6
:10241000C0D075D018D2AFE5DB30E422D209C206B5
:10242000E5DB30E114123950E0F5DFEF6407706549
:10243000D28A900007F0022C98C205022C9BE5DBA3
:1024400030E52C9000F0E064AA7017758A10F5DA78
:10245000C2AFF5B2F5A8F5A9F58B758E01758DC0E3
:1024600080FED204300604C2068050C209804CC2ED
:1024700006E5DB30E121E5DB30E040123950E0F5E4
:10248000DFEF24F9600824EE700BD20A8007D28AAD
:10249000900007E4F0802120050A7816A6DFD20517
:1024A000D2068017123950E5DFF0EF6424700990EE
:1024B00001E604F0A374F4F078160675DBFFD0D0C3
:1024C000D082D083D0E0329001BF1210AE9001BC18
:1024D000E0C454F02414F582E43402F58322EBC402
:1024E00054F02412F582E43402F583E4F0A3F09072
:1024F00001BCE0FFC454F02416F582E43402F583F5
:10250000E4F0A3F0EFC454F0241BF582E43402F5A8
:1025100083229001BCE0FBC454F0240EF582E43425
:1025200002F58322E0FDA3E09001BDCDF0A3EDF024
:10253000EFC454F0241AF582E43402F583229001AA
:10254000BCE0C454F02418F582E43402F58322C4BC
:1025500054F0241CF582E43402F583229001BDE09E
:10256000FEA3E0FF22C454F02412F582E43402F505
:102570008322E0FEA3E0FFD39400EE9400229001BA
:10258000BF0210BA308A779001E4E07002A3E070D5
:102590006D900168E07002A3E07063F5B2758D2064
:1025A000438D20758D8043A808D2AFF58B90012C08
:1025B000E0FEA3E0FF4E6005758E508003758EFE31
:1025C00020042F20092CE5DB54047026758AA420F2
:1025D0000920E5DB5404701AF586758703000000B6
:1025E000758601EF4E60047F2880027F7F7E001297
:1025F0001E04758B01758A3053A8F71238E8220043
:102600000B00ABC674AA7583F5758255A574557514
:1026100083FA7582AAA574A57583F5758255A522DE
:102620000203020AB0B00BB6B60CFFFF09020208A3
:10263000FFFF0D77770E04041307071410101080A6
:1026400080150000160000019212921207130B2150
:10265000190F0404040404010101011114141515D7
:10266000121313101003020402041232A41238AD24
:102670007E007F297D007B017A01797B12114E1249
:10268000082EE4900174F0A3F0900162F0A3F090A2
:102690000160F0A3F0900164F0A3F07F04123127F1
:1026A000900100E0FEA3E0FFA3122B29900100E0BF
:1026B000FEA3E0FF122B26122B6290010B122BA11E
:1026C000900111122BA190010E122B65E490013C98
:1026D000F0FE7F0AFD7B017A01793D12114EE490F4
:1026E00001F2F0A3F09001F0122BD2E490004BF035
:1026F000122BB59001F6E0700FC39001E5E094F461
:102700009001E4E09401500A9001E47401F0A37494
:10271000F4F0227C007D031211219001BAECF8ED57
:10272000F9EEFAEFFBE0FEA3E0FFE4FCFD120F3C44
:102730007B04E4FAF9F8020FE2FFAEF012110F0287
:102740000EBAA312110FEE8FF0020F1D9EFE7C0039
:102750007D041211219001BC0210C6C3900221E039
:102760009414900220E0940022E4FDFC9001BC123D
:1027700010BAD312108A9001BC22FF900180E09F12
:1027800090017FE095F0229001C1E0940A9001C091
:10279000E0940022C39FFFE5F09EFE229000F1E04E
:1027A00064202212110FE4F5F0020F1D787FE4F689
:1027B000D8FD758126022FD602000002301BE4935B
:1027C000A3F8E493A34003F68001F208DFF4802924
:1027D000E493A3F85407240CC8C333C4540F442013
:1027E000C8834004F456800146F6DFE4800B010202
:1027F0000408102040809037B4E47E019360BCA3AD
:10280000FF543F30E509541FFEE493A360010ECF4F
:1028100054C025E060A840B8E493A3FAE493A3F879
:10282000E493A3C8C582C8CAC583CAF0A3C8C58239
:10283000C8CAC583CADFE9DEE780BE53A87F123964
:10284000041227891236FB12080E43A880E4F58D86
:102850009000F17420F01232269001E3E014601829
:1028600014601A14603B14604D240470E0120803D5
:102870001231A712397480D5122E4A803112388A4B
:10288000900020E0FF64206008EF64216003122DB7
:1028900064900025E0641070B49001E37404F0804B
:1028A000AC12117A9001E67403F0A37420F0900149
:1028B000E37402F080971235E7900025E064106021
:1028C0008C12397480879001F8E025E0247EF5822F
:1028D000E43439F583E5822FF582E43583F583E42A
:1028E00093221210BA90015CE0FEA3E022F583E48B
:1028F0009375F002902E00121103E0FFA3E02290E6
:1029000001F8E02429F582E43402F583E0FF22F5A2
:1029100083E4932420F582E4342EF58322CFF0A3C0
:10292000EFF0902E20E4F0758A30221238CB758AB1
:1029300050902E207401F0229001CA0210AE120FA6
:102940003C9001CA0210C69001C3EFF0E4A3F090DE
:1029500001C3E0FFA3E0C39F502E121B4D12391F8D
:10296000900164EEF0A3EFF08E12F513C8740AC85C
:102970007400FCE4FDFB7A00790CFE7F08120DE187
:102980009001C4E004F080C7122882900100EEF0AC
:10299000A3EFF0900162122BE3900133E09FFF90D0
:1029A0000132E09EFE12395E7C007D05120E6E90B3
:1029B0000130ECF0A3EDF0900162E0FFA3E09001A4
:1029C00032CFF0A3EFF022E49001BAF0A3F090012F
:1029D000F8E09001477404F0A374B0F01236B87EAA
:1029E000007F047D007B017A01795412114E7F0132
:1029F000123778E4FF12377812365E9001BACFF0C2
:102A0000A3EFF09001BAE0FEA3E0FFC39405EE94BB
:102A1000004009D3EF94F0EE9407400BE490014797
:102A2000F0A3F0FF123778902E23E4F012365E9078
:102A300001BACFF0A3EFF090001D7410F09001BA2E
:102A400012362F020F1D900020E0642070037421C5
:102A5000F090013612110F120EBA641045F0700397
:102A600012359E900001E064AA70031233DA123529
:102A70005320070890001AE06410700B90001A743D
:102A800011F0C2071239749000FBE06006E4F09088
:102A900001E3F0900168E07004A3E0640170159018
:102AA0000168F0A3F09001AE7407F0A374D0F0E4D5
:102AB0009001E3F030040CC2049001E67401F0A32D
:102AC00074F4F0227E007F137D007B017A0179FB94
:102AD00012114EE4FBEBC39401748094805051902A
:102AE00001F8E0FFEB75F00AA4246AF582E43439BA
:102AF000F583E5822FF582E43583F583E493FFE4E3
:102B0000FCFDFE122ADE1210C6122ADE1210AEEFF3
:102B100004F87E007401088005C333CE33CED8F9A3
:102B2000FFEE3395E0FDFC122B111210C60B80A5B1
:102B3000229001E8E07004A3E064017011900007A6
:102B4000E06004D28AE4F0E49001E8F0A3F09000A1
:102B500036E0FF9000FFE06F603D900036E0FD90B2
:102B600000FFF0900007E09001FAF0540FF0ED7EC6
:102B70000064207005E04420800CEF64104E700B60
:102B80009001FAE04410F0900007F0C28A9001E84A
:102B90007403F0A374E8F02274FFF5F0020EA4EFC2
:102BA0002401FDE43EFCD3E09D22E475F001020E19
:102BB000A4C3900146E094BC900145E0940222C376
:102BC00090018AE09464900189E0940022C390020D
:102BD0001DE094B890021CE0940B22C3900217E011
:102BE00094F4900216E0940122EE8FF0020EA4EF0E
:102BF0002401FDE43EFCD3E09D229001BA7408F06C
:102C0000A3E4F0A3743FF0A374DFF0E4FDFCF975D6
:102C10008A10538AEF009001BAE0FEA3E02DF582FE
:102C2000EE3CF583E493FF69F90DBD00010CBC3760
:102C3000E5BDDFE29001BCE0FEA3E0F5828E83E417
:102C400093FFE96F7008900001740BF08005E49029
:102C50000001F0758A30538AEF0022E49001BCF045
:102C6000A3F0300A55200052C20A12365E9001BC11
:102C7000CFF0A3EFF09001BCE0FFA3E09001BACF4A
:102C8000F0A3EFF0E4FF12377812365E9001BCCF6C
:102C9000F0A3EFF09001BC12362F120F1D9001F837
:102CA000E09001BAE0FFA3E0902E12CFF0A3EFF086
:102CB0009001E67403F0A37420F022E4FEEEC394C6
:102CC00007748094805038EE75F005A42428F582AE
:102CD000E4342EF583C083C0829001F8E0D082D026
:102CE0008375F0021211031230B5FDEE75F005A4E4
:102CF0002427F582E4342E1230EFEDF00E80BEEF83
:102D00007014900147E07002A3E0700A9001F8E0AF
:102D1000902E217412F022CFF0EFA3F09001051253
:102D2000110F020EBAC3FF900180E09F90017FE077
:102D300095F02290011DE0FEA3E0FF2290011DE02E
:102D4000FFA3E0CF900197F0A3EFF0229001BFE046
:102D5000941E9001BEE0940022E4F0A3F0A3F0A33F
:102D600022FF90017FE5F0F0A3EFF02290019BE0BD
:102D7000940022900013E0FF9001F7E06F600CEFE9
:102D8000F09001F47402F0A37458F09001F4E07034
:102D900004A3E0640170269001F7E0FF7E00641058
:102DA0007002D200EF64204E7002C200900025E055
:102DB00064106002D207E49001F4F0A3F022E490E2
:102DC00001BAF0A3F0758A10538AEF00122DE47552
:102DD000EA81E4F5F6F5F475F308F5F275EB070012
:102DE000E5EC30E7FBAFF3EFFEADF2EDFF9001361F
:102DF00012110FEE8FF0120F1DE4F5EC75EB30752C
:102E00008A30538AEF0022900025E06410703FF56D
:102E1000B2758D20438D20538D7F53A8F7F58BE538
:102E2000DB54047013200910F58AF58675870300BA
:102E30000000758601758A30758B019001F674016A
:102E4000F09001E67403F0A37420F01238E822E059
:102E5000FEA3E0FF7C007D0A120E07900148E02FE0
:102E6000FF900147E03EFE90013912110FEE8FF006
:102E7000229001BFE0902E1075F002021103900124
:102E8000F8E0902E12E0FFA3E02275F002EF902E02
:102E900010021103C2D5E830E70FB2D5E4C39BFBA3
:102EA000E49AFAE499F9E498F8EC30E717B2D5120D
:102EB00036AA120FE2E4C39BFBE49AFAE499F9E420
:102EC00098F88003120FE230D50DE4C39FFFE49E13
:102ED000FEE49DFDE49CFC22E4FFEFC3940D7480AE
:102EE0009480502E9001F8E0FEEF75F003A42401C9
:102EF000F582E4342EF583E5822E1230B8FEEF75AC
:102F0000F003A42400F582E4342E1230EFEEF00F2B
:102F100080C8902F56E0902E2BF022E4F5DA75DA77
:102F20004043DA2030881375D74075D6409001F8B9
:102F300004F090001574C7F0801175D74275D64221
:102F4000E49001F8F090001574C6F05392FE75DA23
:102F50005843A80275B80275F802229001141211A4
:102F60000FE475F0C8120F1D90011712110FE475D0
:102F7000F064120F1D90011A12110FE475F09612F1
:102F80000F1D7514007515C8750800750996227E09
:102F9000007D007B0102114E9001BEEFF01238CB94
:102FA0009001BEE0FF12349B9001BEE0FF9001F85B
:102FB000E025E0247EF582E43439F583E5822FF5BF
:102FC00082E43583F583E493FF1226689001BEE026
:102FD000FF023941C1094202290205C10A4101FA31
:102FE000004101F9004101F800C103C101C100C164
:102FF000024101F700C105011600C104C106C10864
:10300000C1074100FF10430224010227009001BCC8
:10301000EFF07E007F10EEC0E0EFC0E07D00E075D5
:10302000F010A4240EF9740235F0FA7B01D0E0FF11
:10303000D0E0FE12114E9001BCE0122D2F740BF067
:10304000A374B8F022900155E0243CFF900154E0B5
:1030500034F6FEC3900163E09F900162E09E50143D
:10306000900168E07002A3E0701190016804F0A381
:1030700074F4F022E4900168F0A3F0229001C2748D
:1030800001F09001C2E0C3122B7150167F01123182
:1030900027122523900102122B299001C2E004F08F
:1030A00080E0E49001ECF0A3F02212082E7F0112E0
:1030B0003127122523900102122B2912156B122998
:1030C0006912228312331112382502343B7E007FAD
:1030D000047D007B017A01795812114E7E007F0435
:1030E0007D007B017A01795C02114EEFF8740108D2
:1030F0008002C333D8FC42AB1230A690397B93F4E4
:10310000529152935391DF22E5B254016006E5A833
:103110005410700F75B29275B67CE4F5B743B201E6
:1031200043A81022758A30538AEF758601758F0285
:10313000E4F5AB75AC0F75913E759201D28A229081
:103140000162E0FEA3E0FF900160EEF0A3EFF02249
:1031500090022412110F020EBAE0FEA3E0FF7C00E1
:10316000221230A690397B934291428843912022CB
:103170007816E6FF2400F582E43400F58322EE3071
:10318000E707C3E49FFFE49EFE2203030019001932
:10319000001400149001E37401F0220102200102E6
:1031A0000102009600960701F400000000000000F4
:1031B000000000000000000000000000000000000F
:1031C00000000000000000000000000000000000FF
:1031D00000000000000000000000000000000000EF
:1031E00000000000000000000000000000000000DF
:1037F0000000000000000000000000000000002C9D
:1038000000000000000000000000000000000000B8
:1038100000000000000000000000000000000000A8
:00000001FF
