:1000000000C600000005000045420000000000009E
:1000100000000000000000000000000000000000E0
:10002000022ED59001DE7401F02200022B65010240
:10003000200101022DDD0238AE000002081ED2AF01
:1000400032000002207DD2AF32000002082690016B
:10005000B71233DD7496F0121D6290017B12107B93
:100060001233B7E4FCFD120EFD90017B1210879055
:10007000017FE475F001120E65C3900182E0946483
:10008000900181E094005003020ADA90017B121083
:100090006FECC0E0EDC0E0EEC0E0EFC0E090017FAB
:1000A000E0FEA3E0FBEEFAE4F9F8D0E0FFD0E0FEDA
:1000B000D0E0FDD0E0FC120FA390017B12108790DE
:1000C000017B12106F900179EEF0A3EFF0A31210F4
:1000D000930000000090017F1233DDF09001DFE01B
:1000E0007002A3E06003020ADA900183E07002A3C9
:1000F000E06003020ADA90013CE0700302097190AB
:100100000175E07002A3E0701D900179E0FFA3E0AB
:1001100090017512339B1233F19001857403F0A3A3
:1001200074E8F0020984900179E0FEA3E0FFC39037
:100130000176E09FFF900175E09EFE123913900159
:10014000A11210D0EE8FF0120EDE900173E0701D40
:100150009001A11233A3C39406E5F0940050081255
:1001600033A01233F180069001737401F09001798D
:10017000E0FEA3E0FFD3900176E09F900175E09E42
:100180004007E4900174F0801B9001747401F080CA
:1001900013E49001751233DEF0900173F090018743
:1001A0001233DEF0900173E07003020ADAD390019B
:1001B00078E09400900177E094005003020ADA128C
:1001C00033A0FF900177E0FCA3E0FDC3EF9DFFE5C6
:1001D000F09CFE1239139001BBEEF0A3EFF0A3E404
:1001E000F074C812339ED39494E5F09411400A90B1
:1001F00001BD7403F0A37420F09001BBE0FFA3E005
:100200009001A512339BD31233AA400CD39001BCAA
:10021000E094641233D650131233A01233A950362F
:100220009001BCE094C81233D6402BE4900173F0E7
:10023000900175F012339E1233A99001835008E4A7
:10024000F0A374C8F080077401F0A3742CF0E4905C
:100250000174F0020ADA1233A0FFD31233AB404A22
:10026000D31233D040449001081210D074FF75F0BF
:10027000F9120EA6900189E475F007120E65C3907D
:100280000188E094E8900187E09403501DA3E09476
:1002900007900187E09400400A74FF75F0F9120E90
:1002A000658007E4900187F0A3F01233A01233A910
:1002B00050481233D040439001081210D0E475F03A
:1002C00007120EA6900187E475F007120E65C39021
:1002D000018AE09458900189E09402501DA3E094B3
:1002E00007900189E09400400A74FF75F0F9120E3E
:1002F000658007E4900189F0A3F090013CE0601B69
:100300009001AFE07002A3E0701190011DE0FFA327
:10031000E09001AFCFF0A3EFF080359001F2E06400
:100320000170089001B9F0A374C8F090013CE0702E
:100330001F1233A0FFD39001BAE09F9001B9E0955E
:10034000F0400DE49001AFF0A3F09001B3F0A3F002
:100350009001AFE07002A3E07003020BF81233B714
:10036000C39001B0E09FFF9001AFE09EFE123913F1
:100370009001B7EEF0A3EFF01233B7D39001B0E0E5
:100380009F9001AFE09E400D9001B7E0FFA3E09089
:1003900001B1CF801A9001B7E0FEA3E0FFD394C86B
:1003A000EE9400400EEE13FEEF13FF9001B1EEF05D
:1003B000A3EFF0D39001B2E0940A9001B1E0940071
:1003C00040561233A0D39488E5F094134023900153
:1003D000B4E094DC9001B3E09405503C9001B2E0AD
:1003E00025E0FE9001B1E0339001B3F0A3CEF080A0
:1003F000271233A0D394E8E5F09403401B9001B496
:10040000E094F49001B3E09401500D9001B1E0FF4D
:10041000A3E0A3CFF0A3EFF09001F2E0640160034A
:10042000020CD190013CE06003020CC11233B7C34F
:10043000900194E09F900193E09E5004EE1233C827
:10044000900199E07002A3E0706E1233B7D390016F
:1004500096E09F900195E09E4012900196E09FFFEC
:10046000900195E09E900197F0A3EFF0D390019852
:10047000E09405900197E09400400B1233E5E4F01E
:10048000A374FAF08019D3900198E0940890019732
:10049000E09400400A1233E57401F0A3745EF0901A
:1004A00001997403F0A374E8F090011DE0FFA3E04C
:1004B000900195CFF0A3EFF090019BE07002A3E0D4
:1004C000700F1233C0E490019DF0A3F09001B5804D
:1004D0001D90019DE0FFA3E09001B5CFF0A3EFF0E8
:1004E000221233C0E49001B5F0A3F090019DF0A377
:1004F000F022E709F608DFFA8046E709F208DFFA9A
:10050000803E88828C83E709F0A3DFFA8032E3091A
:10051000F608DFFA8078E309F208DFFA8070888253
:100520008C83E309F0A3DFFA806489828A83E0A3E5
:10053000F608DFFA805889828A83E0A3F208DFFA9E
:10054000804C80D280FA80C680D4806980F280336B
:10055000801080A680EA809A80A880DA80E280CA33
:10056000803389828A83ECFAE493A3C8C582C8CC1D
:10057000C583CCF0A3C8C582C8CCC583CCDFE9DE77
:10058000E7800D89828A83E493A3F608DFF9ECFA09
:10059000A9F0EDFB2289828A83ECFAE0A3C8C58228
:1005A000C8CCC583CCF0A3C8C582C8CCC583CCDF7A
:1005B000EADEE880DB89828A83E493A3F208DFF92C
:1005C00080CC88F0EF60010E4E60C388F0ED24020D
:1005D000B4040050B9F582EB2402B4040050AF23F8
:1005E00023458223900D2273EF8DF0A4A8F0CF8CC9
:1005F000F0A428CE8DF0A42EFE22BC000BBE002954
:10060000EF8DF084FFADF022E4CCF875F008EF2F09
:10061000FFEE33FEEC33FCEE9DEC984005FCEE9DC6
:10062000FE0FD5F0E9E4CEFD22EDF8F5F0EE8420E2
:10063000D21CFEADF075F008EF2FFFED33FD400743
:10064000985006D5F0F222C398FD0FD5F0EA22C2E9
:10065000D5EC30E709B2D5E4C39DFDE49CFCEE3057
:10066000E715B2D5E4C39FFFE49EFE120DDAC3E4A2
:100670009DFDE49CFC8003120DDA30D507C3E49F96
:10068000FFE49EFE22C5F0F8A3E028F0C5F0F8E5EF
:1006900082158270021583E038F022BB010A89823C
:1006A0008A83E0F5F0A3E022500687F009E71922DB
:1006B000BBFE07E3F5F009E3192289828A83E493FC
:1006C000F5F074019322BB010789828A83020E65CB
:1006D000500B09C5F027F7C5F01937F722BBFE0DFF
:1006E00009F8E325F0F3C5F019E338F322F889821D
:1006F0008A8374019325F0C5F0F8E4933822BB0196
:100700000A89828A83F0E5F0A3F0225006F709A750
:10071000F01922BBFE06F3E5F009F31922EF2BFFD7
:10072000EE3AFEED39FDEC38FC22C3EF9BFFEE9A6A
:10073000FEED99FDEC98FC22E88FF0A4CC8BF0A4A0
:100740002CFCE98EF0A42CFC8AF0EDA42CFCEA8EA3
:10075000F0A4CDA8F08BF0A42DCC3825F0FDE98FC6
:10076000F0A42CCD35F0FCEB8EF0A4FEA9F0EB8FBD
:10077000F0A4CFC5F02ECD39FEE43CFCEAA42DCE8A
:1007800035F0FDE43CFC2275F008758200EF2FFF88
:10079000EE33FECD33CDCC33CCC58233C5829BED59
:1007A0009AEC99E58298400CF582EE9BFEED9AFD5D
:1007B000EC99FC0FD5F0D6E4CEFBE4CDFAE4CCF90D
:1007C000A88222B800C1B90059BA002DEC8BF08480
:1007D000CFCECDFCE5F0CBF97818EF2FFFEE33FE4E
:1007E000ED33FDEC33FCEB33FB10D703994004EB06
:1007F00099FB0FD8E5E4F9FA227818EF2FFFEE33D2
:10080000FEED33FDEC33FCC933C910D7059BE99AE3
:100810004007EC9BFCE99AF90FD8E0E4C9FAE4CC74
:10082000FB2275F010EF2FFFEE33FEED33FDCC33DE
:10083000CCC833C810D7079BEC9AE899400AED9BC7
:10084000FDEC9AFCE899F80FD5F0DAE4CDFBE4CCA6
:10085000FAE4C8F922EB9FF5F0EA9E42F0E99D42E6
:10086000F0EC6480C864809845F022EB9FF5F0EAD4
:100870009E42F0E99D42F0E89C45F022E8600FECD2
:10088000C313FCED13FDEE13FEEF13FFD8F122E0CE
:10089000FCA3E0FDA3E0FEA3E0FF22E0F8A3E0F963
:1008A000A3E0FAA3E0FB22ECF0A3EDF0A3EEF0A3AB
:1008B000EFF022A8828583F0D083D0821210AA1292
:1008C00010AA1210AA1210AAE473E493A3C583C558
:1008D000F0C583C8C582C8F0A3C583C5F0C583C869
:1008E000C582C822A42582F582E5F03583F58322EE
:1008F000E0FBA3E0FAA3E0F922EBF0A3EAF0A3E91E
:10090000F022EC8EF0A4CCC5F0CCCDF8EFA4CEC58F
:10091000F02DFDE43CFCE8A42EC8C5F03DFDE43C10
:10092000FCEFA4FFE5F028FEE43DFDE43CFC22EFF3
:100930004E6012EF60010EEDBB010B89828A83F0DD
:10094000A3DFFCDEFA2289F05007F709DFFCA9F0EB
:1009500022BBFEFCF309DFFCA9F022208A0302156A
:100960002B900173E0600302152B9001E1E070020F
:10097000A3E0600302152B9001DFE07002A3E060AA
:100980000302152B900160E07002A3E060030215E2
:100990002B122EC5600302152B90013CE0FF600373
:1009A00002152BEF7038900117122E659001051279
:1009B0002E62D39FE5F09E400302152B7E007F0A36
:1009C0007D007B017A01793D12110FE490016CF0FA
:1009D000A3F09001E7F0A3F09001E5F0A3F0E4F5B7
:1009E000B2900170E0FFA3E0900218CFF0A3EFF007
:1009F000C20B300403021500758D20438D20758DC8
:100A00008043A808D2AF758B02758EC820042B12C4
:100A10002EC57026200923E5DB5404701D758AA4B9
:100A2000200913E5DB5404700DF58675870300007B
:100A3000007586018006D20B8002D20B758B017582
:100A40008A3053A8F7D39001E0E094909001DFE062
:100A50009401400A74FE75F070120E658007E490F0
:100A600001DFF0A3F0D39001ECE094909001EBE073
:100A70009401400A74FE75F070120E658007E490D0
:100A800001EBF0A3F0E490021CF0A3F0121AE69040
:100A90000158EEF0A3EFF090015CEEF0A3EFF0C38D
:100AA000900219E09FFF900218E09EFE1239139009
:100AB000021AEEF0A3EFF0D39414EE94005025A3A5
:100AC000E475F001120E65D390021DE094059002CA
:100AD0001CE094004002D20BD390021BE0940F1252
:100AE0002E8B50A8122E8440030214F0300B030208
:100AF00014F0900152E0FEA3E0FF90015CE0FCA343
:100B0000E0FD9FEC9E402BED9FFFEC122E757FB811
:100B10007E88122E9240091210930000EA60804FE6
:100B200012106FEF24A8FFEE3461FEE43DFDE43CBB
:100B3000803990015CE0FEA3E0FFC3900153E09F89
:100B4000FF900152E0122E757FA87E61122E924016
:100B50000912109300000000801512107BC374A8C6
:100B60009BFF74619AFEE499FDE498FC122E7E903E
:100B700001B912106F9001B7EEF0A3EFF0900218D8
:100B8000E0FEA3E0FF7C007D091210E2ECF8EDF935
:100B9000EEFAEFFB90015CE0FEA3E0FFE4FCFD1247
:100BA0000EFD7B0A122E5B900218EEF0A3EFF09080
:100BB000013CE0704A900108122E65FFAEF0122E43
:100BC0003C900100EEF0A3EFF0900108122E65FFBB
:100BD000AEF07C007D031210E2900100122E4690D0
:100BE0000108122E6C900100E0FEA3E0FF122E6BB4
:100BF000900105122ECC90010E122ECC0214F09012
:100C00000100E0FEA3E0FF122E3C900100EEF0A3F5
:100C1000EFF0122E6B900108122E65FFD39001B8F1
:100C2000E09F9001B7E095F05003021500120E7B93
:100C3000900102122E62122EBDC3EF9513EE951293
:100C40005003021500900105122E65FFAEF07C00E6
:100C50007D021210E2ECC0E0EDC0E0EEC0E0EFC0BB
:100C6000E0900108122E65FFAEF0900102122E6591
:100C7000122EBDE4FCFDD0E0FBD0E0FAD0E0F9D0CC
:100C8000E0F8120EFDE47B03122E5C900105122E9B
:100C90006C900105122E65D39430E5F094754008F0
:100CA000747575F030120EDE900173E06062900191
:100CB00077E0FEA3E0FFD39400EE94004052900151
:100CC00005122E65122EBD1239139001BDEEF0A350
:100CD000EFF0900105122E65C3122EA35012122EB2
:100CE000B0400D9001081210D0E475F007120EA666
:100CF000900105122E65D3122EA34014D3122EB0EC
:100D0000400E9001081210D074FF75F0F9120EA673
:100D1000200B0D122E845008122EC570030211D222
:100D2000900172E004F090017B121093000000002B
:100D3000E490017FF0A3F0A3F0A3F09001F912106A
:100D400093000000001238AE1237CA22122AE14086
:100D50000302180E900108122AB4FDE5F0FC122AD5
:100D6000B1FFAEF0D39DEE9C402E122B57D3EF94E3
:100D700030EE9475400C9001B77475F0A37430F0A8
:100D80008010120E7BC39DFEE5F09C9001B7F0A38E
:100D9000CEF0E49001A78060120E7BFFAEF0C3EDB1
:100DA0009FFBEC9EFAD3EB9410EA9427400C900141
:100DB000B77427F0A37410F08009C3ED9FFFEC9E79
:100DC000122B149001B7E0FFA3E09001A7CFF0A38E
:100DD000EFF0300018D3E0942C9001A7E09401408C
:100DE000139001A97427F0A37410F08007E4900118
:100DF000A9F0A3F0E49001B7F0A3F090013CE0600B
:100E00004A122ABAD39400EE648094804014D3EF3F
:100E10009509EE9508400B9001E5E4F0A37464F0A9
:100E2000801BD39001E6E094009001E5E09400403F
:100E30000C900105122AB4FFE5F0122B14D2089091
:100E400001EB740FF0A374A0F0800F9001E974031C
:100E5000F0A374E8F0E4FF123726D39001B8E094D1
:100E6000009001B7E06480948050030217E3E0FE35
:100E7000A3E0FF900105122AA8122ABAEE3395E0EA
:100E8000FDFCE47BB87A88F9F8C3121035500A905B
:100E900001B77488F0A374B8F0D39001E8E094002F
:100EA0009001E7E0940050089000F1E06420701B8E
:100EB000122ABAC39509EE95085010EF9400EE641B
:100EC00080948040357C007D0A802930002C900180
:100ED0003CE07011122ABAC39513EE9512501B7C98
:100EE000027DBC800F122ABAC39509EE9508500AFC
:100EF0007C027DBC120E2F122B1390013CE070037C
:100F00000217689001E9E07002A3E070149001B745
:100F1000E0FEA3E0FDEEFCE4FF12180F122B13809D
:100F200035122ABAC3900135E09FFF900134E09E4C
:100F3000FE123913D3EF9428EE648094804017D3C7
:100F40009001EAE094C89001E9E09400400874FF41
:100F500075F09C120E65900134E0FEA3E0FF7C006A
:100F60007D071210E2ECF8EDF9EEFAEFFB122ABA67
:100F7000EE3395E0FDFC120EFDE47B08FAF9F81261
:100F80000FA3900134EE800B9001B7E0FFA3E09037
:100F90000134CFF0A3EFF0900134E0FEA3E0FFD3E3
:100FA0009405EE9400400EEF9410EE9400500690DD
:100FB00001B7EE8016900130E0FEA3E0FF9001350E
:100FC000E02FFF900134E03E9001B7F0A3EFF0D3A3
:100FD0009001B8E094309001B7E0648094F5400748
:100FE0007475F0A37430F0E5DB54047041122ABA32
:100FF00090010E122AA89001B8E024A8FF9001B732
:10100000E08022E5DB54047025122AD5900130E0FF
:10101000FEA3E0FF90010E122AA890010E122AB43E
:1010200024A8FFE5F03461FE90010B122AA822905B
:1010300001B9EFF0A3ECF0A3EDF0EF122C9DE0FE70
:10104000A3E0C39DFFEE9CFE123913D3EF9428EE6C
:1010500064809480401C122C6D12109300000000DC
:10106000122C39E4F0122CB7122C99EEF0A3EFF009
:10107000803B122C28122CCD40339001BAE0FCA307
:10108000E0FDD3EF9DEE9C400B9001B9E0122C6087
:10109000E04401F09001B9E0FF122C2CE0FAA3E04B
:1010A000C39DEA9C5007122C5FE04402F09001B906
:1010B000E0122C72C083C08212107B122CB7E4FCA9
:1010C000FD120EFDD082D0831210879001B9E0FF8F
:1010D000122CC0E475F001120E65EF75F007A42420
:1010E0002EF582E43439F583E493FE740193FF9086
:1010F00001B9E0FDC454F02410F582E43402F58314
:10110000E0FAA3E0C39FEA9E5003021A7BED122C83
:10111000C0E0FEA3E0FFFBEEFAE4F9F89001B9E0CD
:10112000122C7212106F120FA39001BC12108712B2
:101130002C22E0FCA3E0C39FFFEC9EFE123913902B
:1011400001C0EEF0A3EFF09001B9E0FD75F007A447
:101150002429F582E43439F583C37401939FE49321
:101160009E401FED122C2CE0FEA3E04E6014900177
:10117000B9E0FB122CAAE0FEA3E0C394B8EE940BF6
:10118000501E9001B9E0FF122C2CE0FCA3E04C7043
:1011900008EF122CAAE4F0A3F0122C22EE021A227D
:1011A000EB6003021A289001C2F09001C0E0FEA398
:1011B000E0FFD39450EE94004006A37408F0803210
:1011C0009001B9E0122C60E064036026D3EF943CF8
:1011D000EE940040089001C27404F08015D3900191
:1011E000C1E094289001C0E0940040069001C274D0
:1011F00002F0122C28E0FEA3E0FFE4FCFD122CD943
:10120000D312104B40119001C2E0FF122C28E48F42
:10121000F0120E65021A5ED39001C1E09450900165
:10122000C0E094004058122C28C083C082E0FEA386
:10123000E0FF9001C2E0FDC3EF9DFFEE9400D0827D
:10124000D083F0A3EFF08036122C28E0FEA3E0FF5D
:101250004E700D122CD9EBFFEAFEE9FDE8FC80167A
:101260007C007D071210E2122CD9120EFDE47B08DF
:10127000FAF9F8120FA3122C28EEF0A3EFF0122CBB
:101280006D12109300000000122C39E4F09001BCA4
:1012900012106F122C99EEF0A3EFF0122C28122CE2
:1012A000CD405F9001BBE09FFF9001BAE09EFE122F
:1012B00039139001B9E075F007A4242BF582E434CA
:1012C00039F583D37401939FE4939E400F9001B945
:1012D000E0FF122C2C122C7FE4F080269001B9E064
:1012E000FF75F007A4242DF582E43439F583E493E7
:1012F000FE122C8BE0C39E5009122C28122C7FE08A
:1013000004F0122CB7229001C51210930000271090
:10131000E4FF12345CE49001C2F01232179001C273
:10132000E0C39F4003021C0AE4FF123891758A5003
:10133000902E207401F0902E20E030E2F99001F21E
:10134000E09008119375F002902E001210C4E0FF97
:10135000A3E09001C3CFF0A3EFF0902E20E4F0754E
:101360008A30FF1238F690018B12322790018D12CD
:1013700031F79001F2E06401700C90018F12322776
:101380009001911231F79001C3E0FFA3E09001AD0D
:10139000CFF0A3EFF0900154E0FEA3E0FF4E700EFB
:1013A0009001ADE0FCA3E0FDECFEEDFF801AEF251F
:1013B000E0FFEE33FE9001AEE02FFF9001ADE03E86
:1013C000FE7C007D03120DDA900154EEF0FAA3EFDB
:1013D000F0FBA3E0FEA3E0FFE4FCFD9001CA1210C5
:1013E00087EBFFEAFEE4FCFD9001CE121087E4FFDC
:1013F0001221F0900156EEF0A3EFF09001F2E09090
:1014000001C5700B12320C2400FFEE34E880091283
:10141000320C2400FFEE34E0FE3395E0FDFC123286
:101420004B9001C2E004F0021AFA902E23E4F090EF
:1014300001C512107BE8C0E0E9C0E0EAC0E0EBC003
:10144000E0123217FBE4FAF9F8123245123625D0D1
:10145000E0FBD0E0FAD0E0F9D0E0F812324BE47FC4
:10146000507EC3FDFC9001C512107BD31210354095
:101470000A9001C51210930000C350123245EC339C
:10148000500A9001C51210930000000090015AE02C
:10149000FAA3E0FB4A700512324580227E007F02EB
:1014A000EBFDEAFC1210E2ECF8EDF9EEFAEFFB12BC
:1014B0003245120EFDE47B03FAF9F8120FA39001F6
:1014C0005AEEF0A3EFF0900152E07002A3E0700F2B
:1014D00090015AE0FFA3E0900152CFF0A3EFF0900B
:1014E000012612320CFFE4FCFD120EFD90012612C3
:1014F000108790012AE475F001120E6590012AE030
:10150000FEA3E0FFD3940AEE94004029EFFBEEFA2D
:10151000E4F9F890012612106F120FA3900124EE47
:10152000F0A3EFF0E490012AF0A3F090012612104E
:10153000930000000090012CE07002A3E0703A904C
:101540000124E0FEA3E0FFC3900157E09FFF90015C
:1015500056E09EFE123913900122EEF0A3EFF0D375
:101560009406EE9400401290012C7403F0A374E8EA
:10157000F0A3E475F001120E6590015AE0FEA3E0BD
:10158000FF22758D20438D20538D7FE4F5B275B613
:10159000FF75B7FF75B2A243B20153A8FB538B7F0F
:1015A000758B10438B08E58B20E7030080F8538B85
:1015B0007F758B11438B08E58B20E7030080F89043
:1015C0000221E5B5F0A3E5B4F0758B01E4F5B212A4
:1015D00038AEE4F58D90011DE0FEA3E0FF4E7010E3
:1015E000123833FD90011DE5F0F0A3EDF0021E422C
:1015F000123833FDC3EF9DFFEE95F0FE123913D381
:10160000EF940AEE648094804024123833FFC39034
:10161000011EE09F90011DE095F05006E475F00179
:10162000800790011D74FFF5F0120E6580341238AA
:1016300024ECC0E0EDC0E0EEC0E0EFC0E0123833D3
:10164000FFAEF0E4FCFDD0E0FBD0E0FAD0E0F9D052
:10165000E0F8120EFD7B0412383E90011DEEF0A35F
:10166000EFF09001F2E06401706A7D6B123826128F
:10167000383C90018BEEF0A3EFF0123824E47B0AA3
:1016800012383F90018FEEF0A3EFF0A3E0FAA3E051
:10169000FB4A700F90018F123845E490019FF0A330
:1016A000F0804B90013CE0601890019FE0FEA3E0C9
:1016B000FF900190E02FFF90018FE03E900191801C
:1016C0002990018FE0FEA3E0FFC3EB9FFFEA9E900D
:1016D000019F801690011DE0FEA3E0FF7C007D17B6
:1016E0001210E212383C90018BEEF0A3EFF0900163
:1016F0008DE07002A3E0700690018B1238459001D6
:1017000093E07002A3E0700F90011DE0FFA3E09052
:101710000193CFF0A3EFF022D39001E0E09F90017E
:10172000DFE09E400AA3E09FF09001DFE09EF09092
:1017300001E41234BA9001E3E09C400CA3E09FF076
:101740009001E3E09EF08002D28AD39001E2E09F14
:101750009001E1E09E400AA3E09FF09001E1E09E4D
:10176000F01234CC5003123504D39001E6E09F9080
:1017700001E5E09E400AA3E09FF09001E5E09EF0C5
:10178000D39001E8E09F9001E7E09E400AA3E09F2C
:10179000F09001E7E09EF0D39001EEE09F9001ED24
:1017A000E09E400AA3E09FF09001EDE09EF0D39010
:1017B00001EAE09F9001E9E09E400AA3E09FF090DB
:1017C00001E9E09EF0D39001ECE09F9001EBE09EF8
:1017D000400AA3E09FF09001EBE09EF0D39001AAB5
:1017E000E09F9001A9E09E400AA3E09FF09001A92C
:1017F000E09EF0D39001F0E09F9001EFE09E400A60
:10180000A3E09FF09001EFE09EF01234DA50031253
:101810003504D3900184E09F900183E09E400AA3A9
:10182000E09FF0900183E09EF09001861234BA9020
:101830000185E09C400AA3E09FF0900185E09EF0C6
:10184000EF2401FDE43EFCD3900161E09D90016036
:10185000E09C400AA3E09FF0900160E09EF0D390EE
:1018600001ACE09F9001ABE09E400AA3E09FF090A6
:1018700001ABE09EF01234E850031235041234F646
:101880005003123504D390012DE09F90012CE09E6F
:10189000400AA3E09FF090012CE09EF022C0E0C03F
:1018A000F0C083C082C0D0E8C0E0D2AFD39001E0E6
:1018B000E094009001DFE0940040031234B3D39031
:1018C00001E4E094019001E3E0940040051234B398
:1018D0008002D28AD39001E2E094009001E1E0948A
:1018E0000040031234B31234CC50031234C5D390E9
:1018F00001E6E094009001E5E0940040031234B367
:10190000D39001E8E094009001E7E09400400312D6
:1019100034B3D39001EEE094009001EDE0940040E8
:10192000031234B3D39001EAE094009001E9E0940B
:101930000040031234B3D39001ECE094009001EB2B
:10194000E0940040031234B3D39001AAE0940090D5
:1019500001A9E0940040031234B3D39001F0E09465
:10196000009001EFE0940040031234B31234DA50D7
:10197000031234C5D3900184E09400900183E09475
:101980000040031234B3D3900186E09401900185A6
:10199000E0940040031234B3D390019AE094009095
:1019A0000199E0940040031234B3D390019CE09479
:1019B0000090019BE0940040031234B3D390016186
:1019C000E09401900160E0940040031234B3D3909E
:1019D00001ACE094009001ABE0940040031234B3FA
:1019E0001234E850031234C51234F650031234C5D1
:1019F000D390012DE0940090012CE094004003125C
:101A000034B3D0E0F8D0D0D082D083D0F0D0E03260
:101A10009001C9EFF0122A18E070279001C9E01276
:101A20002A4F12106FE4FBFAF9F8C312104B601240
:101A30009001C9E0122A6D12106FE4F8C312104B26
:101A40007057122A819001CA12232CEEF0A3EFF0F6
:101A5000ED122A18E06029ED75F00AA42425F5821C
:101A6000E43439F583C083C0829001F2E0D082D0A3
:101A700083122A26400A9001C9E0122A187405F040
:101A80001229CDE0D39400748094804006122A1766
:101A9000E014F09001CE022328122A4A12106F900F
:101AA00001D2121087122A6C12106F9001D61210F8
:101AB000879001C9E0122A5E12106FEFF9122A8A8C
:101AC000E9F812105CEFFBEEFAEDF9ECF8122A8A55
:101AD000120F0A9001DA1210879001D212106F9043
:101AE00001CE12107B120EFD9001DA12107B120E45
:101AF000FD122A7B122A4A122A87122A6C122A877E
:101B0000122A9012107B120FA3122A7B9001D61278
:101B1000232CEEF0A3EFF0ED75F00AA42421F5825A
:101B2000E43439F583C083C0829001F2E0D082D0E2
:101B300083122A26400F1229CD7405F0122A8190B3
:101B400001D61210879001D612106F22EFFBEEFA29
:101B500012106FC3EF9BFFEE9AFE1239139001C96A
:101B6000E0FD75F013A424FEF582E43401F5832230
:101B700090016C122B5E9404EE94005022122B27DD
:101B8000EF25E0FFEE33FE74642FF58274013EF51D
:101B900083ECF0A3EDF090016C122B3B02241E901D
:101BA00001C47401F09001C4E0FFC39404748094F4
:101BB000805021EF122B06FCA3E0FDEF25E024620C
:101BC000F582E43401F583ECF0A3EDF09001C4E07C
:101BD00004F080D190013CE060028053122AB1FFF2
:101BE000122B27C3EF9DFFE5F09CFE123913C3EFC4
:101BF0009428EE648094805036900108122AB4FF35
:101C0000C3900101E09FFF900100E095F0FE1239C2
:101C100013C3EF9414EE6480948050059001088003
:101C200003900102122AB4FF90016AE5F0800B9044
:101C30000100E0FFA3E090016ACFF0A3EFF0900174
:101C4000C012109300000000E49001C4F09001C4A1
:101C5000E0FFD390016DE09F90016CE0940040257F
:101C60009001C012107B9001C4E0122B06FEA3E08D
:101C7000FFE4FCFD120EFD9001C01210879001C41C
:101C8000E004F080C89001C012106FECC0E0EDC01D
:101C9000E0EEC0E0EFC0E090016C122B42D0E0FF1C
:101CA000D0E0FED0E0FDD0E0FC120FA39001C01206
:101CB00010879001C002106F9001B77402F0A374F6
:101CC000BCF0D39001ACE094009001ABE0940040F4
:101CD00011122AB1FF9001081210D0E5F08FF01216
:101CE0000EDE9001DFE07002A3E0600B9001B7E42C
:101CF000F0A37464F0800B90001AE0641170037418
:101D000020F090013CE06006122AEF02110F9001D2
:101D10003D12107BE8C0E0E9C0E0EAC0E0EBC0E0C3
:101D2000122AB1FFAEF0E4FCFDD0E0FBD0E0FAD027
:101D3000E0F9D0E0F8120EFD90013D1210879001FD
:101D400041122B3B9001B7122B5E900146E09F9011
:101D50000145E09E50030225D390013D12106FEC27
:101D6000C0E0EDC0E0EEC0E0EFC0E0900141122B1A
:101D700042D0E0FFD0E0FED0E0FDD0E0FC120FA3A7
:101D800090013D121087900108122AB42432FFE41A
:101D900035F0FEE4FCFD90013D12107BD312104B98
:101DA000402E9001DFE07002A3E070242008219013
:101DB0000143122B3CD3900144E09405900143E091
:101DC00094004018122A9FE4900143F0A3F0800C85
:101DD000122A9FE4900143F0A3F0C20890013D1243
:101DE000109300000000E4900141F0A3F090014541
:101DF000F0A3F0229001BCEFF0902E22E0FF9001C2
:101E0000C0E4F0A3EFF0758A50902E227401F01216
:101E100035BD7404F0A3E4F09001BDF09001BDE085
:101E2000FFC3940D7480948040030226E8EFF87E8F
:101E300002E4088006CEA2E713CE13D8F8FF900183
:101E4000BEEEF0A3EFF04E70079001BEF0A304F0D9
:101E5000902E207401F0902E20E030E2F99001BC29
:101E6000E0FF902E001235C4E0FCA3E0D394FEEC1A
:101E7000940740401235D6E0FEA3E0FF9001BEE09B
:101E8000FCA3E0FDEF2DFFEE3CFEC3EF94FFEE94CC
:101E9000079001BCE075F002902E10500B1210C498
:101EA000EC8DF0120E6580501210C47407F0A3740C
:101EB000FFF080449001BCE0FF1235C1E0FCA3E0DC
:101EC000FD9001BEE0FAA3E0FBD3ED9BEC9A40212C
:101ED0001235D6C083C082C3A3E09BFF0582D582A2
:101EE0000215831582E09AD082D083F0A3EFF080B0
:101EF000071235BDE4F0A3F0902E20E4F0F58D90AC
:101F000001BDE004F00225FC9001C0A3E0902E2268
:101F1000F0758A30227FFF7A0079001236127FB77F
:101F20007A0179001236127E007F147D007B017ADF
:101F30000179DE12110F902DE0E493900001F090F2
:101F400000047411F0A37422F0A37433F0902DE216
:101F5000E493900012F0902DE3E493900014F0903D
:101F600000FB7401F09000367410F09000F1F090D6
:101F70000024F0A37420F07B017A007940900102E4
:101F80001210D97A0079449001081210D97A007998
:101F9000429001051210D97A00792E90010B12108F
:101FA000D97A00792A90010E1210D97A00792890F6
:101FB00001111210D97A00796090011F1210D97A9C
:101FC0000079809001A11210D97A00791890013916
:101FD0001210D97A00791B9001361210D97A007943
:101FE000329001141210D97A00792690011712103C
:101FF000D97A00793490011A1210D990011412354F
:10200000E01235FF9001DF7407F0A374D0F0E49084
:1020100001DEF0227FC87E007D967C00122AE1401E
:10202000030228E53000209001A9E07002A3E060DF
:102030000875121375138880067512057513DC7503
:1020400008037509E880499001F2E0F9640170061F
:10205000FE7FFAFC7DC89001B3E0FAA3E0FB2FF508
:1020600013EA3EF512CEECCEEDFFEB2FF509EA3E7A
:10207000F508E964017019A3E0FEA3E0FF2513F55C
:1020800013EE3512F512EF2509F509EE3508F508BE
:10209000900105122AB4FFAEF0C39513EE951250CD
:1020A0000F90013CE0601AC3EF9509EE95084011CE
:1020B0009001E7E07002A3E0702990013C04F080F9
:1020C000229000F1E064209001E77005F0A3F08019
:1020D000077401F0A374F4F0E490013CF09001E582
:1020E000122B4D90013CE0FF6016900024E064103C
:1020F00090003670057410F080037420F0122B30BD
:1021000090004BEFF022E4F526F525F524F523F5B4
:1021100026F525F524F523F522122AFC502AE5227E
:1021200025E0240AF8E6FE08E6FFE4FCFDE5262F9C
:10213000FFE5253EFEED3524FDEC35238F268E256B
:102140008D24F523052280D1E47B03FAF9F8AF262C
:10215000AE25AD24AC23120FA3900170EEF0A3EFD7
:10216000F0E47526A8752561F524F523F522122AD9
:10217000FC5055900170122AC3C3122B5712391309
:10218000D3EF940AEE648094804012900170E0FED8
:10219000A3E0FF900152E0FCA3E0FD800790015214
:1021A000122AC3C3122B573395E0FDFCE5262FFFFF
:1021B000E5253EFEE5243DFDE5233C8F268E258D5D
:1021C00024F523052202294EE47F607EEAFDFCAB64
:1021D00026AA25A924A823D312104B400BE4752668
:1021E000607525EAF524F523AE25AF26229001CEB1
:1021F00012106F9001C9E0FB75F013A424F9F58269
:10220000E43401F583121087EB75F013A42404F570
:1022100082E43402F58312106F9001CE12107B120B
:102220000F189001C9E0FB75F013A424F5F582E4C2
:102230003401F583121087EB75F013A424FDF582A9
:10224000E43401F5832275F0021210C4E493FE74A5
:102250000193FFED75F013A424FEF582E43401F53B
:1022600083E0FCA3E0D39FEC9E229001C9E0FB75C4
:10227000F013A424F9F582E43401F58322EB75F020
:1022800013A42400F582E43402F58322EB75F013E5
:10229000A424F5F582E43401F583229001D61210CE
:1022A000879001CE02106F1210879001D602106F36
:1022B000EB75F013A42404F582E43402F583229034
:1022C000013D12106F9001081210D0EE8FF0020E37
:1022D000DE9001021210D0020E7B9001B7E0FEA347
:1022E000E0FF22E52225E0240AF8E6FE08E6FFE00A
:1022F000FCA3E0FD229001051210D0E4F5F0020EDF
:10230000DED39001E0E094009001DFE09400227EB3
:10231000007F0A7D007B017A01793D22C3E522948A
:1023200003748094802225E02464F582E43401F56E
:1023300083E022EE9001B7F0A3EFF0221210D074E8
:102340006175F0A8020EDE900100E0FCA3E0FD2222
:102350009001E17403F0A37420F022E475F001020F
:102360000E65E0FEA3E0FBEEFAE4F9F822F0A3F03C
:102370009000367410F022EF9DFFEE9CFE22E0FEEE
:10238000A3E0FFC322C0E0C083C082C0D075D018D4
:10239000D2AFE5DB30E422D209C206E5DB30E1143E
:1023A000123905E0F5DFEF64077065D28A90000707
:1023B000F0022C13C205022C16E5DB30E52C900050
:1023C000F0E064AA7017758A10F5DAC2AFF5B2F5BD
:1023D000A8F5A9F58B758E01758DC080FED20430ED
:1023E0000604C2068050C209804CC206E5DB30E11B
:1023F00021E5DB30E040123905E0F5DFEF24F9603C
:102400000824EE700BD20A8007D28A900007E4F00D
:10241000802120050A7814A6DFD205D20680171283
:102420003905E5DFF0EF642470099001E104F0A3C1
:1024300074F4F078140675DBFFD0D0D082D083D04E
:10244000E0329001BC12106F9001B9E0C454F02446
:102450000EF582E43402F58322EBC454F0240CF52B
:1024600082E43402F583E4F0A3F09001B9E0FFC404
:1024700054F02410F582E43402F583E4F0A3F0EF85
:10248000C454F02415F582E43402F583229001B996
:10249000E0FBC454F02408F582E43402F58322E022
:1024A000FDA3E09001BACDF0A3EDF0EFC454F02409
:1024B00014F582E43402F583229001B9E0C454F0AB
:1024C0002412F582E43402F58322C454F02416F574
:1024D00082E43402F583229001BAE0FEA3E0FF22F9
:1024E000C454F0240CF582E43402F58322E0FEA308
:1024F000E0FFD39400EE9400229001BC02107B1206
:1025000032C7123873E490016CF0A3F090015AF0D6
:10251000A3F0900158F0A3F090015CF0A3F07F03CA
:10252000122FEC900100E0FEA3E0FFA3122AA89076
:102530000100E0FEA3E0FF122AA5122AD590010BAC
:10254000122B1C900111122B1C90010E122AD8E4A0
:1025500090013CF0FE7F2EFD7B017A017973121110
:102560000F122AEF12110FE49001EDF0A3F0900189
:10257000EB122B4DE490004BF0122B309001F1E068
:10258000700FC39001E0E094F49001DFE0940150FB
:102590000A9001DF7401F0A374F4F0229001B77483
:1025A00008F0A3E4F0A3743FF0A374DFF0E4FDFCB3
:1025B000F9758A10538AEF009001B7E0FEA3E02D71
:1025C000F582EE3CF583E493FF69F90DBD00010C43
:1025D000BC37E5BDDFE29001B9E0FEA3E0F5828EF5
:1025E00083E493FFE96F70089000017405F08005A3
:1025F000E4900001F0758A30538AEF0022D2AF32A6
:102600000500ABC674AA7583F5758255A57455751A
:1026100083FA7582AAA574A57583F5758255A522DE
:102620000203040AB0B00BB6B60CFFFF09020208A1
:10263000FFFF0D77770E04041307071410101080A6
:10264000801500001600000192920721210F04045A
:1026500004010111171012080A0302027C007D0315
:102660001210E29001B7ECF8EDF9EEFAEFFBE0FEA4
:10267000A3E0FFE4FCFD120EFD7B04E4FAF9F8028E
:102680000FA3FFAEF01210D0020E7BA31210D0EEFB
:102690008FF0020EDE9EFE7C007D031210E29001A0
:1026A000B9021087C390021BE0941490021AE094C0
:1026B0000022E4FDFC9001B912107BD312104B9064
:1026C00001B922FF900178E09F900177E095F02218
:1026D0009001BEE0940A9001BDE0940022C39FFFE8
:1026E000E5F09EFE229000F1E06420221210D0E47A
:1026F000F5F0020EDE787FE4F6D8FD758126022F14
:102700001F02000002306CE493A3F8E493A340039B
:10271000F68001F208DFF48029E493A3F85407243B
:102720000CC8C333C4540F4420C8834004F45680FB
:102730000146F6DFE4800B0102040810204080907F
:102740003795E47E019360BCA3FF543F30E5095404
:102750001FFEE493A360010ECF54C025E060A840A3
:10276000B8E493A3FAE493A3F8E493A3C8C582C89A
:10277000CAC583CAF0A3C8C582C8CAC583CADFE96F
:10278000DEE780BE9001361210D0120E7B64104539
:10279000F0700312350A900001E064AA7003122D54
:1027A0007C900013E0FF7E0064107002D203EF649F
:1027B000204E7002C20312325420070890001AE023
:1027C0006410700B90001A7411F0C2071208039085
:1027D00000FBE06006E4F09001DEF0900160E07044
:1027E00004A3E064017015900160F0A3F09001ABC8
:1027F0007407F0A374D0F0E49001DEF030040CC252
:10280000049001E17401F0A374F4F0229001C0EF90
:10281000F0E4A3F09001C0E0FFA3E0C39F502E12AC
:102820001AE61238E590015CEEF0A3EFF08E10F599
:1028300011C8740AC87400FCE4FDFB7A00790CFE30
:102840007F06120DA29001C1E004F080C71228E6B5
:10285000900100EEF0A3EFF090015A122B5E900170
:1028600033E09FFF900132E09EFE1239137C007D21
:1028700005120E2F900130ECF0A3EDF090015AE01C
:10288000FFA3E0900132CFF0A3EFF02253A87F1214
:1028900038CA1226F51236AC12081643A880E4F5A1
:1028A0008D9000F17420F0122F649001DEE014602E
:1028B0001814601A14602D14603F240470E012375D
:1028C000F812316412080380D5122CDF80231238ED
:1028D000501230E9900025E0641070C29001DE745F
:1028E00004F080BA12113B9001E17403F0A374204C
:1028F000F09001DE7402F080A5123553900025E0BF
:102900006410609A1208038095308A779001DFE0A6
:102910007002A3E0706D900160E07002A3E070634C
:10292000F5B2758D20438D20758D8043A808D2AFF8
:10293000F58B90012CE0FEA3E0FF4E6005758E50F4
:102940008003758EFE20042F20092CE5DB540470D3
:1029500026758AA4200920E5DB5404701AF58675D3
:102960008703000000758601EF4E60047F28800217
:102970007F7F7E00121EF8758B01758A3053A8F791
:102980001238AE22E49001B7F0A3F09001F2E0908B
:1029900001477407F0A304F01236697E007F027DC0
:1029A000007B017A01795212110FE4FF1236EC120A
:1029B00035CA9001B7CFF0A3EFF09001B7E0FEA3C6
:1029C000E0FFC39405EE94004009D3EF94F0EE9439
:1029D00007400BE4900147F0A3F0FF1236EC902E75
:1029E00023E4F01235CA9001B7CFF0A3EFF09000C6
:1029F0001D7410F09001B712359B020EDE9001F2AB
:102A0000E02411F582E43408F583E5822FF582E4B1
:102A10003583F583E493223EFEE0FCA3E0FDC3EFA3
:102A20009DFFEE9C9001C3F0A3EFF02212107B906B
:102A30000156E0FEA3E0229001F2E02423F582E4B7
:102A40003402F583E0FF22E0FEA3E0FF9001C4E042
:102A50002FFF9001C3E022F583E4932420F582E464
:102A6000342EF583229001C502106F120EFD9001E5
:102A7000C50210879001F3E014601B14603D24022E
:102A8000705430030D9001F37401F0D202D20012A1
:102A9000361BC20180409001EFE07002A3E070029B
:102AA000C2022003319001F37402F0D201C202C2CB
:102AB000009001EFF0A37458F0801B9001EFE070DC
:102AC00002A3E070119001F3200303F0800674016B
:102AD000F012361BC20120010330020A900025E0EB
:102AE00064106002D207227E007F137D007B017A92
:102AF0000179F512110FE4FBEBC39401748094800B
:102B000050519001F2E0FFEB75F00AA4241FF5820A
:102B1000E43439F583E5822FF582E43583F583E4E7
:102B200093FFE4FCFDFE122A5D121087122A5D124B
:102B3000106FEF04F87E007401088005C333CE33B4
:102B4000CED8F9FFEE3395E0FDFC122A90121087E3
:102B50000B80A5229001E3E07004A3E064017011F2
:102B6000900007E06004D28AE4F0E49001E3F0A36F
:102B7000F0900036E0FF9000FFE06F603D9000367F
:102B8000E0FD9000FFF0900007E09001F4F0540F9A
:102B9000F0ED7E0064207005E04420800CEF6410AE
:102BA0004E700B9001F4E04410F0900007F0C28AE0
:102BB0009001E37403F0A374E8F022CFF0EFA3F0E8
:102BC0009001051210D0020E7BC3FF900178E09FA8
:102BD000900177E095F02290011DE0FEA3E0FF2236
:102BE00090011DE0FFA3E0CF900193F0A3EFF0224E
:102BF0009001BCE0941E9001BBE0940022E4F0A39D
:102C0000F0A3F0A32290019B7417F0A37470F0A3BB
:102C100022FF900177E5F0F0A3EFF022E49001B9F4
:102C2000F0A3F0300A55200052C20A1235CA9001B2
:102C3000B9CFF0A3EFF09001B9E0FFA3E09001B7A6
:102C4000CFF0A3EFF0E4FF1236EC1235CA9001B9D1
:102C5000CFF0A3EFF09001B912359B120EDE900178
:102C6000F2E09001B7E0FFA3E0902E12CFF0A3EFC7
:102C7000F09001E17403F0A37420F022E4FEEEC3AF
:102C800094077480948050339001F2E0FDEE75F06B
:102C900003A42428F582E4342EF583E5822DF58201
:102CA000E435831231E8FDEE75F003A42427F582A4
:102CB000E4342E123237EDF00E80C3EF7014900121
:102CC00047E07002A3E0700A9001F2E0902E2174B8
:102CD00012F02274FFF5F0020E65EF2401FDE43ED0
:102CE000FCD3E09D22E475F001020E65C39001461D
:102CF000E094BC900145E0940222C3900182E094EC
:102D000064900181E0940022C3900217E094B8908F
:102D10000216E0940B22C3900211E094F49002108A
:102D2000E0940122EE8FF0020E65E49001B7F0A36B
:102D3000F0758A10538AEF00122DE475EA81E4F5EC
:102D4000F6F5F475F308F5F275EB0700E5EC30E7FE
:102D5000FBAFF3EFFEADF2EDFF9001361210D0EEB7
:102D60008FF0120EDEE4F5EC75EB30758A30538A85
:102D7000EF0022900025E06410703FF5B2758D20C1
:102D8000438D20538D7F53A8F7F58BE5DB540470FA
:102D900013200910F58AF5867587030000007586F3
:102DA00001758A30758B019001F17401F09001E199
:102DB0007403F0A37420F01238AE22E0FEA3E0FF0B
:102DC0007C007D0A120DC8900148E02FFF9001475A
:102DD000E03EFE9001391210D0EE8FF0229001BC3F
:102DE000E0902E1075F0020210C49001F2E0902ED7
:102DF00012E0FFA3E02275F002EF902E100210C443
:102E00001210D075F0C8E4120EDE9001171210D027
:102E1000E475F064120EDE90011A1210D0E42275EF
:102E2000F096120EDE7512007513C875080075094C
:102E300096227E007D007B0102110F9001EF04F0CD
:102E4000A37458F022C2D5E830E70FB2D5E4C39B93
:102E5000FBE49AFAE499F9E498F8EC30E717B2D574
:102E600012365B120FA3E4C39BFBE49AFAE499F9D0
:102E7000E498F88003120FA330D50DE4C39FFFE45C
:102E80009EFEE49DFDE49CFC22E4FFEFC3940D74E0
:102E9000809480502E9001F2E0FEEF75F003A424A0
:102EA00001F582E4342EF583E5822E1231EDFEEF3A
:102EB00075F003A42400F582E4342E123237EEF0CC
:102EC0000F80C8902F56E0902E2BF022E4F5DA7593
:102ED000DA4043DA2030881375D74075D640900128
:102EE000F204F090001574C7F0801175D74275D6C2
:102EF00042E49001F2F090001574C6F05392FE7512
:102F0000DA5843A80275B80275F802229001BBEFA7
:102F1000F01238919001BBE0FF12345C9001BBE0ED
:102F2000FF9001F2E02411F582E43408F583E58294
:102F30002FF582E43583F583E493FF1225D49001C5
:102F4000BBE0FF0238F69001B9EFF07E007F10EE93
:102F5000C0E0EFC0E07D00E075F010A42408F97433
:102F60000235F0FA7B01D0E0FFD0E0FE12110F90A5
:102F700001B9E0122CAA740BF0A374B8F0229001EE
:102F800053E02430FF900152E034F8FEC390015B1F
:102F9000E09F90015AE09E5014900160E07002A3FF
:102FA000E0701190016004F0A374F4F022E4900149
:102FB00060F0A3F022C1094202230204C10A4101C8
:102FC000F4004101F3004101F200C103C101C1005D
:102FD000C102C105011400C104C106C108C10741F5
:102FE00000FF1043021E010221009001BF7401F096
:102FF0009001BFE0C3122AFF50167F01122FEC127E
:103000002350900102122AA89001BFE004F080E052
:10301000E49001E7F0A3F0229001F2E09001147037
:10302000071235E01235FF221210D075F0FA123572
:10303000E675F0C8120EDE7512007513FA750800F9
:103040007509C8227D0390011DE0FEA3E0FF7C000E
:103050000210E290021E1210D0020E7B7B64E4FA92
:10306000F9F8020FA3E0FFA3E0A3CFF0A3EFF02253
:103070007F01122FEC122350900102122AA812088D
:103080002E12152C1227F412249812333412375EA4
:103090000233FC7E007F027D007B017A01795412AD
:1030A000110F7E007F027D007B017A0179560211AB
:1030B0000FEFF87401088002C333D8FC42AB123121
:1030C000DD90080E93F4529152935391DF22E5B2B2
:1030D00054016006E5A85410700F75B29275B67C65
:1030E000E4F5B743B20143A81022758A30538AEF42
:1030F000758601758F05E4F5AB75AC0F75913E755E
:103100009201D28A2290015AE0FEA3E0FF9001587A
:10311000EEF0A3EFF0221231DD90080E93429142BF
:1031200088439120227814E6FF2400F582E43400DD
:10313000F58322EE30E707C3E49FFFE49EFE2203FF
:10314000030019001E00140019009600960701F4F0
:10315000000000000000000000000000000000006F
:10316000000000000000000000000000000000005F
:10317000000000000000000000000000000000004F
:10318000000000000000000000000000000000003F
:1037F0000000000000000000000000000000006F5A
:1038000000000000000000000000000000000000B8
:1038100000000000000000000000000000000000A8
:00000001FF
