:1000000000910000000500001EAC00000000000090
:1000100000000000000000000000000000000000E0
:100020000234EE009600960701F40002342B023EE3
:10003000600000020826D2AF320000020816D2AFDC
:1000400032000002287BD2AF32000002081E208A54
:1000500003020E34900182E06003020E349001EF3F
:10006000E07002A3E06003020E349001EDE0700244
:10007000A3E06003020E3490016FE07002A3E06021
:1000800003020E349000F1E064206003020E34900D
:10009000013FE0FF6003020E34EF704B900117E068
:1000A000FBA3E0FAA3E0F91214FDFFAEF090010506
:1000B000E0FBA3E0FAA3E0F91214FDD39FE5F09E64
:1000C0004003020E347E007F0C7D007B017A0179B3
:1000D00040121740E490017BF0A3F09001F5F0A3EB
:1000E000F09001F3F0A3F0E4F5B290017FE0FFA3FC
:1000F000E0900212CFF0A3EFF0C20B300403020D28
:10010000FF758D20438D20758D8043A808D2AF7573
:100110008B02758EC820042E9000F1E064207026BA
:10012000200923E5DB5404701D758A84200913E53A
:10013000DB5404700DF58675870300000075860199
:100140008006D20B8002D20B758B01758A1053A8E2
:10015000F7D39001EEE094909001EDE09401400E11
:10016000A3E02470F09001EDE034FEF08007E4900D
:1001700001EDF0A3F0D39001FAE094909001F9E042
:100180009401400EA3E02470F09001F9E034FEF0F9
:100190008007E49001F9F0A3F0E4900216F0A3F0D8
:1001A0001222F5900165EEF0A3EFF0900169EEF0F8
:1001B000A3EFF0C3900213E09FFF900212E09EFEB7
:1001C000123E88900214EEF0A3EFF0D39414EE9454
:1001D00000502E900217E004F07006900216E00422
:1001E000F0D3900217E09405900216E094004002CC
:1001F000D20BD3900215E0940F900214E0940050BB
:100200009FC3900215E09414900214E09400400300
:10021000020DE2300B03020DE2900159E0FEA3E073
:10022000FF900169E0FCA3E0FD9FEC9E4053ED9F31
:10023000FFEC9EFE7C007D041217139001AB12169A
:10024000D6E47FB87E88FDFC9001ABE0F8A3E0F92E
:10025000A3E0FAA3E0FBD31216B29001AB400A125E
:1002600016E20000EA60020ACAE0FCA3E0FDA3E097
:10027000FEA3E024A8FFEE3461FEE43DFDE43C80F3
:1002800062900169E0FEA3E0FFC390015AE09FFF86
:10029000900159E09EFE7C007D041217139001AB83
:1002A0001216D6E47FA87E61FDFC9001ABE0F8A3B6
:1002B000E0F9A3E0FAA3E0FBD31216B29001AB4041
:1002C000091216E2000000008020E0F8A3E0F9A384
:1002D000E0FAA3E0FBC374A89BFF74619AFEE49963
:1002E000FDE498FC9001AB1216D69001ABA3A3E0FD
:1002F000FFA3E09001A9CFF0A3EFF0900212E0FE7F
:10030000A3E0FF7C007D09121713ECF8EDF9EEFA7B
:10031000EFFB900169E0FEA3E0FFE4FCFDEB2FFFA3
:10032000EA3EFEED39FDEC38FCE47B0AFAF9F812FE
:10033000160A900212EEF0A3EFF090013FE0600386
:10034000020BF7900108E0FBA3E0FAA3E0F9121416
:10035000FDFFAEF07C007D03121713ECF8EDF9EE13
:10036000FAEFFB9001A9E0FEA3E0FFE4FCFDEB2F18
:10037000FFEA3EFEED39FDEC38FCE47B04FAF9F8C7
:1003800012160A900100EEF0A3EFF0900108E0FBD6
:10039000A3E0FAA3E0F91214FDFFAEF07C007D03A8
:1003A000121713ECF8EDF9EEFAEFFB900100E0FE06
:1003B000A3E0FFE4FCFDEB2FFFEA3EFEED39FDEC90
:1003C00038FCE47B04FAF9F812160A900108E0FB05
:1003D000A3E0FAA3E0F9EE8FF0121560900100E0BF
:1003E000F9A3E0FFA3E0FBA3E0FAA3E0C98FF012BA
:1003F0001560900105E0FBA3E0FAA3E0F9E4F5F055
:1004000012156090010EE0FBA3E0FAA3E0F9E4F519
:10041000F0121560020DE2900100E0FEA3E0FF7C07
:10042000007D03121713ECF8EDF9EEFAEFFB9001E3
:10043000A9E0FEA3E0FFE4FCFDEB2FFFEA3EFEEDAA
:1004400039FDEC38FCE47B04FAF9F812160A900145
:1004500000EEF0A3EFF0A3E0FBA3E0FAA3E0F9EED7
:100460008FF0121560900108E0FBA3E0FAA3E0F919
:100470001214FDFFD39001AAE09F9001A9E095F02E
:100480005003020DFF1214FDFFAEF0900102E0FBDD
:10049000A3E0FAA3E0F91214FDC39FFFE5F09EFE6E
:1004A000C3EF9515EE95145003020DFF900105E082
:1004B000FBA3E0FAA3E0F91214FDFFAEF07C007D8F
:1004C00002121713ECC0E0EDC0E0EEC0E0EFC0E0B8
:1004D000900108E0FBA3E0FAA3E0F91214FDFFAEDF
:1004E000F0900102E0FBA3E0FAA3E0F91214FDC3CF
:1004F0009FFFE5F09EFEE4FCFDD0E0FBD0E0FAD0EB
:10050000E0F9D0E0F8EB2FFFEA3EFEED39FDEC38E4
:10051000FCE47B03FAF9F812160A900105E0FBA34C
:10052000E0FAA3E0F9EE8FF0121560900105E0FB10
:10053000A3E0FAA3E0F91214FDD39430E5F094752A
:100540004008747575F030121560900182E07003F8
:10055000020DE2900186E0FEA3E0FFD39400EE944A
:10056000005003020DE2900105E0FBA3E0FAA3E0D6
:10057000F91214FDC39FFFE5F09EFE123E88900124
:10058000AFEEF0A3EFF0900105E0FBA3E0FAA3E0EB
:10059000F91214FDFFC3900187E09F900186E0955A
:1005A000F050209001B0E0940A9001AFE094004038
:1005B00012900108E0FBA3E0FAA3E0F9E475F0076C
:1005C000121528900105E0FBA3E0FAA3E0F912144C
:1005D000FDFFD3900187E09F900186E095F04022D7
:1005E000D39001B0E0940A9001AFE09400401390E2
:1005F0000108E0FBA3E0FAA3E0F974FF75F0F9123B
:100600001528200B1AC3900215E09414900214E0F0
:100610009400500B9000F1E0642070030208DB901E
:100620000181E004F090018A1216E200000000E46B
:1006300090018EF0A3F0A3F0A3F09001D41216E283
:10064000000000009001E21216E200000000123EDD
:1006500060123C88229001ABEFF0A3ECF0A3EDF028
:10066000EFC454F0240CF582E43402F583E0FEA3D9
:10067000E0C39DFFEE9CFE123E88D3EF9428EE640B
:10068000809480406C9001ABE0FBC454F02402F5F0
:1006900082E43402F5831216E200000000EBC45439
:1006A000F02406F582E43402F583E4F0A3F090012F
:1006B000ABE0FFC454F0240AF582E43402F583E48D
:1006C000F0A3F0EFC454F0240FF582E43402F58374
:1006D000E4F09001ACE0FEA3E0FF9001ABE0C45475
:1006E000F0240CF582E43402F583EEF0A3EFF08001
:1006F0006C9001ABE0C454F02408F582E43402F5B8
:1007000083E0FEA3E0FFD39400EE9400404F9001FD
:10071000ACE0FCA3E0FDD3EF9DEE9C40149001AB58
:10072000E0C454F0240FF582E43402F583E0440180
:10073000F09001ABE0FFC454F02408F582E43402E9
:10074000F583E0FAA3E0C39DEA9C5011EFC454F096
:10075000240FF582E43402F583E04402F09001AB0B
:10076000E0C454F02402F582E43402F583C083C06F
:1007700082E0F8A3E0F9A3E0FAA3E0FB9001ACE08B
:10078000FEA3E0FFE4FCFDEB2FFFEA3EFEED39FDAA
:10079000EC38FCD082D0831216D69001ABE0FFC4B7
:1007A00054F02406F582E43402F583E475F0011276
:1007B00014E7EF75F007A42408F582E43408F58304
:1007C000E493FE740193FF9001ABE0FDC454F02468
:1007D0000AF582E43402F583E0FAA3E0C39FEA9EBF
:1007E0005003021280EDC454F02406F582E4340272
:1007F000F583E0FEA3E0FBEEFAE4F9F89001ABE04C
:10080000C454F02402F582E43402F583E0FCA3E052
:10081000FDA3E0FEA3E0FF12160A9001AE1216D669
:100820009001AEA3A3E0FEA3E0FF9001ABE0C454AF
:10083000F02408F582E43402F583E0FCA3E0C39FD2
:10084000FFEC9EFE123E889001B2EEF0A3EFF09016
:1008500001ABE0FD75F007A42403F582E43408F54C
:1008600083C37401939FE4939E4031EDC454F024FC
:1008700008F582E43402F583E0FEA3E04E601D90AB
:1008800001ABE0FBC454F02410F582E43402F5839C
:10089000E0FEA3E0C394B8EE940B50479001ABE0A8
:1008A000FFC454F02408F582E43402F583E0FCA38D
:1008B000E04C7011EFC454F02410F582E43402F5DA
:1008C00083E4F0A3F09001AEA3A3E0FEA3E0FF90C9
:1008D00001ABE0C454F02408F582E43402F583EE61
:1008E0000211A3EB60030211A99001B4F09001B2D0
:1008F000E0FEA3E0FFD39450EE94004006A37408FA
:10090000F0803B9001ABE0C454F0240FF582E43456
:1009100002F583E064036026D3EF943CEE9400403C
:10092000089001B47404F08015D39001B3E09428CA
:100930009001B2E0940040069001B47402F090017E
:10094000ABE0C454F02408F582E43402F583E0FE01
:10095000A3E0FFE4FCFD9001AEE0F8A3E0F9A3E022
:10096000FAA3E0FBD31216B2401E9001B4E0FF9050
:1009700001ABE0C454F02408F582E43402F583E4CA
:100980008FF01214E7021214D39001B3E094509048
:1009900001B2E0940050030212149001ABE0C45481
:1009A000F02408F582E43402F583C083C082E0FEBF
:1009B000A3E0FF9001B4E0FDC3EF9DFFEE9400D0F3
:1009C00082D083F0A3EFF0806B9001ABE0C454F0D1
:1009D0002408F582E43402F583E0FEA3E0FF4E70C4
:1009E000169001AEE0F8A3E0F9A3E0FAA3E0FFEA75
:1009F000FEE9FDE8FC80287C007D071217139001BA
:100A0000AEE0F8A3E0F9A3E0FAA3E02FFFEA3EFE90
:100A1000E93DFDE83CFCE47B08FAF9F812160A907F
:100A200001ABE0C454F02408F582E43402F583EE0F
:100A3000F0A3EFF09001ABE0FBC454F02402F58288
:100A4000E43402F5831216E200000000EBC454F017
:100A50002406F582E43402F583E4F0A3F09001ABC0
:100A6000E0FFC454F0240AF582E43402F583E4F094
:100A7000A3F0EFC454F0240FF582E43402F583E4CC
:100A8000F09001AEA3A3E0FEA3E0FF9001ABE0C4B1
:100A900054F0240CF582E43402F583EEF0A3EFF079
:100AA0009001ABE0C454F02408F582E43402F583ED
:100AB000E0FEA3E0FFD39400EE9400500302134B3A
:100AC0009001ADE09FFF9001ACE09EFE123E889049
:100AD00001ABE075F007A42405F582E43408F58342
:100AE000D37401939FE4939E402E9001ABE0FFC42A
:100AF00054F02408F582E43402F583E0FDA3E0908D
:100B000001ACCDF0A3EDF0EFC454F0240EF582E477
:100B10003402F583E4F080539001ABE0FF75F007F9
:100B2000A42407F582E43408F583E493FEEFC4546B
:100B3000F0240EF582E43402F583E0C39E502C903D
:100B400001ABE0C454F02408F582E43402F583E0FC
:100B5000FDA3E09001ACCDF0A3EDF0EFC454F02480
:100B60000EF582E43402F583E004F09001ACE0FE7F
:100B7000A3E0FF22E709F608DFFA8046E709F2085A
:100B8000DFFA803E88828C83E709F0A3DFFA8032A7
:100B9000E309F608DFFA8078E309F208DFFA8070EB
:100BA00088828C83E309F0A3DFFA806489828A83D8
:100BB000E0A3F608DFFA805889828A83E0A3F2086E
:100BC000DFFA804C80D280FA80C680D4806980F2BF
:100BD0008033801080A680EA809A80A880DA80E244
:100BE00080CA803389828A83ECFAE493A3C8C582E1
:100BF000C8CCC583CCF0A3C8C582C8CCC583CCDF24
:100C0000E9DEE7800D89828A83E493A3F608DFF9A1
:100C1000ECFAA9F0EDFB2289828A83ECFAE0A3C802
:100C2000C582C8CCC583CCF0A3C8C582C8CCC58357
:100C3000CCDFEADEE880DB89828A83E493A3F208D2
:100C4000DFF980CC88F0EF60010E4E60C388F0EDD4
:100C50002402B4040050B9F582EB2402B40400501D
:100C6000AF23234582239013A473EF8DF0A4A8F043
:100C7000CF8CF0A428CE8DF0A42EFE22BC000BBE9B
:100C80000029EF8DF084FFADF022E4CCF875F00878
:100C9000EF2FFFEE33FEEC33FCEE9DEC984005FCAD
:100CA000EE9DFE0FD5F0E9E4CEFD22EDF8F5F0EE75
:100CB0008420D21CFEADF075F008EF2FFFED33FD60
:100CC0004007985006D5F0F222C398FD0FD5F0EA00
:100CD00022C2D5EC30E709B2D5E4C39DFDE49CFC0B
:100CE000EE30E715B2D5E4C39FFFE49EFE12145C1C
:100CF000C3E49DFDE49CFC800312145C30D507C363
:100D0000E49FFFE49EFE22C5F0F8A3E028F0C5F0C2
:100D1000F8E582158270021583E038F022BB010AE3
:100D200089828A83E0F5F0A3E022500687F009E784
:100D30001922BBFE07E3F5F009E3192289828A83B1
:100D4000E493F5F074019322BB010789828A830240
:100D500014E7500B09C5F027F7C5F01937F722BB88
:100D6000FE0D09F8E325F0F3C5F019E338F322F896
:100D700089828A8374019325F0C5F0F8E4933822C0
:100D8000BB010A89828A83F0E5F0A3F0225006F7BE
:100D900009A7F01922BBFE06F3E5F009F31922E8D2
:100DA0008FF0A4CC8BF0A42CFCE98EF0A42CFC8A50
:100DB000F0EDA42CFCEA8EF0A4CDA8F08BF0A42DCD
:100DC000CC3825F0FDE98FF0A42CCD35F0FCEB8E6E
:100DD000F0A4FEA9F0EB8FF0A4CFC5F02ECD39FE24
:100DE000E43CFCEAA42DCE35F0FDE43CFC2275F099
:100DF00008758200EF2FFFEE33FECD33CDCC33CC20
:100E0000C58233C5829BED9AEC99E58298400CF53A
:100E100082EE9BFEED9AFDEC99FC0FD5F0D6E4CE68
:100E2000FBE4CDFAE4CCF9A88222B800C1B900599C
:100E3000BA002DEC8BF084CFCECDFCE5F0CBF97869
:100E400018EF2FFFEE33FEED33FDEC33FCEB33FBFD
:100E500010D703994004EB99FB0FD8E5E4F9FA2287
:100E60007818EF2FFFEE33FEED33FDEC33FCC93382
:100E7000C910D7059BE99A4007EC9BFCE99AF90F4A
:100E8000D8E0E4C9FAE4CCFB2275F010EF2FFFEEB6
:100E900033FEED33FDCC33CCC833C810D7079BEC01
:100EA0009AE899400AED9BFDEC9AFCE899F80FD579
:100EB000F0DAE4CDFBE4CCFAE4C8F922EB9FF5F0DC
:100EC000EA9E42F0E99D42F0EC6480C86480984557
:100ED000F022EB9FF5F0EA9E42F0E99D42F0E89C9B
:100EE00045F022E8600FECC313FCED13FDEE13FE9A
:100EF000EF13FFD8F122ECF0A3EDF0A3EEF0A3EF97
:100F0000F022A8828583F0D083D0821216F91216BF
:100F1000F91216F91216F9E473E493A3C583C5F028
:100F2000C583C8C582C8F0A3C583C5F0C583C8C53D
:100F300082C822EC8EF0A4CCC5F0CCCDF8EFA4CEC4
:100F4000C5F02DFDE43CFCE8A42EC8C5F03DFDE451
:100F50003CFCEFA4FFE5F028FEE43DFDE43CFC2270
:100F6000EF4E6012EF60010EEDBB010B89828A83A8
:100F7000F0A3DFFCDEFA2289F05007F709DFFCA9B5
:100F8000F022BBFEFCF309DFFCA9F022D39001EEB6
:100F9000E094009001EDE094004003021B4A9001B0
:100FA00008E0FBA3E0FAA3E0F91214FDFFAEF09015
:100FB0000102E0FBA3E0FAA3E0F91214FDFDACF09E
:100FC000D39FEC9E4054900108E0FBA3E0FAA3E01D
:100FD000F91214FDFFC3ED9FFFEC95F0FED3EF94E3
:100FE00030EE9475400C9001A97475F0A37430F044
:100FF00080211214FDFFAEF0900102E0FBA3E0FAA5
:10100000A3E0F91214FDC39FFFE5F09E9001A9F043
:10101000A3EFF0E49001A3021889900102E0FBA382
:10102000E0FAA3E0F91214FDFFAEF0900108E0FB36
:10103000A3E0FAA3E0F91214FDFDACF0C39FFFECAE
:101040009EFED3EF9410EE9427400C9001A97427D4
:10105000F0A37410F0801D900102E0FBA3E0FAA35E
:10106000E0F91214FDFFC3ED9FFEEC95F09001A98D
:10107000F0A3CEF09001A9E0FFA3E09001A3CFF090
:10108000A3EFF0300018D3E0942C9001A3E094017A
:1010900040139001A57427F0A37410F08007E4902A
:1010A00001A5F0A3F0E49001A9F0A3F090013FE0C6
:1010B000605B9001A9E0FEA3E0FFD39400EE6480A2
:1010C00094804014D3EF9509EE9508400B9001F3FE
:1010D000E4F0A37464F08027D39001F4E0940090CE
:1010E00001F3E094004018900105E0FBA3E0FAA3AF
:1010F000E0F91214FDFF9001A9E5F0F0A3EFF0D2A2
:10110000089001F9740FF0A374A0F0800F9001F71C
:101110007403F0A374E8F0E4FF123C07D39001AA33
:10112000E094009001A9E0648094805003021AF5D5
:10113000E0F9A3E0FF900105E0FBA3E0FAA3E0C91A
:101140008FF01215609001A9E0FEA3E0FFEE339549
:10115000E0FDFCE47BB87A88F9F8C312169C500ACB
:101160009001A97488F0A374B8F0D39001F6E094CC
:10117000009001F5E0940050089000F1E0642070C8
:10118000229001A9E0FEA3E0FFC39464EE64809482
:10119000805010EF9400EE6480948040447C007D89
:1011A0000A803330003B90013FE070169001A9E0C7
:1011B000FEA3E0FFC39515EE951450257C027DBC7F
:1011C00080149001A9E0FEA3E0FFC39509EE950805
:1011D000500F7C027DBC1214B19001A9EEF0A3EF78
:1011E000F090013FE07003021A6B9001F7E070028B
:1011F000A3E070199001A9E0FEA3E0FDEEFCE4FF7E
:10120000120E359001A9EEF0A3EFF0803E9001A9F7
:10121000E0FEA3E0FFC3900136E09FFF900135E0C0
:101220009EFE123E88D3EF9428EE64809480401B8B
:10123000D39001F8E094C89001F7E09400400CA32B
:10124000E0249CF09001F7E034FFF0900135E0FEDF
:10125000A3E0FF7C007D07121713ECF8EDF9EEFA1E
:10126000EFFB9001A9E0FEA3E0FFEE3395E0FDFC6B
:10127000EB2FFFEA3EFEE93DFDE83CFCE47B08FA8B
:10128000F9F812160A900135EE800B9001A9E0FFE3
:10129000A3E0900135CFF0A3EFF0900135E0FEA37D
:1012A000E0FFD39405EE9400400EEF9410EE94000E
:1012B00050069001A9EE8016900131E0FEA3E0FFF8
:1012C000900136E02FFF900135E03E9001A9F0A398
:1012D000EFF0D39001AAE094309001A9E0648094EB
:1012E000F540077475F0A37430F0E5DB5404707AB0
:1012F0009001A9E0F9A3E0FF90010EE0FBA3E0FA62
:10130000A3E0C98FF01215609001AAE024A8FF9015
:1013100001A9E08042E5DB5404704F900105E0FB39
:10132000A3E0FAA3E0F9E4F5F0121560900131E0D2
:10133000F9A3E0FF90010EE0FBA3E0FAA3E0C98F60
:10134000F012156090010EE0FBA3E0FAA3E0F912A1
:1013500014FD24A8FFE5F03461F990010BE0FBA334
:10136000E0FAA3E0C98FF01215602212388B9001C9
:101370008AE0F8A3E0F9A3E0FAA3E0FBE8C0E0E923
:10138000C0E0EAC0E0EBC0E090011DE0FBA3E0FAA2
:10139000A3E0F91214FDFFE4FCFDD0E0FBD0E0FA7D
:1013A000D0E0F9D0E0F8EB2FFFEA35F0FEED39FDA3
:1013B000EC38FC90018A1216D690018FE004F07090
:1013C0000690018EE004F0C3900191E094649001D6
:1013D00090E094005003021F2890018AE0FCA3E0F3
:1013E000FDA3E0FEA3E0FFECC0E0EDC0E0EEC0E056
:1013F000EFC0E0A3E0FEA3E0FBEEFAE4F9F8D0E0F2
:10140000FFD0E0FED0E0FDD0E0FC12160A90018A89
:101410001216D690018AA3A3E0FFA3E0900188CF23
:10142000F0A3EFF0A31216E200000000E490018E9A
:10143000F0A3F0A3F0A3F09001EDE07002A3E06050
:1014400003021F28900192E07002A3E06003021FD4
:101450002890013FE07003021D81900184E070023A
:10146000A3E07038900188E0FFA3E0900184CFF002
:10147000A3EFF0900105E0FBA3E0FAA3E0F912145A
:10148000FDFF900186E5F0F0A3EFF0900194740366
:10149000F0A374E8F0E490019A021D95900182E0B7
:1014A000706890019BE07002A3E07018900105E065
:1014B000FBA3E0FAA3E0F91214FDFF90019BE5F015
:1014C000F0A3EFF0900105E0FBA3E0FAA3E0F9122E
:1014D00014FDFFC390019CE09FFF90019BE095F0FD
:1014E000FE123E88C3EF9446EE64809480501290C2
:1014F000019AE0C3940574809480500EE004F0805B
:1015000009E490019AF0A3F0A3F0900188E0FEA313
:10151000E0FFC3900185E09FFF900184E09EFE12F2
:101520003E8890019DE0FBA3E0FAA3E0F9EE8FF086
:10153000121560900182E0704490019DE0FBA3E0F1
:10154000FAA3E0F91214FDC3940AE5F09400501ACE
:10155000900105E0FBA3E0FAA3E0F91214FDFF906F
:101560000186E5F0F0A3EFF0801390019AE0C394B8
:10157000057480948040069001827401F090018887
:10158000E0FEA3E0FFD3900185E09F900184E09E00
:101590004007E4900183F080219001837401F08082
:1015A00019E4900184F0A3F0A3F0A3F0900182F07D
:1015B000900196F0A3F0A3F0A3F0900182E07003F5
:1015C000021F28900186E0FEA3E0FFD39400EE9472
:1015D000005003021F28900105E0FBA3E0FAA3E0FE
:1015E000F91214FDC39FFFE5F09EFE123E889001A4
:1015F000A9EEF0A3EFF09001A1EEF0A3EFF09001BF
:1016000005E0FBA3E0FAA3E0F91214FDFFAEF090B1
:101610000186E0FCA3E0FDD39FEC9E400FD3900138
:10162000AAE094649001A9E094005015C3ED9FECEA
:101630009E50489001AAE094FA9001A9E0940040DD
:101640003AE4900182F0900184F0A3F0900105E06B
:10165000FBA3E0FAA3E0F91214FDFFC3900187E0B9
:101660009F900186E095F09001925007E4F0A374FA
:10167000C8F0227401F0A3742CF022900105E0FB65
:10168000A3E0FAA3E0F91214FDFFD3900187E09FD5
:10169000900186E095F05003021EFAD39001AAE073
:1016A000941E9001A9E094004070900183E0704185
:1016B00090019DE0FBA3E0FAA3E0F91214FDD3949E
:1016C00020E5F094034002804EC3900199E0942CF1
:1016D000900198E094015042900105E0FBA3E0FAEC
:1016E000A3E0F91214FDC39490E5F09401402B801F
:1016F00026C3900199E0942C900198E09401501A2F
:10170000900105E0FBA3E0FAA3E0F91214FDC394F5
:1017100090E5F094014003123ADC900105E0FBA350
:10172000E0FAA3E0F91214FDFFC3900187E09F9057
:101730000186E095F050119001AAE0941E9001A955
:10174000E094004003123B29229001BEECF0A3ED8F
:10175000F09001BDEFF075F00EA424D8F582E434CA
:1017600001F583E0704E9001BDE075F00EA424D425
:10177000F582E43401F583E0FCA3E0FDA3E0FEA3E1
:10178000E0FFE4FBFAF9F8C31216B260279001BD3E
:10179000E075F00EA424D0F582E43401F583E0FC7A
:1017A000A3E0FDA3E0FEA3E0FFE4F8C31216B260DD
:1017B000030220A59001C0A3A3E0FEA3E0FFC39015
:1017C00001BFE09FFF9001BEE09EFE123E889001A7
:1017D000BDE0FD75F00EA424D9F582E43401F58353
:1017E000EEF0A3EFF0ED75F00EA424D8F582E4340A
:1017F00001F583E06041ED75F005A42497F582E4DE
:10180000343EF583E493FE740193FFED75F00EA46E
:1018100024D9F582E43401F583E0FCA3E0D39FEC06
:101820009E40149001BDE075F00EA424D8F582E42A
:101830003401F5837405F09001C0E0FCA3E0FDA342
:10184000E0FEA3E0FF9001BDE0FB75F00EA424D400
:10185000F582E43401F5831216D6EB75F00EA4245C
:10186000DCF582E43401F583E0FEA3E0FFE4FCFD57
:101870009001C0E0F8A3E0F9A3E0FAA3E0FB1215A1
:101880007F9001BDE0FB75F00EA424D0F582E43416
:1018900001F5831216D6EB75F00EA424D8F582E478
:1018A0003401F583E0D39400748094804011EB758B
:1018B000F00EA424D8F582E43401F583E014F0900E
:1018C00001C00222ED9001BDE0FB75F00EA424D40E
:1018D000F582E43401F583E0FCA3E0FDA3E0FEA380
:1018E000E0FF9001C41216D6EB75F00EA424D0F5DB
:1018F00082E43401F583E0FCA3E0FDA3E0FEA3E075
:10190000FF9001C81216D69001C8E0FCA3E0FDA329
:10191000E0FEA3E0FF9001BDE075F00EA424DBF52E
:1019200082E43401F583E0F9F81216C3EFFBEEFA16
:10193000EDF9ECF89001C8E0FCA3E0FDA3E0FEA304
:10194000E0C39BFFEE9AFEED99FDEC98FCA3121606
:10195000D69001C4E0FCA3E0FDA3E0FEA3E0FF906D
:1019600001C0E0F8A3E0F9A3E0FAA3E02FFFEA3E0C
:10197000FEE93DFDE83CFC9001CCE0F8A3E0F9A3D2
:10198000E0FAA3E02FFFEA3EFEE93DFDE83CFC90D3
:1019900001C81216D69001C0E0FCA3E0FDA3E0FE52
:1019A000A3E0FF9001BDE0FB75F00EA424D4F58206
:1019B000E43401F5831216D69001C8E0FCA3E0FDE3
:1019C000A3E0FEA3E0FFEB75F00EA424D0F582E4C3
:1019D0003401F5831216D69001C8E0FCA3E0FDA304
:1019E000E0FEA3E0FFECC0E0EDC0E0EEC0E0EFC041
:1019F000E09001BDE075F00EA424DCF582E4340132
:101A0000F583E0FEA3E0FBEEFAE4F9F8D0E0FFD0C6
:101A1000E0FED0E0FDD0E0FC12160A9001C81216DC
:101A2000D69001C0A3A3E0FEA3E0FBEEFA9001C8AC
:101A3000A3A3E0FEA3E0C39BFFEE9AFE123E8890B4
:101A400001BDE0FD75F00EA424D9F582E43401F562
:101A500083EEF0A3EFF0ED75F005A42495F582E494
:101A6000343EF583E493FE740193FFED75F00EA40C
:101A700024D9F582E43401F583E0FCA3E0D39FECA4
:101A80009E50030222EA9001C0E0FCA3E0FDA3E027
:101A9000FEA3E0FF9001BDE0FB75F00EA424D4F599
:101AA00082E43401F5831216D6EB75F00EA424DC23
:101AB000F582E43401F583E0FEA3E0FFE4FCFD9051
:101AC00001C0E0F8A3E0F9A3E0FAA3E0FB12157F60
:101AD0009001BDE0FB75F00EA424D0F582E4340142
:101AE000F5831216D6EB75F00EA424D8F582E434F3
:101AF00001F5837405F09001C0E0FCA3E0FDA3E0D4
:101B0000FEA3E0FF9001C81216D69001C8A3A3E07F
:101B1000FEA3E0FF227F01123A35123CFB758A508A
:101B2000902E207419F0902E20E030E2F9903EA71C
:101B3000E49375F002A42400F582E5F0342EF583D9
:101B4000E0FFA3E09001B7CFF0A3EFF0902E20E4E8
:101B5000F0758A107F01123D2D90015FE0FEA3E039
:101B6000FF4E700E9001B7E0FCA3E0FDECFEEDFF30
:101B7000801E7C007D0312144A9001B8E02FFF9074
:101B800001B7E03EFE7802EFCEC313CE13D8F9FFC3
:101B900090015FEEF0A3EFF090015BE07002A3E034
:101BA000700F90015FE0FFA3E090015BCFF0A3EF27
:101BB000F09001B91216E200002710E4FF123A3546
:101BC000E49001B4F09001B4E0C394077480948071
:101BD00040030224C1E4FF123CFB758A50902E2082
:101BE0007419F0902E20E030E2F9903EA6E493754F
:101BF000F002A42400F582E5F0342EF583E0FFA383
:101C0000E09001B5CFF0A3EFF0902E20E4F0758ABC
:101C100010FF123D2D9001B5E0FEA3E0FF90016B97
:101C2000EEF0A3EFF090015BE0FCA3E0FDEF2DFFF1
:101C3000EE3CFE90015FE0FCA3E0FDC3EF9DFFEEF4
:101C40009C9001B5F0A3EFF090015DE0FEA3E0FFF2
:101C50004E700E9001B5E0FCA3E0FDECFEEDFF80C0
:101C60001E7802EFC333CE33CED8F9FF9001B6E031
:101C70002FFF9001B5E03EFE7C007D0512145C90C4
:101C8000015DEEF0A3EFF0E4FCFD9001C01216D66A
:101C9000900161E0FCA3E0FDE4FF121F29900161C7
:101CA000EEF0A3EFF09001B9E0F8A3E0F9A3E0FAB9
:101CB000A3E0FB900161E0FEA3E02400FFEE34F816
:101CC000FE3395E0FDFCEB2FFFEA3EFEE93DFDE82B
:101CD0003CFC9001B91216D69001B4E004F0022346
:101CE000A5902E23E4F07F507EC3FDFC9001B9E067
:101CF000F8A3E0F9A3E0FAA3E0FBD312169C400A94
:101D00009001B91216E20000C3509001B9E0FCA3A3
:101D1000E0FDA3E0FEA3E0FFEC33500A9001B9120E
:101D200016E200000000900167E0FAA3E0FB4A70B1
:101D30000C9001B9A3A3E0FEA3E0FF80347E007FF6
:101D400002EBFDEAFC121713ECF8EDF9EEFAEFFBEB
:101D50009001B9E0FCA3E0FDA3E0FEA3E02BFFEAC5
:101D60003EFEE93DFDE83CFCE47B03FAF9F812167F
:101D70000A900167EEF0A3EFF0900159E07002A322
:101D8000E0700F900167E0FFA3E0900159CFF0A34E
:101D9000EFF0900127E0F8A3E0F9A3E0FAA3E0FB5D
:101DA000900161E0FEA3E0FFE4FCFDEB2FFFEA3EC3
:101DB000FEED39FDEC38FC9001271216D690012C6F
:101DC000E004F0700690012BE004F090012BE0FE9F
:101DD000A3E0FFD3940AEE94004031EFFBEEFAE467
:101DE000F9F8900127E0FCA3E0FDA3E0FEA3E0FFEB
:101DF00012160A900125EEF0A3EFF0E490012BF00B
:101E0000A3F09001271216E20000000090012DE0DF
:101E10007002A3E07040900125E0FEA3E0FFC390B4
:101E20000162E09FFF900161E09EFE123E889001FA
:101E300023EEF0A3EFF0D39406EE94004018900147
:101E40002D7403F0A374E8F0900130E004F0700604
:101E500090012FE004F0900167E0FEA3E0FF2290E4
:101E600001A97402F0A374BCF0D39001A8E094001F
:101E70009001A7E094004021900102E0FBA3E0FA6A
:101E8000A3E0F91214FDFF900108E0FBA3E0FAA320
:101E9000E0F9E5F08FF01215609001EDE07002A31B
:101EA000E0600B9001A9E4F0A37464F0800B900053
:101EB0001AE0641170037420F090013FE0600F7E1F
:101EC000007F0C7D007B017A017940021740900170
:101ED00040E0F8A3E0F9A3E0FAA3E0FBE8C0E0E902
:101EE000C0E0EAC0E0EBC0E0900102E0FBA3E0FA52
:101EF000A3E0F91214FDFFE4FCFDD0E0FBD0E0FA12
:101F0000D0E0F9D0E0F8EB2FFFEA35F0FEED39FD37
:101F1000EC38FC9001401216D6900145E004F070B8
:101F200006900144E004F09001A9E0FEA3E0FFC3A5
:101F300090014BE09F90014AE09E500302287A9066
:101F40000140E0FCA3E0FDA3E0FEA3E0FFECC0E065
:101F5000EDC0E0EEC0E0EFC0E0A3E0FEA3E0FBEEEA
:101F6000FAE4F9F8D0E0FFD0E0FED0E0FDD0E0FCEC
:101F700012160A9001401216D6900108E0FBA3E069
:101F8000FAA3E0F91214FD241EFFE435F0FEE4FC90
:101F9000FD900140E0F8A3E0F9A3E0FAA3E0FBD351
:101FA0001216B250030228409001EDE07002A3E047
:101FB0006003022840300803022840900108E0FB3B
:101FC000A3E0FAA3E0F91214FDFB900140A3A3E003
:101FD000FEA3E0C39BFFEE95F09001ABF0A3EFF002
:101FE000900147E004F07006900146E004F0D390C1
:101FF0000147E09401900146E0940040229001AB3B
:10200000E0FEA3E0FF900149E09F900148E09E5070
:102010000E900147E024FFF0900146E034FFF0907D
:1020200001ABE0FFA3E0900148CFF0A3EFF0D39025
:102030000147E09405900146E0940040469001403D
:10204000A3A3E0F9A3E0FF900108E0FBA3E0FAA35B
:10205000E0C98FF0121560E4900146F0A3F08023F0
:10206000900140A3A3E0F9A3E0FF900108E0FBA3E7
:10207000E0FAA3E0C98FF0121560E4900146F0A3E6
:10208000F0C2089001401216E200000000E4900146
:1020900044F0A3F090014AF0A3F022C0E0C083C056
:1020A00082C0D0D2AFD39001EEE094009001EDE079
:1020B0009400400CA3E024FFF09001EDE034FFF029
:1020C000D39001F2E094009001F1E09400400EA35F
:1020D000E024FFF09001F1E034FFF08002D28AD3D7
:1020E0009001F0E094009001EFE09400400CA3E038
:1020F00024FFF09001EFE034FFF0C390014BE09437
:10210000BC90014AE09402500CA3E004F0700690E9
:10211000014AE004F0D39001F4E094009001F3E070
:102120009400400CA3E024FFF09001F3E034FFF0B2
:10213000D39001F6E094009001F5E09400400CA3E8
:10214000E024FFF09001F5E034FFF0D39001FCE0D3
:1021500094009001FBE09400400CA3E024FFF09079
:1021600001FBE034FFF0D39001F8E094009001F718
:10217000E09400400CA3E024FFF09001F7E034FF6E
:10218000F0D39001FAE094009001F9E09400400C43
:10219000A3E024FFF09001F9E034FFF0D39001A612
:1021A000E094009001A5E09400400CA3E024FFF02F
:1021B0009001A5E034FFF0D39001FEE0940090017F
:1021C000FDE09400400CA3E024FFF09001FDE0341A
:1021D000FFF0C3900191E09464900190E09400506E
:1021E0000CA3E004F07006900190E004F0D390019D
:1021F00093E09400900192E09400400CA3E024FF4F
:10220000F0900192E034FFF0D3900195E0940190BA
:102210000194E09400400CA3E024FFF0900194E0CE
:1022200034FFF0D3900170E0940190016FE09400CE
:10223000400CA3E024FFF090016FE034FFF0D39056
:1022400001A8E094009001A7E09400400CA3E024D2
:10225000FFF09001A7E034FFF0C3900211E094B8C2
:10226000900210E0940B500CA3E004F07006900272
:1022700010E004F0C390020BE094F490020AE094A2
:1022800001500CA3E004F0700690020AE004F0D3C1
:1022900090012EE0940090012DE09400400CA3E00A
:1022A00024FFF090012DE034FFF0D0D0D082D08315
:1022B000D0E032D39001EEE09F9001EDE09E400A25
:1022C000A3E09FF09001EDE09EF0D39001F2E09F3B
:1022D0009001F1E09E400CA3E09FF09001F1E09EA0
:1022E000F08002D28AD39001F0E09F9001EFE09E4F
:1022F000400AA3E09FF09001EFE09EF0C390014BF5
:10230000E094BC90014AE09402500AA3E02FF090C0
:10231000014AE03EF0D39001F4E09F9001F3E09E8B
:10232000400AA3E09FF09001F3E09EF0D39001F605
:10233000E09F9001F5E09E400AA3E09FF09001F538
:10234000E09EF0D39001FCE09F9001FBE09E400AEC
:10235000A3E09FF09001FBE09EF0D39001F8E09F96
:102360009001F7E09E400AA3E09FF09001F7E09E05
:10237000F0D39001FAE09F9001F9E09E400AA3E0BB
:102380009FF09001F9E09EF0D39001A6E09F9001AC
:10239000A5E09E400AA3E09FF09001A5E09EF0D347
:1023A0009001FEE09F9001FDE09E400AA3E09FF0B7
:1023B0009001FDE09EF0C3900191E0946490019043
:1023C000E09400500AA3E02FF0900190E03EF0D39B
:1023D000900193E09F900192E09E400AA3E09FF05D
:1023E000900192E09EF0EF2401FDE43EFCD39001C9
:1023F00095E09D900194E09C400AA3E09FF090013D
:1024000094E09EF0EF2401FDE43EFCD3900170E0E7
:102410009D90016FE09C400AA3E09FF090016FE067
:102420009EF0D39001A8E09F9001A7E09E400AA3F0
:10243000E09FF09001A7E09EF0C3900211E094B8F5
:10244000900210E0940B500AA3E02FF0900210E0ED
:102450003EF0C390020BE094F490020AE094015025
:102460000AA3E02FF090020AE03EF0D390012EE0A4
:102470009F90012DE09E400AA3E09FF090012DE087
:102480009EF0227E007FFF7D007B017A00790012A2
:1024900017407E007FA97D007B017A017900121729
:1024A000407E007F147D007B017A0179EC12174099
:1024B000902DE0E493900001F09000047411F0A3DB
:1024C0007422F0A37433F0902DE2E493900012F0A4
:1024D000902DE3E493900014F09000FB7401F090D1
:1024E00000367410F09000F1F0900024F0A37420F6
:1024F000F09001027401F0A37400F0A37440F09016
:1025000001087401F0A37400F0A37444F090010575
:102510007401F0A37400F0A37442F090010B7401F5
:10252000F0A37400F0A3742EF0A37401F0A3740060
:10253000F0A3742AF0A37401F0A37400F0A374282C
:10254000F09001207401F0A37400F0A37490F09057
:10255000011D7401F0A37400F0A37422F090019D9A
:102560007401F0A37400F0A37480F090013C740136
:10257000F0A37400F0A37418F09001397401F0A373
:102580007400F0A3741BF09001147401F0A37400A4
:10259000F0A37432F0A37401F0A37400F0A37426C6
:1025A000F0A37401F0A37400F0A37434F09001144C
:1025B000E0FBA3E0FAA3E0F9E475F0C8121560901F
:1025C0000117E0FBA3E0FAA3E0F9E475F06412154B
:1025D0006090011AE0FBA3E0FAA3E0F9E475F0963D
:1025E0001215607514007515C87508007509969068
:1025F00001ED7407F0A374D0F0E49001ECF0220038
:102600000503AB9174AA7583F5758255A57455754C
:1026100083FA7582AAA574A57583F5758255A522DE
:1026200002010AB00BB60CFF090208FF0DF70E03FA
:10263000130714101080019212070E040F040404F3
:10264000010111121212111103028090017BE0FEB0
:10265000A3E0FFC39404EE9400502F900100E0FC2F
:10266000A3E0FDEF25E0FFEE33FE74732FF58274D7
:10267000013EF583ECF0A3EDF090017CE004F070F6
:102680000690017BE004F0022F329001B67401F055
:102690009001B6E0FFC3940474809480502AEF2523
:1026A000E02473F582E43401F583E0FCA3E0FDEF60
:1026B00025E02471F582E43401F583ECF0A3EDF01C
:1026C0009001B6E004F080C890013FE060028073A2
:1026D000900102E0FBA3E0FAA3E0F91214FDFF90E1
:1026E0000100E0FCA3E0FDC3EF9DFFE5F09CFE12BE
:1026F0003E88C3EF9428EE64809480504690010891
:10270000E0FBA3E0FAA3E0F91214FDFFC39001017E
:10271000E09FFF900100E095F0FE123E88C3EF9429
:1027200014EE6480948050059001088003900102AB
:10273000E0FBA3E0FAA3E0F91214FDFF900179E5B4
:10274000F0800B900100E0FFA3E0900179CFF0A3AF
:10275000EFF09001B21216E200000000E49001B622
:10276000F09001B6E0FFD390017CE09F90017BE008
:102770009400403D9001B2E0F8A3E0F9A3E0FAA391
:10278000E0FBA3E025E02473F582E43401F583E067
:10279000FEA3E0FFE4FCFDEB2FFFEA3EFEED39FD7A
:1027A000EC38FC9001B21216D69001B6E004F0802D
:1027B000B09001B2E0FCA3E0FDA3E0FEA3E0FFECDB
:1027C000C0E0EDC0E0EEC0E0EFC0E090017BE0FED5
:1027D000A3E0FBEEFAE4F9F8D0E0FFD0E0FED0E0B1
:1027E000FDD0E0FC12160A9001B21216D69001B28A
:1027F000A3A3E0FEA3E0FF229001ACEFF0902E2215
:10280000E0FF9001B0E4F0A3EFF0758A50902E2223
:102810007401F09001ACE075F002A42410F582E59B
:10282000F0342EF5837402F0A3E4F09001ADF09043
:1028300001ADE0FFC3940C748094804003023142E8
:10284000EFF87E01E4088006CEA2E713CE13D8F895
:10285000FF9001AEEEF0A3EFF04E70079001AEF0E6
:10286000A304F0902E207419F0902E20E030E2F9AD
:102870009001ACE0FF75F002A42400F582E5F0348D
:102880002EF583E0FCA3E0D394FFEC940740597548
:10289000F002EFA42410F582E5F0342EF583E0FE7B
:1028A000A3E0FF9001AEE0FCA3E0FDEF2DFFEE3CC6
:1028B000FEC3EF94FFEE94039001ACE075F002507C
:1028C00013A42410F582E5F0342EF583EC8DF0127C
:1028D00014E7807EA42410F582E5F0342EF583748D
:1028E00003F0A374FFF0806A9001ACE0FF75F00282
:1028F000A42410F582E5F0342EF583E0FCA3E0FD7E
:102900009001AEE0FAA3E0FBD3ED9BEC9A402D756D
:10291000F002EFA42410F582E5F0342EF583C08395
:10292000C082C3A3E09BFF0582D582021583158276
:10293000E09AD082D083F0A3EFF080169001ACE053
:1029400075F002A42410F582E5F0342EF583E4F04E
:10295000A3F0902E20E4F0F58D9001ADE004F0029C
:10296000300F9001B0A3E0902E22F0758A1022E47F
:10297000F526F525F524F523F526F525F524F5238B
:10298000F522C3E5229404748094805027E5222523
:10299000E0240AF8E6FE08E6FFE4FCFDE5262FF554
:1029A00026E5253EF525ED3524F524EC3523F523E4
:1029B000052280CEE47B04FAF9F8AF26AE25AD24DB
:1029C000AC2312160A90017FEEF0A3EFF0E4752617
:1029D000A8752561F524F523F522C3E52294047436
:1029E0008094805073E52225E0240AF8E6FE08E68C
:1029F000FF90017FE0FCA3E0FDC3EF9DFFEE9CFE96
:102A0000123E88D3EF940AEE6480948040129001C5
:102A10007FE0FEA3E0FF900159E0FCA3E0FD8015FC
:102A2000E52225E0240AF8E6FE08E6FF900159E0D9
:102A3000FCA3E0FDC3EF9DFFEE9CFE3395E0FDFCA3
:102A4000E5262FF526E5253EF525E5243DF524E58B
:102A5000233CF52305228082E47F607EEAFDFCAB07
:102A600026AA25A924A823D31216B2400BE4752662
:102A7000607525EAF524F523AE25AF26221238FF2E
:102A8000123E26E490017BF0A3F0900167F0A3F0E2
:102A9000900165F0A3F0900169F0A3F07F04123675
:102AA0008D900100E0F9A3E0FFA3E0FBA3E0FAA30F
:102AB000E0C98FF0121560900100E0F9A3E0FF90EB
:102AC0000108E0FBA3E0FAA3E0C98FF012156090C3
:102AD0000105E0FBA3E0FAA3E0F9E4F5F0121560CC
:102AE00090010BE0FBA3E0FAA3E0F9746175F0A894
:102AF000121560900111E0FBA3E0FAA3E0F9746104
:102B000075F0A812156090010EE0FBA3E0FAA3E0B7
:102B1000F9E4F5F0121560E4900137F0A3F09001AC
:102B20003FF0FE7F1BFD7B017A0179821217407E08
:102B3000007F0C7D007B017A017940121740E49000
:102B400001FBF0A3F09001F9F0A3F09000367410AF
:102B5000F0E490004BF09001EF7403F0A37420F0C8
:102B60009001FFE0700FC39001EEE094F49001ED4E
:102B7000E09401500A9001ED7401F0A374F4F02286
:102B8000D39001EEE094009001EDE0940040030248
:102B9000342A3000209001A5E07002A3E06008759F
:102BA000141F751540800675141775157075081378
:102BB000750988800C7514007515C87508007509AD
:102BC00096900105E0FBA3E0FAA3E0F91214FDFFE3
:102BD000AEF0C39515EE9514500F90013FE0601ACA
:102BE000C3EF9509EE950840119001F5E07002A33E
:102BF000E0702E90013F04F080279000F1E0642007
:102C00009001F57005F0A3F08006E4F0A374C8F01D
:102C1000E490013FF09001F3F0A3F09000367410BF
:102C2000F090013FE0FF601D900024E064109000F0
:102C30003670057410F080037420F09001EF740377
:102C4000F0A37420F090004BEFF022C0E0C083C0EE
:102C500082C0D075D018D2AFE5DB30E424D209C2EF
:102C600006E5DB30E116123E7CF583E0F5DFEF642C
:102C7000077067D28A900007F00234DFC205023481
:102C8000E2E5DB30E52C9000F0E064AA7017758A6D
:102C900010F5DAC2AFF5B2F5A8F5A9F58B758E017E
:102CA000758DC080FED204300604C2068054C2096D
:102CB0008050C206E5DB30E123E5DB30E044123E24
:102CC0007CF583E0F5DFEF24F9600824EE700BD289
:102CD0000A8007D28A900007E4F0802320050A7852
:102CE00016A6DFD205D2068019123E7CF583E5DFF9
:102CF000F0EF642470099001EF04F0A374F4F0780D
:102D0000160675DBFFD0D0D082D083D0E032787F3A
:102D1000E4F6D8FD7581260235380200000237102E
:102D2000E493A3F8E493A34003F68001F208DFF4F0
:102D30008029E493A3F85407240CC8C333C4540F68
:102D40004420C8834004F456800146F6DFE4800B3B
:102D50000102040810204080903D8AE47E019360C7
:102D6000BCA3FF543F30E509541FFEE493A3600168
:102D70000ECF54C025E060A840B8E493A3FAE493D2
:102D8000A3F8E493A3C8C582C8CAC583CAF0A3C880
:102D9000C582C8CAC583CADFE9DEE780BE900139B3
:102DA000E0FBA3E0FAA3E0F91214FD641045F07013
:102DB00003123A8E900001E064AA70031239D49095
:102DC0000013E0FF7E0064107002D203EF64204E17
:102DD0007002C20312379020070890001AE06410B6
:102DE000700E90001A7411F0C2079001EC7401F09B
:102DF0009000FBE06006E4F09001ECF090016FE0E1
:102E00007004A3E06401701090016FF0A3F09001D2
:102E1000A7F0A3F09001ECF030040CC2049001EF95
:102E20007401F0A374F4F02290014C7412F0A374B6
:102E30005CF0123C487E007F047D007B017A0179C2
:102E4000591217407F01123E02E4FF123E02902EFB
:102E500012E0FEA3E0C39405EE9400400F902E1202
:102E6000E0FEA3E0D394F0EE9403400BE490014C19
:102E7000F0A3F0FF123E02902E23E4F090001D74A8
:102E800010F0902E12E0FEA3E0FF7C007D0A1214E9
:102E90004A90014DE02FFF90014CE03EF990013C3B
:102EA000E0FBA3E0FAA3E0C98FF00215609001B245
:102EB000EFF0E4A3F09001B2E0FFA3E0C39F502E37
:102EC0001222F5123DDC900169EEF0A3EFF08E12B4
:102ED000F513C8740AC87400FCE4FDFB7A00790C91
:102EE000FE7F081214249001B3E004F080C7123171
:102EF0004F900100EEF0A3EFF0900167E0FEA3E039
:102F0000FFC3900134E09FFF900133E09EFE123E2C
:102F1000887C007D051214B1900131ECF0A3EDF036
:102F2000900167E0FFA3E0900133CFF0A3EFF02220
:102F300053A87F123DB6122C63123E4412080E4372
:102F4000A880E4F58D9000F17420F012357D900199
:102F5000ECE014601814601A14602D14603F24040F
:102F600070E01236089001EC7401F080D512325DE9
:102F70008023123D5C12380F900025E0641070C26F
:102F80009001EC7404F080BA12082E9001EF7403E3
:102F9000F0A37420F09001EC7402F080A5123BBF06
:102FA000900025E06410609A9001EC7401F080922A
:102FB000900200E01460211460432402706030032A
:102FC000139002007401F0D202D2009001FD04F0CF
:102FD000A37458F0C20180469001FDE07002A3E0A6
:102FE0007002C2022003379002007402F0D201C2C4
:102FF00002C2009001FDF0A37458F080219001FD01
:10300000E07002A3E07017900200200303F0800C30
:103010007401F09001FD04F0A37458F0C201200186
:103020000330020A900025E064106002D2072230CB
:103030008A789001EDE07002A3E0706E90016FE07D
:103040007002A3E07064F5B2758D20438D20758DFC
:103050009043A808D2AF758B4090012DE0FEA3E00D
:10306000FF4E6005758E148003758E4020042F205E
:10307000092CE5DB54047026758A84200920E5DBE1
:103080005404701AF586758703000000758601EFF9
:103090004E60047F0A80027F207E00122A93758B87
:1030A00001758A1053A8F7123E6022758D20438D5A
:1030B00020538D7FE4F5B275B6FF75B7FF75B2A2E8
:1030C00043B20153A8FB538B7F758B10438B08E5EC
:1030D0008B20E7030080F8538B7F758B11438B089F
:1030E000E58B20E7030080F890021BE5B5F0A3E52F
:1030F000B4F0758B01E4F5B2123E60E4F58D9002F8
:1031000018E0FBA3E0FAA3E0F91214FDFF90011D03
:10311000E0FBA3E0FAA3E0F9E5F08FF00215607E92
:10312000007F1C7D007B017A0179D0121740E4FDFD
:10313000EDC39402748094805057ED75F005A4247B
:1031400094F582E4343EF583E493FFED75F00EA42C
:1031500024DBF582E43401F583EFF0ED75F00EA485
:1031600024DBF582E43401F583E004F87E00740189
:10317000088005C333CE33CED8F9FFED75F00EA429
:1031800024DCF582E43401F583EEF0A3EFF00D804A
:103190009F22300A5E20005BC20A902E12E0FFA33D
:1031A000E09001A9CFF0A3EFF0E4FF123E02902ED1
:1031B00012E0FEA3E0FF7C007D0A12144A90014D4C
:1031C000E02FFF90014CE03EFE90013CE0FBA3E0CD
:1031D000FAA3E0F9EE8FF01215609001A9E0FFA3C9
:1031E000E0902E12CFF0A3EFF09001EF7403F0A364
:1031F0007420F0229001A97408F0A3E4F0A3743FB6
:10320000F0A374DFF0E4FDFCF9758A10538AEF0037
:103210009001A9E0FEA3E02DF582EE3CF583E49356
:10322000FF69F90DBD00010CBC37E5BDDFE290017F
:10323000ABE0FEA3E0F5828E83E493FFE96F7008B4
:103240009000017405F08005E4900001F0758A108B
:10325000538AEF0022E4FEEEC394077480948050FA
:1032600039EE75F003A42417F582E4342EF583E5D6
:10327000822FF582E43583F583E493FDEE75F00348
:10328000A42416F582E4342EF583E4932420F582F9
:10329000E4342EF583EDF00E80BDEF701090014CFC
:1032A000E07002A3E07006902E217412F022E490E8
:1032B00001A9F0A3F0758A10538AEF00122DE4756E
:1032C000EA81E4F5F6F5F475F308F5F275EB07001D
:1032D000E5EC30E7FBAFF3EFFEADF2EDFF90013927
:1032E000E0FBA3E0FAA3E0F9EE8FF0121560E4F53D
:1032F000EC75EB30758A10538AEF0022900108E0DC
:10330000FBA3E0FAA3E0F974FF75F0F91215289019
:103310000199E02407F0900198E03400F0900196C4
:10332000E0FEA3E0FFC394DCEE9405501BEF94078E
:10333000EE9400400CE024F9F0900196E034FFF0A8
:1033400022E4900196F0A3F022900108E0FBA3E0B4
:10335000FAA3E0F9E475F007121528900197E0242C
:1033600007F0900196E03400F0900198E0FEA3E0B1
:10337000FFC3942CEE9401501BEF9407EE94004091
:103380000CE024F9F0900198E034FFF022E4900181
:1033900098F0A3F022900036E0FF9000FFE06F600D
:1033A0003D900036E0FD9000FFF0900007E09002B5
:1033B00001F0540FF0ED7E0064207005E0442080A1
:1033C0000CEF64104E700B900201E04410F090007E
:1033D00007F0C28A9001F17403F0A374E8F0229020
:1033E0000025E06410703FF5B2758D20438D2053A9
:1033F0008D7F53A8F7F58BE5DB540470132009107B
:10340000F58AF586758703000000758601758A10B8
:10341000758B019001FF7401F09001EF7403F0A32C
:103420007420F0123E60229001ABEFF07E007F101E
:10343000EEC0E0EFC0E07D00E075F010A42402F9DA
:10344000740235F0FA7B01D0E0FFD0E0FE121740A5
:103450009001ABE0C454F02410F582E43402F5830B
:10346000740BF0A374B8F022E4FFEFC3940B7480E4
:103470009480502BEF25E02401F582E4342EF5836F
:10348000E493FEEF25E02400F582E4342EF583E496
:10349000932420F582E4342EF583EEF00F80CB9058
:1034A0002F56E0902E2BF0229001B17401F0900184
:1034B000B1E0C394047480948050217F0112368D52
:1034C000122E2B900102E0FBA3E0FAA3E0F9EE8FAD
:1034D000F01215609001B1E004F080D2E49001F5A3
:1034E000F0A3F02290015AE02454FF900159E034F7
:1034F000F2FEC3900168E09F900167E09E50149037
:10350000016FE07002A3E0701190016F04F0A374EA
:10351000F4F022E490016FF0A3F022EF903EA69326
:10352000903E9E93FE540FFDF87401088002C33351
:10353000D8FCFDEE54F06008EDF4529152938009EE
:10354000ED42ABEDF4528952965389FD22EF903E45
:10355000A693903E9E93FE540FFDF87401088002DE
:10356000C333D8FCFDEE54F06008ED4291ED428883
:103570008006ED4289ED4280438902227F011236A6
:103580008D122E2B900102E0FBA3E0FAA3E0F9EEEE
:103590008FF0121560121B4B12176C12336012263B
:1035A0003F123B75123CC4023972C109C10A410283
:1035B000010041020000C103C101C100C102C105F7
:1035C000011600C104C106C108C1074100FF104334
:1035D000021801021B00758A10538AEFE4F5867504
:1035E0008F04F5ABF5AC43AC0C7580FF7588FF75A7
:1035F00089FF759104F595F592D28A22900167E0D2
:10360000FEA3E0FF900165EEF0A3EFF0E4FCFD9077
:1036100001C01216D6900169E0FCA3E0FD7F010213
:103620001F299001ABEFF0123CFB9001ABE0FF12C1
:103630003A359001ABE0903EA693FF122FD890014F
:10364000ABE0FF023D2D7E007F047D007B017A010F
:10365000795D1217407E007F047D007B017A01793D
:1036600061021740E4F5DA75DA4043DA2075D74095
:1036700075D64075DA5843A80275B80475F8042267
:10368000E5B254016006E5A85410700F75B292754A
:10369000B6F9E4F5B743B20143A810227816E6FF65
:1036A0002400F582E4340022EE30E707C3E49FFFF4
:1036B000E49EFE2204001E0014050028001E0203E2
:1036C00004101115000101070000000000000000B7
:1036D00000000000000000000000000000000000EA
:1036E00000000000000000000000000000000000DA
:1036F00000000000000000000000000000000000CA
:1037000000000000000000000000000000000000B9
:1037100000000000000000000000000000000000A9
:103720000000000000000000000000000000000099
:103730000000000000000000000000000000000089
:103740000000000000000000000000000000000079
:103750000000000000000000000000000000000069
:103760000000000000000000000000000000000059
:103770000000000000000000000000000000000049
:103780000000000000000000000000000000000039
:103790000000000000000000000000000000000029
:1037A0000000000000000000000000000000000019
:1037B0000000000000000000000000000000000009
:1037C00000000000000000000000000000000000F9
:1037D00000000000000000000000000000000000E9
:1037E00000000000000000000000000000000000D9
:1037F000000000000000000000000000000000AE1B
:1038000000000000000000000000000000000000B8
:1038100000000000000000000000000000000000A8
:00000001FF
