:100000000026000000040000516000000000000015
:1000100000000000000000000000000000000000E0
:10002000022F959001FEE012377D22022B580239F3
:100030002A0000020826D2AF320000020816D2AF12
:10004000320000022003D2AF32000002081E9001ED
:10005000C01234407496F012256390018912110386
:1000600012341AE4FCFD120F8590018912110F90D1
:10007000018DE475F001120EEDC3900190E09464DF
:1000800090018FE094005003020AD790018912106A
:10009000F7ECC0E0EDC0E0EEC0E0EFC0E090018D15
:1000A000E0FEA3E0FBEEFAE4F9F8D0E0FFD0E0FEDA
:1000B000D0E0FDD0E0FC12102B90018912110F90BE
:1000C00001891210F7900187EEF0A3EFF0A312114F
:1000D0001B0000000090018D123440F09001EAE016
:1000E0007002A3E06003020AD7900191E07002A3BE
:1000F000E06003020AD790013CE0700302096E90B1
:100100000183E07002A3E0701D900187E0FFA3E08F
:100110009001831233FC1234489001937403F0A3CE
:1001200074E8F0020981900187E0FEA3E0FFC3902C
:100130000184E09FFF900183E09EFE1239809001D0
:10014000AA121158EE8FF0120F66900181E0701D17
:100150009001AA123404C39406E5F09400500812EA
:10016000340112344880069001817401F0900187B7
:10017000123453900184E09F900183E09E4007E495
:10018000900182F0801B9001827401F08013E49052
:100190000183123441F0900181F0900195123441B5
:1001A000F0900181E07003020AD7D3900186E094B9
:1001B00000900185E094005003020AD7123401FF39
:1001C000900185E0FCA3E0FDC3EF9DFFE5F09CFE00
:1001D0001239809001C4EEF0A3EFF0A3E4F074C8EC
:1001E0001233FFD39494E5F09411400A9001C67441
:1001F00003F0A37420F09001C4E0FFA3E09001AEEF
:100200001233FCD312340B400CD39001C5E094960A
:10021000123439501312340112340A50369001C589
:10022000E094C8123439402BE4900181F0900183AE
:10023000F01233FF12340A9001915008E4F0A374D5
:10024000C8F080077401F0A3742CF0E4900182F0F0
:10025000020AD7123401FFD312340C404AD31234AD
:1002600033404490010812115874FF75F0F9120FD1
:100270002E900197E475F007120EEDC3900196E001
:1002800094E8900195E09403501DA3E09407900139
:1002900095E09400400A74FF75F0F9120EED8007A6
:1002A000E4900195F0A3F012340112340A50481280
:1002B00034334043900108121158E475F007120FCF
:1002C0002E900195E475F007120EEDC3900198E0B1
:1002D0009458900197E09402501DA3E09407900178
:1002E00097E09400400A74FF75F0F9120EED800754
:1002F000E4900197F0A3F090013CE0601B9001B8FE
:10030000E07002A3E0701190011DE0FFA3E09001F6
:10031000B8CFF0A3EFF080359001FEE064017008E3
:100320009001C2F0A37496F090013CE0701F12346B
:1003300001FFD39001C3E09F9001C2E095F0400D12
:10034000E49001B8F0A3F09001BCF0A3F09001B8E4
:10035000E07002A3E07003020BE812341AC39001AC
:10036000B9E09FFF9001B8E09EFE1239809001C075
:10037000EEF0EF123418D39001B9E09F9001B8E08D
:100380009E400D9001C0E0FFA3E09001BACF80171E
:100390009001C012345394C8EE9400400EEE13FE48
:1003A000EF13FF9001BAEEF0A3EFF0D39001BBE0A2
:1003B000940A9001BAE09400404E123401D394881C
:1003C000E5F09413401FE53594DCE534940550388E
:1003D0009001BBE025E0FE9001BAE0339001BCF053
:1003E000A3CEF08023123401D394E8E5F0940340C7
:1003F00017E53594F4E5349401500D9001BAE0FF0F
:10040000A3E0A3CFF0A3EFF09001FEE0640160034E
:10041000020D5990013CE06003020D439001F6E0AB
:100420007002A3E06003020D439001EAE07002A3B2
:10043000E06003020D4390019FE07002A3E0700FA3
:1004400090011DE0FFA3E090019FCFF0A3EFF01219
:10045000341AC390019EE09F90019DE09E5004EEEF
:1004600012342BD39001A4E094009001A3E09400F7
:10047000401F9001A2E0940412345A40149001A944
:10048000E0700EE004F09001A3740575F0DC120E2C
:10049000ED9001A3E07002A3E070239001A9F09019
:1004A00001A3740BF074B81234189001A0E02FFF70
:1004B00090019FE03EC313FEEF13FFEE801A900100
:1004C0009F12345390011EE09F90011DE09E400C4E
:1004D000E0FFA3E090019FCFF0A3EFF012341AC326
:1004E0009001A0E09F90019FE09E40149001A0E049
:1004F0009FFF90019FE09E9001A1F0A3EFF0800785
:10050000E49001A1F0A3F0C39001A2E0940612349C
:100510005A40279001A57427F0A37410F09001A20F
:10052000E0941412345A9001A7E44007F0A374C871
:10053000F08005F0A37464F0D2089001A5E0700289
:10054000A3E0700F123423E49001A7F0A3F0900110
:10055000BE80239001A7E0FFA3E09001BECFF0A3EF
:10056000EFF022123423E49001A5F0A3F09001BE35
:10057000F0A3F09001A7F0A3F022E709F608DFFA54
:100580008046E709F208DFFA803E88828C83E7091B
:10059000F0A3DFFA8032E309F608DFFA8078E30996
:1005A000F208DFFA807088828C83E309F0A3DFFA17
:1005B000806489828A83E0A3F608DFFA8058898202
:1005C0008A83E0A3F208DFFA804C80D280FA80C6EA
:1005D00080D4806980F28033801080A680EA809A7F
:1005E00080A880DA80E280CA803389828A83ECFA2C
:1005F000E493A3C8C582C8CCC583CCF0A3C8C58288
:10060000C8CCC583CCDFE9DEE7800D89828A83E42C
:1006100093A3F608DFF9ECFAA9F0EDFB2289828AB0
:1006200083ECFAE0A3C8C582C8CCC583CCF0A3C8CC
:10063000C582C8CCC583CCDFEADEE880DB89828A4C
:1006400083E493A3F208DFF980CC88F0EF60010E19
:100650004E60C388F0ED2402B4040050B9F582EB7B
:100660002402B4040050AF2323458223900DAA73C3
:10067000EF8DF0A4A8F0CF8CF0A428CE8DF0A42E9E
:10068000FE22BC000BBE0029EF8DF084FFADF022EE
:10069000E4CCF875F008EF2FFFEE33FEEC33FCEE00
:1006A0009DEC984005FCEE9DFE0FD5F0E9E4CEFDF3
:1006B00022EDF8F5F0EE8420D21CFEADF075F008C6
:1006C000EF2FFFED33FD4007985006D5F0F222C31F
:1006D00098FD0FD5F0EA22C2D5EC30E709B2D5E497
:1006E000C39DFDE49CFCEE30E715B2D5E4C39FFF4B
:1006F000E49EFE120E62C3E49DFDE49CFC800312A6
:100700000E6230D507C3E49FFFE49EFE22C5F0F8D9
:10071000A3E028F0C5F0F8E582158270021583E0A9
:1007200038F022BB010A89828A83E0F5F0A3E02237
:10073000500687F009E71922BBFE07E3F5F009E34D
:10074000192289828A83E493F5F074019322BB0114
:100750000789828A83020EED500B09C5F027F7C581
:10076000F01937F722BBFE0D09F8E325F0F3C5F0C9
:1007700019E338F322F889828A8374019325F0C53E
:10078000F0F8E4933822BB010A89828A83F0E5F00D
:10079000A3F0225006F709A7F01922BBFE06F3E5E5
:1007A000F009F31922EF2BFFEE3AFEED39FDEC389C
:1007B000FC22C3EF9BFFEE9AFEED99FDEC98FC2224
:1007C000E88FF0A4CC8BF0A42CFCE98EF0A42CFCD8
:1007D0008AF0EDA42CFCEA8EF0A4CDA8F08BF0A456
:1007E0002DCC3825F0FDE98FF0A42CCD35F0FCEBB5
:1007F0008EF0A4FEA9F0EB8FF0A4CFC5F02ECD397A
:10080000FEE43CFCEAA42DCE35F0FDE43CFC227570
:10081000F008758200EF2FFFEE33FECD33CDCC33E1
:10082000CCC58233C5829BED9AEC99E58298400C49
:10083000F582EE9BFEED9AFDEC99FC0FD5F0D6E427
:10084000CEFBE4CDFAE4CCF9A88222B800C1B9000D
:1008500059BA002DEC8BF084CFCECDFCE5F0CBF96E
:100860007818EF2FFFEE33FEED33FDEC33FCEB3366
:10087000FB10D703994004EB99FB0FD8E5E4F9FA94
:10088000227818EF2FFFEE33FEED33FDEC33FCC979
:1008900033C910D7059BE99A4007EC9BFCE99AF90C
:1008A0000FD8E0E4C9FAE4CCFB2275F010EF2FFF7B
:1008B000EE33FEED33FDCC33CCC833C810D7079BE5
:1008C000EC9AE899400AED9BFDEC9AFCE899F80F48
:1008D000D5F0DAE4CDFBE4CCFAE4C8F922EB9FF5DD
:1008E000F0EA9E42F0E99D42F0EC6480C864809892
:1008F00045F022EB9FF5F0EA9E42F0E99D42F0E8D8
:100900009C45F022E8600FECC313FCED13FDEE13E1
:10091000FEEF13FFD8F122E0FCA3E0FDA3E0FEA36D
:10092000E0FF22E0F8A3E0F9A3E0FAA3E0FB22EC69
:10093000F0A3EDF0A3EEF0A3EFF022A8828583F000
:10094000D083D082121132121132121132121132AE
:10095000E473E493A3C583C5F0C583C8C582C8F01A
:10096000A3C583C5F0C583C8C582C822A42582F566
:1009700082E5F03583F58322E0FBA3E0FAA3E0F9FA
:1009800022EBF0A3EAF0A3E9F022EC8EF0A4CCC5B0
:10099000F0CCCDF8EFA4CEC5F02DFDE43CFCE8A4EE
:1009A0002EC8C5F03DFDE43CFCEFA4FFE5F028FEB9
:1009B000E43DFDE43CFC22EF4E6012EF60010EEDE1
:1009C000BB010B89828A83F0A3DFFCDEFA2289F067
:1009D0005007F709DFFCA9F022BBFEFCF309DFFC9E
:1009E000A9F022208A030215B3900181E06003027E
:1009F00015B39001ECE07002A3E060030215B39020
:100A000001EAE07002A3E060030215B390016EE01A
:100A10007002A3E060030215B3122F856003021574
:100A2000B390013CE0FF60030215B3EF7038900112
:100A300017122F25900105122F22D39FE5F09E401B
:100A4000030215B37E007F0A7D007B017A01793DA8
:100A5000121197E490017AF0A3F09001F2F0A3F064
:100A60009001F0F0A3F0E4F5B290017EE0FFA3E086
:100A7000900224CFF0A3EFF0C20B300403021588DC
:100A8000758D20438D20758D8043A808D2AF758B5E
:100A900002758EC820042B122F857026200923E5AD
:100AA000DB5404701D758AA4200913E5DB5404701F
:100AB0000DF5867587030000007586018006D20B50
:100AC0008002D20B758B01758A3053A8F7D3900141
:100AD000EBE094909001EAE09401400A74FE75F016
:100AE00070120EED8007E49001EAF0A3F0D39001BC
:100AF000F7E094909001F6E09401400A74FE75F0DE
:100B000070120EED8007E49001F6F0A3F0E490027D
:100B100028F0A3F0121BA0900166EEF0A3EFF09076
:100B2000016AEEF0A3EFF0C3900225E09FFF900270
:100B300024E09EFE123980900226EEF0A3EFF0D35F
:100B40009414EE94005025A3E475F001120EEDD339
:100B5000900229E09405900228E094004002D20B14
:100B6000D3900227E0940F122F4B50A8122F44402D
:100B700003021578300B0302157890015AE0FEA3AA
:100B8000E0FF90016AE0FCA3E0FD9FEC9E402BEDAE
:100B90009FFFEC122F357FB87E88122F524009122A
:100BA000111B0000EA60804F1210F7EF24A8FFEE3F
:100BB0003461FEE43DFDE43C803990016AE0FEA32F
:100BC000E0FFC390015BE09FFF90015AE0122F35D8
:100BD0007FA87E61122F52400912111B00000000F5
:100BE0008015121103C374A89BFF74619AFEE499E7
:100BF000FDE498FC122F3E9001C21210F79001C044
:100C0000EEF0A3EFF0900224E0FEA3E0FF7C007D75
:100C10000912116AECF8EDF9EEFAEFFB90016AE0C7
:100C2000FEA3E0FFE4FCFD120F857B0A122F1B9050
:100C30000224EEF0A3EFF090013CE0704A9001082E
:100C4000122F25FFAEF0122EFC900100EEF0A3EF64
:100C5000F0900108122F25FFAEF07C007D031211E9
:100C60006A900100122F06900108122F2C900100AB
:100C7000E0FEA3E0FF122F2B900105122F8C9001B4
:100C80000E122F8C021578900100E0FEA3E0FF12F7
:100C90002EFC900100EEF0A3EFF0122F2B90010834
:100CA000122F25FFD39001C1E09F9001C0E095F085
:100CB0005003021588120F03900102122F22122FE7
:100CC0007DC3EF9535EE95345003021588900105EC
:100CD000122F25FFAEF07C007D0212116AECC0E0FD
:100CE000EDC0E0EEC0E0EFC0E0900108122F25FF5C
:100CF000AEF0900102122F25122F7DE4FCFDD0E012
:100D0000FBD0E0FAD0E0F9D0E0F8120F85E47B03E5
:100D1000122F1C900105122F2C900105122F25D3A4
:100D20009430E5F094754008747575F030120F66D4
:100D3000900181E06062900185E0FEA3E0FFD39422
:100D400000EE94004052900105122F25122F7D12C3
:100D500039809001C6EEF0A3EFF0900105122F2527
:100D6000C3122F635012122F70400D900108121100
:100D700058E475F007120F2E900105122F25D3129B
:100D80002F634014D3122F70400E90010812115897
:100D900074FF75F0F9120F2E200B0D122F4450081E
:100DA000122F85700302125A900180E004F0900126
:100DB0008912111B00000000E490018DF0A3F0A344
:100DC000F0A3F090020512111B0000000012392A56
:100DD00012389E22122E9840030218C89001081261
:100DE0002E68FDE5F0FC122E65FFAEF0D39DEE9C63
:100DF000402E122EEED3EF9430EE9475400C9001FD
:100E0000C07475F0A37430F08010120F03C39DFE00
:100E1000E5F09C9001C0F0A3CEF0E49001B08060BA
:100E2000120F03FFAEF0C3ED9FFBEC9EFAD3EB94E1
:100E300010EA9427400C9001C07427F0A37410F0BE
:100E40008009C3ED9FFFEC9E122E849001C0E0FF4D
:100E5000A3E09001B0CFF0A3EFF0300018D3E094FE
:100E60002C9001B0E0940140139001B27427F0A3DC
:100E70007410F08007E49001B2F0A3F0E49001C098
:100E8000F0A3F090013CE0604A122E5CD39400EE97
:100E9000648094804014D3EF9523EE9522400B900C
:100EA00001F0E4F0A37464F0801BD39001F1E094AE
:100EB000009001F0E09400400C900105122E68FFB4
:100EC000E5F0122E84D2089001F6749CF0A37440D1
:100ED000F0800F9001F47403F0A374E8F0E4FF12C3
:100EE000382FD39001C1E094009001C0E064809459
:100EF00080500302189DE0FEA3E0FF900105122E32
:100F000053122E5CEE3395E0FDFCE47BB87A88F951
:100F1000F8C31210BD500A9001C07488F0A374B8D1
:100F2000F0D39001F3E094009001F2E094005008B7
:100F30009000F1E06420702AE523240AFFE43522C2
:100F4000FE9001C0E0FCA3E0FDC39FEC9E5013EDBA
:100F50009400EC648094804035122E5C7C007D0A05
:100F6000802930002990013CE07011122E5CC3955D
:100F700035EE953450187C027DBC800F122E5CC378
:100F80009523EE952250077C027DBC122E809001A5
:100F90003CE070030217FC9001F4E07002A3E070E3
:100FA000149001C0E0FEA3E0FDEEFCE4FF1218C9BE
:100FB000122E838035122E5CC3900135E09FFF9086
:100FC0000134E09EFE123980D3EF9428EE648094C1
:100FD000804017D39001F5E094C89001F4E09400AC
:100FE000400874FF75F09C120EED900134E0FEA3F2
:100FF000E0FF7C007D0712116AECF8EDF9EEFAEFE4
:10100000FB122E5CEE3395E0FDFC120F85E47B08AD
:10101000FAF9F812102B900134EE800B9001C0E029
:10102000FFA3E0900134CFF0A3EFF0900134E0FE95
:10103000A3E0FFD39405EE9400400EEF9410EE94DD
:101040000050069001C0EE8016900130E0FEA3E053
:10105000FF900135E02FFF900134E03E9001C0F099
:10106000A3EFF0D39001C1E094309001C0E0648020
:1010700094F540077475F0A37430F0E5DB54047008
:101080006790013CE07020D39001A6E094009001AD
:10109000A5E094004011122E5C9523EE95224007A6
:1010A0007C007D0A122E80122E5C90010E122E53AF
:1010B0009001C1E024A8FF9001C0E08022E5DB544C
:1010C000047025122E8C900130E0FEA3E0FF900109
:1010D0000E122E5390010E122E6824A8FFE5F03454
:1010E00061FE90010B122E53229001C2EFF0A3EC8F
:1010F000F0A3EDF0EF122C90E0FEA3E0C39DFFEE15
:101100009CFE123980D3EF9428EE64809480401CBA
:10111000122C6012111B00000000122C2CE4F012A3
:101120002CAA122C8CEEF0A3EFF0803B122C1B1299
:101130002CC040339001C3E0FCA3E0FDD3EF9DEE53
:101140009C400B9001C2E0122C53E04401F090014E
:10115000C2E0FF122C1FE0FAA3E0C39DEA9C5007F7
:10116000122C52E04402F09001C2E0122C65C083C0
:10117000C082121103122CAAE4FCFD120F85D0824A
:10118000D08312110F9001C2E0FF122CB3E475F06E
:1011900001120EEDEF75F007A424B2F582E43439A4
:1011A000F583E493FE740193FF9001C2E0FDC45403
:1011B000F0241CF582E43402F583E0FAA3E0C39F37
:1011C000EA9E5003021B35ED122CB3E0FEA3E0FFB4
:1011D000FBEEFAE4F9F89001C2E0122C651210F768
:1011E00012102B9001C512110F122C15E0FCA3E078
:1011F000C39FFFEC9EFE1239809001C9EEF0A3EF71
:10120000F09001C2E0FD75F007A424ADF582E4344E
:1012100039F583C37401939FE4939E401FED122C14
:101220001FE0FEA3E04E60149001C2E0FB122C9D73
:10123000E0FEA3E0C394B8EE940B501E9001C2E010
:10124000FF122C1FE0FCA3E04C7008EF122C9DE471
:10125000F0A3F0122C15EE021ADCEB6003021AE286
:101260009001CBF09001C9E0FEA3E0FFD39450EED3
:1012700094004006A37408F080329001C2E0122C62
:1012800053E064036026D3EF943CEE940040089052
:1012900001CB7404F08015D39001CAE0942890012A
:1012A000C9E0940040069001CB7402F0122C1BE0C0
:1012B000FEA3E0FFE4FCFD122CCCD31210D34011AE
:1012C0009001CBE0FF122C1BE48FF0120EED021BFD
:1012D00018D39001CAE094509001C9E0940040589E
:1012E000122C1BC083C082E0FEA3E0FF9001CBE084
:1012F000FDC3EF9DFFEE9400D082D083F0A3EFF00A
:101300008036122C1BE0FEA3E0FF4E700D122CCC99
:10131000EBFFEAFEE9FDE8FC80167C007D07121178
:101320006A122CCC120F85E47B08FAF9F812102B04
:10133000122C1BEEF0A3EFF0122C6012111B000018
:101340000000122C2CE4F09001C51210F7122C8C26
:10135000EEF0A3EFF0122C1B122CC0405F9001C4E2
:10136000E09FFF9001C3E09EFE1239809001C2E031
:1013700075F007A424AFF582E43439F583D3740102
:10138000939FE4939E400F9001C2E0FF122C1F1226
:101390002C72E4F080269001C2E0FF75F007A424CF
:1013A000B1F582E43439F583E493FE122C7EE0C378
:1013B0009E5009122C1B122C72E004F0122CAA224F
:1013C0007F01123584123114902E20E030E2F99022
:1013D00001FEE025E024AAF582E434391230D690EB
:1013E00001CE1231067F01122DD09001CEE0FFA375
:1013F000E0900160CFF0A3EFF090015CE07002A3F9
:10140000E0700F900160E0FFA3E090015CCFF0A3DB
:10141000EFF09001D012111B00002710E4FF1235ED
:1014200084E49001CBF01230E89001CBE0C39F4000
:1014300003021CFFE4FF123114902E20E030E2F989
:101440009001FEE025E024A9F582E434391230D67B
:101450009001CC123106FF122DD0900199E0FEA32D
:10146000E0FF9001CDE02FFF9001CCE03EFE900127
:101470009BE0FCA3E0FDC3EF9DFFEE9CFE9001CC42
:10148000F0A3EFF09001B6EEF0A3EFF090015EE074
:10149000FEA3E0FF4E700E9001B6E0FCA3E0FDEC71
:1014A000FEEDFF801AEF25E0FFEE33FE9001B7E07E
:1014B0002FFF9001B6E03EFE7C007D03120E62908D
:1014C000015EEEF0FAA3EFF0FB1230CEFFE4FCFD7C
:1014D0009001D512110FEBFFEAFEE4FCFD9001D95B
:1014E00012110FE4FF122176900162EEF0A3EFF0EB
:1014F0009001FEE09001D0700B1230CB2400FFEE83
:1015000034E880091230CB2400FFEE34F0FE33952E
:10151000E0FDFC1231279001CBE004F0021C0690A4
:101520002E23E4F09001D0121103E8C0E0E9C0E0FE
:10153000EAC0E0EBC0E01230E8FBE4FAF9F812315F
:10154000211236B6D0E0FBD0E0FAD0E0F9D0E0F8D6
:10155000123127E47F507EC3FDFC9001D0121103AD
:10156000D31210BD400A9001D012111B0000C350CD
:10157000123121EC33500A9001D012111B000000EF
:1015800000900168E0FAA3E0FB4A70051231218067
:10159000227E007F02EBFDEAFC12116AECF8EDF905
:1015A000EEFAEFFB123121120F85E47B03FAF9F812
:1015B00012102B900168EEF0A3EFF090015AE0704A
:1015C00002A3E0700F900168E0FFA3E090015ACF02
:1015D000F0A3EFF09001261230CBFFE4FCFD120FD8
:1015E0008590012612110F90012AE475F001120E68
:1015F000ED90012AE0FEA3E0FFD3940AEE940040B0
:1016000029EFFBEEFAE4F9F89001261210F7121018
:101610002B900124EEF0A3EFF0E490012AF0A3F068
:1016200090012612111B0000000090012CE07002B6
:10163000A3E0703A900124E0FEA3E0FFC3900163B1
:10164000E09FFF900162E09EFE123980900122EE41
:10165000F0A3EFF0D39406EE9400401290012C74A6
:1016600003F0A374E8F0A3E475F001120EED90010D
:1016700068E0FEA3E0FF22D39001EBE09F9001EA37
:10168000E09E400AA3E09FF09001EAE09EF0900106
:10169000EF1234689001EEE09C400CA3E09FF090C4
:1016A00001EEE09EF08002D28AD39001EDE09F909F
:1016B00001ECE09E400AA3E09FF09001ECE09EF078
:1016C00012347A50031234B2D39001F1E09F9001AA
:1016D000F0E09E400AA3E09FF09001F0E09EF0D37E
:1016E0009001F3E09F9001F2E09E400AA3E09FF09A
:1016F0009001F2E09EF0D39001F9E09F9001F8E0B4
:101700009E400AA3E09FF09001F8E09EF0D3900184
:10171000F5E09F9001F4E09E400AA3E09FF0900165
:10172000F4E09EF0D39001F7E09F9001F6E09E4038
:101730000AA3E09FF09001F6E09EF0D39001B3E0A1
:101740009F9001B2E09E400AA3E09FF09001B2E0BA
:101750009EF09001FB1234689001FAE09C400AA3CD
:10176000E09FF09001FAE09EF012348850031234AA
:10177000B2D3900192E09F900191E09E400AA3E0D5
:101780009FF0900191E09EF09001941234B8900186
:1017900093E09C400AA3E09FF0900193E09EF0D379
:1017A0009001A4E09F9001A3E09E400AA3E09FF077
:1017B0009001A3E09EF0D39001A6E09F9001A5E0E8
:1017C0009E400AA3E09FF09001A5E09EF090016F7B
:1017D0001234B890016EE09C400AA3E09FF09001A3
:1017E0006EE09EF0D39001B5E09F9001B4E09E4082
:1017F0000AA3E09FF09001B4E09EF01234965003EB
:101800001234B21234A450031234B2D390012DE03A
:101810009F90012CE09E400AA3E09FF090012CE0F5
:101820009EF022C0E0C0F0C083C082C0D0E8C0E01B
:10183000D2AFD39001EBE094009001EAE094004035
:1018400003123461D39001EFE094019001EEE09433
:101850000040051234618002D28AD39001EDE094F9
:10186000009001ECE09400400312346112347A508D
:1018700003123473D39001F1E094009001F0E094EE
:10188000004003123461D39001F3E094009001F220
:10189000E094004003123461D39001F9E094009089
:1018A00001F8E094004003123461D39001F5E09414
:1018B000009001F4E094004003123461D39001F7EA
:1018C000E094009001F6E094004003123461D3905C
:1018D00001B3E094009001B2E0940040031234613F
:1018E000D39001FBE094019001FAE09400400312D0
:1018F00034611234885003123473D3900192E0940F
:1019000000900191E094004003123461D39001945F
:10191000E09401900193E094004003123461D3906D
:1019200001A4E094009001A3E0940040031234610C
:10193000D39001A6E094009001A5E094004003122A
:101940003461D390016FE0940190016EE094004007
:1019500003123461D39001B5E094009001B4E09497
:10196000004003123461123496500312347312345F
:10197000A45003123473D390012DE0940090012CF5
:10198000E094004003123461D0E0F8D0D0D082D08F
:1019900083D0F0D0E0329001D4EFF0122AD1E07081
:1019A000279001D4E0122B081210F7E4FBFAF9F8A3
:1019B000C31210D360129001D4E0122B261210F73C
:1019C000E4F8C31210D37057122B3A9001D51222AB
:1019D000B2EEF0A3EFF0ED122AD1E06029ED75F040
:1019E0000AA42492F582E43439F583C083C082903E
:1019F00001FEE0D082D083122ADF400A9001D4E0B9
:101A0000122AD17405F0122A86E0D39400748094CF
:101A1000804006122AD0E014F09001D90222AE12C2
:101A20002B031210F79001DD12110F122B2512104B
:101A3000F79001E112110F9001D4E0122B17121050
:101A4000F7EFF9122B43E9F81210E4EFFBEEFAED91
:101A5000F9ECF8122B43120F929001E512110F903E
:101A600001DD1210F79001D9121103120F859001B8
:101A7000E5121103120F85122B34122B03122B4087
:101A8000122B25122B40122B4912110312102B126C
:101A90002B349001E11222B2EEF0A3EFF0ED75F0DD
:101AA0000AA4248EF582E43439F583C083C0829081
:101AB00001FEE0D082D083122ADF400F122A867402
:101AC00005F0122B3A9001E112110F9001E1121072
:101AD000F722EFFBEEFA1210F7C3EF9BFFEE9AFE30
:101AE0001239809001D4E0FD75F013A4240AF58228
:101AF000E43402F5832290017A122EF59404EE94D8
:101B0000005022122EC8EF25E0FFEE33FE74722F34
:101B1000F58274013EF583ECF0A3EDF090017A12AA
:101B20002EDC0223A49001CD7401F09001CDE0FFE2
:101B3000C39404748094805021EF122EB0FCA3E073
:101B4000FDEF25E02470F582E43401F583ECF0A389
:101B5000EDF09001CDE004F080D190013CE0600216
:101B60008053122E65FF122EC8C3EF9DFFE5F09C37
:101B7000FE123980C3EF9428EE6480948050369032
:101B80000108122E68FFC3900101E09FFF90010041
:101B9000E095F0FE123980C3EF9414EE64809480D7
:101BA00050059001088003900102122E68FF9001F9
:101BB00078E5F0800B900100E0FFA3E0900178CF82
:101BC000F0A3EFF09001C912111B00000000E49097
:101BD00001CDF09001CDE0FFD390017BE09F90011B
:101BE0007AE0940040259001C91211039001CDE0E4
:101BF000122EB0FEA3E0FFE4FCFD120F859001C998
:101C000012110F9001CDE004F080C89001C91210AC
:101C1000F7ECC0E0EDC0E0EEC0E0EFC0E090017A8C
:101C2000122EE3D0E0FFD0E0FED0E0FDD0E0FC12C9
:101C3000102B9001C912110F9001C90210F79001E9
:101C4000C07402F0A374BCF0D39001B5E09400908E
:101C500001B4E094004011122E65FF9001081211AA
:101C600058E5F08FF0120F669001EAE07002A3E0F1
:101C7000600B9001C0E4F0A37464F0800B90001A34
:101C8000E0641170037420F090013CE0600F7E006E
:101C90007F0A7D007B017A01793D02119790013D19
:101CA000121103E8C0E0E9C0E0EAC0E0EBC0E012D6
:101CB0002E65FFAEF0E4FCFDD0E0FBD0E0FAD0E012
:101CC000F9D0E0F8120F8590013D12110F900141FB
:101CD000122EDC9001C0122EF5900146E09F90017B
:101CE00045E09E500302256290013D1210F7ECC0C2
:101CF000E0EDC0E0EEC0E0EFC0E0900141122EE365
:101D0000D0E0FFD0E0FED0E0FDD0E0FC12102B9040
:101D1000013D12110F900108122E682432FFE435A4
:101D2000F0FEE4FCFD90013D121103D31210D340EC
:101D30002E9001EAE07002A3E070242008219001B7
:101D400043122EDDD3900144E09405900143E094CA
:101D5000004018122E4AE4900143F0A3F0800C12C8
:101D60002E4AE4900143F0A3F0C20890013D121105
:101D70001B00000000E4900141F0A3F0900145F049
:101D8000A3F022758D20438D20538D7FE4F5B2752D
:101D9000B6FF75B7FF75B2A243B20153A8FB538BD0
:101DA0007F758B10438B08E58B20E7030080F85389
:101DB0008B7F758B11438B08E58B20E7030080F840
:101DC00090022DE5B5F0A3E5B4F0758B01E4F5B212
:101DD00012392AE4F58D90011DE0FEA3E0FF4E705C
:101DE0000F123996FD90011DE5F0F0A3EDF080662D
:101DF000123996FDC3EF9DFFEE95F0FE123980D3A8
:101E0000EF940AEE648094804024123996FFC390C8
:101E1000011EE09F90011DE095F05006E475F00171
:101E2000800790011D74FFF5F0120EED8028123925
:101E300096AEF0FBEEFAE4F9F890011DE0FEA3E0A7
:101E4000FFE4FCFD120F85E47B02FA12102B9001D7
:101E50001DEEF0A3EFF09001FEE0640190011D7013
:101E60000BE0FEA3E0FF7C007D1C8009E0FEA3E008
:101E7000FF7C007D2112116AE47B64FAF9F81210EC
:101E80002B900199EEF0A3EFF090019BE07002A37C
:101E9000E0700D900199E0FFA3E0A3CFF0A3EFF075
:101EA00090019DE07002A3E0700F90011DE0FFA380
:101EB000E090019DCFF0A3EFF0229001C5EFF090EC
:101EC0002E22E0FF9001C9E4F0A3EFF0758A509054
:101ED0002E227401F01236937404F0A3E4F0900102
:101EE000C6F09001C6E0FFC3940D74809480400357
:101EF0000227AEEFF87E02E4088006CEA2E713CEFA
:101F000013D8F8FF9001C7EEF0A3EFF04E700790E2
:101F100001C7F0A304F0902E207401F0902E20E071
:101F200030E2F99001C5E0FF902E0012369AE0FCF5
:101F3000A3E0D394FEEC940740401236ACE0FEA33D
:101F4000E0FF9001C7E0FCA3E0FDEF2DFFEE3CFEBB
:101F5000C3EF94FFEE94079001C5E075F002902E58
:101F600010500B12114CEC8DF0120EED805012112E
:101F70004C7407F0A374FFF080449001C5E0FF1299
:101F80003697E0FCA3E0FD9001C7E0FAA3E0FBD3A5
:101F9000ED9BEC9A40211236ACC083C082C3A3E013
:101FA0009BFF0582D5820215831582E09AD082D0EC
:101FB00083F0A3EFF08007123693E4F0A3F0902EA5
:101FC00020E4F0F58D9001C6E004F00226C29001F5
:101FD000C9A3E0902E22F0758A30227FFF7A007923
:101FE000001237B17FC07A0179001237B17E007FCD
:101FF000147D007B017A0179E9121197902DE0E4BC
:1020000093900001F09000047411F0A37422F0A3E7
:102010007433F0902DE2E493900012F0902DE3E4FD
:1020200093900014F09000FB7401F090003674104F
:10203000F09000F1F0900024F0A37420F07B017A7E
:102040000079409001021211617A007944900108F0
:102050001211617A0079429001051211617A0079BA
:102060002E90010B1211617A00792A90010E121143
:10207000617A0079289001111211617A00796090DB
:10208000011F1211617A0079809001AA1211617A00
:102090000079189001391211617A00791B9001368C
:1020A0001211617A0079329001141211617A00796B
:1020B000269001171211617A00793490011A1211D9
:1020C0006112377D9001EA7407F0A374D0F0E490B8
:1020D00001E9F0227FC87E007D967C00122E984098
:1020E0000302299E3000209001B2E07002A3E0605C
:1020F0000875341375358880067534057535DC75BB
:1021000022037523E880499001FEE0F9640170061E
:10211000FE7FC8FC7D969001BCE0FAA3E0FB2FF5A2
:1021200035EA3EF534CEECCEEDFFEB2FF523EA3E5B
:10213000F522E964017019A3E0FEA3E0FF2535F55F
:1021400035EE3534F534EF2523F523EE3522F5222F
:10215000900105122E68FFAEF0C39535EE95345010
:102160000F90013CE0601AC3EF9523EE95224011D9
:102170009001F2E07002A3E0702290013C04F08034
:102180001B9001F27401F0A374F4F0E490013CF0B0
:102190009001F0F0A3F09000367410F090013CE054
:1021A000FF6016900024E0641090003670057410F3
:1021B000F080037420F0122ED190004BEFF022E457
:1021C000F50CF50BF50AF509F50CF50BF50AF50913
:1021D000F508122EA6502AE50825E02424F8E6FE8C
:1021E00008E6FFE4FCFDE50C2FFFE50B3EFEED35B8
:1021F0000AFDEC35098F0C8E0B8D0AF50905088058
:10220000D1E47B07FAF9F8AF0CAE0BAD0AAC0912BA
:10221000102B90017EEEF0A3EFF0E4750CA8750B87
:1022200061F50AF509F508122EA6505590017E12A7
:102230002E6EC3122EEE123980D3EF940AEE648014
:102240009480401290017EE0FEA3E0FF90015AE0EE
:10225000FCA3E0FD800790015A122E6EC3122EEEF1
:102260003395E0FDFCE50C2FFFE50B3EFEE50A3D56
:10227000FDE5093C8F0C8E0B8D0AF5090508022A35
:1022800007E47F607EEAFDFCAB0CAA0BA90AA80953
:10229000D31210D3400BE4750C60750BEAF50AF508
:1022A00009AE0BAF0C229001D91210F79001D4E0C7
:1022B000FB75F013A42405F582E43402F5831211B2
:1022C0000FEB75F013A42410F582E43402F58312A9
:1022D00010F79001D9121103120FA09001D4E0FB66
:1022E00075F013A42401F582E43402F58312110F72
:1022F000EB75F013A42409F582E43402F58322750A
:10230000F00212114CE493FE740193FFED75F0138B
:10231000A4240AF582E43402F583E0FCA3E0D39F11
:10232000EC9E229001D4E0FB75F013A42405F58205
:10233000E43402F58322EB75F013A4240CF582E457
:102340003402F58322EB75F013A42401F582E43402
:1023500002F583229001E112110F9001D90210F7CA
:1023600012110F9001E10210F7EB75F013A4241085
:10237000F582E43402F58322C0E0C083C082C0D07D
:1023800075D018D2AFE5DB30E422D209C206E5DB16
:1023900030E114123972E0F5DFEF64077065D28A1C
:1023A000900007F0022C06C205022C09E5DB30E59F
:1023B0002C9000F0E064AA7017758A10F5DAC2AFAD
:1023C000F5B2F5A8F5A9F58B758E01758DC080FE67
:1023D000D204300604C2068050C209804CC206E511
:1023E000DB30E121E5DB30E040123972E0F5DFEF70
:1023F00024F9600824EE700BD20A8007D28A90007C
:1024000007E4F0802120050A780DA6DFD205D20668
:102410008017123972E5DFF0EF642470099001EC47
:1024200004F0A374F4F0780D0675DBFFD0D0D082F1
:10243000D083D0E0329001C51210F79001C2E0C401
:1024400054F0241AF582E43402F58322EBC454F0EC
:102450002418F582E43402F583E4F0A3F09001C27D
:10246000E0FFC454F0241CF582E43402F583E4F068
:10247000A3F0EFC454F02421F582E43402F5832262
:102480009001C2E0FBC454F02414F582E43402F558
:102490008322E0FDA3E09001C3CDF0A3EDF0EFC4F3
:1024A00054F02420F582E43402F583229001C2E046
:1024B000C454F0241EF582E43402F58322C454F09F
:1024C0002422F582E43402F583229001C3E0FEA3C6
:1024D000E0FF22C454F02418F582E43402F583228C
:1024E000E0FEA3E0FFD39400EE9400229001C50229
:1024F00011031233281238EF7E007F297D007B0103
:102500007A01798112119712082EE490017AF0A3D2
:10251000F0900168F0A3F0900166F0A3F090016ADA
:10252000F0A3F07F07123130900100E0FEA3E0FF3E
:10253000A3122E53900100E0FEA3E0FF122E5012D2
:102540002E8C90010B122EBD900111122EBD900108
:102550000E122E8FE490013CF0FE7F0AFD7B017A83
:1025600001793D121197E49001F8F0A3F09001F683
:10257000740BF0A374B8F09000367410F0E490007F
:102580004BF0122ED19001FCE0700FC39001EBE0F4
:1025900094F49001EAE09401500A9001EA7401F089
:1025A000A374F4F022900013E0FF9001FDE06F604F
:1025B0000CEFF09001FA7402F0A37458F09001FA55
:1025C000E07004A3E0640170269001FDE0FF7E004E
:1025D00064107002D200EF64204E7002C2009000BE
:1025E00025E064106002D207E49001FAF0A3F02223
:1025F0001230AF9039A69342914288439120220035
:102600000400AB2674AA7583F5758255A5745575BB
:1026100083FA7582AAA574A57583F5758255A522DE
:102620000203020AB0B00BB6B60CFFFF09020208A3
:10263000FFFF0D77770E04041307071410101080A6
:1026400080150000160000019212921207190B1A51
:102650000B0F0404040404010101011115151111EB
:102660001213131010030204020490013D1210F71C
:10267000900108121158EE8FF0020F669001C0E031
:10268000FEA3E0FF22900102121158020F03E50899
:1026900025E02424F8E6FE08E6FFE0FCA3E0FD22A6
:1026A000120EB7EE9001C0F0A3EFF02290010512D8
:1026B0001158E4F5F0020F66D39001EBE09400901E
:1026C00001EAE0940022C3E5089407748094802214
:1026D00025E02472F582E43401F583E022121158DA
:1026E000746175F0A8020F66900100E0FCA3E0FDA4
:1026F000229001EC7403F0A37420F022E475F00141
:10270000020EEDE0FEA3E0FBEEFAE4F9F822EF9D05
:10271000FFEE9CFE22E0FEA3E0FFC3227C007D03CF
:1027200012116A9001C0ECF8EDF9EEFAEFFBE0FE51
:10273000A3E0FFE4FCFD120F857B04E4FAF9F80244
:10274000102BFFAEF0121158020F03A3121158EE16
:102750008FF0020F669EFE7C007D0712116A9001C9
:10276000C202110FC3900227E09414900226E09455
:102770000022E4FDFC9001C2121103D31210D39089
:1027800001C222FF900186E09F900185E095F02232
:102790009001C7E0940A9001C6E0940022C39FFF15
:1027A000E5F09EFE229000F1E0642022121158E430
:1027B000F5F0020F66787FE4F6D8FD758135022FBB
:1027C000DF020000023024E493A3F8E493A3400363
:1027D000F68001F208DFF48029E493A3F85407247B
:1027E0000CC8C333C4540F4420C8834004F456803B
:1027F0000146F6DFE4800B010204081020408090BF
:1028000037F6E47E019360BCA3FF543F30E50954E2
:102810001FFEE493A360010ECF54C025E060A840E2
:10282000B8E493A3FAE493A3F8E493A3C8C582C8D9
:10283000CAC583CAF0A3C8C582C8CAC583CADFE9AE
:10284000DEE780BE53A87F1239461227BB12373D00
:1028500012080E43A880E4F58D9000F17420F01268
:10286000322F9001E9E014601814601A14603B14D0
:10287000604D240470E01208031231B012399F80B9
:10288000D5122CD280311238CC900020E0FF642089
:102890006008EF642160031232AD900025E06410FF
:1028A00070B49001E97404F080AC1211C39001EC93
:1028B0007403F0A37420F09001E97402F080971281
:1028C0003629900025E06410608C12399F80879033
:1028D00001FEE025E024A9F582E43439F583E582A0
:1028E0002FF582E43583F583E493221211039001DE
:1028F00062E0FEA3E022F583E49375F002902E00DF
:1029000012114CE0FFA3E0229001FEE0242FF5829B
:10291000E43402F583E0FF22F583E4932420F5827A
:10292000E4342EF58322CFF0A3EFF0902E20E4F0D4
:10293000758A302212390D758A50902E207401F05C
:10294000229001D00210F7120F859001D002110FD2
:102950009001C9EFF0E4A3F09001C9E0FFA3E0C348
:102960009F502E121BA012396190016AEEF0A3EF66
:10297000F08E32F533C87424C87400FCE4FDFB7A91
:10298000007926FE7F0E120E2A9001CAE004F08024
:10299000C712299F900100EEF0A3EFF0900168129A
:1029A0002EF5900133E09FFF900132E09EFE123938
:1029B000807C007D05120EB7900130ECF0A3EDF0A5
:1029C000900168E0FFA3E0900132CFF0A3EFF02286
:1029D000E49001C0F0A3F09001FEE0900147740480
:1029E000F0A374B0F01236FA7E007F047D007B0104
:1029F0007A01795A1211977F011237BAE4FF123720
:102A0000BA1236A09001C0CFF0A3EFF09001C0E061
:102A1000FEA3E0FFC39405EE94004009D3EF94F0C9
:102A2000EE9407400BE4900147F0A3F0FF1237BA91
:102A3000902E23E4F01236A09001C0CFF0A3EFF067
:102A400090001D7410F09001C0123671020F669054
:102A50000020E0642070037421F0900136121158B8
:102A6000120F03641045F070031235E0900001E08E
:102A700064AA70031234C3122D8520070890001A2F
:102A8000E06410700B90001A7411F0C20712399FA5
:102A90009000FBE06006E4F09001E9F090016EE048
:102AA0007004A3E06401701590016EF0A3F0900132
:102AB000B47407F0A374D0F0E49001E9F030040C92
:102AC000C2049001EC7401F0A374F4F022308A7710
:102AD0009001EAE07002A3E0706D90016EE0700278
:102AE000A3E07063F5B2758D20438D20758D804312
:102AF000A808D2AFF58B90012CE0FEA3E0FF4E605A
:102B000005758E508003758EFE20042F20092CE55C
:102B1000DB54047026758AA4200920E5DB54047078
:102B20001AF586758703000000758601EF4E600474
:102B30007F2880027F7F7E00121E57758B01758A69
:102B40003053A8F712392A227E007F137D007B01C3
:102B50007A027901121197E4FBEBC394017480941B
:102B60008050519001FEE0FFEB75F00AA4248CF533
:102B700082E43439F583E5822FF582E43583F583E9
:102B8000E493FFE4FCFDFE122B1612110F122B161C
:102B90001210F7EF04F87E007401088005C333CEED
:102BA00033CED8F9FFEE3395E0FDFC122B4912111C
:102BB0000F0B80A5229001EEE07004A3E064017089
:102BC00011900007E06004D28AE4F0E49001EEF096
:102BD000A3F0900036E0FF9000FFE06F603D9000B2
:102BE00036E0FD9000FFF0900007E0900200F05406
:102BF0000FF0ED7E0064207005E04420800CEF644F
:102C0000104E700B900200E04410F0900007F0C2EC
:102C10008A9001EE7403F0A374E8F022CFF0EFA3E2
:102C2000F0900105121158020F03C3FF900186E0D6
:102C30009F900185E095F022A3F090011DE0FEA396
:102C4000E0FF2290011DE0FFA3E0CF90019DF0A3E3
:102C5000EFF0229001C5E0941E9001C4E0940022A0
:102C6000E4F0A3F0A3F0A322FF900185E5F0F0A328
:102C7000EFF022E0FEA3E0FFD3229001A1E0940058
:102C80002274FFF5F0020EEDEF2401FDE43EFCD3CB
:102C9000E09D22E475F001020EEDC3900146E09440
:102CA000BC900145E0940222C3900190E0946490AE
:102CB000018FE0940022C3900223E094B890022296
:102CC000E0940B22C390021DE094F490021CE09467
:102CD0000122EE8FF0020EEDEF2401FDE43EFCD365
:102CE000E09D229001C07408F0A3E4F0A3743FF0CB
:102CF000A374DFF0E4FDFCF9758A10538AEF0090AD
:102D000001C0E0FEA3E02DF582EE3CF583E493FFE5
:102D100069F90DBD00010CBC37E5BDDFE29001C2D1
:102D2000E0FEA3E0F5828E83E493FFE96F700890E4
:102D300000017404F08005E4900001F0758A3053BE
:102D40008AEF0022E49001C2F0A3F0300A5520007F
:102D500052C20A1236A09001C2CFF0A3EFF0900148
:102D6000C2E0FFA3E09001C0CFF0A3EFF0E4FF12B8
:102D700037BA1236A09001C2CFF0A3EFF09001C293
:102D8000123671120F669001FEE09001C0E0FFA3C1
:102D9000E0902E12CFF0A3EFF09001EC7403F0A3BB
:102DA0007420F022E4FEEEC39407748094805038BF
:102DB000EE75F005A42428F582E4342EF583C08353
:102DC000C0829001FEE0D082D08375F00212114CD7
:102DD0001230BEFDEE75F005A42427F582E4342EF2
:102DE0001230F8EDF00E80BEEF7014900147E070E5
:102DF00002A3E0700A9001FEE0902E217412F022EE
:102E0000E49001C0F0A3F0758A10538AEF00122DF0
:102E1000E475EA81E4F5F6F5F475F308F5F275EB7F
:102E20000700E5EC30E7FBAFF3EFFEADF2EDFF900E
:102E30000136121158EE8FF0120F66E4F5EC75EBC7
:102E400030758A30538AEF0022900025E0641070BC
:102E50003FF5B2758D20438D20538D7F53A8F7F534
:102E60008BE5DB54047013200910F58AF58675870D
:102E700003000000758601758A30758B019001FC96
:102E80007401F09001EC7403F0A37420F012392A5D
:102E900022E0FEA3E0FF7C007D0A120E5090014864
:102EA000E02FFF900147E03EFE900139121158EEED
:102EB0008FF0229001C5E0902E1075F00202114CA7
:102EC0009001FEE0902E12E0FFA3E02275F002EFE9
:102ED000902E1002114CC2D5E830E70FB2D5E4C3F2
:102EE0009BFBE49AFAE499F9E498F8EC30E717B21E
:102EF000D51236EC12102BE4C39BFBE49AFAE4994A
:102F0000F9E498F8800312102B30D50DE4C39FFF2D
:102F1000E49EFEE49DFDE49CFC22E4FFEFC3940DDF
:102F200074809480502E9001FEE0FEEF75F003A4B3
:102F30002401F582E4342EF583E5822E1230C1FEA1
:102F4000EF75F003A42400F582E4342E1230F8EE7D
:102F5000F00F80C8902F56E0902E2BF022E4F5DA87
:102F600075DA4043DA2030881375D74075D6409023
:102F700001FE04F090001574C7F0801175D74275FA
:102F8000D642E49001FEF090001574C6F05392FE14
:102F900075DA5843A80275B80275F8022290011438
:102FA000121158E475F0C8120F66900117121158EB
:102FB000E475F064120F6690011A121158E475F06E
:102FC00096120F667534007535C875220075239604
:102FD000227E007D007B010211979001C4EFF01268
:102FE000390D9001C4E0FF1235849001C4E0FF90D8
:102FF00001FEE025E024A9F582E43439F583E58279
:103000002FF582E43583F583E493FF12269A90012D
:10301000C4E0FF022DD0C10942022F0205C10A41BE
:103020000200004101FF004101FE00C103C101C1D6
:1030300000C1024101FD00C105010D00C104C1062E
:10304000C108C1074100FF1043022A01022D009070
:1030500001C2EFF07E007F10EEC0E0EFC0E07D0027
:10306000E075F010A42414F9740235F0FA7B01D055
:10307000E0FFD0E0FE1211979001C2E0122C9D7487
:103080000BF0A374B8F02290015BE0243CFF9001A8
:103090005AE034F6FEC3900169E09F900168E09E1B
:1030A000501490016EE07002A3E0701190016E0464
:1030B000F0A374F4F022E490016EF0A3F0229001EA
:1030C000C87401F09001C8E0C3122EA950167F0108
:1030D0001231301222D6900102122E539001C8E014
:1030E00004F080E0E49001F2F0A3F02212082E7FB9
:1030F000011231301222D6900102122E531215B451
:103100001228B412241E1233951238670235247E19
:10311000007F047D007B017A01795E1211977E00A9
:103120007F047D007B017A017962021197EFF874C8
:1031300001088002C333D8FC42AB1230AF9039A6ED
:1031400093F4529152935391DF22E5B254016006F9
:10315000E5A85410700F75B29275B67CE4F5B743CC
:10316000B20143A81022758A30538AEF7586017523
:103170008F02E4F5AB75AC0F75913E759201D28A62
:1031800022900168E0FEA3E0FF900166EEF0A3EF5D
:10319000F022780DE6FF2400F582E43400F5832266
:1031A000EE30E707C3E49FFFE49EFE220303001E08
:1031B000001E0019001990022A121158020F0390E4
:1031C00001E97401F02201022001020102009600CF
:1031D000960701F40000000000000000000000005D
:1031E00000000000000000000000000000000000DF
:1031F00000000000000000000000000000000000CF
:1032000000000000000000000000000000000000BE
:1032100000000000000000000000000000000000AE
:1037F0000000000000000000000000000000006F5A
:1038000000000000000000000000000000000000B8
:1038100000000000000000000000000000000000A8
:00000001FF
