:1000000000950000000100003EF20000000000002A
:1000100000000000000000000000000000000000E0
:100020000234F4009600960701F40002342B023EDD
:10003000910000020826D2AF320000020816D2AFAB
:1000400032000002287BD2AF32000002081E208A54
:1000500003020E34900181E06003020E349001EE41
:10006000E07002A3E06003020E349001ECE0700245
:10007000A3E06003020E3490016DE07002A3E06023
:1000800003020E349000F1E064206003020E34900D
:10009000013FE0FF6003020E34EF704B900117E068
:1000A000FBA3E0FAA3E0F91214FDFFAEF090010506
:1000B000E0FBA3E0FAA3E0F91214FDD39FE5F09E64
:1000C0004003020E347E007F0C7D007B017A0179B3
:1000D00040121740E4900179F0A3F09001F4F0A3EE
:1000E000F09001F2F0A3F0E4F5B290017DE0FFA3FF
:1000F000E0900211CFF0A3EFF0C20B300403020D29
:10010000FF758D20438D20758D8043A808D2AF7573
:100110008B02758EC820042E9000F1E064207026BA
:10012000200923E5DB5404701D758A84200913E53A
:10013000DB5404700DF58675870300000075860199
:100140008006D20B8002D20B758B01758A1053A8E2
:10015000F7D39001EDE094909001ECE09401400E13
:10016000A3E02470F09001ECE034FEF08007E4900E
:1001700001ECF0A3F0D39001F9E094909001F8E045
:100180009401400EA3E02470F09001F8E034FEF0FA
:100190008007E49001F8F0A3F0E4900215F0A3F0DA
:1001A0001222F5900163EEF0A3EFF0900167EEF0FC
:1001B000A3EFF0C3900212E09FFF900211E09EFEB9
:1001C000123EB9900213EEF0A3EFF0D39414EE9424
:1001D00000502E900216E004F07006900215E00424
:1001E000F0D3900216E09405900215E094004002CE
:1001F000D20BD3900214E0940F900213E0940050BD
:100200009FC3900214E09414900213E09400400302
:10021000020DE2300B03020DE2900157E0FEA3E075
:10022000FF900167E0FCA3E0FD9FEC9E4053ED9F33
:10023000FFEC9EFE7C007D031217139001AA12169C
:10024000D6E47FB87E88FDFC9001AAE0F8A3E0F92F
:10025000A3E0FAA3E0FBD31216B29001AA400A125F
:1002600016E20000EA60020ACAE0FCA3E0FDA3E097
:10027000FEA3E024A8FFEE3461FEE43DFDE43C80F3
:1002800062900167E0FEA3E0FFC3900158E09FFF8A
:10029000900157E09EFE7C007D031217139001AA87
:1002A0001216D6E47FA87E61FDFC9001AAE0F8A3B7
:1002B000E0F9A3E0FAA3E0FBD31216B29001AA4042
:1002C000091216E2000000008020E0F8A3E0F9A384
:1002D000E0FAA3E0FBC374A89BFF74619AFEE49963
:1002E000FDE498FC9001AA1216D69001AAA3A3E0FF
:1002F000FFA3E09001A8CFF0A3EFF0900211E0FE81
:10030000A3E0FF7C007D09121713ECF8EDF9EEFA7B
:10031000EFFB900167E0FEA3E0FFE4FCFDEB2FFFA5
:10032000EA3EFEED39FDEC38FCE47B0AFAF9F812FE
:10033000160A900211EEF0A3EFF090013FE0600387
:10034000020BF7900108E0FBA3E0FAA3E0F9121416
:10035000FDFFAEF07C007D03121713ECF8EDF9EE13
:10036000FAEFFB9001A8E0FEA3E0FFE4FCFDEB2F19
:10037000FFEA3EFEED39FDEC38FCE47B04FAF9F8C7
:1003800012160A900100EEF0A3EFF0900108E0FBD6
:10039000A3E0FAA3E0F91214FDFFAEF07C007D03A8
:1003A000121713ECF8EDF9EEFAEFFB900100E0FE06
:1003B000A3E0FFE4FCFDEB2FFFEA3EFEED39FDEC90
:1003C00038FCE47B04FAF9F812160A900108E0FB05
:1003D000A3E0FAA3E0F9EE8FF0121560900100E0BF
:1003E000F9A3E0FFA3E0FBA3E0FAA3E0C98FF012BA
:1003F0001560900105E0FBA3E0FAA3E0F9E4F5F055
:1004000012156090010EE0FBA3E0FAA3E0F9E4F519
:10041000F0121560020DE2900100E0FEA3E0FF7C07
:10042000007D03121713ECF8EDF9EEFAEFFB9001E3
:10043000A8E0FEA3E0FFE4FCFDEB2FFFEA3EFEEDAB
:1004400039FDEC38FCE47B04FAF9F812160A900145
:1004500000EEF0A3EFF0A3E0FBA3E0FAA3E0F9EED7
:100460008FF0121560900108E0FBA3E0FAA3E0F919
:100470001214FDFFD39001A9E09F9001A8E095F030
:100480005003020DFF1214FDFFAEF0900102E0FBDD
:10049000A3E0FAA3E0F91214FDC39FFFE5F09EFE6E
:1004A000C3EF9513EE95125003020DFF900105E086
:1004B000FBA3E0FAA3E0F91214FDFFAEF07C007D8F
:1004C00002121713ECC0E0EDC0E0EEC0E0EFC0E0B8
:1004D000900108E0FBA3E0FAA3E0F91214FDFFAEDF
:1004E000F0900102E0FBA3E0FAA3E0F91214FDC3CF
:1004F0009FFFE5F09EFEE4FCFDD0E0FBD0E0FAD0EB
:10050000E0F9D0E0F8EB2FFFEA3EFEED39FDEC38E4
:10051000FCE47B03FAF9F812160A900105E0FBA34C
:10052000E0FAA3E0F9EE8FF0121560900105E0FB10
:10053000A3E0FAA3E0F91214FDD39430E5F094752A
:100540004008747575F030121560900181E07003F9
:10055000020DE2900185E0FEA3E0FFD39400EE944B
:10056000005003020DE2900105E0FBA3E0FAA3E0D6
:10057000F91214FDC39FFFE5F09EFE123EB99001F3
:10058000AEEEF0A3EFF0900105E0FBA3E0FAA3E0EC
:10059000F91214FDFFC3900186E09F900185E0955C
:1005A000F050209001AFE0940A9001AEE09400403A
:1005B00012900108E0FBA3E0FAA3E0F9E475F0056E
:1005C000121528900105E0FBA3E0FAA3E0F912144C
:1005D000FDFFD3900186E09F900185E095F04022D9
:1005E000D39001AFE0940A9001AEE09400401390E4
:1005F0000108E0FBA3E0FAA3E0F974FF75F0FB1239
:100600001528200B1AC3900214E09414900213E0F2
:100610009400500B9000F1E0642070030208DB901E
:10062000017FE004F09001891216E200000000E46E
:1006300090018DF0A3F0A3F0A3F09001D31216E285
:10064000000000009001E11216E200000000123EDE
:1006500091123CB4229001AAEFF0A3ECF0A3EDF0CC
:10066000EFC454F0240BF582E43402F583E0FEA3DA
:10067000E0C39DFFEE9CFE123EB9D3EF9428EE64DA
:10068000809480406C9001AAE0FBC454F02401F5F2
:1006900082E43402F5831216E200000000EBC45439
:1006A000F02405F582E43402F583E4F0A3F0900130
:1006B000AAE0FFC454F02409F582E43402F583E48F
:1006C000F0A3F0EFC454F0240EF582E43402F58375
:1006D000E4F09001ABE0FEA3E0FF9001AAE0C45477
:1006E000F0240BF582E43402F583EEF0A3EFF08002
:1006F0006C9001AAE0C454F02407F582E43402F5BA
:1007000083E0FEA3E0FFD39400EE9400404F9001FD
:10071000ABE0FCA3E0FDD3EF9DEE9C40149001AA5A
:10072000E0C454F0240EF582E43402F583E0440181
:10073000F09001AAE0FFC454F02407F582E43402EB
:10074000F583E0FAA3E0C39DEA9C5011EFC454F096
:10075000240EF582E43402F583E04402F09001AA0D
:10076000E0C454F02401F582E43402F583C083C070
:1007700082E0F8A3E0F9A3E0FAA3E0FB9001ABE08C
:10078000FEA3E0FFE4FCFDEB2FFFEA3EFEED39FDAA
:10079000EC38FCD082D0831216D69001AAE0FFC4B8
:1007A00054F02405F582E43402F583E475F0011277
:1007B00014E7EF75F007A42408F582E43408F58304
:1007C000E493FE740193FF9001AAE0FDC454F02469
:1007D00009F582E43402F583E0FAA3E0C39FEA9EC0
:1007E0005003021280EDC454F02405F582E4340273
:1007F000F583E0FEA3E0FBEEFAE4F9F89001AAE04D
:10080000C454F02401F582E43402F583E0FCA3E053
:10081000FDA3E0FEA3E0FF12160A9001AD1216D66A
:100820009001ADA3A3E0FEA3E0FF9001AAE0C454B1
:10083000F02407F582E43402F583E0FCA3E0C39FD3
:10084000FFEC9EFE123EB99001B1EEF0A3EFF090E6
:1008500001AAE0FD75F007A42403F582E43408F54D
:1008600083C37401939FE4939E4031EDC454F024FC
:1008700007F582E43402F583E0FEA3E04E601D90AC
:1008800001AAE0FBC454F0240FF582E43402F5839E
:10089000E0FEA3E0C394B8EE940B50479001AAE0A9
:1008A000FFC454F02407F582E43402F583E0FCA38E
:1008B000E04C7011EFC454F0240FF582E43402F5DB
:1008C00083E4F0A3F09001ADA3A3E0FEA3E0FF90CA
:1008D00001AAE0C454F02407F582E43402F583EE63
:1008E0000211A3EB60030211A99001B3F09001B1D2
:1008F000E0FEA3E0FFD39450EE94004006A37408FA
:10090000F0803B9001AAE0C454F0240EF582E43458
:1009100002F583E064036026D3EF943CEE9400403C
:10092000089001B37404F08015D39001B2E09428CC
:100930009001B1E0940040069001B37402F0900180
:10094000AAE0C454F02407F582E43402F583E0FE03
:10095000A3E0FFE4FCFD9001ADE0F8A3E0F9A3E023
:10096000FAA3E0FBD31216B2401E9001B3E0FF9051
:1009700001AAE0C454F02407F582E43402F583E4CC
:100980008FF01214E7021214D39001B2E094509049
:1009900001B1E0940050030212149001AAE0C45483
:1009A000F02407F582E43402F583C083C082E0FEC0
:1009B000A3E0FF9001B3E0FDC3EF9DFFEE9400D0F4
:1009C00082D083F0A3EFF0806B9001AAE0C454F0D2
:1009D0002407F582E43402F583E0FEA3E0FF4E70C5
:1009E000169001ADE0F8A3E0F9A3E0FAA3E0FFEA76
:1009F000FEE9FDE8FC80287C007D071217139001BA
:100A0000ADE0F8A3E0F9A3E0FAA3E02FFFEA3EFE91
:100A1000E93DFDE83CFCE47B08FAF9F812160A907F
:100A200001AAE0C454F02407F582E43402F583EE11
:100A3000F0A3EFF09001AAE0FBC454F02401F5828A
:100A4000E43402F5831216E200000000EBC454F017
:100A50002405F582E43402F583E4F0A3F09001AAC2
:100A6000E0FFC454F02409F582E43402F583E4F095
:100A7000A3F0EFC454F0240EF582E43402F583E4CD
:100A8000F09001ADA3A3E0FEA3E0FF9001AAE0C4B3
:100A900054F0240BF582E43402F583EEF0A3EFF07A
:100AA0009001AAE0C454F02407F582E43402F583EF
:100AB000E0FEA3E0FFD39400EE9400500302134B3A
:100AC0009001ACE09FFF9001ABE09EFE123EB9901A
:100AD00001AAE075F007A42405F582E43408F58343
:100AE000D37401939FE4939E402E9001AAE0FFC42B
:100AF00054F02407F582E43402F583E0FDA3E0908E
:100B000001ABCDF0A3EDF0EFC454F0240DF582E479
:100B10003402F583E4F080539001AAE0FF75F007FA
:100B2000A42407F582E43408F583E493FEEFC4546B
:100B3000F0240DF582E43402F583E0C39E502C903E
:100B400001AAE0C454F02407F582E43402F583E0FE
:100B5000FDA3E09001ABCDF0A3EDF0EFC454F02481
:100B60000DF582E43402F583E004F09001ABE0FE81
:100B7000A3E0FF22E709F608DFFA8046E709F2085A
:100B8000DFFA803E88828C83E709F0A3DFFA8032A7
:100B9000E309F608DFFA8078E309F208DFFA8070EB
:100BA00088828C83E309F0A3DFFA806489828A83D8
:100BB000E0A3F608DFFA805889828A83E0A3F2086E
:100BC000DFFA804C80D280FA80C680D4806980F2BF
:100BD0008033801080A680EA809A80A880DA80E244
:100BE00080CA803389828A83ECFAE493A3C8C582E1
:100BF000C8CCC583CCF0A3C8C582C8CCC583CCDF24
:100C0000E9DEE7800D89828A83E493A3F608DFF9A1
:100C1000ECFAA9F0EDFB2289828A83ECFAE0A3C802
:100C2000C582C8CCC583CCF0A3C8C582C8CCC58357
:100C3000CCDFEADEE880DB89828A83E493A3F208D2
:100C4000DFF980CC88F0EF60010E4E60C388F0EDD4
:100C50002402B4040050B9F582EB2402B40400501D
:100C6000AF23234582239013A473EF8DF0A4A8F043
:100C7000CF8CF0A428CE8DF0A42EFE22BC000BBE9B
:100C80000029EF8DF084FFADF022E4CCF875F00878
:100C9000EF2FFFEE33FEEC33FCEE9DEC984005FCAD
:100CA000EE9DFE0FD5F0E9E4CEFD22EDF8F5F0EE75
:100CB0008420D21CFEADF075F008EF2FFFED33FD60
:100CC0004007985006D5F0F222C398FD0FD5F0EA00
:100CD00022C2D5EC30E709B2D5E4C39DFDE49CFC0B
:100CE000EE30E715B2D5E4C39FFFE49EFE12145C1C
:100CF000C3E49DFDE49CFC800312145C30D507C363
:100D0000E49FFFE49EFE22C5F0F8A3E028F0C5F0C2
:100D1000F8E582158270021583E038F022BB010AE3
:100D200089828A83E0F5F0A3E022500687F009E784
:100D30001922BBFE07E3F5F009E3192289828A83B1
:100D4000E493F5F074019322BB010789828A830240
:100D500014E7500B09C5F027F7C5F01937F722BB88
:100D6000FE0D09F8E325F0F3C5F019E338F322F896
:100D700089828A8374019325F0C5F0F8E4933822C0
:100D8000BB010A89828A83F0E5F0A3F0225006F7BE
:100D900009A7F01922BBFE06F3E5F009F31922E8D2
:100DA0008FF0A4CC8BF0A42CFCE98EF0A42CFC8A50
:100DB000F0EDA42CFCEA8EF0A4CDA8F08BF0A42DCD
:100DC000CC3825F0FDE98FF0A42CCD35F0FCEB8E6E
:100DD000F0A4FEA9F0EB8FF0A4CFC5F02ECD39FE24
:100DE000E43CFCEAA42DCE35F0FDE43CFC2275F099
:100DF00008758200EF2FFFEE33FECD33CDCC33CC20
:100E0000C58233C5829BED9AEC99E58298400CF53A
:100E100082EE9BFEED9AFDEC99FC0FD5F0D6E4CE68
:100E2000FBE4CDFAE4CCF9A88222B800C1B900599C
:100E3000BA002DEC8BF084CFCECDFCE5F0CBF97869
:100E400018EF2FFFEE33FEED33FDEC33FCEB33FBFD
:100E500010D703994004EB99FB0FD8E5E4F9FA2287
:100E60007818EF2FFFEE33FEED33FDEC33FCC93382
:100E7000C910D7059BE99A4007EC9BFCE99AF90F4A
:100E8000D8E0E4C9FAE4CCFB2275F010EF2FFFEEB6
:100E900033FEED33FDCC33CCC833C810D7079BEC01
:100EA0009AE899400AED9BFDEC9AFCE899F80FD579
:100EB000F0DAE4CDFBE4CCFAE4C8F922EB9FF5F0DC
:100EC000EA9E42F0E99D42F0EC6480C86480984557
:100ED000F022EB9FF5F0EA9E42F0E99D42F0E89C9B
:100EE00045F022E8600FECC313FCED13FDEE13FE9A
:100EF000EF13FFD8F122ECF0A3EDF0A3EEF0A3EF97
:100F0000F022A8828583F0D083D0821216F91216BF
:100F1000F91216F91216F9E473E493A3C583C5F028
:100F2000C583C8C582C8F0A3C583C5F0C583C8C53D
:100F300082C822EC8EF0A4CCC5F0CCCDF8EFA4CEC4
:100F4000C5F02DFDE43CFCE8A42EC8C5F03DFDE451
:100F50003CFCEFA4FFE5F028FEE43DFDE43CFC2270
:100F6000EF4E6012EF60010EEDBB010B89828A83A8
:100F7000F0A3DFFCDEFA2289F05007F709DFFCA9B5
:100F8000F022BBFEFCF309DFFCA9F022D39001EDB7
:100F9000E094009001ECE094004003021B4A9001B1
:100FA00008E0FBA3E0FAA3E0F91214FDFFAEF09015
:100FB0000102E0FBA3E0FAA3E0F91214FDFDACF09E
:100FC000D39FEC9E4054900108E0FBA3E0FAA3E01D
:100FD000F91214FDFFC3ED9FFFEC95F0FED3EF94E3
:100FE00030EE9475400C9001A87475F0A37430F045
:100FF00080211214FDFFAEF0900102E0FBA3E0FAA5
:10100000A3E0F91214FDC39FFFE5F09E9001A8F044
:10101000A3EFF0E49001A2021889900102E0FBA383
:10102000E0FAA3E0F91214FDFFAEF0900108E0FB36
:10103000A3E0FAA3E0F91214FDFDACF0C39FFFECAE
:101040009EFED3EF9410EE9427400C9001A87427D5
:10105000F0A37410F0801D900102E0FBA3E0FAA35E
:10106000E0F91214FDFFC3ED9FFEEC95F09001A88E
:10107000F0A3CEF09001A8E0FFA3E09001A2CFF092
:10108000A3EFF0300018D3E0942C9001A2E094017B
:1010900040139001A47427F0A37410F08007E4902B
:1010A00001A4F0A3F0E49001A8F0A3F090013FE0C8
:1010B000605B9001A8E0FEA3E0FFD39400EE6480A3
:1010C00094804014D3EF9509EE9508400B9001F2FF
:1010D000E4F0A37464F08027D39001F3E0940090CF
:1010E00001F2E094004018900105E0FBA3E0FAA3B0
:1010F000E0F91214FDFF9001A8E5F0F0A3EFF0D2A3
:10110000089001F8740FF0A374A0F0800F9001F61E
:101110007403F0A374E8F0E4FF123C33D39001A908
:10112000E094009001A8E0648094805003021AF5D6
:10113000E0F9A3E0FF900105E0FBA3E0FAA3E0C91A
:101140008FF01215609001A8E0FEA3E0FFEE33954A
:10115000E0FDFCE47BB87A88F9F8C312169C500ACB
:101160009001A87488F0A374B8F0D39001F5E094CE
:10117000009001F4E0940050089000F1E0642070C9
:10118000229001A8E0FEA3E0FFC39464EE64809483
:10119000805010EF9400EE6480948040447C007D89
:1011A0000A803330003B90013FE070169001A8E0C8
:1011B000FEA3E0FFC39513EE951250257C027DBC83
:1011C00080149001A8E0FEA3E0FFC39509EE950806
:1011D000500F7C027DBC1214B19001A8EEF0A3EF79
:1011E000F090013FE07003021A6B9001F6E070028C
:1011F000A3E070199001A8E0FEA3E0FDEEFCE4FF7F
:10120000120E359001A8EEF0A3EFF0803E9001A8F9
:10121000E0FEA3E0FFC3900136E09FFF900135E0C0
:101220009EFE123EB9D3EF9428EE64809480401B5A
:10123000D39001F7E094C89001F6E09400400CA32D
:10124000E0249CF09001F6E034FFF0900135E0FEE0
:10125000A3E0FF7C007D07121713ECF8EDF9EEFA1E
:10126000EFFB9001A8E0FEA3E0FFEE3395E0FDFC6C
:10127000EB2FFFEA3EFEE93DFDE83CFCE47B08FA8B
:10128000F9F812160A900135EE800B9001A8E0FFE4
:10129000A3E0900135CFF0A3EFF0900135E0FEA37D
:1012A000E0FFD39405EE9400400EEF9410EE94000E
:1012B00050069001A8EE8016900131E0FEA3E0FFF9
:1012C000900136E02FFF900135E03E9001A8F0A399
:1012D000EFF0D39001A9E094309001A8E0648094ED
:1012E000F540077475F0A37430F0E5DB5404707AB0
:1012F0009001A8E0F9A3E0FF90010EE0FBA3E0FA63
:10130000A3E0C98FF01215609001A9E024A8FF9016
:1013100001A8E08042E5DB5404704F900105E0FB3A
:10132000A3E0FAA3E0F9E4F5F0121560900131E0D2
:10133000F9A3E0FF90010EE0FBA3E0FAA3E0C98F60
:10134000F012156090010EE0FBA3E0FAA3E0F912A1
:1013500014FD24A8FFE5F03461F990010BE0FBA334
:10136000E0FAA3E0C98FF0121560221238919001C3
:1013700089E0F8A3E0F9A3E0FAA3E0FBE8C0E0E924
:10138000C0E0EAC0E0EBC0E090011DE0FBA3E0FAA2
:10139000A3E0F91214FDFFE4FCFDD0E0FBD0E0FA7D
:1013A000D0E0F9D0E0F8EB2FFFEA35F0FEED39FDA3
:1013B000EC38FC9001891216D690018EE004F07092
:1013C0000690018DE004F0C3900190E094649001D8
:1013D0008FE094005003021F28900189E0FCA3E0F5
:1013E000FDA3E0FEA3E0FFECC0E0EDC0E0EEC0E056
:1013F000EFC0E0A3E0FEA3E0FBEEFAE4F9F8D0E0F2
:10140000FFD0E0FED0E0FDD0E0FC12160A9001898A
:101410001216D6900189A3A3E0FFA3E0900187CF25
:10142000F0A3EFF0A31216E200000000E490018D9B
:10143000F0A3F0A3F0A3F09001ECE07002A3E06051
:1014400003021F28900191E07002A3E06003021FD5
:101450002890013FE07003021D81900183E070023B
:10146000A3E07038900187E0FFA3E0900183CFF004
:10147000A3EFF0900105E0FBA3E0FAA3E0F912145A
:10148000FDFF900185E5F0F0A3EFF0900193740368
:10149000F0A374E8F0E4900199021D95900181E0B9
:1014A000706890019AE07002A3E07018900105E066
:1014B000FBA3E0FAA3E0F91214FDFF90019AE5F016
:1014C000F0A3EFF0900105E0FBA3E0FAA3E0F9122E
:1014D00014FDFFC390019BE09FFF90019AE095F0FF
:1014E000FE123EB9C3EF9446EE6480948050129091
:1014F0000199E0C3940574809480500EE004F0805C
:1015000009E4900199F0A3F0A3F0900187E0FEA315
:10151000E0FFC3900184E09FFF900183E09EFE12F4
:101520003EB990019CE0FBA3E0FAA3E0F9EE8FF056
:10153000121560900181E0704490019CE0FBA3E0F3
:10154000FAA3E0F91214FDC3940CE5F09400501ACC
:10155000900105E0FBA3E0FAA3E0F91214FDFF906F
:101560000185E5F0F0A3EFF08013900199E0C394BA
:10157000057480948040069001817401F090018789
:10158000E0FEA3E0FFD3900184E09F900183E09E02
:101590004007E4900182F080219001827401F08084
:1015A00019E4900183F0A3F0A3F0A3F0900181F07F
:1015B000900195F0A3F0A3F0A3F0900181E07003F7
:1015C000021F28900185E0FEA3E0FFD39400EE9473
:1015D000005003021F28900105E0FBA3E0FAA3E0FE
:1015E000F91214FDC39FFFE5F09EFE123EB9900173
:1015F000A8EEF0A3EFF09001A0EEF0A3EFF09001C1
:1016000005E0FBA3E0FAA3E0F91214FDFFAEF090B1
:101610000185E0FCA3E0FDD39FEC9E400FD3900139
:10162000A9E094649001A8E094005015C3ED9FECEC
:101630009E50489001A9E094FA9001A8E0940040DF
:101640003AE4900181F0900183F0A3F0900105E06D
:10165000FBA3E0FAA3E0F91214FDFFC3900186E0BA
:101660009F900185E095F09001915007E4F0A374FC
:10167000C8F0227401F0A3742CF022900105E0FB65
:10168000A3E0FAA3E0F91214FDFFD3900186E09FD6
:10169000900185E095F05003021EFAD39001A9E075
:1016A000941E9001A8E094004070900182E0704187
:1016B00090019CE0FBA3E0FAA3E0F91214FDD3949F
:1016C00020E5F094034002804EC3900198E0942CF2
:1016D000900197E094015042900105E0FBA3E0FAED
:1016E000A3E0F91214FDC39490E5F09401402B801F
:1016F00026C3900198E0942C900197E09401501A31
:10170000900105E0FBA3E0FAA3E0F91214FDC394F5
:1017100090E5F094014003123B52900105E0FBA3D9
:10172000E0FAA3E0F91214FDFFC3900186E09F9058
:101730000185E095F050119001A9E0941E9001A858
:10174000E094004003123B9F229001BDECF0A3ED1A
:10175000F09001BCEFF075F00EA424D7F582E434CC
:1017600001F583E0704E9001BCE075F00EA424D327
:10177000F582E43401F583E0FCA3E0FDA3E0FEA3E1
:10178000E0FFE4FBFAF9F8C31216B260279001BC3F
:10179000E075F00EA424CFF582E43401F583E0FC7B
:1017A000A3E0FDA3E0FEA3E0FFE4F8C31216B260DD
:1017B000030220A59001BFA3A3E0FEA3E0FFC39016
:1017C00001BEE09FFF9001BDE09EFE123EB9900178
:1017D000BCE0FD75F00EA424D8F582E43401F58355
:1017E000EEF0A3EFF0ED75F00EA424D7F582E4340B
:1017F00001F583E06041ED75F005A424C8F582E4AD
:10180000343EF583E493FE740193FFED75F00EA46E
:1018100024D8F582E43401F583E0FCA3E0D39FEC07
:101820009E40149001BCE075F00EA424D7F582E42C
:101830003401F5837405F09001BFE0FCA3E0FDA343
:10184000E0FEA3E0FF9001BCE0FB75F00EA424D302
:10185000F582E43401F5831216D6EB75F00EA4245C
:10186000DBF582E43401F583E0FEA3E0FFE4FCFD58
:101870009001BFE0F8A3E0F9A3E0FAA3E0FB1215A2
:101880007F9001BCE0FB75F00EA424CFF582E43418
:1018900001F5831216D6EB75F00EA424D7F582E479
:1018A0003401F583E0D39400748094804011EB758B
:1018B000F00EA424D7F582E43401F583E014F0900F
:1018C00001BF0222ED9001BCE0FB75F00EA424D311
:1018D000F582E43401F583E0FCA3E0FDA3E0FEA380
:1018E000E0FF9001C31216D6EB75F00EA424CFF5DD
:1018F00082E43401F583E0FCA3E0FDA3E0FEA3E075
:10190000FF9001C71216D69001C7E0FCA3E0FDA32B
:10191000E0FEA3E0FF9001BCE075F00EA424DAF530
:1019200082E43401F583E0F9F81216C3EFFBEEFA16
:10193000EDF9ECF89001C7E0FCA3E0FDA3E0FEA305
:10194000E0C39BFFEE9AFEED99FDEC98FCA3121606
:10195000D69001C3E0FCA3E0FDA3E0FEA3E0FF906E
:1019600001BFE0F8A3E0F9A3E0FAA3E02FFFEA3E0D
:10197000FEE93DFDE83CFC9001CBE0F8A3E0F9A3D3
:10198000E0FAA3E02FFFEA3EFEE93DFDE83CFC90D3
:1019900001C71216D69001BFE0FCA3E0FDA3E0FE54
:1019A000A3E0FF9001BCE0FB75F00EA424D3F58208
:1019B000E43401F5831216D69001C7E0FCA3E0FDE4
:1019C000A3E0FEA3E0FFEB75F00EA424CFF582E4C4
:1019D0003401F5831216D69001C7E0FCA3E0FDA305
:1019E000E0FEA3E0FFECC0E0EDC0E0EEC0E0EFC041
:1019F000E09001BCE075F00EA424DBF582E4340134
:101A0000F583E0FEA3E0FBEEFAE4F9F8D0E0FFD0C6
:101A1000E0FED0E0FDD0E0FC12160A9001C71216DD
:101A2000D69001BFA3A3E0FEA3E0FBEEFA9001C7AE
:101A3000A3A3E0FEA3E0C39BFFEE9AFE123EB99083
:101A400001BCE0FD75F00EA424D8F582E43401F564
:101A500083EEF0A3EFF0ED75F005A424C6F582E463
:101A6000343EF583E493FE740193FFED75F00EA40C
:101A700024D8F582E43401F583E0FCA3E0D39FECA5
:101A80009E50030222EA9001BFE0FCA3E0FDA3E028
:101A9000FEA3E0FF9001BCE0FB75F00EA424D3F59B
:101AA00082E43401F5831216D6EB75F00EA424DB24
:101AB000F582E43401F583E0FEA3E0FFE4FCFD9051
:101AC00001BFE0F8A3E0F9A3E0FAA3E0FB12157F61
:101AD0009001BCE0FB75F00EA424CFF582E4340144
:101AE000F5831216D6EB75F00EA424D7F582E434F4
:101AF00001F5837405F09001BFE0FCA3E0FDA3E0D5
:101B0000FEA3E0FF9001C71216D69001C7A3A3E081
:101B1000FEA3E0FF227F01123AAB123D27758A50E7
:101B2000902E207419F0902E20E030E2F9903ED8EB
:101B3000E49375F002A42400F582E5F0342EF583D9
:101B4000E0FFA3E09001B6CFF0A3EFF0902E20E4E9
:101B5000F0758A107F01123D5990015DE0FEA3E00F
:101B6000FF4E700E9001B6E0FCA3E0FDECFEEDFF31
:101B7000801E7C007D0312144A9001B7E02FFF9075
:101B800001B6E03EFE7802EFCEC313CE13D8F9FFC4
:101B900090015DEEF0A3EFF0900159E07002A3E038
:101BA000700F90015DE0FFA3E0900159CFF0A3EF2B
:101BB000F09001B81216E200002710E4FF123AABD1
:101BC000E49001B3F09001B3E0C394047480948076
:101BD00040030224C1E4FF123D27758A50902E2055
:101BE0007419F0902E20E030E2F9903ED7E493751E
:101BF000F002A42400F582E5F0342EF583E0FFA383
:101C0000E09001B4CFF0A3EFF0902E20E4F0758ABD
:101C100010FF123D599001B4E0FEA3E0FF9001696E
:101C2000EEF0A3EFF0900159E0FCA3E0FDEF2DFFF3
:101C3000EE3CFE90015DE0FCA3E0FDC3EF9DFFEEF6
:101C40009C9001B4F0A3EFF090015BE0FEA3E0FFF5
:101C50004E700E9001B4E0FCA3E0FDECFEEDFF80C1
:101C60001E7802EFC333CE33CED8F9FF9001B5E032
:101C70002FFF9001B4E03EFE7C007D0512145C90C5
:101C8000015BEEF0A3EFF0E4FCFD9001BF1216D66D
:101C900090015FE0FCA3E0FDE4FF121F2990015FCB
:101CA000EEF0A3EFF09001B8E0F8A3E0F9A3E0FABA
:101CB000A3E0FB90015FE0FEA3E02400FFEE34F020
:101CC000FE3395E0FDFCEB2FFFEA3EFEE93DFDE82B
:101CD0003CFC9001B81216D69001B3E004F0022348
:101CE000A5902E23E4F07F507EC3FDFC9001B8E068
:101CF000F8A3E0F9A3E0FAA3E0FBD312169C400A94
:101D00009001B81216E20000C3509001B8E0FCA3A5
:101D1000E0FDA3E0FEA3E0FFEC33500A9001B8120F
:101D200016E200000000900165E0FAA3E0FB4A70B3
:101D30000C9001B8A3A3E0FEA3E0FF80347E007FF7
:101D400002EBFDEAFC121713ECF8EDF9EEFAEFFBEB
:101D50009001B8E0FCA3E0FDA3E0FEA3E02BFFEAC6
:101D60003EFEE93DFDE83CFCE47B03FAF9F812167F
:101D70000A900165EEF0A3EFF0900157E07002A326
:101D8000E0700F900165E0FFA3E0900157CFF0A352
:101D9000EFF0900127E0F8A3E0F9A3E0FAA3E0FB5D
:101DA00090015FE0FEA3E0FFE4FCFDEB2FFFEA3EC5
:101DB000FEED39FDEC38FC9001271216D690012C6F
:101DC000E004F0700690012BE004F090012BE0FE9F
:101DD000A3E0FFD3940AEE94004031EFFBEEFAE467
:101DE000F9F8900127E0FCA3E0FDA3E0FEA3E0FFEB
:101DF00012160A900125EEF0A3EFF0E490012BF00B
:101E0000A3F09001271216E20000000090012DE0DF
:101E10007002A3E07040900125E0FEA3E0FFC390B4
:101E20000160E09FFF90015FE09EFE123EB99001CD
:101E300023EEF0A3EFF0D39406EE94004018900147
:101E40002D7403F0A374E8F0900130E004F0700604
:101E500090012FE004F0900165E0FEA3E0FF2290E6
:101E600001A87402F0A374BCF0D39001A7E0940021
:101E70009001A6E094004021900102E0FBA3E0FA6B
:101E8000A3E0F91214FDFF900108E0FBA3E0FAA320
:101E9000E0F9E5F08FF01215609001ECE07002A31C
:101EA000E0600B9001A8E4F0A37464F0800B900054
:101EB0001AE0641170037420F090013FE0600F7E1F
:101EC000007F0C7D007B017A017940021740900170
:101ED00040E0F8A3E0F9A3E0FAA3E0FBE8C0E0E902
:101EE000C0E0EAC0E0EBC0E0900102E0FBA3E0FA52
:101EF000A3E0F91214FDFFE4FCFDD0E0FBD0E0FA12
:101F0000D0E0F9D0E0F8EB2FFFEA35F0FEED39FD37
:101F1000EC38FC9001401216D6900145E004F070B8
:101F200006900144E004F09001A8E0FEA3E0FFC3A6
:101F300090014BE09F90014AE09E500302287A9066
:101F40000140E0FCA3E0FDA3E0FEA3E0FFECC0E065
:101F5000EDC0E0EEC0E0EFC0E0A3E0FEA3E0FBEEEA
:101F6000FAE4F9F8D0E0FFD0E0FED0E0FDD0E0FCEC
:101F700012160A9001401216D6900108E0FBA3E069
:101F8000FAA3E0F91214FD241EFFE435F0FEE4FC90
:101F9000FD900140E0F8A3E0F9A3E0FAA3E0FBD351
:101FA0001216B250030228409001ECE07002A3E048
:101FB0006003022840300803022840900108E0FB3B
:101FC000A3E0FAA3E0F91214FDFB900140A3A3E003
:101FD000FEA3E0C39BFFEE95F09001AAF0A3EFF003
:101FE000900147E004F07006900146E004F0D390C1
:101FF0000147E09401900146E0940040229001AA3C
:10200000E0FEA3E0FF900149E09F900148E09E5070
:102010000E900147E024FFF0900146E034FFF0907D
:1020200001AAE0FFA3E0900148CFF0A3EFF0D39026
:102030000147E09405900146E0940040469001403D
:10204000A3A3E0F9A3E0FF900108E0FBA3E0FAA35B
:10205000E0C98FF0121560E4900146F0A3F08023F0
:10206000900140A3A3E0F9A3E0FF900108E0FBA3E7
:10207000E0FAA3E0C98FF0121560E4900146F0A3E6
:10208000F0C2089001401216E200000000E4900146
:1020900044F0A3F090014AF0A3F022C0E0C083C056
:1020A00082C0D0D2AFD39001EDE094009001ECE07B
:1020B0009400400CA3E024FFF09001ECE034FFF02A
:1020C000D39001F1E094019001F0E09400400EA360
:1020D000E024FFF09001F0E034FFF08002D28AD3D8
:1020E0009001EFE094009001EEE09400400CA3E03A
:1020F00024FFF09001EEE034FFF0C390014BE09438
:10210000BC90014AE09402500CA3E004F0700690E9
:10211000014AE004F0D39001F3E094009001F2E072
:102120009400400CA3E024FFF09001F2E034FFF0B3
:10213000D39001F5E094009001F4E09400400CA3EA
:10214000E024FFF09001F4E034FFF0D39001FBE0D5
:1021500094009001FAE09400400CA3E024FFF0907A
:1021600001FAE034FFF0D39001F7E094009001F61B
:10217000E09400400CA3E024FFF09001F6E034FF6F
:10218000F0D39001F9E094009001F8E09400400C45
:10219000A3E024FFF09001F8E034FFF0D39001A514
:1021A000E094009001A4E09400400CA3E024FFF030
:1021B0009001A4E034FFF0D39001FDE09400900181
:1021C000FCE09400400CA3E024FFF09001FCE0341C
:1021D000FFF0C3900190E0946490018FE094005070
:1021E0000CA3E004F0700690018FE004F0D390019E
:1021F00092E09400900191E09400400CA3E024FF51
:10220000F0900191E034FFF0D3900194E0940190BC
:102210000193E09400400CA3E024FFF0900193E0D0
:1022200034FFF0D390016EE0940190016DE09400D2
:10223000400CA3E024FFF090016DE034FFF0D39058
:1022400001A7E094009001A6E09400400CA3E024D4
:10225000FFF09001A6E034FFF0C3900210E094B8C4
:1022600090020FE0940B500CA3E004F07006900273
:102270000FE004F0C390020AE094F4900209E094A5
:1022800001500CA3E004F07006900209E004F0D3C2
:1022900090012EE0940090012DE09400400CA3E00A
:1022A00024FFF090012DE034FFF0D0D0D082D08315
:1022B000D0E032D39001EDE09F9001ECE09E400A27
:1022C000A3E09FF09001ECE09EF0D39001F1E09F3D
:1022D0009001F0E09E400CA3E09FF09001F0E09EA2
:1022E000F08002D28AD39001EFE09F9001EEE09E51
:1022F000400AA3E09FF09001EEE09EF0C390014BF6
:10230000E094BC90014AE09402500AA3E02FF090C0
:10231000014AE03EF0D39001F3E09F9001F2E09E8D
:10232000400AA3E09FF09001F2E09EF0D39001F507
:10233000E09F9001F4E09E400AA3E09FF09001F43A
:10234000E09EF0D39001FBE09F9001FAE09E400AEE
:10235000A3E09FF09001FAE09EF0D39001F7E09F98
:102360009001F6E09E400AA3E09FF09001F6E09E07
:10237000F0D39001F9E09F9001F8E09E400AA3E0BD
:102380009FF09001F8E09EF0D39001A5E09F9001AE
:10239000A4E09E400AA3E09FF09001A4E09EF0D349
:1023A0009001FDE09F9001FCE09E400AA3E09FF0B9
:1023B0009001FCE09EF0C3900190E0946490018F46
:1023C000E09400500AA3E02FF090018FE03EF0D39C
:1023D000900192E09F900191E09E400AA3E09FF05F
:1023E000900191E09EF0EF2401FDE43EFCD39001CA
:1023F00094E09D900193E09C400AA3E09FF090013F
:1024000093E09EF0EF2401FDE43EFCD390016EE0EA
:102410009D90016DE09C400AA3E09FF090016DE06B
:102420009EF0D39001A7E09F9001A6E09E400AA3F2
:10243000E09FF09001A6E09EF0C3900210E094B8F7
:1024400090020FE0940B500AA3E02FF090020FE0EF
:102450003EF0C390020AE094F4900209E094015027
:102460000AA3E02FF0900209E03EF0D390012EE0A5
:102470009F90012DE09E400AA3E09FF090012DE087
:102480009EF0227E007FFF7D007B017A00790012A2
:1024900017407E007FA87D007B017A01790012172A
:1024A000407E007F147D007B017A0179EB1217409A
:1024B000902DE0E493900001F09000047411F0A3DB
:1024C0007422F0A37433F0902DE2E493900012F0A4
:1024D000902DE3E493900014F09000FB7401F090D1
:1024E00000367410F09000F1F0900024F0A37420F6
:1024F000F09001027401F0A37400F0A37440F09016
:1025000001087401F0A37400F0A37444F090010575
:102510007401F0A37400F0A37442F090010B7401F5
:10252000F0A37400F0A3742EF0A37401F0A3740060
:10253000F0A3742AF0A37401F0A37400F0A374282C
:10254000F09001207401F0A37400F0A37460F09087
:10255000011D7401F0A37400F0A37422F090019C9B
:102560007401F0A37400F0A37480F090013C740136
:10257000F0A37400F0A37418F09001397401F0A373
:102580007400F0A3741BF09001147401F0A37400A4
:10259000F0A37432F0A37401F0A37400F0A37426C6
:1025A000F0A37401F0A37400F0A37434F09001144C
:1025B000E0FBA3E0FAA3E0F9E475F0C8121560901F
:1025C0000117E0FBA3E0FAA3E0F9E475F06412154B
:1025D0006090011AE0FBA3E0FAA3E0F9E475F0963D
:1025E0001215607512007513C8750800750996906C
:1025F00001EC7407F0A374D0F0E49001EBF022003A
:102600000101AB9574AA7583F5758255A57455754E
:1026100083FA7582AAA574A57583F5758255A522DE
:1026200002020AB00BB60CFF090208FF0DF70E04F8
:102630001307141010800192120711060F040404EE
:102640000101111212121010030280900179E0FEB4
:10265000A3E0FFC39404EE9400502F900100E0FC2F
:10266000A3E0FDEF25E0FFEE33FE74712FF58274D9
:10267000013EF583ECF0A3EDF090017AE004F070F8
:1026800006900179E004F0022F329001B57401F058
:102690009001B5E0FFC3940474809480502AEF2524
:1026A000E02471F582E43401F583E0FCA3E0FDEF62
:1026B00025E0246FF582E43401F583ECF0A3EDF01E
:1026C0009001B5E004F080C890013FE060028073A3
:1026D000900102E0FBA3E0FAA3E0F91214FDFF90E1
:1026E0000100E0FCA3E0FDC3EF9DFFE5F09CFE12BE
:1026F0003EB9C3EF9428EE64809480504690010860
:10270000E0FBA3E0FAA3E0F91214FDFFC39001017E
:10271000E09FFF900100E095F0FE123EB9C3EF94F8
:1027200014EE6480948050059001088003900102AB
:10273000E0FBA3E0FAA3E0F91214FDFF900177E5B6
:10274000F0800B900100E0FFA3E0900177CFF0A3B1
:10275000EFF09001B11216E200000000E49001B524
:10276000F09001B5E0FFD390017AE09F900179E00D
:102770009400403D9001B1E0F8A3E0F9A3E0FAA392
:10278000E0FBA3E025E02471F582E43401F583E069
:10279000FEA3E0FFE4FCFDEB2FFFEA3EFEED39FD7A
:1027A000EC38FC9001B11216D69001B5E004F0802F
:1027B000B09001B1E0FCA3E0FDA3E0FEA3E0FFECDC
:1027C000C0E0EDC0E0EEC0E0EFC0E0900179E0FED7
:1027D000A3E0FBEEFAE4F9F8D0E0FFD0E0FED0E0B1
:1027E000FDD0E0FC12160A9001B11216D69001B18C
:1027F000A3A3E0FEA3E0FF229001ABEFF0902E2216
:10280000E0FF9001AFE4F0A3EFF0758A50902E2224
:102810007401F09001ABE075F002A42410F582E59C
:10282000F0342EF5837402F0A3E4F09001ACF09044
:1028300001ACE0FFC3940C748094804003023142E9
:10284000EFF87E01E4088006CEA2E713CE13D8F895
:10285000FF9001ADEEF0A3EFF04E70079001ADF0E8
:10286000A304F0902E207419F0902E20E030E2F9AD
:102870009001ABE0FF75F002A42400F582E5F0348E
:102880002EF583E0FCA3E0D394FFEC940740597548
:10289000F002EFA42410F582E5F0342EF583E0FE7B
:1028A000A3E0FF9001ADE0FCA3E0FDEF2DFFEE3CC7
:1028B000FEC3EF94FFEE94039001ABE075F002507D
:1028C00013A42410F582E5F0342EF583EC8DF0127C
:1028D00014E7807EA42410F582E5F0342EF583748D
:1028E00003F0A374FFF0806A9001ABE0FF75F00283
:1028F000A42410F582E5F0342EF583E0FCA3E0FD7E
:102900009001ADE0FAA3E0FBD3ED9BEC9A402D756E
:10291000F002EFA42410F582E5F0342EF583C08395
:10292000C082C3A3E09BFF0582D582021583158276
:10293000E09AD082D083F0A3EFF080169001ABE054
:1029400075F002A42410F582E5F0342EF583E4F04E
:10295000A3F0902E20E4F0F58D9001ACE004F0029D
:10296000300F9001AFA3E0902E22F0758A1022E480
:10297000F526F525F524F523F526F525F524F5238B
:10298000F522C3E5229403748094805027E5222524
:10299000E0240AF8E6FE08E6FFE4FCFDE5262FF554
:1029A00026E5253EF525ED3524F524EC3523F523E4
:1029B000052280CEE47B03FAF9F8AF26AE25AD24DC
:1029C000AC2312160A90017DEEF0A3EFF0E4752619
:1029D000A8752561F524F523F522C3E52294037437
:1029E0008094805073E52225E0240AF8E6FE08E68C
:1029F000FF90017DE0FCA3E0FDC3EF9DFFEE9CFE98
:102A0000123EB9D3EF940AEE648094804012900194
:102A10007DE0FEA3E0FF900157E0FCA3E0FD801500
:102A2000E52225E0240AF8E6FE08E6FF900157E0DB
:102A3000FCA3E0FDC3EF9DFFEE9CFE3395E0FDFCA3
:102A4000E5262FF526E5253EF525E5243DF524E58B
:102A5000233CF52305228082E47F607EEAFDFCAB07
:102A600026AA25A924A823D31216B2400BE4752662
:102A7000607525EAF524F523AE25AF262212390527
:102A8000123E57E4900179F0A3F0900165F0A3F0B5
:102A9000900163F0A3F0900167F0A3F07F0312367A
:102AA00093900100E0F9A3E0FFA3E0FBA3E0FAA309
:102AB000E0C98FF0121560900100E0F9A3E0FF90EB
:102AC0000108E0FBA3E0FAA3E0C98FF012156090C3
:102AD0000105E0FBA3E0FAA3E0F9E4F5F0121560CC
:102AE00090010BE0FBA3E0FAA3E0F9746175F0A894
:102AF000121560900111E0FBA3E0FAA3E0F9746104
:102B000075F0A812156090010EE0FBA3E0FAA3E0B7
:102B1000F9E4F5F0121560E4900137F0A3F09001AC
:102B20003FF0FE7F1BFD7B017A0179811217407E09
:102B3000007F0C7D007B017A017940121740E49000
:102B400001FAF0A3F09001F8F0A3F09000367410B1
:102B5000F0E490004BF09001EE7403F0A37420F0C9
:102B60009001FEE0700FC39001EDE094F49001EC51
:102B7000E09401500A9001EC7401F0A374F4F02287
:102B8000D39001EDE094009001ECE094004003024A
:102B9000342A3000209001A4E07002A3E0600875A0
:102BA000121F751340800675121775137075081380
:102BB000750988800C7512007513C87508007509B1
:102BC00096900105E0FBA3E0FAA3E0F91214FDFFE3
:102BD000AEF0C39513EE9512500F90013FE0601ACE
:102BE000C3EF9509EE950840119001F4E07002A33F
:102BF000E0702E90013F04F080279000F1E0642007
:102C00009001F47005F0A3F08006E4F0A374C8F01E
:102C1000E490013FF09001F2F0A3F09000367410C0
:102C2000F090013FE0FF601D900024E064109000F0
:102C30003670057410F080037420F09001EE740378
:102C4000F0A37420F090004BEFF022C0E0C083C0EE
:102C500082C0D075D018D2AFE5DB30E424D209C2EF
:102C600006E5DB30E116123EADF583E0F5DFEF64FB
:102C700007706DD28A900007F00234E5C205023475
:102C8000E8E5DB30E52C9000F0E064AA7017758A67
:102C900010F5DAC2AFF5B2F5A8F5A9F58B758E017E
:102CA000758DC080FED204300604C206805AC20967
:102CB0008056C206E5DB30E129E5DB30E04A123E12
:102CC000ADF583E0F5DFEF24F9600824EE7011D252
:102CD0000A800DD28A9001807401F0900007E4F020
:102CE000802320050A7814A6DFD205D206801912A7
:102CF0003EADF583E5DFF0EF642470099001EE044A
:102D0000F0A374F4F078140675DBFFD0D0D082D035
:102D100083D0E032787FE4F6D8FD75812602353E17
:102D2000020000023716E493A3F8E493A34003F6ED
:102D30008001F208DFF48029E493A3F85407240CFF
:102D4000C8C333C4540F4420C8834004F4568001E0
:102D500046F6DFE4800B0102040810204080903D1D
:102D6000B6E47E019360BCA3FF543F30E509541FD5
:102D7000FEE493A360010ECF54C025E060A840B8E4
:102D8000E493A3FAE493A3F8E493A3C8C582C8CA62
:102D9000C583CAF0A3C8C582C8CAC583CADFE9DE35
:102DA000E780BE900139E0FBA3E0FAA3E0F912143A
:102DB000FD641045F07003123B04900001E064AA2A
:102DC0007003123A4B900013E0FF7E006410700213
:102DD000D203EF64204E7002C20312379620070818
:102DE00090001AE06410700E90001A7411F0C2077F
:102DF0009001EB7401F09000FBE06006E4F09001BC
:102E0000EBF090016DE07004A3E06401701090019C
:102E10006DF0A3F09001A6F0A3F09001EBF0300468
:102E20000CC2049001EE7401F0A374F4F02290013E
:102E30004C7412F0A3745CF0123C747E007F047D2D
:102E4000007B017A0179571217407F01123E33E46B
:102E5000FF123E33902E12E0FEA3E0C39405EE94E1
:102E600000400F902E12E0FEA3E0D394F0EE940306
:102E7000400BE490014CF0A3F0FF123E33902E2360
:102E8000E4F090001D7410F0902E12E0FEA3E0FF1D
:102E90007C007D0A12144A90014DE02FFF90014CF6
:102EA000E03EF990013CE0FBA3E0FAA3E0C98FF01B
:102EB0000215609001B1EFF0E4A3F09001B1E0FFE2
:102EC000A3E0C39F502E1222F5123E0D900167EE33
:102ED000F0A3EFF08E10F511C8740AC87400FCE47A
:102EE000FDFB7A00790CFE7F061214249001B2E0FB
:102EF00004F080C712314F900100EEF0A3EFF09084
:102F00000165E0FEA3E0FFC3900134E09FFF900164
:102F100033E09EFE123EB97C007D051214B1900193
:102F200031ECF0A3EDF0900165E0FFA3E0900133F8
:102F3000CFF0A3EFF02253A87F123DE2122C6312D0
:102F40003E7512080E43A880E4F58D9000F17420C0
:102F5000F01235839001EBE014601814601A1460CD
:102F60002D14603F240470E012360E9001EB7401C2
:102F7000F080D512325D8023123D88123815900002
:102F800025E0641070C29001EB7404F080BA12085E
:102F90002E9001EE7403F0A37420F09001EB740204
:102FA000F080A5123BEB900025E06410609A900140
:102FB000EB7401F080929001FFE0146021146043F3
:102FC000240270603003139001FF7401F0D202D22A
:102FD000009001FC04F0A37458F0C20180469001F7
:102FE000FCE07002A3E07002C2022003379001FFF0
:102FF0007402F0D201C202C2009001FCF0A3745826
:10300000F080219001FCE07002A3E070179001FFB6
:10301000200303F0800C7401F09001FC04F0A37411
:1030200058F0C20120010330020A900025E064102C
:103030006002D20722308A789001ECE07002A3E0AF
:10304000706E90016DE07002A3E07064F5B2758D52
:1030500020438D20758D9043A808D2AF758B40908A
:10306000012DE0FEA3E0FF4E6005758E0A8003751A
:103070008E2020042F20092CE5DB54047026758A4D
:1030800084200920E5DB5404701AF5867587030057
:103090000000758601EF4E60047F1480027F407E41
:1030A00000122A93758B01758A1053A8F7123E916E
:1030B00022758D20438D20538D7FE4F5B275B6FFC8
:1030C00075B7FF75B2A243B20153A8FB538B7F754E
:1030D0008B10438B08E58B20E7030080F8538B7F30
:1030E000758B11438B08E58B20E7030080F8900275
:1030F0001AE5B5F0A3E5B4F0758B01E4F5B2123E24
:1031000091E4F58D900217E0FBA3E0FAA3E0F91239
:1031100014FDFF90011DE0FBA3E0FAA3E0F9E5F048
:103120008FF00215607E007F1C7D007B017A0179A3
:10313000CF121740E4FDEDC3940274809480505781
:10314000ED75F005A424C5F582E4343EF583E493DF
:10315000FFED75F00EA424DAF582E43401F583EF77
:10316000F0ED75F00EA424DAF582E43401F583E085
:1031700004F87E007401088005C333CE33CED8F93D
:10318000FFED75F00EA424DBF582E43401F583EE47
:10319000F0A3EFF00D809F229001F0E07004A3E017
:1031A00064017016900180E07009D28A04F0E49006
:1031B0000007F0E49001F0F0A3F0900036E0FF90FB
:1031C00000FFE06F6042900036E0FD9000FFF0905D
:1031D0000007E0900200F0540FF0ED7E00642070D4
:1031E00005E04420800CEF64104E700B900200E06C
:1031F0004410F0900007F0C28AE4900180F0900142
:10320000F07403F0A374E8F022300A5E20005BC281
:103210000A902E12E0FFA3E09001A8CFF0A3EFF0F8
:10322000E4FF123E33902E12E0FEA3E0FF7C007D0F
:103230000A12144A90014DE02FFF90014CE03EFE2F
:1032400090013CE0FBA3E0FAA3E0F9EE8FF0121549
:10325000609001A8E0FFA3E0902E12CFF0A3EFF062
:103260009001EE7403F0A37420F0229001A874087A
:10327000F0A3E4F0A3743FF0A374DFF0E4FDFCF9E5
:10328000758A10538AEF009001A8E0FEA3E02DF5A7
:1032900082EE3CF583E493FF69F90DBD00010CBC9F
:1032A00037E5BDDFE29001AAE0FEA3E0F5828E8360
:1032B000E493FFE96F700790000104F08005E4904B
:1032C0000001F0758A10538AEF0022E4FEEEC394E9
:1032D00007748094805039EE75F003A42417F582AA
:1032E000E4342EF583E5822FF582E43583F583E41B
:1032F00093FDEE75F003A42416F582E4342EF583D5
:10330000E4932420F582E4342EF583EDF00E80BDA5
:10331000EF701090014CE07002A3E07006902E2137
:103320007412F022E49001A8F0A3F0758A10538A79
:10333000EF00122DE475EA81E4F5F6F5F475F30873
:10334000F5F275EB0700E5EC30E7FBAFF3EFFEAD10
:10335000F2EDFF900139E0FBA3E0FAA3E0F9EE8F74
:10336000F0121560E4F5EC75EB30758A10538AEFB6
:103370000022900108E0FBA3E0FAA3E0F974FF75D6
:10338000F0FB121528900198E02405F0900197E0D9
:103390003400F0900195E0FEA3E0FFC394DCEE94CE
:1033A00005501BEF9405EE9400400CE024FBF090D8
:1033B0000195E034FFF022E4900195F0A3F0229013
:1033C0000108E0FBA3E0FAA3E0F9E475F0051215AB
:1033D00028900196E02405F0900195E03400F090EB
:1033E0000197E0FEA3E0FFC3942CEE9401501BEF85
:1033F0009405EE9400400CE024FBF0900197E0343B
:10340000FFF022E4900197F0A3F022900025E06401
:1034100010703FF5B2758D20438D20538D7F53A8DA
:10342000F7F58BE5DB54047013200910F58AF58657
:10343000758703000000758601758A10758B0190F1
:1034400001FE7401F09001EE7403F0A37420F012F9
:103450003E91229001AAEFF07E007F10EEC0E0EFD7
:10346000C0E07D00E075F010A42401F9740235F08D
:10347000FA7B01D0E0FFD0E0FE1217409001AAE0F5
:10348000C454F0240FF582E43402F583740BF0A3E6
:1034900074B8F022E4FFEFC3940B74809480502B37
:1034A000EF25E02401F582E4342EF583E493FEEF6A
:1034B00025E02400F582E4342EF583E4932420F5FE
:1034C00082E4342EF583EEF00F80CB902F56E090FF
:1034D0002E2BF0229001B07401F09001B0E0C39463
:1034E000037480948050217F01123693122E2B900A
:1034F0000102E0FBA3E0FAA3E0F9EE8FF012156001
:103500009001B0E004F080D2E49001F4F0A3F02246
:10351000900158E02430FF900157E034F8FEC3904A
:103520000166E09F900165E09E501490016DE0708F
:1035300002A3E0701190016D04F0A374F4F022E492
:1035400090016DF0A3F022EF903ED793903ECF9381
:10355000FE540FFDF87401088002C333D8FCFDEE61
:1035600054F06008EDF4529152938009ED42ABEDB6
:10357000F4528952965389FD22EF903ED793903EA4
:10358000CF93FE540FFDF87401088002C333D8FCBA
:10359000FDEE54F06008ED4291ED42888006ED4268
:1035A00089ED4280438902227F01123693122E2B2D
:1035B000900102E0FBA3E0FAA3E0F9EE8FF0121510
:1035C00060121B4B12176C12336012263F123978AF
:1035D000123CF00239E9C109C10A4102000041016F
:1035E000FF00C103C101C100C102C105011400C136
:1035F00004C106C108C1074100FF104302170102C0
:103600001A00758A10538AEFE4F586758F04F5ABBE
:10361000F5AC43AC0C7580FF7588FF7589FF75911B
:1036200004F595F592D28A90018004F0229001650C
:10363000E0FEA3E0FF900163EEF0A3EFF0E4FCFDF9
:103640009001BF1216D6900167E0FCA3E0FD7F0158
:10365000021F299001AAEFF0123D279001AAE0FF76
:10366000123AAB9001AAE0903ED793FF122FD89068
:1036700001AAE0FF023D597E007F047D007B017AB4
:1036800001795B1217407E007F047D007B017A0187
:10369000795F021740E4F5DA75DA4043DA2075D72E
:1036A0004075D64075DA5843A80275B80475F80419
:1036B00022E5B254016006E5A85410700F75B2926D
:1036C00075B6F9E4F5B743B20143A810227814E6C1
:1036D000FF2400F582E4340022EE30E707C3E49FC4
:1036E000FFE49EFE2204001E0014050028001E02B6
:1036F0000304101115000101070000000000000084
:1037000000000000000000000000000000000000B9
:1037100000000000000000000000000000000000A9
:103720000000000000000000000000000000000099
:103730000000000000000000000000000000000089
:103740000000000000000000000000000000000079
:103750000000000000000000000000000000000069
:103760000000000000000000000000000000000059
:103770000000000000000000000000000000000049
:103780000000000000000000000000000000000039
:103790000000000000000000000000000000000029
:1037A0000000000000000000000000000000000019
:1037B0000000000000000000000000000000000009
:1037C00000000000000000000000000000000000F9
:1037D00000000000000000000000000000000000E9
:1037E00000000000000000000000000000000000D9
:1037F000000000000000000000000000000000AB1E
:1038000000000000000000000000000000000000B8
:1038100000000000000000000000000000000000A8
:00000001FF
